:03000000023CF6C9
:103CF60078FFE4F6D8FD9000007F007E03E4F0A391
:0A3D0600DFFCDEFA758121023D4B5F
:104FCD00124C1D124C881252DF12470A124BE4127A
:0B4FDD0040E11252CA783274FFF22249
:105138003006FD12000EC2AF124C1DD2AFE4781932
:08514800F2782AF2780BF22242
:105209003006FD12000EC2AF124B31D2AFE478194D
:02521900F2227F
:10066F0078B17401F2124FCD7F1412523E783B7461
:10067F0002F23006FDC2067824E2FE08E2FF7C009B
:10068F007D0A1203FCED4C702E7819E2FF600964AD
:10069F00026024EF6403601F783BE27014740AF267
:1006AF00125321EF600312500312532F5003124FB6
:1006BF00B11242D61233FB12530F78B0EFF2600F24
:1006CF00E2C3941050047F1480027F2812523E78A8
:1006DF00B0E224FE700302086C24FE70030208715E
:1006EF0024F4700302092E240F6003020995784148
:1006FF00E2640570227819E2701D740FF2782AE215
:10070F00FF700404F28010EFD39400400AEF9407B7
:10071F005005782AE204F27819E214B4110040036C
:10072F0002099590074075F003A4C58325F0C58392
:10073F00730207730207F00207FB02080D02086637
:10074F0002086602086602086302086602082702AA
:10075F000866020866020847020866020995020940
:10076F00950208667817E2FF24FEB40F00400302DB
:10077F00099590078F75F003A4C58325F0C5837382
:10078F000207BC0207C80207CE0207EA0207EA0205
:10079F0007EA0207EA0207EA0207EA0207EA020784
:1007AF00EA0207E40207D40209950207DE783274E1
:1007BF0002F27819EFF2020995783274068003E499
:1007CF00785EF28016E47819F2782AF2020995120F
:1007DF003D900209957853E27818F27817E20209F2
:1007EF007E7832E27012124E4E0209897832E2B4EC
:1007FF000406124DF9020989124E75020995785EA9
:10080F00E2FF70057854E26004EFB40905124B6EF5
:10081F0080451251E302099578197410F2782BE292
:10082F00FF781DE4F208EFF2E47826F208F2782060
:10083F00F208743BF20209957818E260057853E2EA
:10084F007010E4780BF27810F208F274FF780CF263
:10085F0008F280031251BC12520902099278B17446
:10086F0001F278B0E2B404040874FFF27819E2B42C
:10087F000E00400302099590088DF828287302088E
:10088F00B70208B90208C30208C30208CD0208D78D
:10089F000208EB0208FF02090902091302092502E7
:1008AF0008E10208F502091C804678B1E2FF1251F7
:1008BF00A802099578B1E2FF123EB802099578B106
:1008CF00E2FF123F4602099578B1E2FF12506C0227
:1008DF00099578B1E2FF12501E02099578B1E2FF37
:1008EF0012503802099578B1E2FF12505202099561
:1008FF0078B1E2FF124F0E02099578B1E2FF125064
:10090F008602099578B1E2FF1250A0807978B1E2A2
:10091F00FF1250BA807078B1E2FF1251D080677821
:10092F0019E2B41300505F90093DF82828730209AB
:10093F007602097D02098902098902098302098663
:10094F0002098602098602098602098602098B02BC
:10095F00098602098602098602098602099502099B
:10096F008B02099502098678197401F28018E478D0
:10097F0019F28012124BE41251388007E4781CF2FE
:10098F001251381252987819E2B413004003020A38
:10099F00519009A7F82828730209E00209EA020911
:1009AF00EF0209F40209F90209FE020A07020A0F0F
:1009BF00020A18020A1D020A27020A03020A0B0280
:1009CF000A22020A4D020A4D020A2F020A450209A3
:1009DF00E5124759806C1251678067123C4A80625A
:1009EF00123814805D12392680581220BD805312A0
:1009FF004D1B804E7843800A7841800678428002F2
:100A0F007845E2FF123FD28039122BEE803412521A
:100A1F004E802F124D48802A781CE2FFE4FD80198A
:100A2F00781CE2D3648094804005123D9080137847
:100A3F00197401F2800CE4FDFF1247A78004E478DB
:100A4F0019F27829E22401F218E23400F27825E253
:100A5F002401F218E23400F27823E22401F218E2C2
:100A6F003400F2D37829E2947718E294004004E43A
:100A7F00F208F230072C782AE2B408267824E2FE36
:100A8F0008E2FF7C007D051203FCED4C7014C37867
:100A9F000EE264809480400A08E22401F218E234E6
:100AAF0000F2D37825E2943B18E294004077E4F209
:100ABF0008F27813E22401F218E23400F2782AE205
:100ACF00B409005060900ADBF8282873020AF60276
:100ADF000B06020B0A020B0E020B12020B16020B75
:100AEF001A020B1E020B247841E2B40506E47812B9
:100AFF00F208F27F3C801A7F0280167F0280127FFD
:100B0F0002800E7F05800A7F0280067F0280027FAF
:100B1F00057E00800DC3780EE2648094805006E459
:100B2F00FFFE12448B2007030206817853E2700305
:100B3F000206817841E26405600302068130072CCA
:100B4F00780BE2B401267822E2FE08E2FF7C007DFA
:100B5F00051203FCED4C7014C3780CE26480948092
:100B6F00400A08E22401F218E23400F2D37823E2BB
:100B7F00943B18E294005003020681E4F208F278E5
:100B8F0011E22401F218E23400F2780BE214601043
:100B9F000460030206817F107E0E124888020681D0
:100BAF00C3780CE2648094804003020681E4FFFE68
:060BBF00124888020681C5
:1026A100007F7F40407F7F007F7F08087F7F00039E
:1026B1001F227E7F0300007F7F49497F3600404013
:1026C1007F7F4040007F7F4848783000003E7F4157
:1026D100416322007F7F4848783000031F227E7FBC
:1026E100030000707808087F7F0040407F7F4040F2
:1026F100007F7F49497F3600007F7F40407F7F0018
:1027010040407F7F4040007F7F08087F7F00003E80
:102711007F414163220060731B0F7C70007F7F4902
:10272100494F4600007F7F49497F36003E7F414146
:102731006322007F7F0814636300007C7C40407C3F
:102741007C007C7C10107C7C000C3C48787C0C006C
:10275100007C7C54547C280040407C7C4040007CC0
:102761007C505070200000387C44446C28007C7CF4
:1027710050507020000C3C48787C0C0000607010B8
:10278100107C7C0040407C7C4040007C7C54547C2C
:102791002800007C7C40407C7C0040407C7C4040A8
:1027A100007C7C10107C7C0000387C44446C280048
:1027B10064741C187060007C7C54545C4800007C7C
:1027C1007C54547C2800387C44446C28007C7C1068
:1027D100386C440000607F7F60006F6F007F3F10A6
:1027E1001F103F7F007F7F4949007F7F63361C00B8
:1027F1001F3F6C6C3F1F00607F7F60007F7F4949F6
:102801003F7F4C7F3F007F7F0303003F7F4C7F3F33
:10281100007F7F6C6C370000003E41417149493EA9
:10282100000000063A433A06000000007F7F686816
:10283100003E7F417F3E007F3F180C7E7F00607F1E
:102841007F607F7F41633E1C006F6F00327B496F69
:1028510026007F7F446C38007F3F101F103F7F00B0
:102861006F6F007F7F63361C007F7F6C6C387F7FCA
:10287100497F36007F7F6C6C37006F6F003E7F4170
:102881004D2E0000003E41417149493E00000000CB
:1028910000000011117D1111000000000000007FF7
:1028A1007F417F7F007F7F381C7F7F000000000019
:1028B1000000007F7F417F7F007F7F6C6C007F7F06
:1028C1006C6C00000000607F7F6000730B7E7C00F9
:1028D1007F7F4C380036007F7F49497F36007F7FFC
:1028E1004C4E7B3100360000705070003E7F6341DA
:1028F100410000000011117D1111000000607F7F77
:1029010060006F6F007F3F101F103F7F007F7F6C63
:102911006C377F413E00324926002249360023456B
:10292100390022493600207F007F7F4949006377C3
:102931001C1C7763006F6F0060607F7F6060327B7B
:10294100496F2600607F7F60007F7F6C6C37003E9F
:102951007F414D2E000012345555555555543210B6
:10442500810A00820EFFFF820CFFFF8119008117B0
:10443500028212000082100000812A00810B008197
:0A4445001C00810000810100C18409
:104C8800E4F59375943FF5917592FFF5957596FF48
:104C9800F5B175B27F7845E2781FF2C206A2C792D5
:104CA800051246C678147401F2087400F20874E517
:024CB800F222E6
:0D000E0053B0807590FF75A0FF43803F2226
:1036D0007801E2FEC394055011781FE2FDEEB505B6
:1036E0000312000E7801E204F222E47801F21200E3
:1036F0000E20050A18E2FEC374159EFF80047800B0
:10370000E2FFEFB4160040030237AA903712F82800
:10371000287302375402375802375C023760023789
:103720006402376802376C023770023774023778E8
:1037300002377C02378002378402378802378C02D6
:10374000379002379402379802379C0237A002372D
:10375000A40237A8C2908052C291804EC292804A81
:10376000C2938046C2948042C295803EC296803AFF
:10377000C2978036C2A08032C2A1802EC2A2802A07
:10378000C2A38026C2A48022C2A5801EC2A6801A1F
:10379000C2A78016C2808012C281800EC282800AB7
:1037A000C2838006C2848002C28520050CC37415C2
:1037B0009F2408F8E6F5B0804474082FF8E6FEC4AC
:1037C0005402FDEEC4131354014DFE74082FF8E6A5
:1037D000FD131354044EFEED54084EFE74082FF8EA
:1037E000E6FD25E025E054104EFEEDC454204EFECB
:1037F00074082FF8E6C4333354404EF5B07800E235
:1038000004F2E2D39415400BE4F2A2C7920520061D
:0338100002D206DB
:013813002292
:0D529800E47819F27812F208F2782AF22276
:1042D6001243BA782BE27068300467C2047854E25D
:1042E600603908E2FF782DE26F70307856E2FF7889
:1042F6002CE2B50726782EE27E007BFE2456F9EEE8
:104306003400FA12037B603A7844E2FF7C007D3C7D
:104316001203EA7837EEF208EFF2227855E2FF331D
:1043260095E0FE782DE2D39FEE6480F87480984085
:1043360011782CE2700C7840E260077F2802523E2A
:02434600D2049F
:014348002252
:0C46BA007814E4F2087400F2087408F2AE
:1046C6007843E224FE601514601C14602314602AEB
:1046D6008000781A740CF2087429F222781A740C85
:1046E600F2087451F222781A740CF2087479F222E4
:1046F600781A740CF20874A1F222781A740CF20873
:0447060074C9F2225E
:10495D0078B27429F2087413F2E4FFEFC394165081
:10496D003478B2E2FC08E2F5828C83E493FE78148D
:10497D00E2FB08E2FA08E2F9EE1203B60F78B3E2B1
:10498D002401F218E23400F27816E22401F218E262
:05499D003400F280C6A9
:0149A20022F2
:104551007828E2FC08E2FDC3941EEC94005004E4C8
:10456100FF800FC3ED945AEC940050047F03800246
:10457100E4FFE4FEEEC39404503675F004EFA42E7C
:10458100F582E435F0F583E58224C5F582E58334CF
:104591000BF583E493FD7814E2FB08E2FA08E2F9F3
:1045A100ED1203B60EE22401F218E23400F280C4E7
:0145B10022E7
:10308D007842E224FE603E146062147003023158EF
:10309D001470030231A71470030231E58000782803
:1030AD00E2FC08E2FDC3941EEC94005005E4FF021F
:1030BD003221C3ED945AEC940050057F0302322166
:1030CD00E4FF0232217828E2FC08E2FDC3941EECF5
:1030DD00940050057F02023221C3ED945AEC940006
:1030ED0050057F030232217F020232217828E2FC53
:1030FD0008E2FDC3940AEC94005005E4FF0232216E
:10310D00C3ED941AEC940050057F01023221C3EDFA
:10311D00942CEC940050057F02023221C3ED944EA5
:10312D00EC940050057F03023221C3ED9460EC94C2
:10313D000050057F02023221C3ED9470EC940050D3
:10314D00057F01023221E4FF0232217828E2FC08DA
:10315D00E2FDC3940CEC94005005E4FF023221C350
:10316D00ED9424EC940050057F03023221C3ED94BD
:10317D003CEC940050057F04023221C3ED9454ECD5
:10318D00940050057F05023221C3ED946CEC940040
:10319D0050047F06807EE4FF807A7828E2FC08E206
:1031AD00FDC3940EEC94005004E4FF8067C3ED94CE
:1031BD002CEC940050047F07805AC3ED944AEC9494
:1031CD000050047F03804DC3ED9468EC94005004CF
:1031DD007F088040E4FF803C7828E2FC08E2FDC3D4
:1031ED00940EEC94005004E4FF8029C3ED942CEC74
:1031FD00940050047F01801CC3ED944AEC94005060
:10320D00047F02800FC3ED9468EC940050047F019D
:10321D008002E4FFE4FEEEC39404503675F004EF33
:10322D00A42EF582E435F0F583E58224C5F582E51B
:10323D0083340BF583E493FD7814E2FB08E2FA087E
:10324D00E2F9ED1203B60EE22401F218E23400F2B7
:02325D0080C42B
:01325F00224C
:10357600E41203B6E22401F218E23400F218E2FB88
:1035860008E2FA08E2F9E41203B6E22401F218E2CC
:093596003400F2E4FBFD7F14FE99
:0D359F0078B6EEF208EFF208EDF208EBF25C
:1035AC00E408F278BAE2FBC3940440030236407894
:1035BC00B8E2705F08E2601778B6E2FE08E2FF7CC2
:1035CC00007D0A1203FCD3EF9400EE940040447883
:1035DC00B6E2FE08E2FF7C007D0A1203FCEF7802E3
:1035EC00C333CE33CED8F9FFEB7C002FFFEC3EFE7D
:1035FC00781BE22FFF18E23EFE78BBF208EFF2F5E3
:10360C00828E83E493FF7814E2FB08E2FA08E2F975
:10361C00EF800B7814E2FB08E2FA08E2F9E41203FB
:10362C00B678BAE204F27816E22401F218E2340019
:10363C00F20235AF7814E2FB08E2FA08E2F9E41280
:10364C0003B6E22401F218E23400F2E478BAF2781C
:10365C00BAE2FBC39404506B78B8E2704678B6E2D9
:10366C00FE08E2FF7C007D0A1203FCEDAE0478023A
:10367C00C333CE33CED8F9FFEB7C002FFFEC3EFEEC
:10368C00781BE22FFF18E23EFE78BBF208EFF2F552
:10369C00828E83E493FF7814E2FB08E2FA08E2F9E5
:1036AC00EF800B7814E2FB08E2FA08E2F9E412036B
:1036BC00B678BAE204F27816E22401F218E2340089
:0336CC00F2808CFD
:0136CF0022D8
:104D7500782DE2FDD39418500618E2943C400302C6
:104D8500495DEDFF7E00E4FBFD12359F12308D7805
:0C4D95002CE2FF7E00E4FBFD12359F22A3
:1049E8007B007A0079087814EBF208EAF208E9F219
:1049F8001235767814E2FB08E2FA08E2F9E41203C9
:104A0800B6E22401F218E23400F27831E2FF7E00C7
:104A1800E4FBFD12359F7814E2FB08E2FA08E2F99C
:044A2800E40203B6EB
:104669007830E2D3940C500718E2FD9420400302FD
:10467900495DEDFF7E00E4FBFD12359FE4FFEFC3CA
:1046890094045020EF900BC993FE7814E2FB08E2E2
:10469900FA08E2F9EE1203B60FE22401F218E23445
:1046A90000F280DA7830E2FF7E00E4FBFD12359FEC
:0146B90022DE
:103AD900782EE214B407005070903AF075F003A400
:103AE900C58325F0C58373023B05023B10023B1BCE
:103AF900023B26023B31023B3C023B4778B274262B
:103B0900F20874A1F2804B78B27426F20874B7F205
:103B1900804078B27426F20874CDF2803578B27498
:103B290026F20874E3F2802A78B27426F20874F94E
:103B3900F2801F78B27427F208740FF2801478B2F9
:103B49007427F2087425F2800978B27429F208748E
:103B590013F2E4FFEFC39416503478B2E2FC08E2A2
:103B6900F5828C83E493FE7814E2FB08E2FA08E21A
:103B7900F9EE1203B60F78B3E22401F218E2340029
:0E3B8900F27816E22401F218E23400F280C64F
:013B9700220B
:104FE800782CE2FF7E00E4FBFD12359F12455178D4
:0B4FF8002BE2FF7E00E4FBFD02359F72
:10194000E478B5F208F212532F500F1252F87C00CF
:101950007D0A1203EA78B5EE8021125321EF600F61
:101960001200037C007D0A1203EA78B5EE800C7841
:1019700033E275F064A4FF78B5E5F0F208EFF27891
:1019800050E2FF3395E0FE78B6E22FF218E23EF225
:10199000E418F278B4E2FFC39405500D74022FF8F6
:1019A000E4F278B4E204F280EA78B47404F2D37812
:1019B000B6E2940018E264809480500618E2940025
:1019C000403278B5E2FA08E2FB7C007D0AFFAE0205
:1019D00012045178B4E22402F8EDF278B4E214F281
:1019E0007C007D0AAF03AE0212045178B5EEF20816
:1019F000EFF280BA7802E26003021B6678B4F278F4
:101A0000B4E2FDC3940450457803E275F004A47C6D
:101A1000002DFFEC35F0FE781BE22FFF18E23EFEB2
:101A200078B2F208EFF2F5828E83E493FF7814E245
:101A3000FB08E2FA08E2F9EF1203B678B4E204F226
:101A40007816E22401F218E23400F280B27814E24F
:101A5000FB08E2FA08E2F9E41203B6E22401F21804
:101A6000E23400F2E478B4F278B4E2FDC3940450B6
:101A7000457804E275F004A47C002DFFEC35F0FEFF
:101A8000781BE22FFF18E23EFE78B2F208EFF2F583
:101A9000828E83E493FF7814E2FB08E2FA08E2F90D
:101AA000EF1203B678B4E204F27816E22401F218D9
:101AB000E23400F280B27814E2FB08E2FA08E2F9BC
:101AC000E41203B6E22401F218E23400F218E2FB59
:101AD00008E2FA08E2F974031203B6E22401F218EC
:101AE000E23400F218E2FB08E2FA08E2F9740312A9
:101AF00003B6E22401F218E23400F218E2FB08E235
:101B0000FA08E2F9E41203B6E22401F218E2340022
:101B1000F2E478B4F278B4E2FDC394044003021C0A
:101B2000B87805E275F004A47C002DFFEC35F0FEDA
:101B3000781BE22FFF18E23EFE78B2F208EFF2F5D2
:101B4000828E83E493FF7814E2FB08E2FA08E2F95C
:101B5000EF1203B678B4E204F27816E22401F21828
:101B6000E23400F280AF7814E2FB08E2FA08E2F90E
:101B7000E41203B6E22401F218E23400F2E478B48D
:101B8000F278B4E2FDC3940450457802E275F004A3
:101B9000A47C002DFFEC35F0FE781BE22FFF18E24D
:101BA0003EFE78B2F208EFF2F5828E83E493FF787E
:101BB00014E2FB08E2FA08E2F9EF1203B678B4E2A5
:101BC00004F27816E22401F218E23400F280B278CE
:101BD00014E2FB08E2FA08E2F9E41203B6E2240197
:101BE000F218E23400F2E478B4F278B4E2FDC3947F
:101BF0000450457803E275F004A47C002DFFEC3519
:101C0000F0FE781BE22FFF18E23EFE78B2F208EFFA
:101C1000F2F5828E83E493FF7814E2FB08E2FA087F
:101C2000E2F9EF1203B678B4E204F27816E2240186
:101C3000F218E23400F280B27814E2FB08E2FA080B
:101C4000E2F9E41203B6E22401F218E23400F2E40D
:101C500078B4F278B4E2FDC3940450457804E27598
:101C6000F004A47C002DFFEC35F0FE781BE22FFF82
:101C700018E23EFE78B2F208EFF2F5828E83E4932A
:101C8000FF7814E2FB08E2FA08E2F9EF1203B678F3
:101C9000B4E204F27816E22401F218E23400F28091
:101CA000B27814E2FB08E2FA08E2F9E41203B6E2C1
:101CB0002401F218E23400F27814E2FB08E2FA0898
:101CC000E2F9E41203B6E22401F218E23400F21859
:101CD000E2FB08E2FA08E2F9743E1203B6E22401DC
:101CE000F218E23400F218E2FB08E2FA08E2F974B2
:101CF000411203B6E22401F218E23400F218E2FBCA
:101D000008E2FA08E2F974411203B6E22401F2187B
:101D1000E23400F218E2FB08E2FA08E2F974411238
:101D200003B6E22401F218E23400F218E2FB08E202
:101D3000FA08E2F974221203B6E22401F218E2343E
:021D400000F2AF
:011D4200227E
:102E5B00E478B3F208F20812061F000000001252C9
:102E6B00E8AC06AD07EC1202C178B5120613E4FB11
:102E7B00FA79207841C00078B5E2FC08E2FD08E25F
:102E8B00FE08E2FFD00012021F7B5C7A8F7902787A
:102E9B003F12002578B512061378B5E2FC08E2FD67
:102EAB0008E2FE08E2FF1202FA78B3EEF208EFF244
:102EBB007814E2FB08E2FA08E2F9E41203B6E22422
:102ECB0001F218E23400F218E2FB08E2FA08E2F928
:102EDB00E41203B6E22401F218E23400F2E478B211
:102EEB00F278B2E2FFC3648094855055EFFB3395C3
:102EFB00E0FA08E2FE08E2FF7C007D641204518FC9
:102F0B00828E837405120638E5822BF582E5833AAF
:102F1B00F583E58224E9F582E583340BF583E493AD
:102F2B00FF7814E2FB08E2FA08E2F9EF1203B67835
:102F3B00B2E204F27816E22401F218E23400F280D5
:102F4B00A07814E2FB08E2FA08E2F9E41203B6E215
:102F5B002401F218E23400F2E478B2F278B2E2FF24
:102F6B00C364809485505CEFFB3395E0FA08E2FE76
:102F7B0008E2FF7C007D0A1204517C007D0A1204DA
:102F8B00518D828C837405120638E5822BF582E510
:102F9B00833AF583E58224E9F582E583340BF583E7
:102FAB00E493FF7814E2FB08E2FA08E2F9EF12036C
:102FBB00B678B2E204F27816E22401F218E2340099
:102FCB00F280997814E2FB08E2FA08E2F9E41203C2
:102FDB00B6E22401F218E23400F2E478B2F278B2ED
:102FEB00E2FFC3648094855055EFFB3395E0FA08FC
:102FFB00E2FE08E2FF7C007D0A1204518D828C8375
:10300B007405120638E5822BF582E5833AF583E5E4
:10301B008224E9F582E583340BF583E493FF78147E
:10302B00E2FB08E2FA08E2F9EF1203B678B2E20427
:10303B00F27816E22401F218E23400F280A0781440
:10304B00E2FB08E2FA08E2F9E41203B6E22401F229
:10305B0018E23400F218E2FB08E2FA08E2F9E41293
:10306B0003B6E22401F218E23400F218E2FB08E2A4
:10307B00FA08E2F9E41203B6E22401F218E2340092
:01308B00F252
:01308C002221
:10296100E478B3F208F20812061F000000001253C7
:102971002F50051253008009125321BF600A1252D1
:10298100F078B3EEF208EFF278B3E2FC08E2FDE48E
:102991001202C178B5120613E4FBFA79C87842C075
:1029A1000078B5E2FC08E2FD08E2FE08E2FFD00093
:1029B10012021F7B5C7A8F7902783F12002578B56D
:1029C10012061378B5E2FC08E2FD08E2FE08E2FF18
:1029D1001202FA78B3EEF208EFF27814E2FB08E2A1
:1029E100FA08E2F9E41203B6E22401F218E2340033
:1029F100F218E2FB08E2FA08E2F9E41203B6E22473
:102A010001F218E23400F2D3EF9409EE940040672A
:102A1100E478B2F278B2E2FFC364809485400302A5
:102A21002AA6EFFB3395E0FA08E2FE08E2FF7C00FC
:102A31007D0A1203FC8F828E837405120638E582AB
:102A41002BF582E5833AF583E58224E9F582E58376
:102A5100340BF583E493FF7814E2FB08E2FA08E211
:102A6100F9EF1203B678B2E204F27816E22401F229
:102A710018E23400F2809DE478B2F278B2E2C364E5
:102A810080948550207814E2FB08E2FA08E2F9E428
:102A91001203B678B2E204F27816E22401F218E2E7
:102AA1003400F280D67814E2FB08E2FA08E2F9E495
:102AB1001203B6E22401F218E23400F2E478B2F231
:102AC10078B2E2FFC3648094855055EFFB3395E003
:102AD100FA08E2FE08E2FF7C007D0A1203FC8D8207
:102AE1008C837405120638E5822BF582E5833AF56D
:102AF10083E58224E9F582E583340BF583E493FFD2
:102B01007814E2FB08E2FA08E2F9EF1203B678B2B0
:102B1100E204F27816E22401F218E23400F280A015
:102B21007814E2FB08E2FA08E2F9E41203B6E224BF
:102B310001F218E23400F218E2FB08E2FA08E2F9C5
:102B4100E41203B6E22401F218E23400F218E2FBC7
:102B510008E2FA08E2F974621203B6E22401F218FB
:102B6100E23400F218E2FB08E2FA08E2F9746412B6
:102B710003B6E22401F218E23400F218E2FB08E2A3
:102B8100FA08E2F974081203B6E22401F218E234F9
:102B910000F218E2FB08E2FA08E2F974131203B634
:102BA100E22401F218E23400F218E2FB08E2FA082A
:102BB100E2F974231203B6E22401F218E23400F2BE
:102BC10018E2FB08E2FA08E2F9E41203B6E2240192
:102BD100F218E23400F218E2FB08E2FA08E2F9E442
:0C2BE1001203B6E22401F218E23400F204
:012BED0022C5
:104CEC00782DE2FFC3941850257845E26406701EB7
:104CFC00EF782D30E009E2C313902955938008E238
:0F4D0C00C31390295593C4540FFF781FEFF22261
:105167001246BA124CEC780BE21460030480030277
:065177004165124D752296
:104759001246BA124CEC782AE2B40900503C904750
:104769006EF828287302478902478B02478E024751
:104779009102479402479702479A02479D0247A030
:1047890080180249E8024669023AD9024FE802193B
:0E47990040022E5B0229610241E5124D75229D
:104C5500ED12039412037BFF78B7E2D36480F8EF7B
:104C6500648098400678B6E21203B612037BFF789B
:104C7500B6E2C36480F8EF648098500678B7E21214
:034C850003B62251
:1051A8007BFE7A007917AD0778B67402F208740EA0
:0451B800F2024C555E
:103C4A007817E224FEB40D004003023CD8903C658C
:103C5A0075F003A4C58325F0C58373023C8C023C2E
:103C6A0092023C98023C9E023CAA023CB6023CBC30
:103C7A00023CC2023CCE023CA4023CB0023CC80256
:103C8A003CD47E277FD580467E277FEB80407E28E6
:103C9A007F01803A7E287F1780347E287F2D802EF0
:103CAA007E287F4380287E287F5980227E287F6F46
:103CBA00801C7E287F8580167E287FE780107E29DB
:103CCA007F3F800A7E287FFD80047E297F29E4FDCC
:103CDA00EDC3941650158F828E83E493FC74082DDD
:0B3CEA00F8A6040D0FBF00010E80E5DE
:013CF50022AC
:103814001246BA7824E2FE08E2FFC3940FEE940045
:103824005004C200800FC3EF942DEE94005004D2D4
:10383400008002C2007832E2707878B2F278B2E2A4
:10384400C3940950207814E2FB08E2FA08E2F9E490
:103854001203B678B2E204F27816E22401F218E216
:103864003400F280D8E478B2F278B2E2FFC3940470
:103874005026EF900BD193FF7814E2FB08E2FA088C
:10388400E2F9EF1203B678B2E204F27816E2240108
:10389400F218E23400F280D1782BE2FF7E00783215
:1038A400E2FD700A300003ED60047D01806E7D004E
:1038B400806A782DE2FF7E007832E2B4020B300099
:1038C40004640260047D0180027D00E4FB12359FE4
:1038D400E478B2F278B2E2FFC394045026EF900B7E
:1038E400D193FF7814E2FB08E2FA08E2F9EF12033D
:1038F400B678B2E204F27816E22401F218E2340057
:10390400F280D1782CE2FF7E007832E2B4010B30F1
:103914000004640160047D0180027D00E4FB123533
:013924009F03
:01392500227F
:103926001246BA7824E2FE08E2FFC3940FEE940032
:103936005004C200800FC3EF942DEE94005004D2C1
:10394600008002C2007832E2640670597814E2FB05
:1039560008E2FA08E2F91235767814E2FB08E2FA90
:1039660008E2F9E41203B6E22401F218E23400F2A6
:103976007831E2FF7E0008E2B4060B3000046406EC
:1039860060047D0180027D00E4FB12359F7814E21D
:10399600FB08E2FA08E2F9E41203B6E22401F2189F
:1039A600E23400F222782FE2FF7E007832E2B4049D
:1039B6000B300004640460047D0180027D007B01FD
:1039C60012359FE4FFEFC394045020EF900BC99388
:1039D600FE7814E2FB08E2FA08E2F9EE1203B60FEB
:1039E600E22401F218E23400F280DA7830E2FF7E57
:1039F600007832E2B4050B300004640560047D01F2
:093A060080027D00E4FB12359FF3
:013A0F002294
:1020BD001246BA785EE2FF704C7854E278B460094B
:1020CD007428F208749BF280077428F20874B1F238
:1020DD00E478B2F278B2E2FEC3941640030223D73D
:1020ED0078B4E2FC08E2F5828C83E493FD74082E4B
:1020FD00F8A60578B2E204F278B5E22401F218E20E
:10210D003400F280CFEF6401600A785EE264026011
:10211D00030221B67824E2FE08E2FFC3940FEE9489
:10212D00005004C200800FC3EF942DEE94005004B4
:10213D00D2008002C2007855E2FF3395E0FE785E52
:10214D00E2B4010B300004640160047D0180027D66
:10215D0000E4FB12359FE478B2F278B2E2FFC3944B
:10216D00045026EF900BD193FF7814E2FB08E2FAAE
:10217D0008E2F9EF1203B678B2E204F27816E2241F
:10218D0001F218E23400F280D17856E2FF3395E087
:10219D00FE785EE2B4020B300004640260047D013F
:1021AD0080027D00E4FB02359F7824E2FE08E2FF09
:1021BD00C3941BEE94005004C200800FC3EF942112
:1021CD00EE94005004D2008002C200785EE224FD3D
:1021DD00B40700506E9021F075F003A4C58325F06F
:1021ED00C5837302220502221002221B022226023F
:1021FD00223102223C02224778B47427F208743B44
:10220D00F2804078B47427F2087451F2803578B4B6
:10221D007427F2087467F2802A78B47427F2087470
:10222D007DF2801F78B47427F2087493F2801478CD
:10223D00B47427F20874A9F2800978B47427F208EF
:10224D0074BFF2E478B2F278B2E2FFC394164003A1
:10225D000223D7E408F2EF120649229501229502D6
:10226D0022C20422C20522EF0722EF08231C0A23F3
:10227D001C0B233F0D233F0E236210236211238578
:10228D0013238514000023A9785EE2FF6403600523
:10229D007857E2704AEF640360030223A97857E28E
:1022AD00FF6003300039EF60030223A92000030211
:1022BD0023A90223A4785EE2FF640460057858E246
:1022CD00701DEF640460030223A97858E2FF6003D8
:1022DD0030000CEF60030223A92000030223A902A2
:1022ED0023A4785EE2FF640560057859E2701DEF66
:1022FD00640560030223A97859E2FF600330000CE6
:10230D00EF60030223A92000030223A90223A4786E
:10231D005EE2FF64066005785AE27014EF640670A1
:10232D007B785AE2FF6003300006EF706F30006C6F
:10233D008065785EE2FF64076005785BE27014EFFC
:10234D0064077058785BE2FF6003300006EF704C55
:10235D003000498042785EE2FF64086005785CE2F7
:10236D007014EF64087035785CE2FF60033000068E
:10237D00EF7029300026801F785EE2FF640960044B
:10238D0018E27013EFB40914785DE2FF60033000BA
:10239D0006EF700830000578B37401F278B4E2FEF0
:1023AD0008E2F5828E83E493FF78B3E2FEEF4EFFF1
:1023BD0018E22408F8A60778B2E204F278B5E22410
:0A23CD0001F218E23400F20222547B
:0123D70022E3
:103FD2007814E4F2087400F2087408F2E4FEEEC306
:103FE20094105020EE9028C793FD7814E2FB08E26B
:103FF200FA08E2F9ED1203B60EE22401F218E234F5
:1040020000F280DA7814E2FB08E2FA08E2F9E4123C
:1040120003B6E22401F218E23400F2E4FEEEC394A5
:1040220005503675F005EFA42EF582E435F0F583E0
:10403200E58224E9F582E583340BF583E493FD7888
:1040420014E2FB08E2FA08E2F9ED1203B60EE224EA
:0940520001F218E23400F280C40E
:01405B002242
:10501E007BFE7A007943AD07904B0BE49378B6F2A2
:0A502E00904B20E49308F2024C5569
:105038007BFE7A007941AD07904B09E49378B6F28C
:0A504800904B1EE49308F2024C5551
:105052007BFE7A007942AD07904B0AE49378B6F270
:0A506200904B1FE49308F2024C5536
:104F0E007BFE7A007945AD07904B0DE49378B6F2AF
:104F1E00904B22E49308F2124C557845E2781FF23A
:034F2E00024CEC46
:10506C007BFE7A007940AD07904B08E49378B6F25A
:0A507C00904B1DE49308F2024C551E
:104D1B007840E260067E287F9B80047E287FB1E48A
:104D2B00FDEDC3941650158F828E83E493FC7408AB
:0C4D3B002DF8A6040D0FBF00010E80E54E
:014D47002249
:105086007BFE7A007951AD07904B19E49378B6F21E
:0A509600904B2EE49308F2024C55F3
:102BEE007814E4F2087400F2087408F27851E2FFE7
:102BFE00C36480948040028001D39200300005EFC0
:102C0E00F40480037851E278B5F2E478B4F278B443
:102C1E00E2FFC364809483500D74072FF8E4F278BA
:102C2E00B4E204F280E878B47402F278B5E2D39498
:102C3E0000500818E264809480401E78B5E2FF755B
:102C4E00F00A8418E22407F8E5F0F278B4E214F200
:102C5E00EF75F00A8408F280D278B57403F2200082
:102C6E0004E22405F27807E2701178B5E22405F249
:102C7E007808E2700678B5E22405F2E478B4F278CA
:102C8E00B5E2FF18E2FD3395E0FCC3ED9F7480F8CA
:102C9E006C9850207814E2FB08E2FA08E2F9E4128C
:102CAE0003B678B4E204F27816E22401F218E234A4
:102CBE0000F280CB300046E478B4F278B4E2C3641C
:102CCE0080948450217814E2FB08E2FA08E2F97449
:102CDE00081203B678B4E204F27816E22401F21870
:102CEE00E23400F280D57814E2FB08E2FA08E2F949
:102CFE00E41203B6E22401F218E23400F27807E29D
:102D0E00D394004070E478B4F278B4E2FDC36480EA
:102D1E009484504A7807E275F004A4FFED3395E0F1
:102D2E00FCEF2DFFE5F03CFE781BE22FFF18E23E94
:102D3E00FE78B2F208EFF2F5828E83E493FF7814F8
:102D4E00E2FB08E2FA08E2F9EF1203B678B4E20405
:102D5E00F27816E22401F218E23400F280AB781415
:102D6E00E2FB08E2FA08E2F9E41203B6E22401F209
:102D7E0018E23400F27807E2D39400500608E29489
:102D8E00004070E478B4F278B4E2FDC364809484B9
:102D9E00504A7808E275F004A4FFED3395E0FCEF9D
:102DAE002DFFE5F03CFE781BE22FFF18E23EFE7889
:102DBE00B2F208EFF2F5828E83E493FF7814E2FB11
:102DCE0008E2FA08E2F9EF1203B678B4E204F278F8
:102DDE0016E22401F218E23400F280AB7814E2FB22
:102DEE0008E2FA08E2F9E41203B6E22401F218E26C
:102DFE003400F2E478B4F278B4E2FDC364809484D3
:102E0E00504A7809E275F004A4FFED3395E0FCEF2B
:102E1E002DFFE5F03CFE781BE22FFF18E23EFE7818
:102E2E00B2F208EFF2F5828E83E493FF7814E2FBA0
:102E3E0008E2FA08E2F9EF1203B678B4E204F27887
:0C2E4E0016E22401F218E23400F280AB1E
:012E5A002255
:1050A0007BFE7A007950AD07904B18E49378B6F206
:0A50B000904B2DE49308F2024C55DA
:0F524E007814E4F2087400F2087408F2021940B0
:1051D0007BFE7A00791CAD07E478B6F2087463F2BE
:0351E000024C5529
:103D9000782BE2FF7E00781DE2FC08E2FDC3EF9D78
:103DA000FDEE9CFCC3ED9401EC94004025781CE2F0
:103DB00064809481401C08EEF208EFF27827E22438
:103DC00001F218E23400F27821E224FFF218E23422
:103DD000FFF2781CE214FF782008E2FD1247A77872
:103DE00027E2643C700218E270197826F208F27833
:103DF00020F208743BF2781CE2C364809481400393
:103E0000E214F2781CE2701EFDFF1247A77844E22C
:103E1000FF7E007C007D3C1203EA7837EEF208EF6B
:073E2000F278197411F2227F
:0447A70078B2EDF205
:1047AB007814E4F2087400F2087408F27E00E4FB5B
:1047BB00FD12359FE4FFEFC394045020EF900BD113
:1047CB0093FE7814E2FB08E2FA08E2F9EE1203B664
:1047DB000FE22401F218E23400F280DA78B2E2FF41
:0847EB007E00E4FBFD02359F96
:1050BA007BFE7A007953AD07904B1BE49378B6F2E6
:0A50CA00904B30E49308F2024C55BD
:104D48007853E260067E287F9B80047E287FB1E44A
:104D5800FDEDC3941650158F828E83E493FC74087E
:0C4D68002DF8A6040D0FBF00010E80E521
:014D7400221C
:10488800D37811E29F18E29E403C780BE204F2E4F0
:104898007810F208F2780BE2D394024002E4F2783E
:1048A8000BE2700204F2780BE2B4011A30070D78BB
:1048B80019E270087412F2E4780C8007E4780BF2BD
:0748C80074FF08F208F22260
:10448B00D37813E29F18E29E4059782AE204F2E4B3
:10449B007812F208F2782AE2D394094002E4F27817
:1044AB002AE2B4060B125321EF7005782A7407F237
:1044BB00782AE2B40712125321EF6460600A125398
:1044CB002F4005782A7408F2782AE2B408153007D1
:1044DB00077819E270028006E4782AF274FF780EEE
:0444EB00F208F222BF
:1041E500780EE2FE08E2FF24EA78B3F2EE34FF1817
:1041F500F2780AE22416FDE433FCD3EF9DEC6480EB
:10420500F8EE648098401074FF780EF208F2E478B6
:104215002AF27812F208F2E4FFEFFD78B3E22DFD01
:1042250018E23400FCC3648094804025780AE2FBE0
:10423500ED9B7480F86C98501878B208E22F24E54D
:10424500F582E43400F583E0FE74082FF8A60680B5
:0C4255000674082FF8E4F60FEFB416BD55
:01426100223A
:10416500780CE2FE08E2FF24EA78B3F2EE34FF1899
:10417500F2780AE22416FDE433FCD3EF9DEC64806B
:10418500F8EE648098401374FF780CF208F2E47836
:1041950010F208F2780BF27819F2E4FFEFFD78B32C
:1041A500E22DFD18E23400FCC3648094804025783C
:1041B5000AE2FBED9B7480F86C98501878B208E21F
:1041C5002F24E5F582E43400F583E0FE74082FF82A
:0F41D500A606800674082FF8E4F60FEFB416BDA7
:0141E40022B8
:1050D400780AE2C394FE5010E2FE04F274E52EF561
:0950E40082E43400F583EFF022B0
:0443490078B3EFF264
:10434D00E4780AF278B4F278B3E214FF08E2C39F7E
:10435D00505A12037BFDC394A0400674C02DFD80FE
:10436D000EEDC39420400674E02DFD80027D1FE408
:10437D00FC75F005EDA42CF582E435F0F583E582AE
:10438D0024F1F582E583340CF583E493FF64A56095
:10439D00031250D40CECB405D8E4FF1250D478B409
:0C43AD00E204F2740129F9E43AFA809B62
:0143B90022E1
:100BC5000000000000080800001C1C00003636006C
:100BD50000243600002424000024000000303000EA
:100BE500000606007F7F417F7F00007F7F000F4F5B
:100BF5004979794149497F7F7878087F7F797949B3
:100C05004F0F7F7F494F0F4040407F7F7F7F497F58
:100C15007F7879497F7F3040454830705070003E7D
:100C25007F6341417F41417F00007F004F49497902
:100C35004949497F7808087F7949494F7F49494F94
:100C45004040407F7F49497F7949497F3E41413E48
:100C550000217F0123454931425169460C14247F07
:100C65007251514E1E294906404F5060364949364A
:100C750030494A3C7E41413F00407F000F49493998
:100C85004949493E7C04041F7849490F7F49490772
:100C95006040403F7E49493F7849493F7F63637FD4
:100CA50000607F006F6B6B7B6B6B6B7F7878087F69
:100CB5007B7B4B4F7F7F494F40407F7F7F6B6B7FB7
:100CC5007B6B6B7F007F417F00007F00004F497980
:100CD5000049497F0078087F0079494F007F494FD7
:100CE5000040407F007F497F0079497F0000000078
:100CF500A57DA5A5A5A5700070A5A5147F147F14D5
:100D0500122A7F2A24626408132336495522055086
:100D150060A5A5A51C2241A5A541221CA5A51408D1
:100D25003E081408083E08080506A5A5A504040400
:100D350004A501A5A5A5A502040810203E41413E34
:100D4500A500217F01A521434539A522414936A5A5
:100D55000C14247FA57251514EA53E494926A54044
:100D6500474870A536494936A53249493EA512A5D9
:100D7500A5A5A50112A5A5A508142241A51414141D
:100D8500141441221408A520404548303E415D55C4
:100D95003C1F2444241F7F494949363E4141412295
:100DA5007F4141221C7F494949417F484848403E8F
:100DB5004149492F7F0808087F417F41A5A50201C8
:100DC500417E407F081422417F010101A57F201843
:100DD500207F7F1008047F3E4141413E7F484848BF
:100DE500303E4145423D7F484C4A313249494926CA
:100DF50040407F40407E0101017E700C030C707EF7
:100E0500010E017E631408146370080708704345DA
:100E15004951617F4141A5A50C123F120441417F13
:100E2500A5A5102040201001010101014020A5A524
:100E3500A5021515150F7F0911110E0E11111102BD
:100E45000E1111097F0E1515150C083F4840201885
:100E55002525253E7F0810100F115F01A5A502016C
:100E6500115EA57F040A11A5417F01A5A51F100CE0
:100E7500100F1F08100FA50E1111110E3F2422226D
:100E85001C1C2222243F1F081008A5081515150251
:100E9500107E1101021E0101021F18060106181E0F
:100EA5000106011E110A040A11180505051E111374
:100EB500151911083641A5A57FA5A5A5A541360893
:100EC500A5A508100810A5A5A5A5A5A5021E3F1E48
:100ED500023049294936184525451E0201417E4003
:100EE5002A1C771C2A3F202020607F7F7F7F7F7F01
:100EF5007F7F7F7F3F692969217F7F7F7F7F3E4994
:100F050049412208142A14227F7F7F7F7F1E2927CB
:100F1500211E7F7F7F7F7F413F41A5A50030484847
:100F25003009097D0909417F41A5A5115F01A5A5E5
:100F35001F101058A57F7F7F7F7F7F7F7F7F7F7FFB
:100F45007F7F7F7F0E5515550C7F7F7F7F7F0E1529
:100F550015110A22142A14087F7F7F7F7F7F7F7FE8
:100F65007F7F7F7F7F7F7F511F51A5A53F444444ED
:100F75003F7F494949467F494949367F404040605E
:100F8500033E427E037F4949494177087F087741FF
:100F9500494949367F0408107F3F0264083F7F08AE
:100FA500142241011E20407F7F2018207F7F0808E2
:100FB500087F3E4141413E7F4040407F7F48484851
:100FC500303E4141412240407F4040700909097E41
:100FD5003C42FF423C63140814637F01017F0170AA
:100FE5000808087F7F017F017F7E027E027F407FA8
:100FF5000909067F0906007F7F0911110E22414963
:10100500493E7F083E413E314A4C487F0215151541
:101015000F1E292949061F15150AA51F101018A509
:10102500030E121E030E1515150C1B041F041B11B0
:1010350015150AA51F0204081F1F4224481F1F0477
:101045000A11A50708101FA51F0804081F1F04047F
:101055001FA50E1111110E1F10101FA51F1412121E
:101065000C0E1111110210101F1010180505051E88
:101075000C129F120C110A040A111F01011F0118FD
:1010850004041FA51F011F011F1E021E021F101FA2
:101095000505021F0502001F1F050502A50A1115FA
:0C10A500150E1F040E110E081516141F66
:104E240000000001010100FF003B3B17071F0C635A
:104E3400FF630000001F003B005A0078009700B594
:0A4E440000D400F301110130014E0B
:1044EF007830E2FFD3940240047E0080027E017890
:1044FF0031E2240CC39EFDEE75F00CA42F24FEF9BF
:10450F00EDFF782FE22FFFE433FEED1313543F7CC2
:10451F00002FFBEC3EFAE975F01FA4FFAEF07D0C07
:10452F001203FCEF2BFFEE3ACF24FFCF34FFFE7CBC
:10453F00007D071203FCAF05782EEFF270037407AE
:01454F00F279
:014550002248
:104F54007830E2FFB4020F08E2540360047E1D803F
:104F6400027E1CAF0622EFD3940740010FEF441ECC
:014F7400FF3D
:014F75002219
:10470A007FD01251067F0A124E9C7F81124E9C1254
:10471A00526C7FD01251067F0D124E9C7F81124E31
:10472A009C7F04124E9CE4FF124E9C7851E2FF12C9
:10473A004E9C12526C1243BA782EE278B2F21244AC
:0E474A00EF782EE2FF78B2E26F6003124DF9B5
:01475800223E
:104E4E007FD0125106E4FF124E9CE478B2F278B293
:104E5E00E2FFD39402500D124F31124E9C78B2E203
:074E6E0004F280EA02526C1D
:104DF9001244EF7FD01251067F03124E9C78B37490
:104E090003F278B3E2FFD39406500D124F31124EDC
:0B4E19009C78B3E204F280EA02526CC5
:1051BC007FD01251067F10124E9C7851E2FF124E96
:0451CC009C02526C83
:1043BA007FD0125106E4FF124E9C12526C7FD1122A
:1043CA005106E478B3F278B3E2FFD39406502BEFA8
:1043DA00B40603C38001D39201124CBA78B4EFF247
:1043EA0012525D78B3E27C007BFE242BF9EC340098
:1043FA00FAEF1203B6E204F280CC12526C7FD012AA
:10440A0051067F11124E9C12526C7FD1125106C274
:0B441A0001124CBA7833EFF202526C32
:043EB80078B2EFF2FB
:103EBC007832E2FFFD7C00242BF9EC3400FA78B365
:103ECC0074FEF208EAF208E9F27BFF742D2DF9EC8E
:103EDC00344EFA12037BFEEF2424F9EC344EFA1222
:103EEC00037BFD7832E2B40405124F54AE0778B26E
:103EFC00E2FF08E2FB08E2FA08E2F9EF1203947819
:103F0C00B3E2FB08E2FA08E2F912037BFFD3EE649A
:103F1C0080F8EF6480984004ED1203B678B3E2FBAE
:103F2C0008E2FA08E2F912037BFFC3ED6480F8EFB4
:093F3C006480985004EE1203B6F3
:013F45002259
:104E75007832E2601024FE600A24FE24FD500424EA
:104E850006700E800678327404F2227832E214F24B
:074E95002278327402F222C0
:104BAA007830E2FF25E02434F582E4344EF58318A8
:104BBA00E2FD7401932DFDE4933400FC7831E25454
:104BCA0003700CEFD3940240067E007F0180047EBE
:0A4BDA00007F00ED2FFFEC3EFE22ED
:0F525D00EFC4540F75F00AA4FEEF540F2EFF227A
:104F31007E007BFE742B2FF9EE3400FA12037BFF07
:104F4100EF75F00A84C454F0FEEF75F00A84E5F0C1
:034F51002EFF220E
:10522D0012531CD2C112531CA2C29203C2C1A203BB
:01523D00224E
:07530800A20292C202522D25
:1050ED0078B2EFF2D2C1D2C212531CC2C212531CFB
:0950FD00C2C178B2E2FF024EC309
:1051060078E2EFF2D2C1D2C212531CC2C212531CB1
:09511600C2C178E2E2FF024E9CE6
:0F526C00C2C1C2C212531CD2C112531CD2C222E1
:044E9C0078E3EFF2D6
:104EA000E408F2F278E3E233920212530878E3E284
:104EB000FF25E0F208E204F2E2C3940840E6D202E1
:034EC00002530892
:044EC30078B3EFF2DF
:104EC700E408F2F278B3E233920212530878B3E2BD
:104ED700FF25E0F208E204F2E2C3940840E6D2C2FA
:034EE70002522D47
:104CBA00D2C2E478E3F218F278E3E2FF25E0F212D6
:104CCA00522D500678E3E24401F278E2E204F2E27D
:104CDA00C3940840E3A201B3920212530878E3E2B4
:014CEA00FFCA
:014CEB0022A6
:04531C007F02DFFE2F
:01532000226A
:0A52BF00EF60077E13DEFE1F80F68D
:0152C90022C2
:0E527B00EF600B7E127DEBDDFEDEFC1F80F28D
:015289002202
:10444F00813B0081390082370000813A00813CFABC
:0A445F00813D008234000081360028
:103A1000E4FF20C6010F20C504EF4402FF20C404C8
:103A2000EF4404FFEF602A7836E2FEB5071D18E286
:103A30002401F218E23400F208E2647D700218E218
:103A40007035EEC454F0783DF2802C7836EFF28079
:103A5000267834E2FE08E2FFD39419EE6480948065
:103A6000400FEF947DEE64809480500508E2783D2D
:103A7000F2E47834F208F2783CE26005E214F28075
:103A800028783C74FAF218E26003E214F27839E222
:103A90006003E214F27838E2700218E2600B7838C2
:103AA000E224FFF218E234FFF2783AE26005E21411
:103AB000F2800E7838E2700218E26005783A74FA03
:103AC000F2783AE2540ED39408400B783CE2D39457
:083AD0007D4005C2C322D2C3F0
:013AD80022CB
:10523E00783AEFF2783C74FAF2E47837F208F22218
:06530F00783DE2FFE4F22C
:015315002275
:104AF200FF00020000010500071E01010101010083
:104B02000000000001FF00010101000000000000A0
:104B1200000000000000F7800000FF01050605010B
:0F4B22000601173B01010101010101097F020199
:03446900813E0091
:1045B200D200E478B3F278B3E2FFC39409501D7ECF
:1045C200007BFE74462FF9EE3400FA12037BF4608E
:1045D20004C200800778B3E204F280DA30002EE4ED
:1045E20078B3F278B3E2FF7C007BFF24F2F9EC347B
:1045F2004AFA12037BFEEF1B243FF9EC3400FAEE79
:0D4602001203B6E204F2E2B415D9124B31F6
:01460F002288
:104C1D00E478B2F278B2E2FDC394155028783EE202
:104C2D0025E0FE7C00E42DFFEC3EFE12515078B2E3
:104C3D00E27C007BFE243FF9EC3400FAEF1203B660
:084C4D00E204F280CF0245B23F
:104B3100783EE2FF7E00125193E478B4F278B4E259
:104B4100FDC394155026783EE225E0FE7C00E42D5D
:104B5100FFEC3EFE7BFE743F2DF9EC3400FA1203AC
:0C4B61007BFD12511F78B4E204F280D1F9
:014B6D002225
:10517D0000000000000000000000FF01173B0101CE
:06518D000101010101FF18
:104BE400E478B2F278B2E2FFFD3395E0FC7BFE7428
:104BF400462DF974003CFA12037BFEEF3395E0FC7A
:104C040074542DF974003CFAEE1203B6E204F2E295
:084C1400B40AD1785E74FFF2CE
:014C1C002275
:104B6E00E478B2F278B2E2FFFD3395E0FC7BFE749E
:104B7E00542DF974003CFA12037BFEEF3395E0FCE2
:104B8E0074462DF974003CFAEE1203B6E204F2E21A
:0B4B9E00B40AD1124B31785E74FFF2B4
:014BA90022E9
:1051E300785EE2C3648094894003E4F222785EE24D
:0351F30004F222A1
:043F460078B2EFF26C
:103F4A00785EE2FFFD3395E0FC74542DF974003C71
:103F5A00FA78B374FEF208EAF208E9F27BFF748891
:103F6A002DF974513CFA12037BFEEFFD3395E0FC08
:103F7A00747D2DF974513CFA12037BFF78B2E2FD8D
:103F8A0008E2FB08E2FA08E2F9ED12039478B3E2D8
:103F9A00FB08E2FA08E2F912037BFDD3EE6480F82B
:103FAA00ED6480984004EF1203B678B3E2FB08E2AE
:103FBA00FA08E2F912037BFDC3EF6480F8ED64802E
:073FCA00985004EE1203B64B
:013FD10022CD
:0D52A500E4F5C7F5C5F5C675C380F5C42254
:1051500075C78275C5018FC4EEF5C375C65A75C68D
:07516000A500AFC20252A539
:10511F0075C78275C5028FC4EEF5C3AF058FC27513
:09512F00C65A75C6A5000252A57E
:1051930075C78275C5038FC4EEF5C375C65A75C648
:0551A300A5000252A569
:015332002258
:1051F600438E805389F0E4F58A758CF7C28DD28C84
:03520600D2A92208
:0952DF001251F6125332D2AF2233
:03000B000247F3B6
:1047F300C0E0C0F0C083C082C0D075D000C000C08C
:1048030001C002C003C004C005C006C0071236D0F1
:10481300785FE204F2E2D394204005E4F2123A1006
:10482300D007D006D005D004D003D002D001D000E9
:0B483300D0D0D082D083D0F0D0E03293
:03001B000253335A
:015333003247
:101D4300D120CDCEC2DBCC20C3CEC4CECC21212129
:101D530000D0EEE6E4E5F1F2E2EE20F5F0E8F1F290
:101D6300EEE2EE2E00D1F2E0F0FBE920CDEEE2FB55
:101D7300E920E3EEE42E00CAF0E5F9E5EDE8E5201D
:101D8300C3EEF1EFEEE4EDE52E00D2E0F2FCFFED61
:101D9300E8ED20E4E5EDFC2E00C4E5EDFC20E2F1E6
:101DA300E5F520E2EBFEE1EBB8EDEDFBF52E00C42B
:101DB300E5EDFC20E7E0F9E8F2EDE8EAE020CEF219
:101DC300E5F7E5F1F2E2E02E00CCE5E6E4F3EDE041
:101DD300F0EEE4EDFBE920E6E5EDF1EAE8E920E4E5
:101DE300E5EDFC2E00C4E5EDFC20ECEEF0FFEAE0AF
:101DF3002DEFEEE4E2EEE4EDE8EAE02E00C4E5EDDB
:101E0300FC20F1ECE5F5E02E00C4E5EDFC20EAEE64
:101E1300F1ECEEEDE0E2F2E8EAE82E00CFF0E0E7E5
:101E2300E4EDE8EA20C2E5F1EDFB20E820D2F0F38F
:101E3300E4E02E00C4E5EDFC20EFEEE1E5E4FB2158
:101E4300212100C4E5EDFC20EFE8EEEDE5F0E8E844
:101E53002E00C4E5EDFC20EFEEE3F0E0EDE8F7ED56
:101E6300E8EAE02E00C4E5EDFC20E7E0F9E8F2FB48
:101E730020E4E5F2E5E92E00C4E5EDFC20D0CED167
:101E8300D1C8C82E00C4E5EDFC20ECEEEBEEE4E592
:101E9300E6E82E00C4E5EDFC20F1E5ECFCE82C209F
:101EA300EBFEE1E2E820E820E2E5F0EDEEF1F2E816
:101EB3002E00C4E5EDFC20C2EEE7E4F3F8EDEE2DD1
:101EC300E4E5F1E0EDF2EDFBF520E2EEE9F1EA2ED7
:101ED30000C4E5EDFC20C2EEE5EDEDEE2DE2EEE70C
:101EE300E4F3F8EDFBF520F1E8EB2E00C4E5EDFC9F
:101EF30020E7EDE0EDE8E92E00C4E5EDFC20F2E596
:101F0300F1F2E8F0EEE2F9E8EAE02E00C4E5EDFCD8
:101F130020F3F7E8F2E5EBFF2E00C4E5EDFC20F03B
:101F2300EEE6E4E5EDE8FF20C4E5E4E020CCEEF0E6
:101F3300EEE7E02E00C4E5EDFC20FDEDE5F0E3E582
:101F4300F2E8EAE02E00C4E5EDFC20EFF0EEE3F06A
:101F5300E0ECECE8F1F2E02E00C4E5EDFC20ECE56A
:101F6300E4E8F6E8EDF1EAEEE3EE20F0E0E1EEF28C
:101F7300EDE8EAE02E00C4E5EDFC20F1E8F1F2E53E
:101F8300ECEDEEE3EE20E0E4ECE8EDE8F1F2F0E076
:101F9300F2EEF0E02E00C4E5EDFC20C2EEE5EDED3F
:101FA300EE2DCCEEF0F1EAEEE3EE20D4EBEEF2E030
:101FB3002E00CCE5E6E4F3EDE0F0EEE4EDFBE92002
:101FC300E4E5EDFC20EFE8E2E02E00C4E5EDFC20C3
:101FD300F1F2F0EEE8F2E5EBFF2E00C4E5EDFC20B4
:101FE300F2E0EDEAE8F1F2E02E00C4E5EDFC20E0DA
:101FF300E2F2EEECEEE1E8EBE8F1F2E02E00C4E50C
:10200300EDFC20ECE0F2E5F0E82E000101111D43A8
:102013000107141D54010E121D680113131D7A01CB
:10202300190F1D8D020E161D9C02171A1DB20308EF
:102033001C1DCC0313181DE804010C1E00040C1313
:102043001E0C0501181E1F05090F1E3705130F1E51
:1020530046051C131E550601131E68060C0D1E7B38
:10206300061B0F1E8807081E1E9708021F1EB508B1
:102073000C1B1ED409010D1EEF0909131EFC0A05D2
:102083000E1F0F0B121B1F1D0C16111F386100139F
:102093001F4936071D1F5C7705201F7977071C1F13
:1020A300991805191FB52807101FCE29070F1FDE22
:0A20B3007A07141FED7B070D2001D2
:02446C00C10786
:10461000782EE278B3F27F057860E4F208DFFC7F61
:1046200005782FE278B3F278B3E2D36480948740C0
:1046300006E224F9F280F0124F54AE07E4FFEFC314
:1046400094055024EEFD78B3E2F9FB3395E0FAD3FC
:10465000EB9D7480F86A98500F74602FF8E9F20FA0
:0846600078B3E22407F280D6D2
:01466800222F
:104F95007864E2FF700C782FE2FE7863E2B5060ACA
:0C4FA500D322782FE2B50702D322C322EA
:10521B0074602FF8E2FF782FE2FEEFB50602D3227F
:02522B00C3229C
:1033FB00C207E4780AF2124610E478B2F278B2E22D
:10340B00FFC394234003023575300703023575EF74
:10341B0075F005A4240EF582E43420F583E493FFC4
:10342B0054F0FEC4540F1424FB503F70030234C1FC
:10343B001470030234FB2407600302356778B2E291
:10344B0075F005A4240FF582E43420F583E493FE94
:10345B00782FE2FDEE6D600302356DEF540FFF0820
:10346B00E26F600302356D02353378B2E2FF75F01F
:10347B0005A4240EF582E43420F583E493FE540F67
:10348B00FD7830E26D600302356DEF75F005A42415
:10349B000FF582E43420F583E493FF782EE26F601E
:1034AB000302356DEE5470C4540F14FF12521B40BF
:1034BB000302356D8072124BAAAC06AD0778B2E2EF
:1034CB00FB75F005A4240EF582E43420F583E49318
:1034DB005401FEEB75F005A4240FF582E43420F5BE
:1034EB0083E493FBEB6D7002EC6E7076D207803C3D
:1034FB0078B2E2FF75F005A4240EF582E43420F5D2
:10350B0083E493540FFE7830E26E7056EF75F0053E
:10351B00A4240FF582E43420F583E493FF782EE2A4
:10352B006F703F124F95503AD20778B2E2FE75F0AA
:10353B0005A42410F582E43420F583E493FFEE75A3
:10354B00F005A42411F582E43420F583E493FC7494
:10355B000193AA04F97BFF1243498006C207E47862
:0A356B000AF278B2E204F20234081A
:013575002233
:10446E008184EC816B00826C000082650000828585
:02447E0000003C
:104F760078B2EFF208EDF27884E2FF12510678B2C9
:0F4F8600E2FF124E9C78B3E2FF124E9C02526C77
:044DA10078B2EFF203
:104DA5007884E2FF12510678B2E2FF124E9C7884B5
:104DB500E24401FF125106C201124CBA78B3EFF278
:074DC50012526C78B3E2FF0B
:014DCC0022C4
:044A700078DFEFF20A
:104A74007884E2FF12510678DFE2FF124E9C7884BC
:104A8400E24401FF125106D201124CBAEFF8E47964
:104A9400E1F3E819F3C201124CBA78E0E2F208E259
:0C4AA4004FF212526C78E0E2FE08E2FFD4
:014AB00022E3
:044AB10078B2EFF2F6
:104AB5007884E2FF12510678B2E2FF124E9C7884A8
:104AC500E24401FF125106D201124CBA78B3E4F266
:104AD50008EFF2C201124CBAEFFE78B3E24EF208CB
:0C4AE500E2F212526C78B3E2FE08E2FF2D
:014AF10022A2
:03532600024A70C8
:03532900024AB184
:043B980078CAEFF206
:103B9C007884E2FF12510678CAE2FF124E9C7884B8
:103BAC00E24401FF125106D201124CBAE4FCFDFEB4
:103BBC00780C12060078CB12061378CBE2FB08E2E5
:103BCC00F908E2FA08E2CBF8C000C001C002C00359
:103BDC00D201124CBAE4FCFDFE7804120600D003AC
:103BEC00D002D001D000EB4FFFEA4EFEE94DFDE8CC
:103BFC004CFC78CB12061378CBE2FB08E2F908E216
:103C0C00FA08E2CBF8C000C001C002C003C2011226
:103C1C004CBAEFC4540FFFD003D002D001D000EB4C
:103C2C004FFFEAFEE9FDE8FC78CB12061312526C4A
:0D3C3C0078CBE2FC08E2FD08E2FE08E2FFA2
:013C49002258
:10405C007FAA124A70786EEEF208EFF27FAC124A29
:10406C00707870EEF208EFF27FAE124A707872EE52
:10407C00F208EFF27FB0124A707874EEF208EFF2A9
:10408C007FB2124A707876EEF208EFF27FB4124AE1
:10409C00707878EEF208EFF27FB6124A70787AEE0A
:1040AC00F208EFF27FB8124A70787CEEF208EFF269
:1040BC007FBA124A70787EEEF208EFF27FBC124A99
:1040CC00707880EEF208EFF27FBE124A707882EEC2
:0540DC00F208EFF222E2
:103E27007F88124AB1788BEEF208EFF27F8A12533D
:103E370029788DEEF208EFF27F8C125329788FEEF6
:103E4700F208EFF27F8E124AB17891EEF208EFF2A4
:103E57007F901253297893EEF208EFF27F92125374
:103E6700297895EEF208EFF27F941253297897EEAE
:103E7700F208EFF27F961253297899EEF208EFF2E3
:103E87007F98125329789BEEF208EFF27F9A12532C
:103E970029789DEEF208EFF27F9C125329789FEE66
:103EA700F208EFF27F9E12532978A1EEF208EFF2A3
:013EB70022E8
:10426200123E277FA1124DA178A3EFF27FE11253F4
:104272002978A4EEF208EFF27FE3124DA178A6EFBF
:10428200F27FE4124DA1EF75F010A4FFAEF0C0076B
:10429200C0067FE5124DA1EF540FFDD0E078A7F2E2
:1042A200D0E04D08F27FE6124DA1EF75F010A4FFA9
:1042B200AEF0C007C0067FE5124DA1EFC4540FFD5A
:1042C200D0E078A9F2D0E04D08F27FE7124DA17854
:0442D200ABEFF2223A
:0E528A00E4FD7FF5124F767DAB7FF4024F7688
:0A52D5007D057FF2124F7602528A27
:044EEA0078DEEFF28D
:104EEE007884E2FF1251067FF4124E9C78DEE2FFC8
:104EFE00124E9C12526C7F0512527B7FF6024A7044
:0C52B2007FF3124DA1EF30E002D322C3C5
:0152BE0022CD
:1040E1007FEC1250EDB3920012526C3000077884CD
:1040F10074ECF280137FEE1250EDB3920012526C09
:10410100300005788474EEF23000097FD0124DA1A1
:10411100786BEFF2786BE2FF6003B4FF05E4786B34
:10412100F222EF6455601C7DB67FE0124F767F95D9
:1041310012527B7F9580071252B250077F64125250
:104141007B80F4786BE224AA24FD500B24F9600DE6
:10415100240B700F02405C123E2702528A12426207
:034161001252D522
:014164002238
:1014F9007F2E124EEA78DAEEF208EFF27F34124EBE
:10150900EA78DCEEF208EFF2786BE26455600302E8
:10151900193F78DAE2FE08E2FFE4FCFDC006C007E5
:101529007878E2FE08E2FBAA06D007D006C3EF9B53
:10153900FFEE9AFEED9400FDEC9400FCC004A905B1
:10154900AA06AB077876E2FE08E2FFE4FCFDD000CC
:10155900120487780F1205EC78B21206137880E22C
:10156900FE08E2FFEE3395E0FDFC780B120600C0A1
:1015790004C005C006C0077882E2FE08E2FFEE3328
:1015890095E0FDFC78B2E2FB08E2F908E2FA08E22C
:10159900CBF8EB2FFBEA3EFAE93DF9E83CF8D00736
:1015A900D006D005D004124A2C78B612061378B6A4
:1015B900E2FC08E2FD08E2FE08E2FF78B2E2FB087D
:1015C900E2F908E2FA08E2CBF8EB2FFFEA3EFEE97E
:1015D9003DFDE83CFC78C212061378C2E2FC08E241
:1015E900FD08E2FE08E22408FFE43EFEE43DFDE4D6
:1015F9003CFC78041205EC786CEEF208EFF278C244
:10160900E2FC08E2FD08E2FE08E22460FFEE34F0A5
:10161900FEED34FFFDEC34FFFC0812061378C6E238
:10162900FC08E2FD08E2FE08E2FFA804A905AA06F3
:10163900FB120487780C1205EC78CA12061378702D
:10164900E2FE08E2FFEE3395E0FDFC78C6E2FB0816
:10165900E2F908E2FA08E2CBF8120487C004C005EF
:10166900C006C007787CE2FE08E2FFEE3395E0FD94
:10167900FC78CAE2FB08E2F908E2FA08E2CBF812C0
:101689000487D003D002D001D000EF2BFFEE3AFE41
:10169900ED39FDEC38FC780B1205EC78BA1206131B
:1016A900786EE2FE08E2FFEE3395E0FDFCE47B0490
:1016B900FAF9F812048778BAE2FB08E2F908E2FAC3
:1016C90008E2CBF8EB2FFFEA3EFEE93DFDE83CFCE2
:1016D900EF2402FFE43EFEE43DFDE43CFC78021207
:1016E90005EC78BE1206137872E2FE08E2FFEE33CB
:1016F90095E0FDFC78C6E2FB08E2F908E2FA08E2A7
:10170900CBF8120487780D1205EC78B2120613781B
:101719007AE2FE08E2FFEE3395E0FDFC78CAE2FBCF
:1017290008E2F908E2FA08E2CBF812048778101205
:1017390005EC78B612061378B6E2FC08E2FD08E279
:10174900FE08E2FF78B2E2FB08E2F908E2FA08E2F1
:10175900CBF8EB2FFFEA3EFEE93DFDE83CFCEF2428
:1017690002FFE43EFEE43DFDE43CFC78021205EC98
:1017790078BA12061378BAE2FC08E2FD08E2FE081C
:10178900E22400FFEE3480FEE43DFDE43CFCC004AD
:10179900A905AA06AB077874E2FE08E2FFE4FCFD9E
:1017A900D000120487780F1205D978D2120613785F
:1017B900DCE2FE08E2FFE4FCFDC004C005C006C08F
:1017C9000778BEE2FC08E2FD08E2FE08E2FBAA0691
:1017D900A905A804D007D006D005D004C3EF9BFF04
:1017E900EE9AFEED99FDEC98FCE47B507AC3F9F88A
:1017F90012048778D612061378D2E2FB08E2F908B8
:10180900E2FA08E2CBF8C00078D6E2FC08E2FD086B
:10181900E2FE08E2FFD000120512780112060078F4
:10182900CE12061378CEE2FC08E2FD08E2FE08E2D9
:10183900FF78081205ECC004C005C006C00778CEC1
:10184900E2FC08E2FD08E2FE08E2FF78081205EC76
:10185900D003D002D001D00012048778B212061347
:10186900E47FDE7E0BFDFC78B2E2FB08E2F908E2D8
:10187900FA08E2CBF812048778101205EC78B21254
:1018890006137F437EE37DFF7CFF78CEE2FB08E20F
:10189900F908E2FA08E2CBF812048778101205EC8D
:1018A90078B612061378B6E2FC08E2FD08E2FE08F3
:1018B900E2FF78B2E2FB08E2F908E2FA08E2CBF8C3
:1018C900EB2FFFEA3EFEE93DFDE83CFCEF24CFFFAC
:1018D900EE340EFEE43DFDE43CFC78041205EC78A0
:1018E900CEE2FB08E2F908E2FA08E2CBF8EB2FFFB7
:1018F900EA3EFEE93DFDE83CFC78BA12061378BAE7
:10190900E2FC08E2FD08E2FE08E2FFEC1202BC7B01
:10191900B07A507955784112021F78671206137808
:1019290067E2FC08E2FD08E2FE08E2FF1202FA782B
:0619390065EEF208EFF27A
:01193F002285
:103260007FFA123B9878C6120613E4FFFE7D08FC35
:1032700078C6E2FB08E2F908E2FA08E2CBF8C312EA
:1032800005C870030233FA788BE2FE08E2FFE4FC23
:10329000FD7801120600AB07AA06A905C004C00507
:1032A000C006C00778C6E2FC08E2FD08E2FE08E2BC
:1032B000FF78031205D9D003D002D001D000C3EFAC
:1032C0009BFFEE9AFEED99FDEC98FCC004A905AABF
:1032D00006AB07788DE2FE08E2FFEE3395E0FDFCD9
:1032E000D000120487780B1205D978C21206137821
:1032F0008BE2FE08E2FFE4FCFDAB07AA06F9C0047E
:10330000C005C006C00778C6E2FC08E2FD08E2FE80
:1033100008E2FF78041205D9D003D002D001D00012
:10332000C3EF9BFFEE9AFEED99FDEC98FCC004C044
:1033300005C006C007788BE2FE08E2FFE4FCFDABA7
:1033400007AA06F9C004C005C006C00778C6E2FC9B
:1033500008E2FD08E2FE08E2FF78041205D9D00376
:10336000D002D001D000C3EF9BFFEE9AFEED99FD95
:10337000EC98FCD003D002D001D000120487780C66
:103380001205D9C004A905AA06AB07788FE2FE088A
:10339000E2FFEE3395E0FDFCD000120487780E12B8
:1033A00005D978C2E2FB08E2F908E2FA08E2CBF8B4
:1033B000EB2FFFEA3EFEE93DFDE83CFC7887120674
:1033C00013E47F05FEFDFC7887E2FB08E2F908E2E2
:1033D000FA08E2CBF8120487EF2480FFE43EFEE413
:1033E0003DFDE43CFC78081205ECE47B0AFAF9F8B0
:0A33F000124A2C786CEEF208EFF29E
:0133FA0022B0
:1010B1001232607FF7123B9878B21206137887E2FA
:1010C100FC08E2FD08E2FE08E2FF78011205ECE40B
:1010D1002FFFEE3406FEED34FFFDEC34FFFC78B655
:1010E10012061378B6E2FC08E2FD08E2FE08E2FF10
:1010F10078021205ECC004C005C006C00778B6E24C
:10110100FC08E2FD08E2FE08E2FF78021205ECD0DD
:1011110003D002D001D000120487780B1205ECC075
:1011210004A905AA06AB07789BE2FE08E2FFEE33AD
:1011310095E0FDFCD00012048778BA12061378BA44
:10114100E2FB08E2F908E2FA08E2CBF8C000C001CC
:10115100C002C0037899E2FE08E2FFEE3395E0FD9C
:10116100FC78B6E2FB08E2F908E2FA08E2CBF812F1
:1011710004877801120600D003D002D001D000EB21
:101181002FFFEA3EFEE93DFDE83CFC78BA1206136A
:101191007897E2FE08E2FFEE3395E0FDFC7810124D
:1011A1000600C004C005C006C00778BAE2FC08E228
:1011B100FD08E2FE08E2FF78021205ECD003D0023E
:1011C100D001D000EF2BFFEE3AFEED39FDEC38FCFB
:1011D10078BA12061378B6E2FC08E2FD08E2FE08CE
:1011E100E2FF78021205ECC004C005C006C0077812
:1011F100B6E2FC08E2FD08E2FE08E2FF7802120511
:10120100ECD003D002D001D000120487780D120572
:10121100ECC004A905AA06AB077895E2FE08E2FF37
:10122100EE3395E0FDFCD00012048778031205EC43
:10123100C004C005C006C0077893E2FE08E2FFEED5
:101241003395E0FDFC78B6E2FB08E2F908E2FA0822
:10125100E2CBF812048778011205ECD003D002D05A
:1012610001D000EB2FFFEA3EFEE93DFDE83CFC78B2
:10127100121205EC78B612061378B6E2FC08E2FD0C
:1012810008E2FE08E22400FFEE3480FEE43DFDE4C6
:101291003CFCC004A905AA06AB077891E2FE08E26E
:1012A100FFE4FCFDD000120487780F1205EC78B63C
:1012B10012061378B6E2FC08E2FD08E2FE08E2FF3E
:1012C100EC4D4E4F70030214F808E2FC08E2FD08F1
:1012D100E2FE08E2FF780C1205ECC004C005C0066E
:1012E100C00778B2E2FB08E2F908E2FA08E2CBF8BB
:1012F100C3E49BFFE49AFE741099FDE498FCD003CB
:10130100D002D001D000C3EF9BFFEE9AFEED99FD14
:10131100EC98FCE47B357A0CF9F812048778BE125C
:101321000613E4FFFEFD7C8078BEE2FB08E2F908CB
:10133100E2FA08E2CBF8C31205C8503A78BEE2FCE3
:1013410008E2FD08E2FE08E2FF7801120600C0048F
:10135100C005C006C00778B6E2FC08E2FD08E2FE5F
:1013610008E2FBAA06A905A804D007D006D005D03B
:1013710004120512803078B6E2FC08E2FD08E2FEB4
:1013810008E2FFC004A905AA06AB0778BEE2FC0883
:10139100E2FD08E2FE08E2FFD000120512E47B0242
:1013A100FAF9F812048778BE12061378BEE2FC0837
:1013B100E2FD08E2FE08E2FF78031205D9C004C08D
:1013C10005C006C00778BEE2FC08E2FD08E2FE089F
:1013D100E2FF78031205D9D003D002D001D0001268
:1013E1000487780D1205D9C004A905AA06AB0778B0
:1013F100A1E2FE08E2FFEE3395E0FDFCD00012040D
:1014010087780C1205EC78B612061378BEE2FC0858
:10141100E2FD08E2FE08E2FF78021205D9C004A944
:1014210005AA06AB07789FE2FE08E2FFEE3395E0DE
:10143100FDFCD000120487780D1205EC78BA120673
:101441001378BEE2FB08E2F908E2FA08E2CBF8C041
:1014510000C001C002C00378BAE2FC08E2FD08E264
:10146100FE08E2FF78B6E2FB08E2F908E2FA08E2D8
:10147100CBF8EB2FFFEA3EFEE93DFDE83CFCC00462
:10148100A905AA06AB07789DE2FE08E2FFEE3395B7
:10149100E0FDFCD000EB2FFFEA3EFEE93DFDE83C1C
:1014A100FC78041205ECD003D002D001D000EB2F60
:1014B100FFEA3EFEE93DFDE83CFC78BE12061378EA
:1014C100BEE2FC08E2FD08E2FE08E2FFE41202BC13
:1014D1007BB07A507955784112021F786712061352
:1014E1007867E2FC08E2FD08E2FE08E2FF1202FA78
:0714F1007865EEF208EFF24E
:0114F80022D1
:1023D8001232607FFD124A70E4FCFD78B2120613D7
:1023E800E4FF7E80FDFC78B2E2FB08E2F908E2FA3D
:1023F80008E2CBF8C31205B270030226A07887E280
:10240800FC08E2FD08E2FE08E22400FFEE34D4FEF8
:10241800ED34FEFDEC34FFFC78B612061378A6E224
:10242800FFE4FCFDFE78B6E2FB08E2F908E2FA08F0
:10243800E2CBF8120487780B1205ECE42FFFEE3498
:1024480080FEE43DFDE43CFCC004C005C006C007B6
:1024580078ABE2FF3395E0FEFDFC78B6E2FB08E2DC
:10246800F908E2FA08E2CBF8120487780A1205ECB8
:10247800D003D002D001D000120487780A1205ECEC
:10248800E42FFFE43EFEED3420FDE43CFCC004A94B
:1024980005AA06AB0778A4E2FE08E2FFEE3395E052
:1024A800FDFCD000120487E42FFFEE3420FEE43D4B
:1024B800FDE43CFC780E1205ECC004C005C006C063
:1024C8000778A7E2FE08E2FFEE3395E0FDFC7814FA
:1024D800120600C004C005C006C00778B2E2FC08B6
:1024E800E2FD08E2FE08E2FF780E120600D003D0F3
:1024F80002D001D000C3EF9BFFEE9AFEED99FDECF0
:1025080098FCC004C005C006C00778A9E2FE08E22E
:10251800FFEE3395E0FDFC78B6E2FB08E2F908E24D
:10252800FA08E2CBF8120487A804A905AA06AB07A3
:10253800D007D006D005D004C3EF9BFFEE9AFEED7E
:1025480099FDEC98FCE42FFFEE3440FEE43DFDE4F9
:102558003CFC780F1205ECD003D002D001D0001259
:10256800048778B612061378B6E2FC08E2FD08E2A2
:10257800FE08E2FFC004C005C006C00778B6E2FC4A
:1025880008E2FD08E2FE08E2FF780F1205ECC0043D
:10259800C005C006C00778B6E2FC08E2FD08E2FE06
:1025A80008E2FF780F1205ECD003D002D001D0006A
:1025B80012048778071205ECC004A905AA06AB0720
:1025C80078A3E2FFE4FCFDFED00012048778041231
:1025D80005ECA804A905AA06AB07D007D006D005C4
:1025E800D004C3EF9BFFEE9AFEED99FDEC98FC78C2
:1025F800B612061378B6E2FCEC335007E4FFFEFD92
:10260800FC800D78B6E2FC08E2FD08E2FE08E2FF75
:1026180078B6120613E4FFFEFD7C1978B6E2FB08D3
:10262800E2F908E2FA08E2CBF8D31205B24008E46E
:10263800FFFEFD7C19800D78B6E2FC08E2FD08E299
:10264800FE08E2FF78B612061378B6E2FC08E2FD4F
:1026580008E2FE08E2FF780C1205EC78B6120613C1
:1026680078B6E2FC08E2FD08E2FE08E2FFEC12029E
:10267800BC7B0A7AD77923784112021F7867120641
:10268800137867E2FC08E2FD08E2FE08E2FF1202A6
:08269800FA7885EEF208EFF27A
:0126A0002217
:03532C000210B1BB
:065316001210B10223D8C1
:10500300786BE224AA24FD500B24F9600A240B7068
:0B501300090214F902532C125316225C
:08000300786CE2FE08E2FF2226
:0852E8007865E2FE08E2FF22F6
:0852F0007885E2FE08E2FF22CE
:05532100786BE2FF22A1
:0A448000C10882AC000082AE00000B
:0D48CF0078B8EBF208EAF208E9F208EDF221
:1048DC007F80125106E478BCF278BBE2FF08E2FE5E
:1048EC00C39F5023EEFF78BAE22FF218E23400F2A5
:1048FC0018E2FB08E2FA08E2F912037BFF124E9C65
:0A490C0078BCE204F280D202526C83
:0D483E0078B8EBF208EAF208E9F208EDF2B2
:10484B007F81125106E478BCF278BBE2FF08E2C329
:10485B009F5022D201124CBA78B8E2FB08E2FA0858
:10486B00E2F978BCE2F582758300EF1203C878BCDD
:0D487B00E204F280D4C201124CBA02526C69
:104DCD0078B4EFF208EBF208EAF208E9F27BFE7A2A
:104DDD000079B47D011248CF7F1912527B78B5E26C
:0C4DED00FB08E2FA08E2F97D0202483EF1
:104916007BFE7A0079B27FF3124DCD78B2E2FE08C3
:10492600E2FDEDFFAC06EC1202C17B527AB8792F9C
:104936007843120116E4FBFA7980784712021F7B4E
:10494600667A66793B78C2120025E4FBFA79C87864
:07495600421201160202FAF1
:1049A3007BFE7A0079B27FF5124DCD78B2E2FE0834
:1049B300E2FDEDFFAC06E41202C1E4FBFA79FA78FA
:1049C30042120116E4FBFA7980784712021FE4FBD6
:1049D300FA79C078C0120025E4FBFA79C87842124C
:0549E30001160202FABA
:0B52CA007F801250EDB3920802526C7E
:104FB1001249167C007D0A12045178ACEEF208EF1A
:0C4FC100F21249A378AEEEF208EFF222E3
:0852F80078ACE2FE08E2FF229F
:0853000078AEE2FE08E2FF2294
:03532F00A20822AF
:10001E00020366E86480F8E933E83360110460F0A7
:10002E00ED33EC337009E8FCE9FDEAFEEBFF220448
:10003E0060DED3EB9FEA9EE99DE8C2E78CF0C2F743
:10004E0095F0400CE8CCF8E9CDF9EACEFAEBCFFB0F
:10005E0012033185D0F05804700320D5B3E8047034
:10006E00075002B2D502037092D5EC0460F7E4CCCF
:10007E00C0E0C398F8603B94186008400DD0E0FBD8
:10008E00020348E4FBFAC9FC8028E830E406E4C920
:10009E00FBE4CAFCE830E305E4C9CACBFCE854072C
:1000AE006010F8C3E913F9EA13FAEB13FBEC13FC37
:1000BE00D8F130F52FC3E49CFCEF9BFFEE9AFEEDDA
:1000CE0099FDD0E0FBEF4E4D4C701222DB03020384
:1000DE006DEC2CFCEF33FFEE33FEED33FDED30E730
:1000EE00EB020348EF2BFFEE3AFEED39FDD0E0FBBD
:1000FE0050130BBB0003020370ED13FDEE13FEEF66
:08010E0013FFEC13FC0203488F
:10011600EC4D6011E8497017ED33EC3304600DE4E3
:10012600FCFFFEFD22E933E8330470F80203661291
:10013600033158046009E4CC248150062850090292
:10014600037028400302036DC0E0EB4A7044B98097
:1001560006D0E0FB02035CEF4E701CBD8008EBFF8F
:10016600EAFEE9FD80EBE98DF0A4FEE5F00201FF71
:10017600E9CDF9EAFEEBFFEF89F0A4FCE5F0CE89C4
:10018600F0A42EFFE435F0CD89F0A42DFEE435F081
:100196008067EF4E7005BD80D780C3EF8BF0A4ACAF
:1001A600F0EE8BF0A42CFCE435F0F8EF8AF0A42CEA
:1001B600E5F038FCE433CB8DF0A42CFCE5F03BF8FD
:1001C600EE8AF0A42CFCE5F038F8E433CF89F0A4ED
:1001D6002CFCE5F038CF3400CE89F0A42FFFE5F0F3
:1001E6003EFEE433C98DF0A42EFEE5F039CD8AF04B
:1001F600A42FFFE5F03EFEE43DFD33D0E0FB5007C3
:100206000BBB000F020370EC2CFCEF33FFEE33FE4A
:06021600ED33FD02034878
:10021C00020370EC5D046005E85904700302036688
:10022C00120331580460F6EC4860F2EC7004FDFEE9
:10023C00FF22C860DB2481C85009C39860025006B5
:10024C0002036D9850CAF582E9294B4A7005AB82BE
:10025C0002035C75F0007C1A7880C3EF9BEE9AED7C
:10026C0099400DC3EF9BFFEE9AFEED99FDE842F02D
:10027C00DC23ACF0D0E0FFD0E0FED0E0FDAB822080
:10028C00E7101BEB60BAEC2CFCEF33FFEE33FEED0A
:10029C0033FD020348E803F830E705C0F075F000C1
:1002AC00EF2FFFEE33FEED33FD40B830E7C280AAEE
:1002BC0075F020800E75F010800575F0087D007EBD
:1002CC00007F003392D530D5031205A4EC334010D7
:1002DC00EF33FFEE33FEED33FDEC33FCD5F0ED22C6
:0E02EC00E5F0247EA2D513CC92E7CDCEFF2202
:1002FA00EDD2E7CD33EC3392D524814006E4FFFEFC
:10030A00FDFC22FCE4CFCECDCC24E0501174FF805A
:10031A00EDC3CC13CCCD13CDCE13CECF13CF0470F7
:07032A00F030D5DE0205A44E
:10033100E9D2E7C933E833F892D5EDD2E7CD33EC12
:0703410033FC5002B2D5228B
:10034800EC30E7100FBF000C0EBE00080DBD000416
:100358000BEB6014A2D5EB13FCED92E7FD2274FFC2
:10036800FCFDFEFF22E480F8A2D574FF13FC7D801B
:03037800E480EF2F
:103D100002066FE493A3F8E493A34003F68001F254
:103D200008DFF48029E493A3F85407240CC8C333B4
:103D3000C4540F4420C8834004F456800146F6DF83
:103D4000E4800B0102040810204080904425E47EAA
:103D5000019360BCA3FF543F30E509541FFEE49378
:103D6000A360010ECF54C025E060A840B8E493A33F
:103D7000FAE493A3F8E493A3C8C582C8CAC583CA6A
:103D8000F0A3C8C582C8CAC583CADFE9DEE780BE22
:01448A000031
:10037B00BB010689828A83E0225002E722BBFE0280
:09038B00E32289828A83E49322B3
:10039400BB010989828A83F8E028F022500327F7F9
:1003A40022BBFE05F8E328F3228A838982F8E493CA
:0203B4002822FD
:1003B600BB010689828A83F0225002F722BBFE0126
:0203C600F32220
:1003C800F8BB010DE58229F582E5833AF583E8F06B
:1003D800225006E92582C8F622BBFE05E92582C817
:0203E800F222FF
:1003EA00EF8DF0A4A8F0CF8CF0A428CE8DF0A42E27
:0203FA00FE22E1
:1003FC00BC000BBE0029EF8DF084FFADF022E4CCE5
:10040C00F875F008EF2FFFEE33FEEC33FCEE9DECAD
:10041C00984005FCEE9DFE0FD5F0E9E4CEFD22EDF3
:10042C00F8F5F0EE8420D21CFEADF075F008EF2F3D
:10043C00FFED33FD4007985006D5F0F222C398FD2E
:05044C000FD5F0EA22CB
:10045100C2D5EC30E709B2D5E4C39DFDE49CFCEEC6
:1004610030E715B2D5E4C39FFFE49EFE1203FCC33F
:10047100E49DFDE49CFC80031203FC30D507C3E43A
:060481009FFFE49EFE2235
:10048700E88FF0A4CC8BF0A42CFCE98EF0A42CFC14
:100497008AF0EDA42CFCEA8EF0A4CDA8F08BF0A492
:1004A7002DCC3825F0FDE98FF0A42CCD35F0FCEBF1
:1004B7008EF0A4FEA9F0EB8FF0A4CFC5F02ECD39B6
:0F04C700FEE43CFCEAA42DCE35F0FDE43CFC2223
:1004D60075F008758200EF2FFFEE33FECD33CDCCDD
:1004E60033CCC58233C5829BED9AEC99E582984060
:1004F6000CF582EE9BFEED9AFDEC99FC0FD5F0D63D
:10050600E4CEFBE4CDFAE4CCF9A88222B800C1B966
:100516000059BA002DEC8BF084CFCECDFCE5F0CBA4
:10052600F97818EF2FFFEE33FEED33FDEC33FCEBDD
:1005360033FB10D703994004EB99FB0FD8E5E4F998
:10054600FA227818EF2FFFEE33FEED33FDEC33FC85
:10055600C933C910D7059BE99A4007EC9BFCE99A79
:10056600F90FD8E0E4C9FAE4CCFB2275F010EF2FBE
:10057600FFEE33FEED33FDCC33CCC833C810D707BE
:100586009BEC9AE899400AED9BFDEC9AFCE899F8F9
:0E0596000FD5F0DAE4CDFBE4CCFAE4C8F9228C
:104A2C00C2D5E830E70FB2D5E4C39BFBE49AFAE4B5
:104A3C0099F9E498F8EC30E717B2D5124A621205EE
:104A4C0012E4C39BFBE49AFAE499F9E498F8800326
:104A5C0012051230D50DE4C39FFFE49EFEE49DFDCC
:044A6C00E49CFC22A8
:0E05A400C3E49FFFE49EFEE49DFDE49CFC2268
:1005B200EB9FF5F0EA9E42F0E99D42F0EC6480C8C0
:0605C20064809845F02260
:1005C800EB9FF5F0EA9E42F0E99D42F0E89C45F089
:0105D8002200
:1005D900E8600FECC313FCED13FDEE13FEEF13FF00
:0305E900D8F12224
:1005EC00E86010ECA2E713FCED13FDEE13FEEF1325
:0405FC00FFD8F02212
:10060000E8600FEFC333FFEE33FEED33FDEC33FC58
:03061000D8F122FC
:0C061300ECF208EDF208EEF208EFF22223
:10061F00D083D082E493F208740193F208740293AA
:09062F00F208740393F2740473E1
:10063800F5F0C582A4C582C5F0C583A42583F583DA
:01064800228F
:10064900D083D082F8E4937012740193700DA3A340
:1006590093F8740193F5828883E473740293686054
:06066900EFA3A3A380DF54
:00000001FF
