:03000000023E209D
:103E200078FFE4F6D8FD9000007F007E03E4F0A365
:0A3E3000DFFCDEFA758121023E7509
:1051D900124E01124E6C1254D91248EE124DC812D9
:0B51E900420B1254C4783274FFF22213
:105387003006FD12000EC2AF124E01D2AFE4782AEA
:05539700F2780BF22288
:105412003006FD12000EC2AF124D15D2AFE478195C
:02542200F22274
:1007650078B17401F21251D97F14125447783B7451
:1007750002F23006FDC2067824E2FE08E2FF7C00A4
:100785007D0A1204F2ED4C702E7819E2FF600964BF
:10079500026024EF6403601F783BE27014740AF270
:1007A500125529EF600312520F125537500312519B
:1007B500BD12440012351C12551778B0EFF2600FC8
:1007C500E2C3941050047F1480027F2812544778A6
:1007D500B0E224FE700302096E24FE700302097361
:1007E50024F47003020A30240F6003020A9778414B
:1007F500E2640570227819E2701D7410F2782AE21D
:10080500FF700404F28010EFD39400400AEF9407C0
:100815005005782AE204F27819E214B41200400374
:10082500020A9790083675F003A4C58325F0C583A1
:100835007302086C0208F20208FD02090F0209683A
:1008450002096802096802096502096802092902A4
:100855000968020968020949020A97020968020A39
:1008650097020A970209687817E2FF24FEB4100080
:100875004003020A9790088875F003A4C58325F004
:10088500C583730208B80208C40208CA0208EC024C
:1008950008EC0208EC0208EC0208EC0208EC02087D
:1008A500EC0208EC0208E60208D00208D6020A9714
:1008B5000208E078327402F27819EFF2020A9778AA
:1008C5003274068003E4785EF2801C125032020A0C
:1008D50097E47819F2782AF2020A97123EBA020AC8
:1008E500977853E27818F27817E2020A837832E2B1
:1008F500701212505A020A8E7832E2B40406124F70
:10090500DD020A8E125081020A97785EE2FF7005B9
:100915007854E26004EFB40905124D528045125334
:10092500EC020A9778197411F2782BE2FF781DE42E
:10093500F208EFF2E47826F208F27820F208743B28
:10094500F2020A977818E260057853E27010E478AD
:100955000BF27810F208F274FF780CF208F28003BB
:100965001253C5125412020A9478B17401F278B088
:10097500E2B404040874FFF27819E2B40E004003EF
:10098500020A9790098FF82828730209B90209BB52
:100995000209C50209C50209CF0209D90209ED02FA
:1009A5000A01020A0B020A15020A270209E30209D3
:1009B500F7020A1E804678B1E2FF1253B1020A9788
:1009C50078B1E2FF123FE2020A9778B1E2FF1240E6
:1009D50070020A9778B1E2FF125278020A9778B14D
:1009E500E2FF12522A020A9778B1E2FF125244023C
:1009F5000A9778B1E2FF12525E020A9778B1E2FFD8
:100A050012511A020A9778B1E2FF125292020A971E
:100A150078B1E2FF1252AC807978B1E2FF1252C68A
:100A2500807078B1E2FF1253D980677819E2B41467
:100A350000505F900A3FF8282873020A7B020A8259
:100A4500020A8E020A8E020A88020A8B020A8B02A9
:100A55000A8B020A8B020A8B020A90020A8B020A8F
:100A65008B020A8E020A8E020A8E020A97020A90E9
:100A7500020A97020A8E78197401F28015E4781932
:100A8500F2800F124DC81253878004E4781CF212CD
:100A950054927819E2B414004003020B58900AA945
:100AA500F8282873020AE5020AEF020AF4020AF995
:100AB500020AFE020B03020B0D020B16020B1F02AC
:100AC5000B24020B2E020B08020B11020B29020B41
:100AD50058020B54020B54020B36020B4C020AEA65
:100AE50012493D806E12535B8069123CB9806412D5
:100AF5003935805F123A47805A1221CB8055124E04
:100B0500FF805012454F804B784180071247FA808D
:100B1500427845E2FF1240FC8039125502803412BA
:100B25005509802F124F2C802A781CE2FFE4FD80A6
:100B350019781CE2D3648094804005123EBA801374
:100B450078197401F2800CE4FDFF12498B8004E4EE
:100B55007819F27829E22401F218E23400F27825B6
:100B6500E22401F218E23400F27823E22401F218BB
:100B7500E23400F2D37829E2947718E29400400435
:100B8500E4F208F230072C782AE2B408267824E249
:100B9500FE08E2FF7C007D051204F2ED4C7014C3E3
:100BA500780EE264809480400A08E22401F218E29B
:100BB5003400F2D37825E2943B18E294004077E4C0
:100BC500F208F27813E22401F218E23400F2782AEE
:100BD500E2B409005060900BE2F8282873020BFD7F
:100BE500020C0D020C11020C15020C19020C1D024F
:100BF5000C21020C25020C2B7841E2B40506E478A1
:100C050012F208F27F3C801A7F0280167F02801262
:100C15007F02800E7F05800A7F0280067F028002A8
:100C25007F057E00800DC3780EE2648094805006B7
:100C3500E4FFFE12461C2007030207777853E27093
:100C4500030207777841E2640560030207773007FE
:100C55002C780BE2B401267822E2FE08E2FF7C0044
:100C65007D051204F2ED4C7014C3780CE264809497
:100C750080400A08E22401F218E23400F2D3782316
:100C8500E2943B18E294005003020777E4F208F27D
:100C95007811E22401F218E23400F2780BE21460D4
:100CA500100460030207777F107E0E124A6C02075C
:100CB50077C3780CE2648094804003020777E4FFF1
:070CC500FE124A6C020777E2
:1024E600007F7F40407F7F007F7F08087F7F00035B
:1024F6001F227E7F0300007F7F49497F36004040D0
:102506007F7F4040007F7F4848783000003E7F4113
:10251600416322007F7F4848783000031F227E7F78
:10252600030000707808087F7F0040407F7F4040AE
:10253600007F7F49497F3600007F7F40407F7F00D4
:1025460040407F7F4040007F7F08087F7F00003E3D
:102556007F414163220060731B0F7C70007F7F49BF
:10256600494F4600007F7F49497F36003E7F414103
:102576006322007F7F0814636300007C7C40407CFC
:102586007C007C7C10107C7C000C3C48787C0C0029
:10259600007C7C54547C280040407C7C4040007C7D
:1025A6007C505070200000387C44446C28007C7CB1
:1025B60050507020000C3C48787C0C000060701075
:1025C600107C7C0040407C7C4040007C7C54547CE9
:1025D6002800007C7C40407C7C0040407C7C404065
:1025E600007C7C10107C7C0000387C44446C280005
:1025F60064741C187060007C7C54545C4800007C39
:102606007C54547C2800387C44446C28007C7C1024
:10261600386C440000607F7F60006F6F007F3F1062
:102626001F103F7F007F7F4949007F7F63361C0074
:102636001F3F6C6C3F1F00607F7F60007F7F4949B2
:102646003F7F4C7F3F007F7F0303003F7F4C7F3FF0
:10265600007F7F6C6C370000003E41417149493E66
:10266600000000063A433A06000000007F7F6868D3
:10267600003E7F417F3E007F3F180C7E7F00607FDB
:102686007F607F7F41633E1C006F6F00327B496F26
:1026960026007F7F446C38007F3F101F103F7F006D
:1026A6006F6F007F7F63361C007F7F6C6C387F7F87
:1026B600497F36007F7F6C6C37006F6F003E7F412D
:1026C6004D2E0000003E41417149493E0000000088
:1026D60000000011117D1111000000000000007FB4
:1026E6007F417F7F007F7F381C7F7F0000000000D6
:1026F6000000007F7F417F7F007F7F6C6C007F7FC3
:102706006C6C00000000607F7F6000730B7E7C00B5
:102716007F7F4C380036007F7F49497F36007F7FB8
:102726004C4E7B3100360000705070003E7F634196
:10273600410000000011117D1111000000607F7F33
:1027460060006F6F007F3F101F103F7F007F7F6C20
:102756006C377F413E003249260022493600234528
:10276600390022493600207F007F7F494900637780
:102776001C1C7763006F6F0060607F7F6060327B38
:10278600496F2600607F7F60007F7F6C6C37003E5C
:102796007F414D2E0000007F7F6C6C3700327B49F5
:1027A6006F2600607F7F60000000000012345555E0
:0627B60055555554321088
:1045B600810A00820EFFFF820CFFFF81190081171E
:1045C600028212000082100000812A00810B008105
:0A45D6001C00810000810100C18477
:104E6C00E4F59375943FF5917592FFF5957596FF62
:104E7C00F5B175B27F7845E2781FF2C206A2C792EF
:104E8C00051248AB78147401F2087400F20874E54A
:024E9C00F22200
:0D000E0053B0807590FF75A0FF43803F2226
:1037F1007801E2FEC394055011781FE2FDEEB50594
:103801000312000E7801E204F222E47801F21200C0
:103811000E20050A18E2FEC374159EFF800478008D
:10382100E2FFEFB4160040030238CB903833F8289A
:10383100287302387502387902387D0238810238DE
:103841008502388902388D023891023895023899FB
:1038510002389D0238A10238A50238A90238AD020A
:1038610038B10238B50238B90238BD0238C1023860
:10387100C50238C9C2908052C291804EC292804A1C
:10388100C2938046C2948042C295803EC296803ADD
:10389100C2978036C2A08032C2A1802EC2A2802AE5
:1038A100C2A38026C2A48022C2A5801EC2A6801AFD
:1038B100C2A78016C2808012C281800EC282800A95
:1038C100C2838006C2848002C28520050CC37415A0
:1038D1009F2408F8E6F5B0804474082FF8E6FEC48A
:1038E1005402FDEEC4131354014DFE74082FF8E683
:1038F100FD131354044EFEED54084EFE74082FF8C8
:10390100E6FD25E025E054104EFEEDC454204EFEA8
:1039110074082FF8E6C4333354404EF5B07800E212
:1039210004F2E2D39415400BE4F2A2C792052006FB
:0339310002D206B9
:013934002270
:0D549200E47819F27812F208F2782AF2227A
:104400001244E4782BE27068300467C2047854E206
:10441000603908E2FF782DE26F70307856E2FF785D
:104420002CE2B50726782EE27E007BFE2456F9EEBC
:104430003400FA120471603A7844E2FF7C007D3C5B
:104440001204E07837EEF208EFF2227855E2FF33FB
:1044500095E0FE782DE2D39FEE6480F8748098405A
:1044600011782CE2700C7840E260077F28025447F4
:02447000D20474
:014472002227
:0C489F007814E4F2087400F2087408F2C7
:1048AB007843E214601514601C14602314602A8092
:1048BB0000781A740DF2087430F222781A740DF223
:1048CB00087458F222781A740DF2087480F2227868
:1048DB001A740DF20874A8F222781A740DF2087487
:0348EB00D0F222E6
:104B410078B27427F2087458F2E4FFEFC394165058
:104B51003478B2E2FC08E2F5828C83E493FE7814A7
:104B6100E2FB08E2FA08E2F9EE1204AC0F78B3E2D4
:104B71002401F218E23400F27816E22401F218E27C
:054B81003400F280C6C3
:014B8600220C
:1046E2007828E2FC08E2FDC3941EEC94005004E436
:1046F200FF800FC3ED945AEC940050047F038002B4
:10470200E4FFE4FEEEC39404503675F004EFA42EE9
:10471200F582E435F0F583E58224CCF582E5833435
:104722000CF583E493FD7814E2FB08E2FA08E2F95F
:10473200ED1204AC0EE22401F218E23400F280C45D
:014742002254
:1031AF007842E214603E14606214700302327914A4
:1031BF0070030232C814700302330680007828E2CD
:1031CF00FC08E2FDC3941EEC94005005E4FF0233AB
:1031DF0042C3ED945AEC940050057F03023342E44E
:1031EF00FF0233427828E2FC08E2FDC3941EEC9400
:1031FF000050057F02023342C3ED945AEC94005005
:10320F00057F030233427F020233427828E2FC0833
:10321F00E2FDC3940AEC94005005E4FF023342C36D
:10322F00ED941AEC940050057F01023342C3ED94E4
:10323F002CEC940050057F02023342C3ED944EEC08
:10324F00940050057F03023342C3ED9460EC940069
:10325F0050057F02023342C3ED9470EC9400500589
:10326F007F01023342E4FF0233427828E2FC08E296
:10327F00FDC3940CEC94005005E4FF023342C3ED00
:10328F009424EC940050057F03023342C3ED943C29
:10329F00EC940050057F04023342C3ED9454EC9438
:1032AF000050057F05023342C3ED946CEC9400503F
:1032BF00047F06807EE4FF807A7828E2FC08E2FD36
:1032CF00C3940EEC94005004E4FF8067C3ED942C7C
:1032DF00EC940050047F07805AC3ED944AEC94009D
:1032EF0050047F03804DC3ED9468EC940050047F2D
:1032FF00088040E4FF803C7828E2FC08E2FDC3949C
:10330F000EEC94005004E4FF8029C3ED942CEC9450
:10331F000050047F01801CC3ED944AEC94005004CC
:10332F007F02800FC3ED9468EC940050047F0180FE
:10333F0002E4FFE4FEEEC39404503675F004EFA4EC
:10334F002EF582E435F0F583E58224CCF582E58312
:10335F00340CF583E493FD7814E2FB08E2FA08E2FB
:10336F00F9ED1204AC0EE22401F218E23400F280FF
:01337F00C489
:01338000222A
:10369700E41204ACE22401F218E23400F218E2FB6F
:1036A70008E2FA08E2F9E41204ACE22401F218E2B3
:0936B7003400F2E4FBFD7F14FE77
:0D36C00078B6EEF208EFF208EDF208EBF23A
:1036CD00E408F278BAE2FBC3940440030237617850
:1036DD00B8E2705F08E2601778B6E2FE08E2FF7CA0
:1036ED00007D0A1204F2D3EF9400EE94004044786A
:1036FD00B6E2FE08E2FF7C007D0A1204F2EF7802CA
:10370D00C333CE33CED8F9FFEB7C002FFFEC3EFE5A
:10371D00781BE22FFF18E23EFE78BBF208EFF2F5C0
:10372D00828E83E493FF7814E2FB08E2FA08E2F953
:10373D00EF800B7814E2FB08E2FA08E2F9E41204D8
:10374D00AC78BAE204F27816E22401F218E2340001
:10375D00F20236D07814E2FB08E2FA08E2F9E4123C
:10376D0004ACE22401F218E23400F2E478BAF27803
:10377D00BAE2FBC39404506B78B8E2704678B6E2B7
:10378D00FE08E2FF7C007D0A1204F2EDAE04780221
:10379D00C333CE33CED8F9FFEB7C002FFFEC3EFECA
:1037AD00781BE22FFF18E23EFE78BBF208EFF2F530
:1037BD00828E83E493FF7814E2FB08E2FA08E2F9C3
:1037CD00EF800B7814E2FB08E2FA08E2F9E4120448
:1037DD00AC78BAE204F27816E22401F218E2340071
:0337ED00F2808CDB
:0137F00022B6
:104F5900782DE2FDD39418500618E2943C400302E0
:104F69004B41EDFF7E00E4FBFD1236C01231AF78F4
:0C4F79002CE2FF7E00E4FBFD1236C0229B
:104BCC007B007A0079087814EBF208EAF208E9F233
:104BDC001236977814E2FB08E2FA08E2F9E41204C0
:104BEC00ACE22401F218E23400F27831E2FF7E00EC
:104BFC00E4FBFD1236C07814E2FB08E2FA08E2F995
:044C0C00E40204AC0E
:10484E007830E2D3940C500718E2FD942040030216
:10485E004B41EDFF7E00E4FBFD1236C0E4FFEFC3DB
:10486E0094045020EF900CD093FE7814E2FB08E2F3
:10487E00FA08E2F9EE1204AC0FE22401F218E23467
:10488E0000F280DA7830E2FF7E00E4FBFD1236C0E3
:01489E0022F7
:103BFA00782EE214B407005070903C1175F003A4BB
:103C0A00C58325F0C58373023C26023C31023C3C45
:103C1A00023C47023C52023C5D023C6878B2742482
:103C2A00F20874E6F2804B78B27424F20874FCF25B
:103C3A00804078B27425F2087412F2803578B27432
:103C4A0025F2087428F2802A78B27425F208743EA4
:103C5A00F2801F78B27425F2087454F2801478B294
:103C6A007425F208746AF2800978B27427F208742B
:103C7A0058F2E4FFEFC39416503478B2E2FC08E23B
:103C8A00F5828C83E493FE7814E2FB08E2FA08E2F8
:103C9A00F9EE1204AC0F78B3E22401F218E2340010
:0E3CAA00F27816E22401F218E23400F280C62D
:013CB80022E9
:1051F400782CE2FF7E00E4FBFD1236C01246E27812
:0B5204002BE2FF7E00E4FBFD0236C041
:101A4700E478B5F208F2125537500F1254F27C00C1
:101A57007D0A1204E078B5EE8021125529EF600F58
:101A67001200037C007D0A1204E078B5EE800C7842
:101A770033E275F064A4FF78B5E5F0F208EFF27889
:101A870050E2FF3395E0FE7C007D641204E078B6F7
:101A9700E22FF218E23EF2E418F278B4E2FFC394C0
:101AA70005500D74022FF8E4F278B4E204F280EAEC
:101AB70078B47404F2D378B6E2940018E2648094A0
:101AC70080500618E29400403278B5E2FA08E2FB4B
:101AD7007C007D0AFFAE0212054778B4E22402F8C3
:101AE700EDF278B4E214F27C007D0AAF03AE021285
:101AF700054778B5EEF208EFF280BA7802E26003A4
:101B0700021C7478B4F278B4E2FDC39404504578AB
:101B170003E275F004A47C002DFFEC35F0FE781B82
:101B2700E22FFF18E23EFE78B2F208EFF2F5828E5E
:101B370083E493FF7814E2FB08E2FA08E2F9EF1274
:101B470004AC78B4E204F27816E22401F218E23425
:101B570000F280B27814E2FB08E2FA08E2F9E41234
:101B670004ACE22401F218E23400F2E478B4F2782B
:101B7700B4E2FDC3940450457804E275F004A47CF4
:101B8700002DFFEC35F0FE781BE22FFF18E23EFE3A
:101B970078B2F208EFF2F5828E83E493FF7814E2CD
:101BA700FB08E2FA08E2F9EF1204AC78B4E204F2B7
:101BB7007816E22401F218E23400F280B27814E2D7
:101BC700FB08E2FA08E2F9E41204ACE22401F21895
:101BD700E23400F218E2FB08E2FA08E2F9740312B1
:101BE70004ACE22401F218E23400F218E2FB08E246
:101BF700FA08E2F974031204ACE22401F218E234A1
:101C070000F218E2FB08E2FA08E2F9E41204ACE297
:101C17002401F218E23400F2E478B4F278B4E2FD79
:101C2700C394044003021DC67805E275F004A47C42
:101C3700002DFFEC35F0FE781BE22FFF18E23EFE89
:101C470078B2F208EFF2F5828E83E493FF7814E21C
:101C5700FB08E2FA08E2F9EF1204AC78B4E204F206
:101C67007816E22401F218E23400F280AF7814E229
:101C7700FB08E2FA08E2F9E41204ACE22401F218E4
:101C8700E23400F2E478B4F278B4E2FDC39404508D
:101C9700457802E275F004A47C002DFFEC35F0FED8
:101CA700781BE22FFF18E23EFE78B2F208EFF2F55A
:101CB700828E83E493FF7814E2FB08E2FA08E2F9E4
:101CC700EF1204AC78B4E204F27816E22401F218B9
:101CD700E23400F280B27814E2FB08E2FA08E2F993
:101CE700E41204ACE22401F218E23400F2E478B41E
:101CF700F278B4E2FDC3940450457803E275F0042A
:101D0700A47C002DFFEC35F0FE781BE22FFF18E2D4
:101D17003EFE78B2F208EFF2F5828E83E493FF7805
:101D270014E2FB08E2FA08E2F9EF1204AC78B4E235
:101D370004F27816E22401F218E23400F280B27855
:101D470014E2FB08E2FA08E2F9E41204ACE2240127
:101D5700F218E23400F2E478B4F278B4E2FDC39406
:101D67000450457804E275F004A47C002DFFEC359F
:101D7700F0FE781BE22FFF18E23EFE78B2F208EF82
:101D8700F2F5828E83E493FF7814E2FB08E2FA0807
:101D9700E2F9EF1204AC78B4E204F27816E2240117
:101DA700F218E23400F280B27814E2FB08E2FA0893
:101DB700E2F9E41204ACE22401F218E23400F2780A
:101DC70014E2FB08E2FA08E2F9E41204ACE22401A7
:101DD700F218E23400F218E2FB08E2FA08E2F974BA
:101DE7003E1204ACE22401F218E23400F218E2FBDE
:101DF70008E2FA08E2F974411204ACE22401F2188D
:101E0700E23400F218E2FB08E2FA08E2F974411240
:101E170004ACE22401F218E23400F218E2FB08E213
:101E2700FA08E2F974411204ACE22401F218E23430
:101E370000F218E2FB08E2FA08E2F974221204AC95
:091E4700E22401F218E23400F279
:011E5000226F
:102F7D00E478B3F208F208120715000000001254AD
:102F8D00E2AC06AD07EC1202C178B5120709E4FBFD
:102F9D00FA79207841C00078B5E2FC08E2FD08E23C
:102FAD00FE08E2FFD00012021F7B5C7A8F79027857
:102FBD003F12002578B512070978B5E2FC08E2FD4D
:102FCD0008E2FE08E2FF1202FA78B3EEF208EFF221
:102FDD007814E2FB08E2FA08E2F9E41204ACE22408
:102FED0001F218E23400F218E2FB08E2FA08E2F905
:102FFD00E41204ACE22401F218E23400F2E478B2F7
:10300D00F278B2E2FFC3648094855055EFFB33959F
:10301D00E0FA08E2FE08E2FF7C007D641205478FAE
:10302D00828E83740512072EE5822BF582E5833A95
:10303D00F583E58224F0F582E583340CF583E49382
:10304D00FF7814E2FB08E2FA08E2F9EF1204AC781B
:10305D00B2E204F27816E22401F218E23400F280B2
:10306D00A07814E2FB08E2FA08E2F9E41204ACE2FB
:10307D002401F218E23400F2E478B2F278B2E2FF01
:10308D00C364809485505CEFFB3395E0FA08E2FE53
:10309D0008E2FF7C007D0A1205477C007D0A1205BF
:1030AD00478D828C83740512072EE5822BF582E500
:1030BD00833AF583E58224F0F582E583340CF583BC
:1030CD00E493FF7814E2FB08E2FA08E2F9EF120448
:1030DD00AC78B2E204F27816E22401F218E2340080
:1030ED00F280997814E2FB08E2FA08E2F9E412049E
:1030FD00ACE22401F218E23400F2E478B2F278B2D4
:10310D00E2FFC3648094855055EFFB3395E0FA08D8
:10311D00E2FE08E2FF7C007D0A1205478D828C835A
:10312D00740512072EE5822BF582E5833AF583E5CA
:10313D008224F0F582E583340CF583E493FF781453
:10314D00E2FB08E2FA08E2F9EF1204AC78B2E2040D
:10315D00F27816E22401F218E23400F280A078141D
:10316D00E2FB08E2FA08E2F9E41204ACE22401F20F
:10317D0018E23400F218E2FB08E2FA08E2F9E41270
:10318D0004ACE22401F218E23400F218E2FB08E28A
:10319D00FA08E2F9E41204ACE22401F218E2340078
:0131AD00F22F
:0131AE0022FE
:102A8500E478B3F208F208120715000000001255A9
:102A95003750051254FA8009125529BF600A12549D
:102AA500EA78B3EEF208EFF278B3E2FC08E2FDE46F
:102AB5001202C178B5120709E4FBFA79C87842C059
:102AC5000078B5E2FC08E2FD08E2FE08E2FFD0006E
:102AD50012021F7B5C7A8F7902783F12002578B548
:102AE50012070978B5E2FC08E2FD08E2FE08E2FFFC
:102AF5001202FA78B3EEF208EFF27814E2FB08E27C
:102B0500FA08E2F9E41204ACE22401F218E2340016
:102B1500F218E2FB08E2FA08E2F9E41204ACE22456
:102B250001F218E23400F2D3EF9409EE9400406705
:102B3500E478B2F278B2E2FFC36480948540030280
:102B45002BCAEFFB3395E0FA08E2FE08E2FF7C00B2
:102B55007D0A1204F28F828E83740512072EE58298
:102B65002BF582E5833AF583E58224F0F582E5834A
:102B7500340CF583E493FF7814E2FB08E2FA08E2EB
:102B8500F9EF1204AC78B2E204F27816E22401F20D
:102B950018E23400F2809DE478B2F278B2E2C364C0
:102BA50080948550207814E2FB08E2FA08E2F9E403
:102BB5001204AC78B2E204F27816E22401F218E2CB
:102BC5003400F280D67814E2FB08E2FA08E2F9E470
:102BD5001204ACE22401F218E23400F2E478B2F215
:102BE50078B2E2FFC3648094855055EFFB3395E0DE
:102BF500FA08E2FE08E2FF7C007D0A1204F28D82EB
:102C05008C83740512072EE5822BF582E5833AF550
:102C150083E58224F0F582E583340CF583E493FFA4
:102C25007814E2FB08E2FA08E2F9EF1204AC78B294
:102C3500E204F27816E22401F218E23400F280A0F0
:102C45007814E2FB08E2FA08E2F9E41204ACE224A3
:102C550001F218E23400F218E2FB08E2FA08E2F9A0
:102C6500E41204ACE22401F218E23400F218E2FBAB
:102C750008E2FA08E2F974621204ACE22401F218DF
:102C8500E23400F218E2FB08E2FA08E2F974641291
:102C950004ACE22401F218E23400F218E2FB08E287
:102CA500FA08E2F974081204ACE22401F218E234DD
:102CB50000F218E2FB08E2FA08E2F974131204AC18
:102CC500E22401F218E23400F218E2FB08E2FA0805
:102CD500E2F974231204ACE22401F218E23400F2A2
:102CE50018E2FB08E2FA08E2F9E41204ACE2240176
:102CF500F218E23400F218E2FB08E2FA08E2F9E41D
:0C2D05001204ACE22401F218E23400F2E7
:012D1100229F
:104ED000782DE2FFC3941850257845E26406701ED1
:104EE000EF782D30E009E2C3139027B0938008E2F9
:0F4EF000C3139027B093C4540FFF781FEFF22223
:10535B0012489F124ED0780BE214600304800302B4
:06536B00428F124F59228F
:10493D0012489F124ED0782AE2B40900503C90499B
:10494D0052F828287302496D02496F0249720249D3
:10495D007502497802497B02497E024981024984E8
:10496D008018024BCC02484E023BFA0251F4021A57
:0E497D0047022F7D022A8502430F124F592256
:104E3900ED12048A120471FF78B7E2D36480F8EFA7
:104E4900648098400678B6E21204AC120471FF78C7
:104E5900B6E2C36480F8EF648098500678B7E2122E
:034E690004AC2274
:1053B1007BFE7A007917AD0778B67402F208740F94
:0453C100F2024E396D
:103CB9007817E224FEB40E004003023D50903CD434
:103CC90075F003A4C58325F0C58373023CFE023D4C
:103CD90004023D0A023D10023D1C023D28023D2E10
:103CE900023D34023D40023D16023D22023D3A02A8
:103CF9003D46023D4C7E267F1A804C7E267F3080D1
:103D0900467E267F4680407E267F5C803A7E267FDF
:103D19007280347E267F88802E7E267F9E80287E34
:103D2900267FB480227E267FCA801C7E277F2C8036
:103D3900167E277F8480107E277F42800A7E277F18
:103D49009A80047E277F6EE4FDEDC3941650158F8B
:103D5900828E83E493FC74082DF8A6040D0FBF002E
:043D6900010E80E5E2
:013D6D002233
:1039350012489F7824E2FE08E2FFC3940FEE94003C
:103945005004C200800FC3EF942DEE94005004D2B2
:10395500008002C2007832E2707878B2F278B2E282
:10396500C3940950207814E2FB08E2FA08E2F9E46E
:103975001204AC78B2E204F27816E22401F218E2FD
:103985003400F280D8E478B2F278B2E2FFC394044E
:103995005026EF900CD893FF7814E2FB08E2FA0862
:1039A500E2F9EF1204AC78B2E204F27816E22401EF
:1039B500F218E23400F280D1782BE2FF7E007832F3
:1039C500E2FD700A300003ED60047D01806E7D002C
:1039D500806A782DE2FF7E007832E2B4020B300077
:1039E50004640260047D0180027D00E4FB1236C0A0
:1039F500E478B2F278B2E2FFC394045026EF900C5B
:103A0500D893FF7814E2FB08E2FA08E2F9EF120412
:103A1500AC78B2E204F27816E22401F218E234003E
:103A2500F280D1782CE2FF7E007832E2B4010B30CF
:103A35000004640160047D0180027D00E4FB123610
:013A4500C0C0
:013A4600225D
:103A470012489F7824E2FE08E2FFC3940FEE940029
:103A57005004C200800FC3EF942DEE94005004D29F
:103A6700008002C2007832E2640670597814E2FBE3
:103A770008E2FA08E2F91236977814E2FB08E2FA4C
:103A870008E2F9E41204ACE22401F218E23400F28D
:103A97007831E2FF7E0008E2B4060B3000046406CA
:103AA70060047D0180027D00E4FB1236C07814E2D9
:103AB700FB08E2FA08E2F9E41204ACE22401F21886
:103AC700E23400F222782FE2FF7E007832E2B4047B
:103AD7000B300004640460047D0180027D007B01DB
:103AE7001236C0E4FFEFC394045020EF900CD0933C
:103AF700FE7814E2FB08E2FA08E2F9EE1204AC0FD2
:103B0700E22401F218E23400F280DA7830E2FF7E34
:103B1700007832E2B4050B300004640560047D01CF
:093B270080027D00E4FB1236C0AF
:013B30002272
:1021CB0012489F785EE2FF704C7854E278B4600955
:1021DB007426F20874E0F280077426F20874F6F2A3
:1021EB00E478B2F278B2E2FEC3941640030224E51F
:1021FB0078B4E2FC08E2F5828C83E493FD74082E3C
:10220B00F8A60578B2E204F278B5E22401F218E2FE
:10221B003400F280CFEF6401600A785EE264026002
:10222B00030222C47824E2FE08E2FFC3940FEE946B
:10223B00005004C200800FC3EF942DEE94005004A5
:10224B00D2008002C2007855E2FF3395E0FE785E43
:10225B00E2B4010B300004640160047D0180027D57
:10226B0000E4FB1236C0E478B2F278B2E2FFC3941A
:10227B00045026EF900CD893FF7814E2FB08E2FA97
:10228B0008E2F9EF1204AC78B2E204F27816E22419
:10229B0001F218E23400F280D17856E2FF3395E078
:1022AB00FE785EE2B4020B300004640260047D0130
:1022BB0080027D00E4FB0236C07824E2FE08E2FFD8
:1022CB00C3941BEE94005004C200800FC3EF942103
:1022DB00EE94005004D2008002C200785EE224FD2E
:1022EB00B40700506E9022FE75F003A4C58325F051
:1022FB00C5837302231302231E02232902233402F4
:10230B00233F02234A02235578B47425F2087480C4
:10231B00F2804078B47425F2087496F2803578B464
:10232B007425F20874ACF2802A78B47425F2087420
:10233B00C2F2801F78B47425F20874D8F280147836
:10234B00B47425F20874EEF2800978B47426F2089E
:10235B007404F2E478B2F278B2E2FFC3941640034D
:10236B000224E5E408F2EF12073F23A30123A302A3
:10237B0023D00423D00523FD0723FD08242A0A2498
:10238B002A0B244D0D244D0E247010247011249310
:10239B0013249314000024B7785EE2FF64036005F6
:1023AB007857E2704AEF640360030224B77857E270
:1023BB00FF6003300039EF60030224B720000302F3
:1023CB0024B70224B2785EE2FF640460057858E219
:1023DB00701DEF640460030224B77858E2FF6003BA
:1023EB0030000CEF60030224B72000030224B70275
:1023FB0024B2785EE2FF640560057859E2701DEF48
:10240B00640560030224B77859E2FF600330000CC7
:10241B00EF60030224B72000030224B70224B27832
:10242B005EE2FF64066005785AE27014EF64067092
:10243B007B785AE2FF6003300006EF706F30006C60
:10244B008065785EE2FF64076005785BE27014EFED
:10245B0064077058785BE2FF6003300006EF704C46
:10246B003000498042785EE2FF64086005785CE2E8
:10247B007014EF64087035785CE2FF60033000067F
:10248B00EF7029300026801F785EE2FF640960043C
:10249B0018E27013EFB40914785DE2FF60033000AB
:1024AB0006EF700830000578B37401F278B4E2FEE1
:1024BB0008E2F5828E83E493FF78B3E2FEEF4EFFE2
:1024CB0018E22408F8A60778B2E204F278B5E22401
:0A24DB0001F218E23400F20223625D
:0124E50022D4
:1040FC007814E4F2087400F2087408F2E4FEEEC3DB
:10410C0094105020EE90270C93FD7814E2FB08E2FB
:10411C00FA08E2F9ED1204AC0EE22401F218E234D2
:10412C0000F280DA7814E2FB08E2FA08E2F9E41211
:10413C0004ACE22401F218E23400F2E4FEEEC39483
:10414C0005503675F005EFA42EF582E435F0F583B5
:10415C00E58224F0F582E583340CF583E493FD7855
:10416C0014E2FB08E2FA08E2F9ED1204AC0EE224C8
:09417C0001F218E23400F280C4E3
:014185002217
:10522A007BFE7A007943AD07904CEFE49378B6F2AF
:0A523A00904D04E49308F2024E398F
:10454F0012489F7824E2FE08E2FFC39414EE940011
:10455F005004C200800FC3EF9428EE94005004D291
:10456F00008002C200782DE2FF7E00A200E433FD3E
:10457F00E4FB1236C0E4FFEFC39404501A7814E240
:10458F00FB08E2FA08E2F9E41204AC0FE22401F2AC
:10459F0018E23400F280E0782CE2FF7E00A200E403
:0745AF0033FDE4FB0236C0FE
:105244007BFE7A007941AD07904CEDE49378B6F299
:0A525400904D02E49308F2024E3977
:10525E007BFE7A007942AD07904CEEE49378B6F27D
:0A526E00904D03E49308F2024E395C
:1047FA007814E4F2087400F2087408F2E4FFEFC3D4
:10480A00940A501A7814E2FB08E2FA08E2F9E41270
:10481A0004AC0FE22401F218E23400F280E0123113
:10482A00AFE4FFEFC3940A501A7814E2FB08E2FAE5
:10483A0008E2F9E41204AC0FE22401F218E23400AF
:03484A00F280E019
:01484D002248
:10511A007BFE7A007945AD07904CF1E49378B6F2BC
:10512A00904D06E49308F2124E397845E2781FF260
:03513A00024ED052
:105278007BFE7A007940AD07904CECE49378B6F267
:0A528800904D01E49308F2024E3944
:104EFF007840E260067E267FE080047E267FF6E41F
:104F0F00FDEDC3941650158F828E83E493FC7408C5
:0C4F1F002DF8A6040D0FBF00010E80E568
:014F2B002263
:105292007BFE7A007951AD07904CFDE49378B6F22B
:0A52A200904D12E49308F2024E3919
:102D12007814E4F2087400F2087408F2C3EF6480D5
:102D2200948040028001D39200300008EFF40478CE
:102D3200B5F2800478B5EFF2E478B4F278B4E2FF49
:102D4200C364809483500D74072FF8E4F278B4E2E0
:102D520004F280E878B47402F278B5E2D3940050B9
:102D62000818E264809480401E78B5E2FF75F00A8C
:102D72008418E22407F8E5F0F278B4E214F2EF7571
:102D8200F00A8408F280D278B57403F2200004E2DB
:102D92002405F27807E2701178B5E22405F278088A
:102DA200E2700678B5E22405F2E478B4F278B5E28E
:102DB200FF18E2FD3395E0FCC3ED9F7480F86C9838
:102DC20050207814E2FB08E2FA08E2F9E41204ACBB
:102DD20078B4E204F27816E22401F218E23400F246
:102DE20080CB300046E478B4F278B4E2C3648094D5
:102DF2008450217814E2FB08E2FA08E2F97408121E
:102E020004AC78B4E204F27816E22401F218E23457
:102E120000F280D57814E2FB08E2FA08E2F9E41243
:102E220004ACE22401F218E23400F27807E2D3940F
:102E3200004070E478B4F278B4E2FDC36480948414
:102E4200504A7807E275F004A4FFED3395E0FCEFF9
:102E52002DFFE5F03CFE781BE22FFF18E23EFE78E4
:102E6200B2F208EFF2F5828E83E493FF7814E2FB6C
:102E720008E2FA08E2F9EF1204AC78B4E204F2785C
:102E820016E22401F218E23400F280AB7814E2FB7D
:102E920008E2FA08E2F9E41204ACE22401F218E2D0
:102EA2003400F27807E2D39400500608E29400401E
:102EB20070E478B4F278B4E2FDC364809484504A3A
:102EC2007808E275F004A4FFED3395E0FCEF2DFFE6
:102ED200E5F03CFE781BE22FFF18E23EFE78B2F2EC
:102EE20008EFF2F5828E83E493FF7814E2FB08E2A6
:102EF200FA08E2F9EF1204AC78B4E204F27816E2CE
:102F02002401F218E23400F280AB7814E2FB08E20A
:102F1200FA08E2F9E41204ACE22401F218E2340005
:102F2200F2E478B4F278B4E2FDC364809484504A47
:102F32007809E275F004A4FFED3395E0FCEF2DFF74
:102F4200E5F03CFE781BE22FFF18E23EFE78B2F27B
:102F520008EFF2F5828E83E493FF7814E2FB08E235
:102F6200FA08E2F9EF1204AC78B4E204F27816E25D
:0A2F72002401F218E23400F280ABF3
:012F7C002232
:075502007851E2FF022D12B7
:1052AC007BFE7A007950AD07904CFCE49378B6F213
:0A52BC00904D11E49308F2024E3900
:075509007850E2FF022D12B1
:1053D9007BFE7A00791CAD07E478B6F2087463F2B3
:0353E900024E3938
:103EBA00782BE2FF7E00781DE2FC08E2FDC3EF9D4D
:103ECA00FDEE9CFCC3ED9401EC94004025781CE2C5
:103EDA0064809481401C08EEF208EFF27827E2240D
:103EEA0001F218E23400F27821E224FFF218E234F7
:103EFA00FFF2781CE214FF782008E2FD12498B7861
:103F0A0027E2643C700218E270197826F208F27807
:103F1A0020F208743BF2781CE2C364809481400367
:103F2A00E214F2781CE2701EFDFF12498B7844E21B
:103F3A00FF7E007C007D3C1204E07837EEF208EF49
:073F4A00F278197412F22253
:04498B0078B2EDF21F
:10498F007814E4F2087400F2087408F27E00E4FB75
:10499F00FD1236C0E4FFEFC394045020EF900CD803
:1049AF0093FE7814E2FB08E2FA08E2F9EE1204AC87
:1049BF000FE22401F218E23400F280DA78B2E2FF5B
:0849CF007E00E4FBFD0236C08E
:1052C6007BFE7A007953AD07904CFFE49378B6F2F3
:0A52D600904D14E49308F2024E39E3
:104F2C007853E260067E267FE080047E267FF6E4DE
:104F3C00FDEDC3941650158F828E83E493FC740898
:0C4F4C002DF8A6040D0FBF00010E80E53B
:014F58002236
:104A6C00D37811E29F18E29E403C780BE204F2E40A
:104A7C007810F208F2780BE2D394024002E4F27858
:104A8C000BE2700204F2780BE2B4011A30070D78D5
:104A9C0019E270087413F2E4780C8007E4780BF2D6
:074AAC0074FF08F208F2227A
:10461C00D37813E29F18E29E4059782AE204F2E420
:10462C007812F208F2782AE2D394094002E4F27884
:10463C002AE2B4060B125529EF7005782A7407F29A
:10464C00782AE2B40712125529EF6460600A1255F9
:10465C00374005782A7408F2782AE2B40815300736
:10466C00077819E270028006E4782AF274FF780E5B
:04467C00F208F2222C
:10430F00780EE2FE08E2FF24EA78B3F2EE34FF18EB
:10431F00F2780AE22416FDE433FCD3EF9DEC6480BF
:10432F00F8EE648098401074FF780EF208F2E4788B
:10433F002AF27812F208F2E4FFEFFD78B3E22DFDD6
:10434F0018E23400FCC3648094804025780AE2FBB5
:10435F00ED9B7480F86C98501878B208E22F24E522
:10436F00F582E43400F583E0FE74082FF8A606808A
:0C437F000674082FF8E4F60FEFB416BD2A
:01438B00220F
:10428F00780CE2FE08E2FF24EA78B3F2EE34FF186E
:10429F00F2780AE22416FDE433FCD3EF9DEC648040
:1042AF00F8EE648098401374FF780CF208F2E4780B
:1042BF0010F208F2780BF27819F2E4FFEFFD78B301
:1042CF00E22DFD18E23400FCC36480948040257811
:1042DF000AE2FBED9B7480F86C98501878B208E2F4
:1042EF002F24E5F582E43400F583E0FE74082FF8FF
:0F42FF00A606800674082FF8E4F60FEFB416BD7C
:01430E00228C
:1052E000780AE2C394FE5010E2FE04F274E52EF553
:0952F00082E43400F583EFF022A2
:0444730078B3EFF239
:10447700E4780AF278B4F278B3E214FF08E2C39F53
:10448700505A120471FDC394A0400674C02DFD80DC
:104497000EEDC39420400674E02DFD80027D1FE4DD
:1044A700FC75F005EDA42CF582E435F0F583E58283
:1044B70024F8F582E583340DF583E493FF64A56062
:1044C700031252E00CECB405D8E4FF1252E078B4C2
:0C44D700E204F2740129F9E43AFA809B37
:0144E30022B6
:10503200783F7C007DFE7BFF7A4C79D67E007F151F
:1050420012044B1254127845E2781FF2124ED0121B
:08505200549278177402F22257
:100CCC000000000000080800001C1C000036360064
:100CDC0000243600002424000024000000303000E2
:100CEC00000606007F7F417F7F00007F7F000F4F53
:100CFC004979794149497F7F7878087F7F797949AB
:100D0C004F0F7F7F494F0F4040407F7F7F7F497F50
:100D1C007F7879497F7F3040454830705070003E75
:100D2C007F6341417F41417F00007F004F494979FA
:100D3C004949497F7808087F7949494F7F49494F8C
:100D4C004040407F7F49497F7949497F3E41413E40
:100D5C0000217F0123454931425169460C14247FFF
:100D6C007251514E1E294906404F50603649493642
:100D7C0030494A3C7E41413F00407F000F49493990
:100D8C004949493E7C04041F7849490F7F4949076A
:100D9C006040403F7E49493F7849493F7F63637FCC
:100DAC0000607F006F6B6B7B6B6B6B7F7878087F61
:100DBC007B7B4B4F7F7F494F40407F7F7F6B6B7FAF
:100DCC007B6B6B7F007F417F00007F00004F497978
:100DDC000049497F0078087F0079494F007F494FCF
:100DEC000040407F007F497F0079497F0000000070
:100DFC00A57DA5A5A5A5700070A5A5147F147F14CD
:100E0C00122A7F2A2462640813233649552205507E
:100E1C0060A5A5A51C2241A5A541221CA5A51408C9
:100E2C003E081408083E08080506A5A5A5040404F8
:100E3C0004A501A5A5A5A502040810203E41413E2C
:100E4C00A500217F01A521434539A522414936A59D
:100E5C000C14247FA57251514EA53E494926A5403C
:100E6C00474870A536494936A53249493EA512A5D1
:100E7C00A5A5A50112A5A5A508142241A514141415
:100E8C00141441221408A520404548303E415D55BC
:100E9C003C1F2444241F7F494949363E414141228D
:100EAC007F4141221C7F494949417F484848403E87
:100EBC004149492F7F0808087F417F41A5A50201C0
:100ECC00417E407F081422417F010101A57F20183B
:100EDC00207F7F1008047F3E4141413E7F484848B7
:100EEC00303E4145423D7F484C4A313249494926C2
:100EFC0040407F40407E0101017E700C030C707EEF
:100F0C00010E017E631408146370080708704345D2
:100F1C004951617F4141A5A50C123F120441417F0B
:100F2C00A5A5102040201001010101014020A5A51C
:100F3C00A5021515150F7F0911110E0E11111102B5
:100F4C000E1111097F0E1515150C083F484020187D
:100F5C002525253E7F0810100F115F01A5A5020164
:100F6C00115EA57F040A11A5417F01A5A51F100CD8
:100F7C00100F1F08100FA50E1111110E3F24222265
:100F8C001C1C2222243F1F081008A5081515150249
:100F9C00107E1101021E0101021F18060106181E07
:100FAC000106011E110A040A11180505051E11136C
:100FBC00151911083641A5A57FA5A5A5A54136088B
:100FCC00A5A508100810A5A5A5A5A5A5021E3F1E40
:100FDC00023049294936184525451E0201417E40FB
:100FEC002A1C771C2A3F202020607F7F7F7F7F7FF9
:100FFC007F7F7F7F3F692969217F7F7F7F7F3E498C
:10100C0049412208142A14227F7F7F7F7F1E2927C3
:10101C00211E7F7F7F7F7F413F41A5A5003048483F
:10102C003009097D0909417F41A5A5115F01A5A5DD
:10103C001F101058A57F7F7F7F7F7F7F7F7F7F7FF3
:10104C007F7F7F7F0E5515550C7F7F7F7F7F0E1521
:10105C0015110A22142A14087F7F7F7F7F7F7F7FE0
:10106C007F7F7F7F7F7F7F511F51A5A53F444444E5
:10107C003F7F494949467F494949367F4040406056
:10108C00033E427E037F4949494177087F087741F7
:10109C00494949367F0408107F3F0264083F7F08A6
:1010AC00142241011E20407F7F2018207F7F0808DA
:1010BC00087F3E4141413E7F4040407F7F48484849
:1010CC00303E4141412240407F4040700909097E39
:1010DC003C42FF423C63140814637F01017F0170A2
:1010EC000808087F7F017F017F7E027E027F407FA0
:1010FC000909067F0906007F7F0911110E2241495B
:10110C00493E7F083E413E314A4C487F0215151539
:10111C000F1E292949061F15150AA51F101018A501
:10112C00030E121E030E1515150C1B041F041B11A8
:10113C0015150AA51F0204081F1F4224481F1F046F
:10114C000A11A50708101FA51F0804081F1F040477
:10115C001FA50E1111110E1F10101FA51F14121216
:10116C000C0E1111110210101F1010180505051E80
:10117C000C129F120C110A040A111F01011F0118F5
:10118C0004041FA51F011F011F1E021E021F101F9A
:10119C000505021F0502001F1F050502A50A1115F2
:0C11AC00150E1F040E110E081516141F5E
:1050080000000001010100FF003B3B17071F0C6374
:10501800FF630000001F003B005A0078009700B5AE
:0A50280000D400F301110130014E25
:104680007830E2FFD3940240047E0080027E0178FD
:1046900031E2240CC39EFDEE75F00CA42F24FEF92C
:1046A000EDFF782FE22FFFE433FEED1313543F7C30
:1046B000002FFBEC3EFAE975F01FA4FFAEF07D0C75
:1046C0001204F2EF2BFFEE3ACF24FFCF34FFFE7C33
:1046D000007D071204F2AF05782EEFF27003740725
:0146E000F2E7
:0146E10022B6
:105160007830E2FFB4020F08E2540360047E1D8031
:10517000027E1CAF0622EFD3940740010FEF441EBE
:01518000FF2F
:01518100220B
:1048EE007FD01253127F0A1250A87F811250A81245
:1048FE0054667FD01253127F0D1250A87F81125032
:10490E00A87F041250A8E4FF1250A87851E2FF12BB
:10491E0050A81254661244E4782EE278B2F212468F
:0E492E0080782EE2FF78B2E26F6003124FDD58
:01493C002258
:10505A007FD0125312E4FF1250A8E478B2F278B269
:10506A00E2FFD39402500D12513D1250A878B2E2D9
:07507A0004F280EA02546613
:104FDD001246807FD01253127F031250A878B374FB
:104FED0003F278B3E2FFD39406500D12513D1250E7
:0B4FFD00A878B3E204F280EA025466D8
:1053C5007FD01253127F101250A87851E2FF12506D
:0453D500A802546670
:1044E4007FD0125312E4FF1250A81254667FD112E7
:1044F4005312E478B3F278B3E2FFD39406502BEF6F
:10450400B40603C38001D39201124E9E78B4EFF235
:1045140012545778B3E27C007BFE242BF9EC340070
:10452400FAEF1204ACE204F280CC1254667FD0128B
:1045340053127F111250A81254667FD1125312C223
:0B45440001124E9E7833EFF202546625
:043FE20078B2EFF2D0
:103FE6007832E2FFFD7C00242BF9EC3400FA78B33A
:103FF60074FEF208EAF208E9F27BFF74112DF9EC7F
:104006003450FA120471FEEF2408F9EC3450FA1217
:104016000471FD7832E2B40405125160AE0778B23D
:10402600E2FF08E2FB08E2FA08E2F9EF12048A78F6
:10403600B3E2FB08E2FA08E2F9120471FFD3EE6478
:1040460080F8EF6480984004ED1204AC78B3E2FB8C
:1040560008E2FA08E2F9120471FFC3ED6480F8EF92
:094066006480985004EE1204ACD1
:01406F00222E
:105081007832E2601024FE600A24FE24FD500424DC
:1050910006700E800678327404F2227832E214F23D
:0750A1002278327402F222B2
:104D8E007830E2FF25E02418F582E43450F58318DC
:104D9E00E2FD7401932DFDE4933400FC7831E2546E
:104DAE0003700CEFD3940240067E007F0180047ED8
:0A4DBE00007F00ED2FFFEC3EFE2207
:0F545700EFC4540F75F00AA4FEEF540F2EFF227E
:10513D007E007BFE742B2FF9EE3400FA120471FF02
:10514D00EF75F00A84C454F0FEEF75F00A84E5F0B3
:03515D002EFF2200
:10543600125524D2C1125524A2C29203C2C1A2039C
:015446002243
:07551000A20292C202543610
:1052F90078B2EFF2D2C1D2C2125524C2C2125524D9
:09530900C2C178B2E2FF0250CFEC
:1053120078E2EFF2D2C1D2C2125524C2C21255248F
:09532200C2C178E2E2FF0250A8CA
:0F546600C2C1C2C2125524D2C1125524D2C222D1
:0450A80078E3EFF2C8
:1050AC00E408F2F278E3E233920212551078E3E26C
:1050BC00FF25E0F208E204F2E2C3940840E6D202D3
:0350CC000255107A
:0450CF0078B3EFF2D1
:1050D300E408F2F278B3E233920212551078B3E2A5
:1050E300FF25E0F208E204F2E2C3940840E6D2C2EC
:0350F3000254362E
:104E9E00D2C2E478E3F218F278E3E2FF25E0F212F0
:104EAE005436500678E3E24401F278E2E204F2E28C
:104EBE00C3940840E3A201B3920212551078E3E2C4
:014ECE00FFE4
:014ECF0022C0
:045524007F02DFFE25
:015528002260
:0A54B900EF60077E13DEFE1F80F691
:0154C30022C6
:0E547500EF600B7E127DEBDDFEDEFC1F80F291
:015483002206
:1045E000813B0081390082370000813A00813CFA2A
:0A45F000813D008234000081360096
:103B3100E4FF20C6010F20C504EF4402FF20C404A6
:103B4100EF4404FFEF602A7836E2FEB5071D18E264
:103B51002401F218E23400F208E2647D700218E2F6
:103B61007035EEC454F0783DF2802C7836EFF28057
:103B7100267834E2FE08E2FFD39419EE6480948043
:103B8100400FEF947DEE64809480500508E2783D0B
:103B9100F2E47834F208F2783CE26005E214F28053
:103BA10028783C74FAF218E26003E214F27839E200
:103BB1006003E214F27838E2700218E2600B7838A0
:103BC100E224FFF218E234FFF2783AE26005E214EF
:103BD100F2800E7838E2700218E26005783A74FAE1
:103BE100F2783AE2540ED39408400B783CE2D39435
:083BF1007D4005C2C322D2C3CE
:013BF90022A9
:10544700783AEFF2783C74FAF2E47837F208F2220D
:06551700783DE2FFE4F222
:01551D00226B
:104CD600FF00050000010200071E0101010101009D
:104CE6000000000001FF00010000000000000000BD
:104CF600000000000000F7800000FF010505040128
:0F4D06000601173B01010101010101097F0201B3
:0345FA00813E00FF
:10474300D200E478B3F278B3E2FFC39409501D7E3C
:10475300007BFE74462FF9EE3400FA120471F46004
:1047630004C200800778B3E204F280DA30002EE45A
:1047730078B3F278B3E2FF7C007BFF24D6F9EC3404
:104783004CFA120471FEEF1B243FF9EC3400FAEEED
:0D4793001204ACE204F2E2B415D9124D1587
:0147A00022F6
:104E0100E478B2F278B2E2FDC394155028783EE21C
:104E110025E0FE7C00E42DFFEC3EFE12534478B207
:104E2100E27C007BFE243FF9EC3400FAEF1204AC83
:084E3100E204F280CF024743C6
:104D1500783EE2FF7E0012539CE478B4F278B4E268
:104D2500FDC394155026783EE225E0FE7C00E42D77
:104D3500FFEC3EFE7BFE743F2DF9EC3400FA1204C5
:0C4D450071FD12532B78B4E204F280D10F
:014D5100223F
:1053710000000000000000000000FF01173B0101D8
:065381000101010101FF22
:104DC800E478B2F278B2E2FFFD3395E0FC7BFE7442
:104DD800462DF974003CFA120471FEEF3395E0FC9D
:104DE80074542DF974003CFAEE1204ACE204F2E2B9
:084DF800B40AD1785E74FFF2E9
:014E0000228F
:104D5200E478B2F278B2E2FFFD3395E0FC7BFE74B8
:104D6200542DF974003CFA120471FEEF3395E0FC05
:104D720074462DF974003CFAEE1204ACE204F2E23D
:0B4D8200B40AD1124D15785E74FFF2E8
:014D8D002203
:1053EC00785EE2C3648094894003E4F222785EE242
:0353FC0004F22296
:0440700078B2EFF241
:10407400785EE2FFFD3395E0FC74542DF974003C46
:10408400FA78B374FEF208EAF208E9F27BFF747C72
:104094002DF974533CFA120471FEEFFD3395E0FCE4
:1040A40074712DF974533CFA120471FF78B2E2FD75
:1040B40008E2FB08E2FA08E2F9ED12048A78B3E2B6
:1040C400FB08E2FA08E2F9120471FDD3EE6480F809
:1040D400ED6480984004EF1204AC78B3E2FB08E28C
:1040E400FA08E2F9120471FDC3EF6480F8ED64800C
:0740F400985004EE1204AC29
:0140FB0022A2
:0D549F00E4F5C7F5C5F5C675C380F5C42258
:1053440075C78275C5018FC4EEF5C375C65A75C697
:07535400A500AFC202549F47
:10532B0075C78275C5028FC4EEF5C3AF058FC27505
:09533B00C65A75C6A50002549F74
:10539C0075C78275C5038FC4EEF5C375C65A75C63D
:0553AC00A50002549F62
:01553A00224E
:1053FF00438E805389F0E4F58A758CF7C28DD28C79
:03540F00D2A922FD
:0954D9001253FF12553AD2AF2222
:03000B000249D7D0
:1049D700C0E0C0F0C083C082C0D075D000C000C0A6
:1049E70001C002C003C004C005C006C0071237F1EA
:1049F700785FE204F2E2D394204005E4F2123B31FF
:104A0700D007D006D005D004D003D002D001D00003
:0B4A1700D0D0D082D083D0F0D0E032AD
:03001B0002553B50
:01553B00323D
:101E5100D120CDCEC2DBCC20C3CEC4CECC2121211A
:101E610000D0EEE6E4E5F1F2E2EE20F5F0E8F1F281
:101E7100EEE2EE2E00D1F2E0F0FBE920CDEEE2FB46
:101E8100E920E3EEE42E00CAF0E5F9E5EDE8E5200E
:101E9100C3EEF1EFEEE4EDE52E00D2E0F2FCFFED52
:101EA100E8ED20E4E5EDFC2E00C4E5EDFC20E2F1D7
:101EB100E5F520E2EBFEE1EBB8EDEDFBF52E00C41C
:101EC100E5EDFC20E7E0F9E8F2EDE8EAE020CEF20A
:101ED100E5F7E5F1F2E2E02E00CCE5E6E4F3EDE032
:101EE100F0EEE4EDFBE920E6E5EDF1EAE8E920E4D6
:101EF100E5EDFC2E00C4E5EDFC20ECEEF0FFEAE0A0
:101F01002DEFEEE4E2EEE4EDE8EAE02E00C4E5EDCB
:101F1100FC20F1ECE5F5E02E00C4E5EDFC20EAEE55
:101F2100F1ECEEEDE0E2F2E8EAE82E00CFF0E0E7D6
:101F3100E4EDE8EA20C2E5F1EDFB20E820D2F0F380
:101F4100E4E02E00C4E5EDFC20EFEEE1E5E4FB2149
:101F5100212100C4E5EDFC20EFE8EEEDE5F0E8E835
:101F61002E00C4E5EDFC20EFEEE3F0E0EDE8F7ED47
:101F7100E8EAE02E00C4E5EDFC20E7E0F9E8F2FB39
:101F810020E4E5F2E5E92E00C4E5EDFC20D0CED158
:101F9100D1C8C82E00C4E5EDFC20ECEEEBEEE4E583
:101FA100E6E82E00C4E5EDFC20F1E5ECFCE82C2090
:101FB100EBFEE1E2E820E820E2E5F0EDEEF1F2E807
:101FC1002E00C4E5EDFC20C2EEE7E4F3F8EDEE2DC2
:101FD100E4E5F1E0EDF2EDFBF520E2EEE9F1EA2EC8
:101FE10000C4E5EDFC20C2EEE5EDEDEE2DE2EEE7FD
:101FF100E4F3F8EDFBF520F1E8EB2E00C4E5EDFC90
:1020010020E7EDE0EDE8E92E00C4E5EDFC20F2E586
:10201100F1F2E8F0EEE2F9E8EAE02E00C4E5EDFCC9
:1020210020F3F7E8F2E5EBFF2E00C4E5EDFC20F02C
:10203100EEE6E4E5EDE8FF20C4E5E4E020CCEEF0D7
:10204100EEE7E02E00C4E5EDFC20FDEDE5F0E3E573
:10205100F2E8EAE02E00C4E5EDFC20EFF0EEE3F05B
:10206100E0ECECE8F1F2E02E00C4E5EDFC20ECE55B
:10207100E4E8F6E8EDF1EAEEE3EE20F0E0E1EEF27D
:10208100EDE8EAE02E00C4E5EDFC20F1E8F1F2E52F
:10209100ECEDEEE3EE20E0E4ECE8EDE8F1F2F0E067
:1020A100F2EEF0E02E00C4E5EDFC20C2EEE5EDED30
:1020B100EE2DCCEEF0F1EAEEE3EE20D4EBEEF2E021
:1020C1002E00CCE5E6E4F3EDE0F0EEE4EDFBE920F3
:1020D100E4E5EDFC20EFE8E2E02E00C4E5EDFC20B4
:1020E100F1F2F0EEE8F2E5EBFF2E00C4E5EDFC20A5
:1020F100F2E0EDEAE8F1F2E02E00C4E5EDFC20E0CB
:10210100E2F2EEECEEE1E8EBE8F1F2E02E00C4E5FC
:10211100EDFC20ECE0F2E5F0E82E000101111E518A
:102121000107141E62010E121E760113131E88018F
:10213100190F1E9B020E161EAA02171A1EC00308B3
:102141001C1EDA0313181EF604010C1F0E040C13D7
:102151001F1A0501181F2D05090F1F4505130F1F14
:1021610054051C131F630601131F76060C0D1F89EE
:10217100061B0F1F9607081E1FA508021F1FC30875
:102181000C1B1FE209010D1FFD090913200A0A0595
:102191000E201D0B121B202B0C1611204661001363
:1021A100205736071D206A770520208777071C20D6
:1021B100A718051920C328071020DC29070F20ECD8
:0A21C1007A071420FB7B070D210FA5
:0245FD00C107F4
:1047A100782EE278B3F27F057860E4F208DFFC7FCF
:1047B10005782FE278B3F278B3E2D364809487402E
:1047C10006E224F9F280F0125160AE07E4FFEFC374
:1047D10094055024EEFD78B3E2F9FB3395E0FAD36A
:1047E100EB9D7480F86A98500F74602FF8E9F20F0E
:0847F10078B3E22407F280D640
:0147F900229D
:1051A1007864E2FF700C782FE2FE7863E2B5060ABC
:0C51B100D322782FE2B50702D322C322DC
:1054240074602FF8E2FF782FE2FEEFB50602D32274
:02543400C32291
:10351C00C207E4780AF21247A1E478B2F278B2E278
:10352C00FFC394234003023696300703023696EF0E
:10353C0075F005A4241CF582E43421F583E493FF93
:10354C0054F0FEC4540F1424FB503F70030235E2B8
:10355C0014700302361C2407600302368878B2E22A
:10356C0075F005A4241DF582E43421F583E493FE63
:10357C00782FE2FDEE6D600302368EEF540FFF08DC
:10358C00E26F600302368E02365478B2E2FF75F0B9
:10359C0005A4241CF582E43421F583E493FE540F36
:1035AC00FD7830E26D600302368EEF75F005A424D1
:1035BC001DF582E43421F583E493FF782EE26F60ED
:1035CC000302368EEE5470C4540F14FF1254244070
:1035DC000302368E8072124D8EAC06AD0778B2E2C5
:1035EC00FB75F005A4241CF582E43421F583E493E7
:1035FC005401FEEB75F005A4241DF582E43421F58D
:10360C0083E493FBEB6D7002EC6E7076D207803C1A
:10361C0078B2E2FF75F005A4241CF582E43421F5A0
:10362C0083E493540FFE7830E26E7056EF75F0051C
:10363C00A4241DF582E43421F583E493FF782EE273
:10364C006F703F1251A1503AD20778B2E2FE75F07A
:10365C0005A4241EF582E43421F583E493FFEE7572
:10366C00F005A4241FF582E43421F583E493FC7463
:10367C000193AA04F97BFF1244738006C207E47815
:0A368C000AF278B2E204F2023529D6
:013696002211
:1045FF008184EC816B00826C0000826500008285F3
:02460F000000A9
:1051820078B2EFF208EDF27884E2FF12531278B2AD
:0F519200E2FF1250A878B3E2FF1250A802546651
:044F850078B2EFF21D
:104F89007884E2FF12531278B2E2FF1250A87884B3
:104F9900E24401FF125312C201124E9E78B3EFF29E
:074FA90012546678B3E2FF29
:014FB00022DE
:044C540078DFEFF224
:104C58007884E2FF12531278DFE2FF1250A87884BA
:104C6800E24401FF125312D201124E9EEFF8E4798A
:104C7800E1F3E819F3C201124E9E78E0E2F208E28D
:0C4C88004FF212546678E0E2FE08E2FFF2
:014C940022FD
:044C950078B2EFF210
:104C99007884E2FF12531278B2E2FF1250A87884A6
:104CA900E24401FF125312D201124E9E78B3E4F28C
:104CB90008EFF2C201124E9EEFFE78B3E24EF208FF
:0C4CC900E2F212546678B3E2FE08E2FF4B
:014CD50022BC
:03552E00024C54D8
:03553100024C9594
:043D6E0078CAEFF22E
:103D72007884E2FF12531278CAE2FF1250A87884C4
:103D8200E24401FF125312D201124E9EE4FCFDFEE8
:103D9200780C1206F678CB12070978CBE2FB08E220
:103DA200F908E2FA08E2CBF8C000C001C002C00381
:103DB200D201124E9EE4FCFDFE78041206F6D003F8
:103DC200D002D001D000EB4FFFEA4EFEE94DFDE8F4
:103DD2004CFC78CB12070978CBE2FB08E2F908E247
:103DE200FA08E2CBF8C000C001C002C003C201124F
:103DF2004E9EEFC4540FFFD003D002D001D000EB8F
:103E02004FFFEAFEE9FDE8FC78CB1207091254667F
:0D3E120078CBE2FC08E2FD08E2FE08E2FFCA
:013E1F002280
:104186007FAA124C54786EEEF208EFF27FAC124C16
:10419600547870EEF208EFF27FAE124C547872EE5D
:1041A600F208EFF27FB0124C547874EEF208EFF298
:1041B6007FB2124C547876EEF208EFF27FB4124CCE
:1041C600547878EEF208EFF27FB6124C54787AEE15
:1041D600F208EFF27FB8124C54787CEEF208EFF258
:1041E6007FBA124C54787EEEF208EFF27FBC124C86
:1041F600547880EEF208EFF27FBE124C547882EECD
:05420600F208EFF222B6
:103F51007F88124C95788BEEF208EFF27F8A12552A
:103F610031788DEEF208EFF27F8C125531788FEEB9
:103F7100F208EFF27F8E124C957891EEF208EFF293
:103F81007F901255317893EEF208EFF27F9212553D
:103F9100317895EEF208EFF27F941255317897EE71
:103FA100F208EFF27F961255317899EEF208EFF2AE
:103FB1007F98125531789BEEF208EFF27F9A1255F5
:103FC10031789DEEF208EFF27F9C125531789FEE29
:103FD100F208EFF27F9E12553178A1EEF208EFF26E
:013FE10022BD
:10438C00123F517FA1124F8578A3EFF27FE11255B6
:10439C003178A4EEF208EFF27FE3124F8578A6EFA6
:1043AC00F27FE4124F85EF75F010A4FFAEF0C0075A
:1043BC00C0067FE5124F85EF540FFDD0E078A7F2D1
:1043CC00D0E04D08F27FE6124F85EF75F010A4FF98
:1043DC00AEF0C007C0067FE5124F85EFC4540FFD49
:1043EC00D0E078A9F2D0E04D08F27FE7124F857843
:0443FC00ABEFF2220F
:0E548400E4FD7FF51251827DAB7FF402518270
:0A54CF007D057FF212518202548421
:0450F60078DEEFF27F
:1050FA007884E2FF1253127FF41250A878DEE2FF9E
:10510A001250A81254667F051254757FF6024C5449
:0C54AC007FF3124F85EF30E002D322C3E3
:0154B80022D1
:10420B007FEC1252F9B39200125466300007788497
:10421B0074ECF280137FEE1252F9B39200125466D3
:10422B00300005788474EEF23000097FD0124F8590
:10423B00786BEFF2786BE2FF6003B4FF05E4786B09
:10424B00F222EF6455601C7DB67FE01251827F95A0
:10425B001254757F9580071254AC50077F6412542B
:10426B007580F4786BE224AA24FD500B24F9600DC1
:10427B00240B700F024186123F5102548412438C5F
:03428B001254CFFB
:01428E00220D
:101600007F2E1250F678DAEEF208EFF27F341250A5
:10161000F678DCEEF208EFF2786BE26455600302D4
:101620001A4678DAE2FE08E2FFE4FCFDC006C007D5
:101630007878E2FE08E2FBAA06D007D006C3EF9B4B
:10164000FFEE9AFEED9400FDEC9400FCC004A905A9
:10165000AA06AB077876E2FE08E2FFE4FCFDD000C4
:1016600012057D780F1206E278B21207097880E23F
:10167000FE08E2FFEE3395E0FDFC780B1206F6C0A3
:1016800004C005C006C0077882E2FE08E2FFEE3320
:1016900095E0FDFC78B2E2FB08E2F908E2FA08E224
:1016A000CBF8EB2FFBEA3EFAE93DF9E83CF8D0072E
:1016B000D006D005D004124C1078B612070978B6BF
:1016C000E2FC08E2FD08E2FE08E2FF78B2E2FB0875
:1016D000E2F908E2FA08E2CBF8EB2FFFEA3EFEE976
:1016E0003DFDE83CFC78C212070978C2E2FC08E242
:1016F000FD08E2FE08E22408FFE43EFEE43DFDE4CE
:101700003CFC78041206E2786CEEF208EFF278C244
:10171000E2FC08E2FD08E2FE08E22460FFEE34F09D
:10172000FEED34FFFDEC34FFFC0812070978C6E239
:10173000FC08E2FD08E2FE08E2FFA804A905AA06EB
:10174000FB12057D780C1206E278CA120709787040
:10175000E2FE08E2FFEE3395E0FDFC78C6E2FB080E
:10176000E2F908E2FA08E2CBF812057DC004C005F0
:10177000C006C007787CE2FE08E2FFEE3395E0FD8C
:10178000FC78CAE2FB08E2F908E2FA08E2CBF812B8
:10179000057DD003D002D001D000EF2BFFEE3AFE42
:1017A000ED39FDEC38FC780B1206E278BA12070925
:1017B000786EE2FE08E2FFEE3395E0FDFCE47B0488
:1017C000FAF9F812057D78BAE2FB08E2F908E2FAC4
:1017D00008E2CBF8EB2FFFEA3EFEE93DFDE83CFCDA
:1017E000EF2402FFE43EFEE43DFDE43CFC780212FF
:1017F00006E278BE1207097872E2FE08E2FFEE33D5
:1018000095E0FDFC78C6E2FB08E2F908E2FA08E29E
:10181000CBF812057D780D1206E278B2120709782E
:101820007AE2FE08E2FFEE3395E0FDFC78CAE2FBC7
:1018300008E2F908E2FA08E2CBF812057D78101206
:1018400006E278B612070978B6E2FC08E2FD08E283
:10185000FE08E2FF78B2E2FB08E2F908E2FA08E2E9
:10186000CBF8EB2FFFEA3EFEE93DFDE83CFCEF2420
:1018700002FFE43EFEE43DFDE43CFC78021206E299
:1018800078BA12070978BAE2FC08E2FD08E2FE081D
:10189000E22400FFEE3480FEE43DFDE43CFCC004A5
:1018A000A905AA06AB077874E2FE08E2FFE4FCFD96
:1018B000D00012057D780F1206CF78D21207097872
:1018C000DCE2FE08E2FFE4FCFDC004C005C006C087
:1018D0000778BEE2FC08E2FD08E2FE08E2FBAA0689
:1018E000A905A804D007D006D005D004C3EF9BFFFC
:1018F000EE9AFEED99FDEC98FCE47B507AC3F9F882
:1019000012057D78D612070978D2E2FB08E2F908C1
:10191000E2FA08E2CBF8C00078D6E2FC08E2FD0863
:10192000E2FE08E2FFD00012060878011206F678FF
:10193000CE12070978CEE2FC08E2FD08E2FE08E2DA
:10194000FF78081206E2C004C005C006C00778CEC2
:10195000E2FC08E2FD08E2FE08E2FF78081206E277
:10196000D003D002D001D00012057D78B212070951
:10197000E47FDE7E0BFDFC78B2E2FB08E2F908E2D0
:10198000FA08E2CBF812057D78101206E278B2125E
:1019900007097F437EE37DFF7CFF78CEE2FB08E210
:1019A000F908E2FA08E2CBF812057D78101206E297
:1019B00078B612070978B6E2FC08E2FD08E2FE08F4
:1019C000E2FF78B2E2FB08E2F908E2FA08E2CBF8BB
:1019D000EB2FFFEA3EFEE93DFDE83CFCEF24CFFFA4
:1019E000EE340EFEE43DFDE43CFC78041206E278A1
:1019F000CEE2FB08E2F908E2FA08E2CBF8EB2FFFAF
:101A0000EA3EFEE93DFDE83CFC78BA12070978BAE7
:101A1000E2FC08E2FD08E2FE08E2FFEC1202BC7BF9
:101A2000B07A507955784112021F78671207097809
:101A300067E2FC08E2FD08E2FE08E2FF1202FA7823
:061A400065EEF208EFF272
:011A4600227D
:103381007FFA123D6E78C6120709E4FFFE7D08FC44
:1033910078C6E2FB08E2F908E2FA08E2CBF8C312C8
:1033A10006BE700302351B788BE2FE08E2FFE4FCE7
:1033B100FD78011206F6AB07AA06A905C004C005EF
:1033C100C006C00778C6E2FC08E2FD08E2FE08E29A
:1033D100FF78031206CFD003D002D001D000C3EF93
:1033E1009BFFEE9AFEED99FDEC98FCC004A905AA9D
:1033F10006AB07788DE2FE08E2FFEE3395E0FDFCB7
:10340100D00012057D780B1206CF78C21207097819
:103411008BE2FE08E2FFE4FCFDAB07AA06F9C0045B
:10342100C005C006C00778C6E2FC08E2FD08E2FE5E
:1034310008E2FF78041206CFD003D002D001D000F9
:10344100C3EF9BFFEE9AFEED99FDEC98FCC004C022
:1034510005C006C007788BE2FE08E2FFE4FCFDAB85
:1034610007AA06F9C004C005C006C00778C6E2FC79
:1034710008E2FD08E2FE08E2FF78041206CFD0035D
:10348100D002D001D000C3EF9BFFEE9AFEED99FD73
:10349100EC98FCD003D002D001D00012057D780C4D
:1034A1001206CFC004A905AA06AB07788FE2FE0871
:1034B100E2FFEE3395E0FDFCD00012057D780E129F
:1034C10006CF78C2E2FB08E2F908E2FA08E2CBF89B
:1034D100EB2FFFEA3EFEE93DFDE83CFC7887120751
:1034E10009E47F05FEFDFC7887E2FB08E2F908E2CA
:1034F100FA08E2CBF812057DEF2480FFE43EFEE4FA
:103501003DFDE43CFC78081206E2E47B0AFAF9F896
:0A351100124C10786CEEF208EFF295
:01351B00228D
:1011B8001233817FF7123D6E78B21207097887E201
:1011C800FC08E2FD08E2FE08E2FF78011206E2E40C
:1011D8002FFFEE3406FEED34FFFDEC34FFFC78B64D
:1011E80012070978B6E2FC08E2FD08E2FE08E2FF11
:1011F80078021206E2C004C005C006C00778B6E24D
:10120800FC08E2FD08E2FE08E2FF78021206E2D0DE
:1012180003D002D001D00012057D780B1206E2C07F
:1012280004A905AA06AB07789BE2FE08E2FFEE33A5
:1012380095E0FDFCD00012057D78BA12070978BA4E
:10124800E2FB08E2F908E2FA08E2CBF8C000C001C4
:10125800C002C0037899E2FE08E2FFEE3395E0FD94
:10126800FC78B6E2FB08E2F908E2FA08E2CBF812E9
:10127800057D78011206F6D003D002D001D000EB2C
:101288002FFFEA3EFEE93DFDE83CFC78BA1207096B
:101298007897E2FE08E2FFEE3395E0FDFC78101245
:1012A80006F6C004C005C006C00778BAE2FC08E22A
:1012B800FD08E2FE08E2FF78021206E2D003D0023F
:1012C800D001D000EF2BFFEE3AFEED39FDEC38FCF3
:1012D80078BA12070978B6E2FC08E2FD08E2FE08CF
:1012E800E2FF78021206E2C004C005C006C0077813
:1012F800B6E2FC08E2FD08E2FE08E2FF7802120608
:10130800E2D003D002D001D00012057D780D12067C
:10131800E2C004A905AA06AB077895E2FE08E2FF39
:10132800EE3395E0FDFCD00012057D78031206E24D
:10133800C004C005C006C0077893E2FE08E2FFEECD
:101348003395E0FDFC78B6E2FB08E2F908E2FA081A
:10135800E2CBF812057D78011206E2D003D002D064
:1013680001D000EB2FFFEA3EFEE93DFDE83CFC78AA
:10137800121206E278B612070978B6E2FC08E2FD16
:1013880008E2FE08E22400FFEE3480FEE43DFDE4BE
:101398003CFCC004A905AA06AB077891E2FE08E266
:1013A800FFE4FCFDD00012057D780F1206E278B646
:1013B80012070978B6E2FC08E2FD08E2FE08E2FF3F
:1013C800EC4D4E4F70030215FF08E2FC08E2FD08E1
:1013D800E2FE08E2FF780C1206E2C004C005C0066F
:1013E800C00778B2E2FB08E2F908E2FA08E2CBF8B3
:1013F800C3E49BFFE49AFE741099FDE498FCD003C3
:10140800D002D001D000C3EF9BFFEE9AFEED99FD0C
:10141800EC98FCE47B357A0CF9F812057D78BE125D
:101428000709E4FFFEFD7C8078BEE2FB08E2F908CC
:10143800E2FA08E2CBF8C31206BE503A78BEE2FCE4
:1014480008E2FD08E2FE08E2FF78011206F6C00491
:10145800C005C006C00778B6E2FC08E2FD08E2FE57
:1014680008E2FBAA06A905A804D007D006D005D033
:1014780004120608803078B6E2FC08E2FD08E2FEB5
:1014880008E2FFC004A905AA06AB0778BEE2FC087B
:10149800E2FD08E2FE08E2FFD000120608E47B0243
:1014A800FAF9F812057D78BE12070978BEE2FC0841
:1014B800E2FD08E2FE08E2FF78031206CFC004C08E
:1014C80005C006C00778BEE2FC08E2FD08E2FE0897
:1014D800E2FF78031206CFD003D002D001D0001269
:1014E800057D780D1206CFC004A905AA06AB0778BA
:1014F800A1E2FE08E2FFEE3395E0FDFCD000120504
:101508007D780C1206E278B612070978BEE2FC086C
:10151800E2FD08E2FE08E2FF78021206CFC004A945
:1015280005AA06AB07789FE2FE08E2FFEE3395E0D6
:10153800FDFCD00012057D780D1206E278BA12077C
:101548000978BEE2FB08E2F908E2FA08E2CBF8C043
:1015580000C001C002C00378BAE2FC08E2FD08E25C
:10156800FE08E2FF78B6E2FB08E2F908E2FA08E2D0
:10157800CBF8EB2FFFEA3EFEE93DFDE83CFCC0045A
:10158800A905AA06AB07789DE2FE08E2FFEE3395AF
:10159800E0FDFCD000EB2FFFEA3EFEE93DFDE83C14
:1015A800FC78041206E2D003D002D001D000EB2F61
:1015B800FFEA3EFEE93DFDE83CFC78BE12070978EB
:1015C800BEE2FC08E2FD08E2FE08E2FFE41202BC0B
:1015D8007BB07A507955784112021F786712070953
:1015E8007867E2FC08E2FD08E2FE08E2FF1202FA70
:0715F8007865EEF208EFF246
:0115FF0022C9
:1027BC001233817FFD124C54E4FCFD78B2120709F0
:1027CC00E4FF7E80FDFC78B2E2FB08E2F908E2FA55
:1027DC0008E2CBF8C31206A87003022A847887E2B9
:1027EC00FC08E2FD08E2FE08E22400FFEE34D4FE11
:1027FC00ED34FEFDEC34FFFC78B612070978A6E246
:10280C00FFE4FCFDFE78B6E2FB08E2F908E2FA0808
:10281C00E2CBF812057D780B1206E2E42FFFEE34C2
:10282C0080FEE43DFDE43CFCC004C005C006C007CE
:10283C0078ABE2FF3395E0FEFDFC78B6E2FB08E2F4
:10284C00F908E2FA08E2CBF812057D780A1206E2E2
:10285C00D003D002D001D00012057D780A1206E216
:10286C00E42FFFE43EFEED3420FDE43CFCC004A963
:10287C0005AA06AB0778A4E2FE08E2FFEE3395E06A
:10288C00FDFCD00012057DE42FFFEE3420FEE43D6C
:10289C00FDE43CFC780E1206E2C004C005C006C084
:1028AC000778A7E2FE08E2FFEE3395E0FDFC781412
:1028BC001206F6C004C005C006C00778B2E2FC08D8
:1028CC00E2FD08E2FE08E2FF780E1206F6D003D015
:1028DC0002D001D000C3EF9BFFEE9AFEED99FDEC08
:1028EC0098FCC004C005C006C00778A9E2FE08E247
:1028FC00FFEE3395E0FDFC78B6E2FB08E2F908E266
:10290C00FA08E2CBF812057DA804A905AA06AB07C4
:10291C00D007D006D005D004C3EF9BFFEE9AFEED96
:10292C0099FDEC98FCE42FFFEE3440FEE43DFDE411
:10293C003CFC780F1206E2D003D002D001D000127A
:10294C00057D78B612070978B6E2FC08E2FD08E2CC
:10295C00FE08E2FFC004C005C006C00778B6E2FC62
:10296C0008E2FD08E2FE08E2FF780F1206E2C0045E
:10297C00C005C006C00778B6E2FC08E2FD08E2FE1E
:10298C0008E2FF780F1206E2D003D002D001D0008B
:10299C0012057D78071206E2C004A905AA06AB074A
:1029AC0078A3E2FFE4FCFDFED00012057D78041252
:1029BC0006E2A804A905AA06AB07D007D006D005E5
:1029CC00D004C3EF9BFFEE9AFEED99FDEC98FC78DA
:1029DC00B612070978B6E2FCEC335007E4FFFEFDB3
:1029EC00FC800D78B6E2FC08E2FD08E2FE08E2FF8E
:1029FC0078B6120709E4FFFEFD7C1978B6E2FB08F5
:102A0C00E2F908E2FA08E2CBF8D31206A84008E48F
:102A1C00FFFEFD7C19800D78B6E2FC08E2FD08E2B1
:102A2C00FE08E2FF78B612070978B6E2FC08E2FD70
:102A3C0008E2FE08E2FF780C1206E278B6120709EB
:102A4C0078B6E2FC08E2FD08E2FE08E2FFEC1202B6
:102A5C00BC7B0A7AD77923784112021F7867120758
:102A6C00097867E2FC08E2FD08E2FE08E2FF1202C8
:082A7C00FA7885EEF208EFF292
:012A8400222F
:035534000211B8A9
:06551E001211B80227BCC7
:10520F00786BE224AA24FD500B24F9600A240B705A
:0B521F000902160002553412551E2231
:08000300786CE2FE08E2FF2226
:0854E2007865E2FE08E2FF22FA
:0854EA007885E2FE08E2FF22D2
:05552900786BE2FF2297
:0A461100C10882AC000082AE000078
:0D4AB30078B8EBF208EAF208E9F208EDF23B
:104AC0007F80125312E478BCF278BBE2FF08E2FE6A
:104AD000C39F5023EEFF78BAE22FF218E23400F2BF
:104AE00018E2FB08E2FA08E2F9120471FF1250A87A
:0A4AF00078BCE204F280D2025466A2
:0D4A220078B8EBF208EAF208E9F208EDF2CC
:104A2F007F81125312E478BCF278BBE2FF08E2C335
:104A3F009F5022D201124E9E78B8E2FB08E2FA088C
:104A4F00E2F978BCE2F582758300EF1204BE78BC00
:0D4A5F00E204F280D4C201124E9E025466A1
:104FB10078B4EFF208EBF208EAF208E9F27BFE7A44
:104FC1000079B47D01124AB37F1912547578B5E2A4
:0C4FD100FB08E2FA08E2F97D02024A2225
:104AFA007BFE7A0079B27FF3124FB178B2E2FE08F8
:104B0A00E2FDEDFFAC06EC1202C17B527AB8792FB6
:104B1A007843120116E4FBFA7980784712021F7B68
:104B2A00667A66793B78C2120025E4FBFA79C8787E
:074B3A00421201160202FA0B
:104B87007BFE7A0079B27FF5124FB178B2E2FE0868
:104B9700E2FDEDFFAC06E41202C1E4FBFA79FA7814
:104BA70042120116E4FBFA7980784712021FE4FBF0
:104BB700FA79C078C0120025E4FBFA79C878421266
:054BC70001160202FAD4
:0B54C4007F801252F9B3920802546678
:1051BD00124AFA7C007D0A12054778ACEEF208EF30
:0C51CD00F2124B8778AEEEF208EFF222EF
:0854F20078ACE2FE08E2FF22A3
:0854FA0078AEE2FE08E2FF2299
:03553700A20822A5
:10001E00020366E86480F8E933E83360110460F0A7
:10002E00ED33EC337009E8FCE9FDEAFEEBFF220448
:10003E0060DED3EB9FEA9EE99DE8C2E78CF0C2F743
:10004E0095F0400CE8CCF8E9CDF9EACEFAEBCFFB0F
:10005E0012033185D0F05804700320D5B3E8047034
:10006E00075002B2D502037092D5EC0460F7E4CCCF
:10007E00C0E0C398F8603B94186008400DD0E0FBD8
:10008E00020348E4FBFAC9FC8028E830E406E4C920
:10009E00FBE4CAFCE830E305E4C9CACBFCE854072C
:1000AE006010F8C3E913F9EA13FAEB13FBEC13FC37
:1000BE00D8F130F52FC3E49CFCEF9BFFEE9AFEEDDA
:1000CE0099FDD0E0FBEF4E4D4C701222DB03020384
:1000DE006DEC2CFCEF33FFEE33FEED33FDED30E730
:1000EE00EB020348EF2BFFEE3AFEED39FDD0E0FBBD
:1000FE0050130BBB0003020370ED13FDEE13FEEF66
:08010E0013FFEC13FC0203488F
:10011600EC4D6011E8497017ED33EC3304600DE4E3
:10012600FCFFFEFD22E933E8330470F80203661291
:10013600033158046009E4CC248150062850090292
:10014600037028400302036DC0E0EB4A7044B98097
:1001560006D0E0FB02035CEF4E701CBD8008EBFF8F
:10016600EAFEE9FD80EBE98DF0A4FEE5F00201FF71
:10017600E9CDF9EAFEEBFFEF89F0A4FCE5F0CE89C4
:10018600F0A42EFFE435F0CD89F0A42DFEE435F081
:100196008067EF4E7005BD80D780C3EF8BF0A4ACAF
:1001A600F0EE8BF0A42CFCE435F0F8EF8AF0A42CEA
:1001B600E5F038FCE433CB8DF0A42CFCE5F03BF8FD
:1001C600EE8AF0A42CFCE5F038F8E433CF89F0A4ED
:1001D6002CFCE5F038CF3400CE89F0A42FFFE5F0F3
:1001E6003EFEE433C98DF0A42EFEE5F039CD8AF04B
:1001F600A42FFFE5F03EFEE43DFD33D0E0FB5007C3
:100206000BBB000F020370EC2CFCEF33FFEE33FE4A
:06021600ED33FD02034878
:10021C00020370EC5D046005E85904700302036688
:10022C00120331580460F6EC4860F2EC7004FDFEE9
:10023C00FF22C860DB2481C85009C39860025006B5
:10024C0002036D9850CAF582E9294B4A7005AB82BE
:10025C0002035C75F0007C1A7880C3EF9BEE9AED7C
:10026C0099400DC3EF9BFFEE9AFEED99FDE842F02D
:10027C00DC23ACF0D0E0FFD0E0FED0E0FDAB822080
:10028C00E7101BEB60BAEC2CFCEF33FFEE33FEED0A
:10029C0033FD020348E803F830E705C0F075F000C1
:1002AC00EF2FFFEE33FEED33FD40B830E7C280AAEE
:1002BC0075F020800E75F010800575F0087D007EBD
:1002CC00007F003392D530D50312069AEC334010E0
:1002DC00EF33FFEE33FEED33FDEC33FCD5F0ED22C6
:0E02EC00E5F0247EA2D513CC92E7CDCEFF2202
:1002FA00EDD2E7CD33EC3392D524814006E4FFFEFC
:10030A00FDFC22FCE4CFCECDCC24E0501174FF805A
:10031A00EDC3CC13CCCD13CDCE13CECF13CF0470F7
:07032A00F030D5DE02069A57
:10033100E9D2E7C933E833F892D5EDD2E7CD33EC12
:0703410033FC5002B2D5228B
:10034800EC30E7100FBF000C0EBE00080DBD000416
:100358000BEB6014A2D5EB13FCED92E7FD2274FFC2
:10036800FCFDFEFF22E480F8A2D574FF13FC7D801B
:03037800E480EF2F
:103E3A00020765E493A3F8E493A34003F68001F232
:103E4A0008DFF48029E493A3F85407240CC8C33389
:103E5A00C4540F4420C8834004F456800146F6DF58
:103E6A00E4800B01020408102040809045B6E47EED
:103E7A00019360BCA3FF543F30E509541FFEE4934D
:103E8A00A360010ECF54C025E060A840B8E493A314
:103E9A00FAE493A3F8E493A3C8C582C8CAC583CA3F
:103EAA00F0A3C8C582C8CAC583CADFE9DEE780BEF7
:01461B00009E
:10037B00E709F608DFFA8046E709F208DFFA803E64
:10038B0088828C83E709F0A3DFFA8032E309F60851
:10039B00DFFA8078E309F208DFFA807088828C83B9
:1003AB00E309F0A3DFFA806489828A83E0A3F6086D
:1003BB00DFFA805889828A83E0A3F208DFFA804C47
:1003CB0080D280FA80C680D4806980F2803380101E
:1003DB0080A680EA809A80A880DA80E280CA803387
:1003EB0089828A83ECFAE493A3C8C582C8CCC583FF
:1003FB00CCF0A3C8C582C8CCC583CCDFE9DEE780CF
:10040B000D89828A83E493A3F608DFF9ECFAA9F04D
:10041B00EDFB2289828A83ECFAE0A3C8C582C8CCA3
:10042B00C583CCF0A3C8C582C8CCC583CCDFEADEBC
:10043B00E880DB89828A83E493A3F208DFF980CC1E
:10044B0088F0EF60010E4E60C388F0ED2402B40417
:10045B000050B9F582EB2402B4040050AF232345BE
:06046B0082239003CB7315
:10047100BB010689828A83E0225002E722BBFE0289
:09048100E32289828A83E49322BC
:10048A00BB010989828A83F8E028F022500327F702
:10049A0022BBFE05F8E328F3228A838982F8E493D3
:0204AA00282206
:1004AC00BB010689828A83F0225002F722BBFE012F
:0204BC00F32229
:1004BE00F8BB010DE58229F582E5833AF583E8F074
:1004CE00225006E92582C8F622BBFE05E92582C820
:0204DE00F22208
:1004E000EF8DF0A4A8F0CF8CF0A428CE8DF0A42E30
:0204F000FE22EA
:1004F200BC000BBE0029EF8DF084FFADF022E4CCEE
:10050200F875F008EF2FFFEE33FEEC33FCEE9DECB6
:10051200984005FCEE9DFE0FD5F0E9E4CEFD22EDFC
:10052200F8F5F0EE8420D21CFEADF075F008EF2F46
:10053200FFED33FD4007985006D5F0F222C398FD37
:050542000FD5F0EA22D4
:10054700C2D5EC30E709B2D5E4C39DFDE49CFCEECF
:1005570030E715B2D5E4C39FFFE49EFE1204F2C351
:10056700E49DFDE49CFC80031204F230D507C3E44C
:060577009FFFE49EFE223E
:10057D00E88FF0A4CC8BF0A42CFCE98EF0A42CFC1D
:10058D008AF0EDA42CFCEA8EF0A4CDA8F08BF0A49B
:10059D002DCC3825F0FDE98FF0A42CCD35F0FCEBFA
:1005AD008EF0A4FEA9F0EB8FF0A4CFC5F02ECD39BF
:0F05BD00FEE43CFCEAA42DCE35F0FDE43CFC222C
:1005CC0075F008758200EF2FFFEE33FECD33CDCCE6
:1005DC0033CCC58233C5829BED9AEC99E582984069
:1005EC000CF582EE9BFEED9AFDEC99FC0FD5F0D646
:1005FC00E4CEFBE4CDFAE4CCF9A88222B800C1B970
:10060C000059BA002DEC8BF084CFCECDFCE5F0CBAD
:10061C00F97818EF2FFFEE33FEED33FDEC33FCEBE6
:10062C0033FB10D703994004EB99FB0FD8E5E4F9A1
:10063C00FA227818EF2FFFEE33FEED33FDEC33FC8E
:10064C00C933C910D7059BE99A4007EC9BFCE99A82
:10065C00F90FD8E0E4C9FAE4CCFB2275F010EF2FC7
:10066C00FFEE33FEED33FDCC33CCC833C810D707C7
:10067C009BEC9AE899400AED9BFDEC9AFCE899F802
:0E068C000FD5F0DAE4CDFBE4CCFAE4C8F92295
:104C1000C2D5E830E70FB2D5E4C39BFBE49AFAE4CF
:104C200099F9E498F8EC30E717B2D5124C46120621
:104C300008E4C39BFBE49AFAE499F9E498F880034A
:104C400012060830D50DE4C39FFFE49EFEE49DFDEF
:044C5000E49CFC22C2
:0E069A00C3E49FFFE49EFEE49DFDE49CFC2271
:1006A800EB9FF5F0EA9E42F0E99D42F0EC6480C8C9
:0606B80064809845F02269
:1006BE00EB9FF5F0EA9E42F0E99D42F0E89C45F092
:0106CE002209
:1006CF00E8600FECC313FCED13FDEE13FEEF13FF09
:0306DF00D8F1222D
:1006E200E86010ECA2E713FCED13FDEE13FEEF132E
:0406F200FFD8F0221B
:1006F600E8600FEFC333FFEE33FEED33FDEC33FC62
:03070600D8F12205
:0C070900ECF208EDF208EEF208EFF2222C
:10071500D083D082E493F208740193F208740293B3
:09072500F208740393F2740473EA
:10072E00F5F0C582A4C582C5F0C583A42583F583E3
:01073E002298
:10073F00D083D082F8E4937012740193700DA3A349
:10074F0093F8740193F5828883E47374029368605D
:06075F00EFA3A3A380DF5D
:00000001FF
