:03000000023C803F
:103C800078FFE4F6D8FD9000007F007E03E4F0A307
:0A3C9000DFFCDEFA758121023CD54D
:104F2700124BA4124C0F12521F124694124B6B12C3
:0B4F3700406B12520A783174FFF22226
:105078003006FD12000EC2AF124BA4D2AFE478186E
:08508800F27829F2780BF22204
:105149003006FD12000EC2AF124A7CD2AFE47818C5
:02515900F22240
:10066F0078AF7401F2124F277F1412517E783A74CB
:10067F0002F23006FDC2067823E2FE08E2FF7C009C
:10068F007D0A1203FCED4C702E7818E2FF600964AE
:10069F00026024EF6403601F783AE27014740AF268
:1006AF00125261EF6003124F5D12526F5003124FDF
:1006BF000B12426012339112524F78AEEFF2600F6D
:1006CF00E2C3941050047F1480027F2812517E7869
:1006DF00AEE224FE700302084424FE7003020849B0
:1006EF0024F470030208F8240F600302095A7840BB
:1006FF00E2640570227818E2701D740EF27829E218
:10070F00FF700404F28010EFD39400400AEF9407B7
:10071F0050057829E204F27818E214B4100040036F
:10072F0002095A90074075F003A4C58325F0C583CD
:10073F00730207700207E40207EF02080102083E86
:10074F0002083E02083E02081B02083E02081E0273
:10075F00083E02083E02083E02095A02095A0208E0
:10076F003E7817E2FF24FEB40E00400302095A90B0
:10077F00078C75F003A4C58325F0C583730207B6F4
:10078F000207C20207C80207D80207D80207D80219
:10079F0007D80207D80207D80207D80207D80207DE
:1007AF00CE02095A0207DE78317402F27818EFF29E
:1007BF0002095A783174068003E4785CF2800AE407
:1007CF007818F27829F202095A7817E202094512CD
:1007DF003D1A02095A7831E27012124DA8020957D8
:1007EF007831E2B40406124D53020957124DCF026D
:1007FF00095A785CE2FF70057852E26004EFB409A1
:10080F0005124AF5802912512302095A1250FC7819
:10081F0018740FF2782AE2FF781CE4F208EFF2E482
:10082F007825F208F2781FF208743BF202095A1287
:10083F00514902095778AF7401F278AEE2B404045B
:10084F000874FFF27818E2B40D00400302095A90C1
:10085F000865F828287302088C02088E020898028F
:10086F0008980208A20208AC0208C00208D40208C5
:10087F00DD0208E60208EF0208B60208CA804678D1
:10088F00AFE2FF1250E802095A78AFE2FF123E4280
:10089F0002095A78AFE2FF123ED002095A78AFE24E
:1008AF00FF124FC602095A78AFE2FF124F780209C2
:1008BF005A78AFE2FF124F9202095A78AFE2FF1255
:1008CF004FAC02095A78AFE2FF124E68807D78AFC5
:1008DF00E2FF124FE0807478AFE2FF124FFA806BA5
:1008EF0078AFE2FF12511080627818E2B412005014
:1008FF005A900907F828287302093D020944020992
:10090F005702095702094A02094D02094D02094DC2
:10091F0002094D02094D02095002094D02094D020B
:10092F00094D02095A02095002095A02094D781855
:10093F007401F28016E47818F28010124B6B12508B
:10094F0078E4781BF21250781251D87818E2B4126A
:10095F00004003020A0E90096CF82828730209A2BE
:10096F000209AC0209B10209B60209BB0209C002B1
:10097F0009C90209D10209DA0209DF0209E40209F1
:10098F00C50209CD020A0A020A0A0209EC020A028A
:10099F000209A71246E380671250A78062123BE05C
:1009AF00805D1237AA80581238BC8053122069809C
:1009BF004E124CA280497842800A784080067841D6
:1009CF0080027844E2FF123F5C8034122B84802F28
:1009DF0012518E802A781BE2FFE4FD8019781BE20A
:1009EF00D3648094804005123D1A801378187401E7
:1009FF00F2800CE4FDFF1247318004E47818F2789E
:100A0F0028E22401F218E23400F27824E22401F201
:100A1F0018E23400F27822E22401F218E23400F2F4
:100A2F0030072C7829E2B408267823E2FE08E2FF8B
:100A3F007C007D051203FCED4C7014C3780EE2644C
:100A4F00809480400A08E22401F218E23400F23068
:100A5F00072C780BE2B401267821E2FE08E2FF7C36
:100A6F00007D051203FCED4C7014C3780CE264801A
:100A7F009480400A08E22401F218E23400F2D3789D
:100A8F0028E2947718E294004004E4F208F27840E8
:100A9F00E26405703AD37822E2943B18E294004066
:100AAF002EE4F208F27811E22401F218E23400F297
:100ABF00780BE21460090470167F107E0E800DC350
:100ACF00780CE2648094805006E4FFFE124812D343
:100ADF007824E2943B18E294005003020681E4F27A
:100AEF0008F27813E22401F218E23400F27829E2D6
:100AFF00B409004003020681900B0EF828287302F8
:100B0F000B29020B39020B3D020B41020B45020B65
:100B1F0049020B4D020B51020B5B7840E2B4050604
:100B2F00E47812F208F27F3C801A7F0280167F026F
:100B3F0080127F02800E7F05800A7F0280067F026F
:100B4F0080027F057E00124415020681C3780EE2F3
:100B5F00648094804003020681E4FFFE1244150274
:020B6F000681FD
:10264D00007F7F40407F7F007F7F08087F7F0003F2
:10265D001F227E7F0300007F7F49497F3600404067
:10266D007F7F4040007F7F4848783000003E7F41AB
:10267D00416322007F7F4848783000031F227E7F10
:10268D00030000707808087F7F0040407F7F404046
:10269D00007F7F49497F3600007F7F40407F7F006C
:1026AD0040407F7F4040007F7F08087F7F00003ED5
:1026BD007F414163220060731B0F7C70007F7F4957
:1026CD00494F4600007F7F49497F36003E7F41419B
:1026DD006322007F7F0814636300007C7C40407C94
:1026ED007C007C7C10107C7C000C3C48787C0C00C1
:1026FD00007C7C54547C280040407C7C4040007C15
:10270D007C505070200000387C44446C28007C7C48
:10271D0050507020000C3C48787C0C00006070100C
:10272D00107C7C0040407C7C4040007C7C54547C80
:10273D002800007C7C40407C7C0040407C7C4040FC
:10274D00007C7C10107C7C0000387C44446C28009C
:10275D0064741C187060007C7C54545C4800007CD0
:10276D007C54547C2800387C44446C28007C7C10BC
:10277D00386C440000607F7F60006F6F007F3F10FA
:10278D001F103F7F007F7F4949007F7F63361C000C
:10279D001F3F6C6C3F1F00607F7F60007F7F49494A
:1027AD003F7F4C7F3F007F7F0303003F7F4C7F3F88
:1027BD00007F7F6C6C370000003E41417149493EFE
:1027CD00000000063A433A06000000007F7F68686B
:1027DD00003E7F417F3E007F3F180C7E7F00607F73
:1027ED007F607F7F41633E1C006F6F00327B496FBE
:1027FD0026007F7F446C38007F3F101F103F7F0005
:10280D006F6F007F7F63361C007F7F6C6C387F7F1E
:10281D00497F36007F7F6C6C37006F6F003E7F41C4
:10282D004D2E0000003E41417149493E000000001F
:10283D0000000011117D1111000000000000007F4B
:10284D007F417F7F007F7F381C7F7F00000000006D
:10285D000000007F7F417F7F007F7F6C6C007F7F5A
:10286D006C6C00000000607F7F6000730B7E7C004D
:10287D007F7F4C380036007F7F49497F36007F7F50
:10288D004C4E7B3100360000705070003E7F63412E
:10289D00410000000011117D1111000000607F7FCB
:1028AD0060006F6F007F3F101F103F7F007F7F6CB8
:1028BD006C377F413E0032492600224936002345C0
:1028CD00390022493600207F007F7F494900637718
:1028DD001C1C7763006F6F0060607F7F606000007D
:0A28ED00123455555555555432105C
:1043AF00810A00820EFFFF820CFFFF811800811728
:1043BF00028212000082100000812900810B00810F
:0A43CF001B00810000810100C18481
:104C0F00E4F59375943FF5917592FFF5957596FFC1
:104C1F00F5B175B27F7844E2781EF2C206A2C79250
:104C2F000512465078147401F2087400F20874E308
:024C3F00F2225F
:0D000E0053B0807590FF75A0FF43803F2226
:103666007801E2FEC394055011781EE2FDEEB50521
:103676000312000E7801E204F222E47801F212004D
:103686000E20050A18E2FEC374159EFF800478001A
:10369600E2FFEFB4160040030237409036A8F82840
:1036A60028730236EA0236EE0236F20236F60236A1
:1036B600FA0236FE02370202370602370A02370ED0
:1036C60002371202371602371A02371E0237220253
:1036D600372602372A02372E0237320237360237AA
:1036E6003A02373EC2908052C291804EC292804AC0
:1036F600C2938046C2948042C295803EC296803A6A
:10370600C2978036C2A08032C2A1802EC2A2802A71
:10371600C2A38026C2A48022C2A5801EC2A6801A89
:10372600C2A78016C2808012C281800EC282800A21
:10373600C2838006C2848002C28520050CC374152C
:103746009F2408F8E6F5B0804474082FF8E6FEC416
:103756005402FDEEC4131354014DFE74082FF8E60F
:10376600FD131354044EFEED54084EFE74082FF854
:10377600E6FD25E025E054104EFEEDC454204EFE35
:1037860074082FF8E6C4333354404EF5B07800E29F
:1037960004F2E2D39415400BE4F2A2C79205200688
:0337A60002D20646
:0137A90022FD
:0D51D800E47818F27812F208F27829F22239
:10426000124344782AE27068300467C2047852E24C
:10427000603908E2FF782CE26F70307854E2FF7802
:104280002BE2B50726782DE27E007BFE2454F9EE62
:104290003400FA12037B603A7843E2FF7C007D3CF5
:1042A0001203EA7836EEF208EFF2227853E2FF3397
:1042B00095E0FE782CE2D39FEE6480F874809840FD
:1042C00011782BE2700C783FE260077F2802517E64
:0242D000D20416
:0142D20022C9
:0C4644007814E4F2087400F2087408F224
:104650007842E224FE601514601C14602314602A62
:1046600080007819740BF20874D5F2227819740B53
:10467000F20874FDF2227819740CF2087425F22203
:104680007819740CF208744DF2227819740CF2083F
:044690007475F22229
:1048E70078B07428F20874BFF2E4FFEFC39416504F
:1048F7003478B0E2FC08E2F5828C83E493FE781406
:10490700E2FB08E2FA08E2F9EE1203B60F78B1E229
:104917002401F218E23400F27816E22401F218E2D8
:054927003400F280C61F
:01492C002268
:1044DB007827E2FC08E2FDC3941EEC94005004E440
:1044EB00FF800FC3ED945AEC940050047F038002BD
:1044FB00E4FFE4FEEEC39404503675F004EFA42EF3
:10450B00F582E435F0F583E5822471F582E5833499
:10451B000BF583E493FD7814E2FB08E2FA08E2F969
:10452B00ED1203B60EE22401F218E23400F280C45D
:01453B00225D
:103023007841E224FE603E1460621470030230EEC5
:1030330014700302313D14700302317B8000782742
:10304300E2FC08E2FDC3941EEC94005005E4FF0289
:1030530031B7C3ED945AEC940050057F030231B7A6
:10306300E4FF0231B77827E2FC08E2FDC3941EECCB
:10307300940050057F020231B7C3ED945AEC9400DB
:1030830050057F030231B77F020231B77827E2FC94
:1030930008E2FDC3940AEC94005005E4FF0231B743
:1030A300C3ED941AEC940050057F010231B7C3EDD0
:1030B300942CEC940050057F020231B7C3ED944E7B
:1030C300EC940050057F030231B7C3ED9460EC9498
:1030D3000050057F020231B7C3ED9470EC940050A9
:1030E300057F010231B7E4FF0231B77827E2FC081C
:1030F300E2FDC3940CEC94005005E4FF0231B7C326
:10310300ED9424EC940050057F030231B7C3ED9492
:103113003CEC940050057F040231B7C3ED9454ECAA
:10312300940050057F050231B7C3ED946CEC940015
:1031330050047F06807EE4FF807A7827E2FC08E271
:10314300FDC3940EEC94005004E4FF8067C3ED9438
:103153002CEC940050047F07805AC3ED944AEC94FE
:103163000050047F03804DC3ED9468EC9400500439
:103173007F088040E4FF803C7827E2FC08E2FDC33F
:10318300940EEC94005004E4FF8029C3ED942CECDE
:10319300940050047F01801CC3ED944AEC940050CA
:1031A300047F02800FC3ED9468EC940050047F0108
:1031B3008002E4FFE4FEEEC39404503675F004EF9E
:1031C300A42EF582E435F0F583E5822471F582E5DA
:1031D30083340BF583E493FD7814E2FB08E2FA08E9
:1031E300E2F9ED1203B60EE22401F218E23400F222
:0231F30080C496
:0131F50022B7
:10350C00E41203B6E22401F218E23400F218E2FBF2
:10351C0008E2FA08E2F9E41203B6E22401F218E236
:09352C003400F2E4FBFD7F14FE03
:0D35350078B4EEF208EFF208EDF208EBF2C8
:10354200E408F278B8E2FBC3940440030235D6786B
:10355200B6E2705F08E2601778B4E2FE08E2FF7C30
:10356200007D0A1203FCD3EF9400EE9400404478ED
:10357200B4E2FE08E2FF7C007D0A1203FCEF78024F
:10358200C333CE33CED8F9FFEB7C002FFFEC3EFEE7
:10359200781AE22FFF18E23EFE78B9F208EFF2F550
:1035A200828E83E493FF7814E2FB08E2FA08E2F9E0
:1035B200EF800B7814E2FB08E2FA08E2F9E4120366
:1035C200B678B8E204F27816E22401F218E2340086
:1035D200F20235457814E2FB08E2FA08E2F9E41255
:1035E20003B6E22401F218E23400F2E478B8F27889
:1035F200B8E2FBC39404506B78B6E2704678B4E24A
:10360200FE08E2FF7C007D0A1203FCEDAE047802A4
:10361200C333CE33CED8F9FFEB7C002FFFEC3EFE56
:10362200781AE22FFF18E23EFE78B9F208EFF2F5BF
:10363200828E83E493FF7814E2FB08E2FA08E2F94F
:10364200EF800B7814E2FB08E2FA08E2F9E41203D5
:10365200B678B8E204F27816E22401F218E23400F5
:03366200F2808C67
:013665002242
:104CCF00782CE2FDD39418500618E2943C4003026E
:104CDF0048E7EDFF7E00E4FBFD12353512302378F7
:0C4CEF002BE2FF7E00E4FBFD12353522B5
:104972007B007A0079087814EBF208EAF208E9F28F
:1049820012350C7814E2FB08E2FA08E2F9E41203A9
:10499200B6E22401F218E23400F27830E2FF7E003F
:1049A200E4FBFD1235357814E2FB08E2FA08E2F97D
:0449B200E40203B662
:1045F300782FE2D3940C500718E2FD942040030275
:1046030048E7EDFF7E00E4FBFD123535E4FFEFC321
:1046130094045020EF900B7593FE7814E2FB08E2AC
:10462300FA08E2F9EE1203B60FE22401F218E234BB
:1046330000F280DA782FE2FF7E00E4FBFD123535CD
:014643002254
:103A6F00782DE214B407005070903A8675F003A4D5
:103A7F00C58325F0C58373023A9B023AA6023AB179
:103A8F00023ABC023AC7023AD2023ADD78B0742643
:103A9F00F208744DF2804B78B07426F2087463F21A
:103AAF00804078B07426F2087479F2803578B0745B
:103ABF0026F208748FF2802A78B07426F20874A563
:103ACF00F2801F78B07426F20874BBF2801478B0BD
:103ADF007426F20874D1F2800978B07428F2087451
:103AEF00BFF2E4FFEFC39416503478B0E2FC08E263
:103AFF00F5828C83E493FE7814E2FB08E2FA08E285
:103B0F00F9EE1203B60F78B1E22401F218E2340095
:0E3B1F00F27816E22401F218E23400F280C6B9
:013B2D002275
:104F4200782BE2FF7E00E4FBFD1235351244DB785C
:0B4F52002AE2FF7E00E4FBFD02353583
:1018EC00E478B3F208F212526F500F1252387C00A7
:1018FC007D0A1203EA78B3EE8021125261EF600F79
:10190C001200037C007D0A1203EA78B3EE800C7897
:10191C0032E275F064A4FF78B3E5F0F208EFF278E8
:10192C004FE2FF3395E0FE78B4E22FF218E23EF27C
:10193C00E418F278B2E2FFC39405500D74022FF84C
:10194C00E4F278B2E204F280EA78B27404F2D3786A
:10195C00B4E2940018E264809480500618E294007B
:10196C00403278B3E2FA08E2FB7C007D0AFFAE025B
:10197C0012045178B2E22402F8EDF278B2E214F2D9
:10198C007C007D0AAF03AE0212045178B3EEF2086C
:10199C00EFF280BA7802E26003021B1278B2F2789E
:1019AC00B2E2FDC3940450457803E275F004A47CC4
:1019BC00002DFFEC35F0FE781AE22FFF18E23EFE08
:1019CC0078B0F208EFF2F5828E83E493FF7814E29C
:1019DC00FB08E2FA08E2F9EF1203B678B2E204F27D
:1019EC007816E22401F218E23400F280B27814E2A4
:1019FC00FB08E2FA08E2F9E41203B6E22401F21859
:101A0C00E23400F2E478B2F278B2E2FDC39404500E
:101A1C00457804E275F004A47C002DFFEC35F0FE53
:101A2C00781AE22FFF18E23EFE78B0F208EFF2F5DA
:101A3C00828E83E493FF7814E2FB08E2FA08E2F961
:101A4C00EF1203B678B2E204F27816E22401F2182F
:101A5C00E23400F280B27814E2FB08E2FA08E2F910
:101A6C00E41203B6E22401F218E23400F218E2FBAD
:101A7C0008E2FA08E2F974031203B6E22401F21840
:101A8C00E23400F218E2FB08E2FA08E2F9740312FD
:101A9C0003B6E22401F218E23400F218E2FB08E289
:101AAC00FA08E2F9E41203B6E22401F218E2340077
:101ABC00F2E478B2F278B2E2FDC394044003021C63
:101ACC00647805E275F004A47C002DFFEC35F0FE83
:101ADC00781AE22FFF18E23EFE78B0F208EFF2F52A
:101AEC00828E83E493FF7814E2FB08E2FA08E2F9B1
:101AFC00EF1203B678B2E204F27816E22401F2187F
:101B0C00E23400F280AF7814E2FB08E2FA08E2F962
:101B1C00E41203B6E22401F218E23400F2E478B2E3
:101B2C00F278B2E2FDC3940450457802E275F004F9
:101B3C00A47C002DFFEC35F0FE781AE22FFF18E2A2
:101B4C003EFE78B0F208EFF2F5828E83E493FF78D4
:101B5C0014E2FB08E2FA08E2F9EF1203B678B2E2FB
:101B6C0004F27816E22401F218E23400F280B27822
:101B7C0014E2FB08E2FA08E2F9E41203B6E22401EB
:101B8C00F218E23400F2E478B2F278B2E2FDC394D7
:101B9C000450457803E275F004A47C002DFFEC356D
:101BAC00F0FE781AE22FFF18E23EFE78B0F208EF52
:101BBC00F2F5828E83E493FF7814E2FB08E2FA08D4
:101BCC00E2F9EF1203B678B2E204F27816E22401DD
:101BDC00F218E23400F280B27814E2FB08E2FA0860
:101BEC00E2F9E41203B6E22401F218E23400F2E462
:101BFC0078B2F278B2E2FDC3940450457804E275F1
:101C0C00F004A47C002DFFEC35F0FE781AE22FFFD7
:101C1C0018E23EFE78B0F208EFF2F5828E83E49380
:101C2C00FF7814E2FB08E2FA08E2F9EF1203B67847
:101C3C00B2E204F27816E22401F218E23400F280E7
:101C4C00B27814E2FB08E2FA08E2F9E41203B6E215
:101C5C002401F218E23400F27814E2FB08E2FA08EC
:101C6C00E2F9E41203B6E22401F218E23400F218AD
:101C7C00E2FB08E2FA08E2F9743E1203B6E2240130
:101C8C00F218E23400F218E2FB08E2FA08E2F97406
:101C9C00411203B6E22401F218E23400F218E2FB1E
:101CAC0008E2FA08E2F974411203B6E22401F218D0
:101CBC00E23400F218E2FB08E2FA08E2F97441128D
:101CCC0003B6E22401F218E23400F218E2FB08E257
:101CDC00FA08E2F974221203B6E22401F218E23493
:021CEC0000F204
:011CEE0022D3
:102DF100E478B1F208F20812061F00000000125236
:102E010028AC06AD07EC1202C178B3120613E4FB3D
:102E1100FA79207841C00078B3E2FC08E2FD08E2CB
:102E2100FE08E2FFD00012021F7B5C7A8F790278E4
:102E31003F12002578B312061378B3E2FC08E2FDD5
:102E410008E2FE08E2FF1202FA78B1EEF208EFF2B0
:102E51007814E2FB08E2FA08E2F9E41203B6E2248C
:102E610001F218E23400F218E2FB08E2FA08E2F992
:102E7100E41203B6E22401F218E23400F2E478B07D
:102E8100F278B0E2FFC3648094855055EFFB33952F
:102E9100E0FA08E2FE08E2FF7C007D641204518F33
:102EA100828E837405120638E5822BF582E5833A1A
:102EB100F583E5822495F582E583340BF583E4936C
:102EC100FF7814E2FB08E2FA08E2F9EF1203B678A0
:102ED100B0E204F27816E22401F218E23400F28042
:102EE100A07814E2FB08E2FA08E2F9E41203B6E280
:102EF1002401F218E23400F2E478B0F278B0E2FF93
:102F0100C364809485505CEFFB3395E0FA08E2FEE0
:102F110008E2FF7C007D0A1204517C007D0A120444
:102F2100518D828C837405120638E5822BF582E57A
:102F3100833AF583E5822495F582E583340BF583A5
:102F4100E493FF7814E2FB08E2FA08E2F9EF1203D6
:102F5100B678B0E204F27816E22401F218E2340005
:102F6100F280997814E2FB08E2FA08E2F9E412032C
:102F7100B6E22401F218E23400F2E478B0F278B05B
:102F8100E2FFC3648094855055EFFB3395E0FA0866
:102F9100E2FE08E2FF7C007D0A1204518D828C83DF
:102FA1007405120638E5822BF582E5833AF583E54F
:102FB100822495F582E583340BF583E493FF78143D
:102FC100E2FB08E2FA08E2F9EF1203B678B0E20494
:102FD100F27816E22401F218E23400F280A07814AB
:102FE100E2FB08E2FA08E2F9E41203B6E22401F294
:102FF10018E23400F218E2FB08E2FA08E2F9E412FE
:1030010003B6E22401F218E23400F218E2FB08E20E
:10301100FA08E2F9E41203B6E22401F218E23400FC
:01302100F2BC
:01302200228B
:1028F700E478B1F208F20812061F00000000125235
:102907006F50051252408009125261BF600A12527D
:102917003078B1EEF208EFF278B1E2FC08E2FDE4BC
:102927001202C178B3120613E4FBFA79C87842C0E1
:102937000078B3E2FC08E2FD08E2FE08E2FFD000FF
:1029470012021F7B5C7A8F7902783F12002578B3D9
:1029570012061378B3E2FC08E2FD08E2FE08E2FF84
:102967001202FA78B1EEF208EFF27814E2FB08E20D
:10297700FA08E2F9E41203B6E22401F218E234009D
:10298700F218E2FB08E2FA08E2F9E41203B6E224DD
:1029970001F218E23400F2D3EF9409EE9400406795
:1029A700E478B0F278B0E2FFC36480948540030214
:1029B7002A3CEFFB3395E0FA08E2FE08E2FF7C00D1
:1029C7007D0A1203FC8F828E837405120638E58216
:1029D7002BF582E5833AF583E5822495F582E58335
:1029E700340BF583E493FF7814E2FB08E2FA08E27C
:1029F700F9EF1203B678B0E204F27816E22401F296
:102A070018E23400F2809DE478B0F278B0E2C36453
:102A170080948550207814E2FB08E2FA08E2F9E492
:102A27001203B678B0E204F27816E22401F218E253
:102A37003400F280D67814E2FB08E2FA08E2F9E4FF
:102A47001203B6E22401F218E23400F2E478B0F29D
:102A570078B0E2FFC3648094855055EFFB3395E06F
:102A6700FA08E2FE08E2FF7C007D0A1203FC8D8271
:102A77008C837405120638E5822BF582E5833AF5D7
:102A870083E5822495F582E583340BF583E493FF90
:102A97007814E2FB08E2FA08E2F9EF1203B678B01D
:102AA700E204F27816E22401F218E23400F280A080
:102AB7007814E2FB08E2FA08E2F9E41203B6E2242A
:102AC70001F218E23400F218E2FB08E2FA08E2F930
:102AD700E41203B6E22401F218E23400F218E2FB32
:102AE70008E2FA08E2F974621203B6E22401F21866
:102AF700E23400F218E2FB08E2FA08E2F974641221
:102B070003B6E22401F218E23400F218E2FB08E20D
:102B1700FA08E2F974081203B6E22401F218E23463
:102B270000F218E2FB08E2FA08E2F974131203B69E
:102B3700E22401F218E23400F218E2FB08E2FA0894
:102B4700E2F974231203B6E22401F218E23400F228
:102B570018E2FB08E2FA08E2F9E41203B6E22401FC
:102B6700F218E23400F218E2FB08E2FA08E2F9E4AC
:0C2B77001203B6E22401F218E23400F26E
:012B8300222F
:104C7300782CE2FFC3941850257844E26406701E32
:104C8300EF782C30E009E2C3139028EB938008E21D
:0F4C9300C3139028EB93C4540FFF781EEFF22247
:1050A700124644124C73780BE21460030480030227
:0650B70040EF124CCF2275
:1046E300124644124C737829E2B40900503C9046B8
:1046F300F8F82828730247130247150247180247A0
:104703001B02471E02472102472402472702472A6A
:1047130080180249720245F3023A6F024F420218AF
:0E472300EC022DF10228F702416F124CCF225A
:104BDC00ED12039412037BFF78B5E2D36480F8EFF7
:104BEC00648098400678B4E21203B612037BFF7817
:104BFC00B4E2C36480F8EF648098500678B5E21292
:034C0C0003B622CA
:1050E8007BFE7A007917AD0778B47402F208740D64
:0450F800F2024BDC99
:103BE0007817E224FEB40C005078903BF875F0038F
:103BF000A4C58325F0C58373023C1C023C22023C11
:103C000028023C2E023C3A023C46023C4C023C520A
:103C1000023C58023C34023C40023C5E7E277F81DD
:103C200080407E277F97803A7E277FAD80347E2735
:103C30007FC3802E7E277FD980287E277FEF80223A
:103C40007E287F05801C7E287F1B80167E287F3182
:103C500080107E287F93800A7E287FA980047E289A
:103C60007FD5E4FDEDC3941650158F828E83E493C7
:0F3C7000FC74082DF8A6040D0FBF00010E80E5AF
:013C7F002222
:1037AA001246447823E2FE08E2FFC3940FEE940027
:1037BA005004C200800FC3EF942DEE94005004D23F
:1037CA00008002C2007831E2707878B0F278B0E214
:1037DA00C3940950207814E2FB08E2FA08E2F9E4FB
:1037EA001203B678B0E204F27816E22401F218E283
:1037FA003400F280D8E478B0F278B0E2FFC39404DF
:10380A005026EF900B7D93FF7814E2FB08E2FA084A
:10381A00E2F9EF1203B678B0E204F27816E2240174
:10382A00F218E23400F280D1782AE2FF7E00783181
:10383A00E2FD700A300003ED60047D01806E7D00B8
:10384A00806A782CE2FF7E007831E2B4020B300005
:10385A0004640260047D0180027D00E4FB123535B8
:10386A00E478B0F278B0E2FFC394045026EF900BEC
:10387A007D93FF7814E2FB08E2FA08E2F9EF1203FB
:10388A00B678B0E204F27816E22401F218E23400C3
:10389A00F280D1782BE2FF7E007831E2B4010B305E
:1038AA000004640160047D0180027D00E4FB12359E
:0138BA0035D8
:0138BB0022EA
:1038BC001246447823E2FE08E2FFC3940FEE940014
:1038CC005004C200800FC3EF942DEE94005004D22C
:1038DC00008002C2007831E2640670597814E2FB71
:1038EC0008E2FA08E2F912350C7814E2FB08E2FA65
:1038FC0008E2F9E41203B6E22401F218E23400F211
:10390C007830E2FF7E0008E2B4060B300004640657
:10391C0060047D0180027D00E4FB1235357814E2F1
:10392C00FB08E2FA08E2F9E41203B6E22401F21809
:10393C00E23400F222782EE2FF7E007831E2B40409
:10394C000B300004640460047D0180027D007B0167
:10395C00123535E4FFEFC394045020EF900B7593B0
:10396C00FE7814E2FB08E2FA08E2F9EE1203B60F55
:10397C00E22401F218E23400F280DA782FE2FF7EC2
:10398C00007831E2B4050B300004640560047D015D
:09399C0080027D00E4FB123535C8
:0139A50022FF
:10206900124644785CE2FF704C7852E278B260091B
:102079007428F2087447F280077428F208745DF234
:10208900E478B0F278B0E2FEC394164003022383E9
:1020990078B2E2FC08E2F5828C83E493FD74082EA1
:1020A900F8A60578B0E204F278B3E22401F218E266
:1020B9003400F280CFEF6401600A785CE264026068
:1020C900030221627823E2FE08E2FFC3940FEE9433
:1020D900005004C200800FC3EF942DEE9400500409
:1020E900D2008002C2007853E2FF3395E0FE785CAB
:1020F900E2B4010B300004640160047D0180027DBB
:1021090000E4FB123535E478B0F278B0E2FFC3940D
:10211900045026EF900B7D93FF7814E2FB08E2FA56
:1021290008E2F9EF1203B678B0E204F27816E22475
:1021390001F218E23400F280D17854E2FF3395E0DD
:10214900FE785CE2B4020B300004640260047D0195
:1021590080027D00E4FB0235357823E2FE08E2FFC8
:10216900C3941BEE94005004C200800FC3EF942166
:10217900EE94005004D2008002C200785CE224FD93
:10218900B40700506E90219C75F003A4C58325F017
:10219900C583730221B10221BC0221C70221D202E7
:1021A90021DD0221E80221F378B27426F20874E7EE
:1021B900F2804078B27426F20874FDF2803578B264
:1021C9007427F2087413F2802A78B27427F208741B
:1021D90029F2801F78B27427F208743FF2801478CC
:1021E900B27427F2087455F2800978B27427F2089C
:1021F900746BF2E478B0F278B0E2FFC3941640034E
:10220900022383E408F2EF12064922410122410226
:10221900226E04226E05229B07229B0822C80A22ED
:10222900C80B22EB0D22EB0E230E10230E112331C6
:102239001323311400002355785CE2FF6403600521
:102249007855E2704AEF640360030223557855E23A
:10225900FF6003300039EF600302235520000302B9
:102269002355022350785CE2FF640460057856E246
:10227900701DEF640460030223557856E2FF600382
:1022890030000CEF6003022355200003022355029E
:102299002350785CE2FF640560057857E2701DEF12
:1022A900640560030223557857E2FF600330000C90
:1022B900EF600302235520000302235502235078BF
:1022C9005CE2FF640660057858E27014EF640670FA
:1022D9007B7858E2FF6003300006EF706F30006CC6
:1022E9008065785CE2FF640760057859E27014EF55
:1022F900640770587859E2FF6003300006EF704CAC
:102309003000498042785CE2FF64086005785AE24F
:102319007014EF64087035785AE2FF6003300006E4
:10232900EF7029300026801F785CE2FF64096004A1
:1023390018E27013EFB40914785BE2FF6003300010
:1023490006EF700830000578B17401F278B2E2FE48
:1023590008E2F5828E83E493FF78B1E2FEEF4EFF47
:1023690018E22408F8A60778B0E204F278B3E22468
:0A23790001F218E23400F202220023
:012383002237
:103F5C007814E4F2087400F2087408F2E4FEEEC37C
:103F6C0094105020EE90287393FD7814E2FB08E235
:103F7C00FA08E2F9ED1203B60EE22401F218E2346B
:103F8C0000F280DA7814E2FB08E2FA08E2F9E412B3
:103F9C0003B6E22401F218E23400F2E4FEEEC3941C
:103FAC0005503675F005EFA42EF582E435F0F58357
:103FBC00E5822495F582E583340BF583E493FD7853
:103FCC0014E2FB08E2FA08E2F9ED1203B60EE22461
:093FDC0001F218E23400F280C485
:013FE50022B9
:104F78007BFE7A007942AD07904AD1E49378B4F287
:0A4F8800904AE5E49308F2024BDCC6
:104F92007BFE7A007940AD07904ACFE49378B4F271
:0A4FA200904AE3E49308F2024BDCAE
:104FAC007BFE7A007941AD07904AD0E49378B4F255
:0A4FBC00904AE4E49308F2024BDC93
:104E68007BFE7A007944AD07904AD3E49378B4F294
:104E7800904AE7E49308F2124BDC7844E2781EF299
:034E8800024C7366
:104FC6007BFE7A00793FAD07904ACEE49378B4F23F
:0A4FD600904AE2E49308F2024BDC7B
:104CA200783FE260067E287F4780047E287F5DE4AD
:104CB200FDEDC3941650158F828E83E493FC740825
:0C4CC2002DF8A6040D0FBF00010E80E5C8
:014CCE0022C3
:104FE0007BFE7A007950AD07904ADFE49378B4F203
:0A4FF000904AF3E49308F2024BDC50
:102B84007814E4F2087400F2087408F27850E2FF52
:102B9400C36480948040028001D39200300005EF2A
:102BA400F40480037850E278B3F2E478B2F278B2B5
:102BB400E2FFC364809483500D74072FF8E4F27825
:102BC400B2E204F280E878B27402F278B3E2D39409
:102BD40000500818E264809480401E78B3E2FF75C8
:102BE400F00A8418E22407F8E5F0F278B2E214F26D
:102BF400EF75F00A8408F280D278B37403F22000EF
:102C040004E22405F27807E2701178B3E22405F2B5
:102C14007808E2700678B3E22405F2E478B2F27838
:102C2400B3E2FF18E2FD3395E0FCC3ED9F7480F836
:102C34006C9850207814E2FB08E2FA08E2F9E412F6
:102C440003B678B2E204F27816E22401F218E23410
:102C540000F280CB300046E478B2F278B2E2C3648A
:102C640080948450217814E2FB08E2FA08E2F974B3
:102C7400081203B678B2E204F27816E22401F218DC
:102C8400E23400F280D57814E2FB08E2FA08E2F9B3
:102C9400E41203B6E22401F218E23400F27807E207
:102CA400D394004070E478B2F278B2E2FDC3648059
:102CB4009484504A7807E275F004A4FFED3395E05C
:102CC400FCEF2DFFE5F03CFE781AE22FFF18E23E00
:102CD400FE78B0F208EFF2F5828E83E493FF781465
:102CE400E2FB08E2FA08E2F9EF1203B678B2E20472
:102CF400F27816E22401F218E23400F280AB781480
:102D0400E2FB08E2FA08E2F9E41203B6E22401F273
:102D140018E23400F27807E2D39400500608E294F3
:102D2400004070E478B2F278B2E2FDC36480948427
:102D3400504A7808E275F004A4FFED3395E0FCEF07
:102D44002DFFE5F03CFE781AE22FFF18E23EFE78F4
:102D5400B0F208EFF2F5828E83E493FF7814E2FB7D
:102D640008E2FA08E2F9EF1203B678B2E204F27864
:102D740016E22401F218E23400F280AB7814E2FB8C
:102D840008E2FA08E2F9E41203B6E22401F218E2D6
:102D94003400F2E478B2F278B2E2FDC36480948441
:102DA400504A7809E275F004A4FFED3395E0FCEF96
:102DB4002DFFE5F03CFE781AE22FFF18E23EFE7884
:102DC400B0F208EFF2F5828E83E493FF7814E2FB0D
:102DD40008E2FA08E2F9EF1203B678B2E204F278F4
:0C2DE40016E22401F218E23400F280AB89
:012DF00022C0
:104FFA007BFE7A00794FAD07904ADEE49378B4F2EB
:0A500A00904AF2E49308F2024BDC36
:0F518E007814E4F2087400F2087408F20218ECC6
:105110007BFE7A00791BAD07E478B4F2087463F281
:03512000024BDC63
:103D1A00782AE2FF7E00781CE2FC08E2FDC3EF9DF0
:103D2A00FDEE9CFCC3ED9401EC94004025781BE267
:103D3A0064809481401C08EEF208EFF27826E224AF
:103D4A0001F218E23400F27820E224FFF218E23499
:103D5A00FFF2781BE214FF781F08E2FD1247317860
:103D6A0026E2643C700218E270197825F208F278AB
:103D7A001FF208743BF2781BE2C36480948140030B
:103D8A00E214F2781BE2701EFDFF1247317843E21B
:103D9A00FF7E007C007D3C1203EA7836EEF208EFE3
:073DAA00F278187410F222F8
:0447310078B0EDF27D
:104735007814E4F2087400F2087408F27E00E4FBD1
:10474500FD123535E4FFEFC394045020EF900B7D47
:1047550093FE7814E2FB08E2FA08E2F9EE1203B6DA
:104765000FE22401F218E23400F280DA78B0E2FFB9
:084775007E00E4FBFD02353576
:10481200D37811E29F18E29E403C780BE204F2E466
:104822007810F208F2780BE2D394024002E4F278B4
:104832000BE2700204F2780BE2B4011A30070D7831
:1048420018E270087411F2E4780C8007E4780BF235
:0748520074FF08F208F222D6
:10441500D37813E29F18E29E40597829E204F2E42A
:104425007812F208F27829E2D394094002E4F2788E
:1044350029E2B4060B125261EF700578297407F270
:104445007829E2B40712125261EF6460600A1252D1
:104455006F400578297408F27829E2B40815300709
:10446500077818E270028006E47829F274FF780E66
:04447500F208F22235
:10416F00780EE2FE08E2FF24EA78B1F2EE34FF188F
:10417F00F2780AE22416FDE433FCD3EF9DEC648061
:10418F00F8EE648098401074FF780EF208F2E4782D
:10419F0029F27812F208F2E4FFEFFD78B1E22DFD7B
:1041AF0018E23400FCC3648094804025780AE2FB57
:1041BF00ED9B7480F86C98501878B008E22F24E3C8
:1041CF00F582E43400F583E0FE74082FF8A606802C
:0C41DF000674082FF8E4F60FEFB416BDCC
:0141EB0022B1
:1040EF00780CE2FE08E2FF24EA78B1F2EE34FF1812
:1040FF00F2780AE22416FDE433FCD3EF9DEC6480E2
:10410F00F8EE648098401374FF780CF208F2E478AC
:10411F0010F208F2780BF27818F2E4FFEFFD78B1A5
:10412F00E22DFD18E23400FCC364809480402578B2
:10413F000AE2FBED9B7480F86C98501878B008E297
:10414F002F24E3F582E43400F583E0FE74082FF8A2
:0F415F00A606800674082FF8E4F60FEFB416BD1D
:01416E00222E
:10501400780AE2C394FE5010E2FE04F274E32EF523
:0950240082E43400F583EFF02270
:0442D30078B1EFF2DD
:1042D700E4780AF278B2F278B1E214FF08E2C39FF9
:1042E700505A12037BFDC394A0400674C02DFD8075
:1042F7000EEDC39420400674E02DFD80027D1FE47F
:10430700FC75F005EDA42CF582E435F0F583E58224
:10431700249DF582E583340CF583E493FF64A5605F
:10432700031250140CECB405D8E4FF12501478B201
:0C433700E204F2740129F9E43AFA809BD8
:014343002257
:100B71000000000000080800001C1C0000363600C0
:100B8100002436000024240000240000003030003E
:100B9100000606007F7F417F7F00007F7F000F4FAF
:100BA1004979794149497F7F7878087F7F79794907
:100BB1004F0F7F7F494F0F4040407F7F7F7F497FAD
:100BC1007F7879497F7F3040454830705070003ED2
:100BD1007F6341417F41417F00007F004F49497957
:100BE1004949497F7808087F7949494F7F49494FE9
:100BF1004040407F7F49497F7949497F3E41413E9D
:100C010000217F0123454931425169460C14247F5B
:100C11007251514E1E294906404F5060364949369E
:100C210030494A3C7E41413F00407F000F494939EC
:100C31004949493E7C04041F7849490F7F494907C6
:100C41006040403F7E49493F7849493F7F63637F28
:100C510000607F006F6B6B7B6B6B6B7F7878087FBD
:100C61007B7B4B4F7F7F494F40407F7F7F6B6B7F0B
:100C71007B6B6B7F007F417F00007F00004F4979D4
:100C81000049497F0078087F0079494F007F494F2B
:100C91000040407F007F497F0079497F00000000CC
:100CA100A57DA5A5A5A5700070A5A5147F147F1429
:100CB100122A7F2A246264081323364955220550DB
:100CC10060A5A5A51C2241A5A541221CA5A5140826
:100CD1003E081408083E08080506A5A5A504040455
:100CE10004A501A5A5A5A502040810203E41413E89
:100CF100A500217F01A521434539A522414936A5FA
:100D01000C14247FA57251514EA53E494926A54098
:100D1100474870A536494936A53249493EA512A52D
:100D2100A5A5A50112A5A5A508142241A514141471
:100D3100141441221408A520404548303E415D5518
:100D41003C1F2444241F7F494949363E41414122E9
:100D51007F4141221C7F494949417F484848403EE3
:100D61004149492F7F0808087F417F41A5A502011C
:100D7100417E407F081422417F010101A57F201897
:100D8100207F7F1008047F3E4141413E7F48484813
:100D9100303E4145423D7F484C4A3132494949261E
:100DA10040407F40407E0101017E700C030C707E4B
:100DB100010E017E6314081463700807087043452F
:100DC1004951617F4141A5A50C123F120441417F68
:100DD100A5A5102040201001010101014020A5A579
:100DE100A5021515150F7F0911110E0E1111110212
:100DF1000E1111097F0E1515150C083F48402018DA
:100E01002525253E7F0810100F115F01A5A50201C0
:100E1100115EA57F040A11A5417F01A5A51F100C34
:100E2100100F1F08100FA50E1111110E3F242222C1
:100E31001C1C2222243F1F081008A50815151502A5
:100E4100107E1101021E0101021F18060106181E63
:100E51000106011E110A040A11180505051E1113C8
:100E6100151911083641A5A57FA5A5A5A5413608E7
:100E7100A5A508100810A5A5A5A5A5A5021E3F1E9C
:100E8100023049294936184525451E0201417E4057
:100E91002A1C771C2A3F202020607F7F7F7F7F7F55
:100EA1007F7F7F7F3F692969217F7F7F7F7F3E49E8
:100EB10049412208142A14227F7F7F7F7F1E292720
:100EC100211E7F7F7F7F7F413F41A5A5003048489C
:100ED1003009097D0909417F41A5A5115F01A5A53A
:100EE1001F101058A57F7F7F7F7F7F7F7F7F7F7F50
:100EF1007F7F7F7F0E5515550C7F7F7F7F7F0E157E
:100F010015110A22142A14087F7F7F7F7F7F7F7F3C
:100F11007F7F7F7F7F7F7F511F51A5A53F44444441
:100F21003F7F494949467F494949367F40404060B2
:100F3100033E427E037F4949494177087F08774153
:100F4100494949367F0408107F3F0264083F7F0802
:100F5100142241011E20407F7F2018207F7F080836
:100F6100087F3E4141413E7F4040407F7F484848A5
:100F7100303E4141412240407F4040700909097E95
:100F81003C42FF423C63140814637F01017F0170FE
:100F91000808087F7F017F017F7E027E027F407FFC
:100FA1000909067F0906007F7F0911110E224149B7
:100FB100493E7F083E413E314A4C487F0215151596
:100FC1000F1E292949061F15150AA51F101018A55E
:100FD100030E121E030E1515150C1B041F041B1105
:100FE10015150AA51F0204081F1F4224481F1F04CC
:100FF1000A11A50708101FA51F0804081F1F0404D4
:101001001FA50E1111110E1F10101FA51F14121272
:101011000C0E1111110210101F1010180505051EDC
:101021000C129F120C110A040A111F01011F011851
:1010310004041FA51F011F011F1E021E021F101FF6
:101041000505021F0502001F1F050502A50A11154E
:0C105100150E1F040E110E081516141FBA
:104D7E0000000001010100FF003B3B17071F0C6301
:104D8E00FF630000001F003B005A0078009700B53B
:0A4D9E0000D400F301110130014EB2
:10447900782FE2FFD3940240047E0080027E017807
:1044890030E2240CC39EFDEE75F00CA42F24FEF936
:10449900EDFF782EE22FFFE433FEED1313543F7C3A
:1044A900002FFBEC3EFAE975F01FA4FFAEF07D0C7E
:1044B9001203FCEF2BFFEE3ACF24FFCF34FFFE7C33
:1044C900007D071203FCAF05782DEFF27003740726
:0144D900F2F0
:0144DA0022BF
:104EAE00782FE2FFB4020F08E2540360047E1D80E7
:104EBE00027E1CAF0622EFD3940740010FEF441E73
:014ECE00FFE4
:014ECF0022C0
:104694007FD01250467F0A124DF67F81124DF612DA
:1046A40051AC7FD01250467F0D124DF67F81124DD2
:1046B400F67F04124DF6E4FF124DF67850E2FF1235
:1046C4004DF61251AC124344782DE278B0F2124404
:0E46D40079782DE2FF78B0E26F6003124D534B
:0146E20022B5
:104DA8007FD0125046E4FF124DF6E478B0F278B0A6
:104DB800E2FFD39402500D124E8B124DF678B0E2FA
:074DC80004F280EA0251AC85
:104D53001244797FD01250467F03124DF678B17416
:104D630003F278B1E2FFD39406500D124E8B124D2D
:0B4D7300F678B1E204F280EA0251ACD5
:1050FC007FD01250467F10124DF67850E2FF124DC1
:04510C00F60251ACAA
:104344007FD0125046E4FF124DF61251AC7FD112C9
:104354005046E478B1F278B1E2FFD39406502BEFE3
:10436400B40603C38001D39201124C4178B2EFF238
:1043740012519D78B1E27C007BFE242AF9EC3400D2
:10438400FAEF1203B6E204F280CC1251AC7FD012E1
:1043940050467F11124DF61251AC7FD1125046C2D5
:0B43A40001124C417832EFF20251ACE4
:043E420078B0EFF273
:103E46007831E2FFFD7C00242AF9EC3400FA78B1DF
:103E560074FEF208EAF208E9F27BFF74872DF9ECAA
:103E6600344DFA12037BFEEF247EF9EC344DFA1240
:103E7600037BFD7831E2B40405124EAEAE0778B08E
:103E8600E2FF08E2FB08E2FA08E2F9EF120394788F
:103E9600B1E2FB08E2FA08E2F912037BFFD3EE6413
:103EA60080F8EF6480984004ED1203B678B1E2FB27
:103EB60008E2FA08E2F912037BFFC3ED6480F8EF2B
:093EC6006480985004EE1203B66A
:013ECF0022D0
:104DCF007831E2601024FE600A24FE24FD50042492
:104DDF0006700E800678317404F2227831E214F2F4
:074DEF002278317402F22268
:104B3100782FE2FF25E0248EF582E4344DF58318C9
:104B4100E2FD7401932DFDE4933400FC7830E254CE
:104B510003700CEFD3940240067E007F0180047E37
:0A4B6100007F00ED2FFFEC3EFE2266
:0F519D00EFC4540F75F00AA4FEEF540F2EFF223B
:104E8B007E007BFE742A2FF9EE3400FA12037BFFAF
:104E9B00EF75F00A84C454F0FEEF75F00A84E5F068
:034EAB002EFF22B5
:10516D0012525CD2C112525CA2C29203C2C1A203FE
:01517D00220F
:07524800A20292C202516DA7
:10502D0078B0EFF2D2C1D2C212525CC2C212525C3F
:09503D00C2C178B0E2FF024E1D71
:1050460078E0EFF2D2C1D2C212525CC2C212525CF6
:09505600C2C178E0E2FF024DF650
:0F51AC00C2C1C2C212525CD2C112525CD2C22224
:044DF60078E1EFF27F
:104DFA00E408F2F278E1E233920212524878E1E2F0
:104E0A00FF25E0F208E204F2E2C3940840E6D20287
:034E1A00025248F9
:044E1D0078B1EFF287
:104E2100E408F2F278B1E233920212524878B1E228
:104E3100FF25E0F208E204F2E2C3940840E6D2C2A0
:034E410002516DAE
:104C4100D2C2E478E1F218F278E1E2FF25E0F21253
:104C5100516D500678E1E24401F278E0E204F2E2BB
:104C6100C3940840E3A201B3920212524878E1E2F0
:014C7100FF43
:014C7200221F
:04525C007F02DFFEF0
:01526000222B
:0A51FF00EF60077E13DEFE1F80F64E
:015209002282
:0E51BB00EF600B7E127DEBDDFEDEFC1F80F24E
:0151C90022C3
:1043D900813A0081380082360000813900813BFA38
:0A43E900813C0082330000813500A2
:1039A600E4FF20C6010F20C504EF4402FF20C40433
:1039B600EF4404FFEF602A7835E2FEB5071D18E2F2
:1039C6002401F218E23400F208E2647D700218E283
:1039D6007035EEC454F0783CF2802C7835EFF280E6
:1039E600267833E2FE08E2FFD39419EE64809480D1
:1039F600400FEF947DEE64809480500508E2783C99
:103A0600F2E47833F208F2783BE26005E214F280E1
:103A160028783B74FAF218E26003E214F27838E28E
:103A26006003E214F27837E2700218E2600B78372E
:103A3600E224FFF218E234FFF27839E26005E2147C
:103A4600F2800E7837E2700218E26005783974FA6F
:103A5600F27839E2540ED39408400B783BE2D394C3
:083A66007D4005C2C322D2C35A
:013A6E002235
:10517E007839EFF2783B74FAF2E47836F208F222DC
:06524F00783CE2FFE4F2EE
:015255002236
:104AB900FF00020000010500071E010101010100BC
:104AC90000000000FF0001010100000000000000DB
:104AD9000000000000F78000FF010506050106013E
:0C4AE900173B01010101010101097F02DE
:0343F300813D0009
:10453C00D200E478B1F278B1E2FFC39409501D7E49
:10454C00007BFE74452FF9EE3400FA12037BF46005
:10455C0004C200800778B1E204F280DA30002EE465
:10456C0078B1F278B1E2FF7C007BFF24B9F9EC342E
:10457C004AFA12037BFEEF1B243EF9EC3400FAEEF0
:0D458C001203B6E204F2E2B414D9124A7C24
:0145990022FF
:104BA400E478B0F278B0E2FDC394145028783DE282
:104BB40025E0FE7C00E42DFFEC3EFE12509078B020
:104BC400E27C007BFE243EF9EC3400FAEF1203B6DB
:084BD400E204F280CF02453C2F
:104A7C00783DE2FF7E001250D3E478B2F278B2E2D5
:104A8C00FDC394145026783DE225E0FE7C00E42D15
:104A9C00FFEC3EFE7BFE743E2DF9EC3400FA120363
:0C4AAC007BFD12505F78B2E204F280D172
:014AB80022DB
:1050BD0000000000000000000000FF01173B01018F
:0650CD000101010101FFD9
:104B6B00E478B0F278B0E2FFFD3395E0FC7BFE74A5
:104B7B00452DF974003CFA12037BFEEF3395E0FCF4
:104B8B0074522DF974003CFAEE1203B6E204F2E211
:084B9B00B40AD1785C74FFF24A
:014BA30022EF
:104AF500E478B0F278B0E2FFFD3395E0FC7BFE741C
:104B0500522DF974003CFA12037BFEEF3395E0FC5D
:104B150074452DF974003CFAEE1203B6E204F2E294
:0B4B2500B40AD1124A7C785C74FFF2E5
:014B30002262
:10512300785CE2C3648094894003E4F222785CE211
:0351330004F22261
:043ED00078B0EFF2E5
:103ED400785CE2FFFD3395E0FC74522DF974003CEC
:103EE400FA78B174FEF208EAF208E9F27BFF74C8CA
:103EF4002DF974503CFA12037BFEEFFD3395E0FC80
:103F040074BD2DF974503CFA12037BFF78B0E2FDC6
:103F140008E2FB08E2FA08E2F9ED12039478B1E250
:103F2400FB08E2FA08E2F912037BFDD3EE6480F8A1
:103F3400ED6480984004EF1203B678B1E2FB08E226
:103F4400FA08E2F912037BFDC3EF6480F8ED6480A4
:073F5400985004EE1203B6C1
:013F5B002243
:0D51E500E4F5C7F5C5F5C675C380F5C42215
:1050900075C78275C5018FC4EEF5C375C65A75C64E
:0750A000A500AFC20251E5BB
:10505F0075C78275C5028FC4EEF5C3AF058FC275D4
:09506F00C65A75C6A5000251E500
:1050D30075C78275C5038FC4EEF5C375C65A75C609
:0550E300A5000251E5EB
:015272002219
:10513600438E805389F0E4F58A758CF7C28DD28C44
:03514600D2A922C9
:09521F00125136125272D2AF2274
:03000B0002477D2C
:10477D00C0E0C0F0C083C082C0D075D000C000C002
:10478D0001C002C003C004C005C006C007123666D2
:10479D00785DE204F2E2D394204005E4F21239A6EA
:1047AD00D007D006D005D004D003D002D001D00060
:0B47BD00D0D0D082D083D0F0D0E0320A
:03001B000252731B
:015273003208
:101CEF00D120CDCEC2DBCC20C3CEC4CECC2121217E
:101CFF0000D0EEE6E4E5F1F2E2EE20F5F0E8F1F2E5
:101D0F00EEE2EE2E00D1F2E0F0FBE920CDEEE2FBA9
:101D1F00E920E3EEE42E00CAF0E5F9E5EDE8E52071
:101D2F00C3EEF1EFEEE4EDE52E00D2E0F2FCFFEDB5
:101D3F00E8ED20E4E5EDFC2E00C4E5EDFC20E2F13A
:101D4F00E5F520E2EBFEE1EBB8EDEDFBF52E00C47F
:101D5F00E5EDFC20E7E0F9E8F2EDE8EAE020CEF26D
:101D6F00E5F7E5F1F2E2E02E00CCE5E6E4F3EDE095
:101D7F00F0EEE4EDFBE920E6E5EDF1EAE8E920E439
:101D8F00E5EDFC2E00C4E5EDFC20ECEEF0FFEAE003
:101D9F002DEFEEE4E2EEE4EDE8EAE02E00C4E5ED2F
:101DAF00FC20F1ECE5F5E02E00C4E5EDFC20EAEEB9
:101DBF00F1ECEEEDE0E2F2E8EAE82E00CFF0E0E73A
:101DCF00E4EDE8EA20C2E5F1EDFB20E820D2F0F3E4
:101DDF00E4E02E00C4E5EDFC20EFEEE1E5E4FB21AD
:101DEF00212100C4E5EDFC20EFE8EEEDE5F0E8E899
:101DFF002E00C4E5EDFC20EFEEE3F0E0EDE8F7EDAB
:101E0F00E8EAE02E00C4E5EDFC20E7E0F9E8F2FB9C
:101E1F0020E4E5F2E5E92E00C4E5EDFC20D0CED1BB
:101E2F00D1C8C82E00C4E5EDFC20ECEEEBEEE4E5E6
:101E3F00E6E82E00C4E5EDFC20F1E5ECFCE82C20F3
:101E4F00EBFEE1E2E820E820E2E5F0EDEEF1F2E86A
:101E5F002E00C4E5EDFC20C2EEE7E4F3F8EDEE2D25
:101E6F00E4E5F1E0EDF2EDFBF520E2EEE9F1EA2E2B
:101E7F0000C4E5EDFC20C2EEE5EDEDEE2DE2EEE760
:101E8F00E4F3F8EDFBF520F1E8EB2E00C4E5EDFCF3
:101E9F0020E7EDE0EDE8E92E00C4E5EDFC20F2E5EA
:101EAF00F1F2E8F0EEE2F9E8EAE02E00C4E5EDFC2D
:101EBF0020F3F7E8F2E5EBFF2E00C4E5EDFC20F090
:101ECF00EEE6E4E5EDE8FF20C4E5E4E020CCEEF03B
:101EDF00EEE7E02E00C4E5EDFC20FDEDE5F0E3E5D7
:101EEF00F2E8EAE02E00C4E5EDFC20EFF0EEE3F0BF
:101EFF00E0ECECE8F1F2E02E00C4E5EDFC20ECE5BF
:101F0F00E4E8F6E8EDF1EAEEE3EE20F0E0E1EEF2E0
:101F1F00EDE8EAE02E00C4E5EDFC20F1E8F1F2E592
:101F2F00ECEDEEE3EE20E0E4ECE8EDE8F1F2F0E0CA
:101F3F00F2EEF0E02E00C4E5EDFC20C2EEE5EDED93
:101F4F00EE2DCCEEF0F1EAEEE3EE20D4EBEEF2E084
:101F5F002E00CCE5E6E4F3EDE0F0EEE4EDFBE92056
:101F6F00E4E5EDFC20EFE8E2E02E00C4E5EDFC2017
:101F7F00F1F2F0EEE8F2E5EBFF2E00C4E5EDFC2008
:101F8F00F2E0EDEAE8F1F2E02E00C4E5EDFC20E02E
:101F9F00E2F2EEECEEE1E8EBE8F1F2E02E00C4E560
:101FAF00EDFC20ECE0F2E5F0E82E000101111CEF52
:101FBF000107141D00010E121D140113131D26011C
:101FCF00190F1D39020E161D4802171A1D5E030840
:101FDF001C1D780313181D9404010C1DAC040C1365
:101FEF001DB80501181DCB05090F1DE305130F1DA6
:101FFF00F2051C131E010601131E14060C0D1E27DD
:10200F00061B0F1E3407081E1E4308021F1E610801
:10201F000C1B1E8009010D1E9B0909131EA80A0522
:10202F000E1EBB0B121B1EC90C16111EE4610013F2
:10203F001EF536071D1F087705201F2577071C1F64
:10204F00451805191F612807101F7A29070F1F8AC6
:0A205F007A07141F997B070D1FADCF
:0243F600C107FD
:10459A00782DE278B1F27F05785EE4F208DFFC7FDD
:1045AA0005782EE278B1F278B1E2D364809487403C
:1045BA0006E224F9F280F0124EAEAE07E4FFEFC332
:1045CA0094055024EEFD78B1E2F9FB3395E0FAD375
:1045DA00EB9D7480F86A98500F745E2FF8E9F20F19
:0845EA0078B1E22407F280D64B
:0145F20022A6
:104EEF007862E2FF700C782EE2FE7861E2B5060A76
:0C4EFF00D322782EE2B50702D322C32292
:10515B00745E2FF8E2FF782EE2FEEFB50602D32243
:02516B00C3225D
:10339100C207E4780AF212459AE478B0F278B0E212
:1033A100FFC39423400302350B30070302350BEFB3
:1033B10075F005A424BAF582E4341FF583E493FF84
:1033C10054F0FEC4540F1424FB503F7003023457D1
:1033D100147003023491240760030234FD78B0E2D3
:1033E10075F005A424BBF582E4341FF583E493FE54
:1033F100782EE2FDEE6D6003023503EF540FFF08F6
:10340100E26F60030235030234C978B0E2FF75F060
:1034110005A424BAF582E4341FF583E493FE540F26
:10342100FD782FE26D6003023503EF75F005A424EA
:10343100BBF582E4341FF583E493FF782DE26F60DE
:1034410003023503EE5470C4540F14FF12515B4054
:10345100030235038072124B31AC06AD0778B0E23E
:10346100FB75F005A424BAF582E4341FF583E493D7
:103471005401FEEB75F005A424BBF582E4341FF57D
:1034810083E493FBEB6D7002EC6E7076D207803CA7
:1034910078B0E2FF75F005A424BAF582E4341FF593
:1034A10083E493540FFE782FE26E7056EF75F005AA
:1034B100A424BBF582E4341FF583E493FF782DE265
:1034C1006F703F124EEF503AD20778B0E2FE75F0BE
:1034D10005A424BCF582E4341FF583E493FFEE7563
:1034E100F005A424BDF582E4341FF583E493FC7454
:1034F1000193AA04F97BFF1242D38006C207E47844
:0A3501000AF278B0E204F202339EF1
:01350B00229D
:1043F8008182EC816900826A000082630000828306
:024408000000B2
:104ED00078B0EFF208EDF27882E2FF12504678B037
:0F4EE000E2FF124DF678B1E2FF124DF60251AC2F
:044CFB0078B0EFF2AC
:104CFF007882E2FF12504678B0E2FF124DF67882CA
:104D0F00E24401FF125046C201124C4178B1EFF25A
:074D1F001251AC78B1E2FF74
:014D2600226A
:0449FA0078DDEFF283
:1049FE007882E2FF12504678DDE2FF124DF67882A1
:104A0E00E24401FF125046D201124C41EFF8E47914
:104A1E00DFF3E819F3C201124C4178DEE2F208E24C
:0C4A2E004FF21251AC78DEE2FE08E2FF0D
:014A3A002259
:044A3B0078B0EFF26E
:104A3F007882E2FF12504678B0E2FF124DF678828C
:104A4F00E24401FF125046D201124C4178B1E4F218
:104A5F0008EFF2C201124C41EFFE78B1E24EF208BC
:0C4A6F00E2F21251AC78B1E2FE08E2FF66
:014A7B002218
:035266000249FA00
:03526900024A3BBB
:043B2E0078C8EFF272
:103B32007882E2FF12504678C8E2FF124DF6788290
:103B4200E24401FF125046D201124C41E4FCFDFE58
:103B5200780C12060078C912061378C9E2FB08E253
:103B6200F908E2FA08E2CBF8C000C001C002C003C3
:103B7200D201124C41E4FCFDFE7804120600D0038F
:103B8200D002D001D000EB4FFFEA4EFEE94DFDE836
:103B92004CFC78C912061378C9E2FB08E2F908E284
:103BA200FA08E2CBF8C000C001C002C003C2011291
:103BB2004C41EFC4540FFFD003D002D001D000EB30
:103BC2004FFFEAFEE9FDE8FC78C91206131251AC78
:0D3BD20078C9E2FC08E2FD08E2FE08E2FF0F
:013BDF0022C3
:103FE6007FAA1249FA786CEEF208EFF27FAC12491A
:103FF600FA786EEEF208EFF27FAE1249FA7870EEBA
:10400600F208EFF27FB01249FA7872EEF208EFF298
:104016007FB21249FA7874EEF208EFF27FB41249D1
:10402600FA7876EEF208EFF27FB61249FA7878EE71
:10403600F208EFF27FB81249FA787AEEF208EFF258
:104046007FBA1249FA787CEEF208EFF27FBC124989
:10405600FA787EEEF208EFF27FBE1249FA7880EE29
:05406600F208EFF22258
:103DB1007F88124A3B7889EEF208EFF27F8A12522D
:103DC10069788BEEF208EFF27F8C125269788DEEF2
:103DD100F208EFF27F8E124A3B788FEEF208EFF293
:103DE1007F901252697891EEF208EFF27F921252AF
:103DF100697893EEF208EFF27F941252697895EEAA
:103E0100F208EFF27F961252697897EEF208EFF21C
:103E11007F981252697899EEF208EFF27F9A125266
:103E210069789BEEF208EFF27F9C125269789DEE61
:103E3100F208EFF27F9E125269789FEEF208EFF2DC
:013E4100225E
:1041EC00123DB17FA1124CFB78A1EFF27FE112528C
:1041FC006978A2EEF208EFF27FE3124CFB78A4EFA1
:10420C00F27FE4124CFBEF75F010A4FFAEF0C00788
:10421C00C0067FE5124CFBEF540FFDD0E078A5F201
:10422C00D0E04D08F27FE6124CFBEF75F010A4FFC6
:10423C00AEF0C007C0067FE5124CFBEFC4540FFD77
:10424C00D0E078A7F2D0E04D08F27FE7124CFB7873
:04425C00A9EFF222B2
:0E51CA00E4FD7FF5124ED07DAB7FF4024ED097
:0A5215007D057FF2124ED00251CA4F
:044E440078DCEFF235
:104E48007882E2FF1250467FF4124DF678DCE2FFDA
:104E5800124DF61251AC7F051251BB7FF60249FA8A
:0C51F2007FF3124CFBEF30E002D322C32D
:0151FE00228E
:10406B007FEC12502DB392001251AC3000077882C6
:10407B0074ECF280137FEE12502DB392001251AC00
:10408B00300005788274EEF23000097FD0124CFBC1
:10409B007869EFF27869E2FF6003B4FF05E47869B1
:1040AB00F222EF6455601C7DB67FE0124ED07F95F7
:1040BB001251BB7F9580071251F250077F6412514A
:1040CB00BB80F47869E224AA24FD500B24F9600D1F
:1040DB00240B700F023FE6123DB10251CA1241ECA4
:0340EB0012521559
:0140EE0022AF
:1014A5007F2E124E4478D8EEF208EFF27F34124EBA
:1014B5004478DAEEF208EFF27869E26455600302E7
:1014C50018EB78D8E2FE08E2FFE4FCFDC006C00791
:1014D5007876E2FE08E2FBAA06D007D006C3EF9BAA
:1014E500FFEE9AFEED9400FDEC9400FCC004A90506
:1014F500AA06AB077874E2FE08E2FFE4FCFDD00023
:10150500120487780F1205EC78B0120613787EE284
:10151500FE08E2FFEE3395E0FDFC780B120600C0F5
:1015250004C005C006C0077880E2FE08E2FFEE337E
:1015350095E0FDFC78B0E2FB08E2F908E2FA08E282
:10154500CBF8EB2FFBEA3EFAE93DF9E83CF8D0078A
:10155500D006D005D0041249B678B412061378B473
:10156500E2FC08E2FD08E2FE08E2FF78B0E2FB08D3
:10157500E2F908E2FA08E2CBF8EB2FFFEA3EFEE9D2
:101585003DFDE83CFC78C012061378C0E2FC08E299
:10159500FD08E2FE08E22408FFE43EFEE43DFDE42A
:1015A5003CFC78041205EC786AEEF208EFF278C09C
:1015B500E2FC08E2FD08E2FE08E22460FFEE34F0FA
:1015C500FEED34FFFDEC34FFFC0812061378C4E28F
:1015D500FC08E2FD08E2FE08E2FFA804A905AA0648
:1015E500FB120487780C1205EC78C8120613786E86
:1015F500E2FE08E2FFEE3395E0FDFC78C4E2FB086D
:10160500E2F908E2FA08E2CBF8120487C004C00543
:10161500C006C007787AE2FE08E2FFEE3395E0FDEA
:10162500FC78C8E2FB08E2F908E2FA08E2CBF81216
:101635000487D003D002D001D000EF2BFFEE3AFE95
:10164500ED39FDEC38FC780B1205EC78B812061371
:10165500786CE2FE08E2FFEE3395E0FDFCE47B04E6
:10166500FAF9F812048778B8E2FB08E2F908E2FA19
:1016750008E2CBF8EB2FFFEA3EFEE93DFDE83CFC36
:10168500EF2402FFE43EFEE43DFDE43CFC7802125B
:1016950005EC78BC1206137870E2FE08E2FFEE3323
:1016A50095E0FDFC78C4E2FB08E2F908E2FA08E2FD
:1016B500CBF8120487780D1205EC78B01206137872
:1016C50078E2FE08E2FFEE3395E0FDFC78C8E2FB28
:1016D50008E2F908E2FA08E2CBF81204877810125A
:1016E50005EC78B412061378B4E2FC08E2FD08E2D2
:1016F500FE08E2FF78B0E2FB08E2F908E2FA08E248
:10170500CBF8EB2FFFEA3EFEE93DFDE83CFCEF247C
:1017150002FFE43EFEE43DFDE43CFC78021205ECEC
:1017250078B812061378B8E2FC08E2FD08E2FE0874
:10173500E22400FFEE3480FEE43DFDE43CFCC00401
:10174500A905AA06AB077872E2FE08E2FFE4FCFDF4
:10175500D000120487780F1205D978D012061378B5
:10176500DAE2FE08E2FFE4FCFDC004C005C006C0E5
:101775000778BCE2FC08E2FD08E2FE08E2FBAA06E7
:10178500A905A804D007D006D005D004C3EF9BFF58
:10179500EE9AFEED99FDEC98FCE47B507AC3F9F8DE
:1017A50012048778D412061378D0E2FB08E2F90810
:1017B500E2FA08E2CBF8C00078D4E2FC08E2FD08C2
:1017C500E2FE08E2FFD00012051278011206007849
:1017D500CC12061378CCE2FC08E2FD08E2FE08E232
:1017E500FF78081205ECC004C005C006C00778CC18
:1017F500E2FC08E2FD08E2FE08E2FF78081205ECCB
:10180500D003D002D001D00012048778B01206139D
:10181500E47FDE7E0BFDFC78B0E2FB08E2F908E22E
:10182500FA08E2CBF812048778101205EC78B012AA
:1018350006137F437EE37DFF7CFF78CCE2FB08E265
:10184500F908E2FA08E2CBF812048778101205ECE1
:1018550078B412061378B4E2FC08E2FD08E2FE084B
:10186500E2FF78B0E2FB08E2F908E2FA08E2CBF819
:10187500EB2FFFEA3EFEE93DFDE83CFCEF24CFFF00
:10188500EE340EFEE43DFDE43CFC78041205EC78F4
:10189500CCE2FB08E2F908E2FA08E2CBF8EB2FFF0D
:1018A500EA3EFEE93DFDE83CFC78B812061378B83F
:1018B500E2FC08E2FD08E2FE08E2FFEC1202BC7B56
:1018C500B07A507955784112021F7865120613785F
:1018D50065E2FC08E2FD08E2FE08E2FF1202FA7882
:0618E50063EEF208EFF2D1
:0118EB0022DA
:1031F6007FFA123B2E78C4120613E4FFFE7D08FC0C
:1032060078C4E2FB08E2F908E2FA08E2CBF8C31256
:1032160005C870030233907889E2FE08E2FFE4FCF9
:10322600FD7801120600AB07AA06A905C004C00571
:10323600C006C00778C4E2FC08E2FD08E2FE08E228
:10324600FF78031205D9D003D002D001D000C3EF16
:103256009BFFEE9AFEED99FDEC98FCC004A905AA29
:1032660006AB07788BE2FE08E2FFEE3395E0FDFC45
:10327600D000120487780B1205D978C0120613788D
:1032860089E2FE08E2FFE4FCFDAB07AA06F9C004EA
:10329600C005C006C00778C4E2FC08E2FD08E2FEED
:1032A60008E2FF78041205D9D003D002D001D0007D
:1032B600C3EF9BFFEE9AFEED99FDEC98FCC004C0AF
:1032C60005C006C0077889E2FE08E2FFE4FCFDAB14
:1032D60007AA06F9C004C005C006C00778C4E2FC08
:1032E60008E2FD08E2FE08E2FF78041205D9D003E1
:1032F600D002D001D000C3EF9BFFEE9AFEED99FD00
:10330600EC98FCD003D002D001D000120487780CD0
:103316001205D9C004A905AA06AB07788DE2FE08F6
:10332600E2FFEE3395E0FDFCD000120487780E1222
:1033360005D978C0E2FB08E2F908E2FA08E2CBF820
:10334600EB2FFFEA3EFEE93DFDE83CFC78851206E0
:1033560013E47F05FEFDFC7885E2FB08E2F908E24E
:10336600FA08E2CBF8120487EF2480FFE43EFEE47D
:103376003DFDE43CFC78081205ECE47B0AFAF9F81A
:0A3386001249B6786AEEF208EFF281
:01339000221A
:10105D001231F67FF7123B2E78B01206137885E227
:10106D00FC08E2FD08E2FE08E2FF78011205ECE45F
:10107D002FFFEE3406FEED34FFFDEC34FFFC78B4AB
:10108D0012061378B4E2FC08E2FD08E2FE08E2FF66
:10109D0078021205ECC004C005C006C00778B4E2A2
:1010AD00FC08E2FD08E2FE08E2FF78021205ECD032
:1010BD0003D002D001D000120487780B1205ECC0CA
:1010CD0004A905AA06AB077899E2FE08E2FFEE3304
:1010DD0095E0FDFCD00012048778B812061378B89D
:1010ED00E2FB08E2F908E2FA08E2CBF8C000C00121
:1010FD00C002C0037897E2FE08E2FFEE3395E0FDF3
:10110D00FC78B4E2FB08E2F908E2FA08E2CBF81247
:10111D0004877801120600D003D002D001D000EB75
:10112D002FFFEA3EFEE93DFDE83CFC78B8120613C0
:10113D007895E2FE08E2FFEE3395E0FDFC781012A3
:10114D000600C004C005C006C00778B8E2FC08E27E
:10115D00FD08E2FE08E2FF78021205ECD003D00292
:10116D00D001D000EF2BFFEE3AFEED39FDEC38FC4F
:10117D0078B812061378B4E2FC08E2FD08E2FE0826
:10118D00E2FF78021205ECC004C005C006C0077866
:10119D00B4E2FC08E2FD08E2FE08E2FF7802120567
:1011AD00ECD003D002D001D000120487780D1205C7
:1011BD00ECC004A905AA06AB077893E2FE08E2FF8E
:1011CD00EE3395E0FDFCD00012048778031205EC98
:1011DD00C004C005C006C0077891E2FE08E2FFEE2C
:1011ED003395E0FDFC78B4E2FB08E2F908E2FA0879
:1011FD00E2CBF812048778011205ECD003D002D0AF
:10120D0001D000EB2FFFEA3EFEE93DFDE83CFC7806
:10121D00121205EC78B412061378B4E2FC08E2FD64
:10122D0008E2FE08E22400FFEE3480FEE43DFDE41A
:10123D003CFCC004A905AA06AB07788FE2FE08E2C4
:10124D00FFE4FCFDD000120487780F1205EC78B492
:10125D0012061378B4E2FC08E2FD08E2FE08E2FF94
:10126D00EC4D4E4F70030214A408E2FC08E2FD0899
:10127D00E2FE08E2FF780C1205ECC004C005C006C2
:10128D00C00778B0E2FB08E2F908E2FA08E2CBF811
:10129D00C3E49BFFE49AFE741099FDE498FCD0031F
:1012AD00D002D001D000C3EF9BFFEE9AFEED99FD69
:1012BD00EC98FCE47B357A0CF9F812048778BC12B3
:1012CD000613E4FFFEFD7C8078BCE2FB08E2F90822
:1012DD00E2FA08E2CBF8C31205C8503A78BCE2FC3A
:1012ED0008E2FD08E2FE08E2FF7801120600C004E4
:1012FD00C005C006C00778B4E2FC08E2FD08E2FEB6
:10130D0008E2FBAA06A905A804D007D006D005D08F
:10131D0004120512803078B4E2FC08E2FD08E2FE0A
:10132D0008E2FFC004A905AA06AB0778BCE2FC08D9
:10133D00E2FD08E2FE08E2FFD000120512E47B0296
:10134D00FAF9F812048778BC12061378BCE2FC088F
:10135D00E2FD08E2FE08E2FF78031205D9C004C0E1
:10136D0005C006C00778BCE2FC08E2FD08E2FE08F5
:10137D00E2FF78031205D9D003D002D001D00012BC
:10138D000487780D1205D9C004A905AA06AB077804
:10139D009FE2FE08E2FFEE3395E0FDFCD000120463
:1013AD0087780C1205EC78B412061378BCE2FC08B1
:1013BD00E2FD08E2FE08E2FF78021205D9C004A999
:1013CD0005AA06AB07789DE2FE08E2FFEE3395E035
:1013DD00FDFCD000120487780D1205EC78B81206CA
:1013ED001378BCE2FB08E2F908E2FA08E2CBF8C098
:1013FD0000C001C002C00378B8E2FC08E2FD08E2BB
:10140D00FE08E2FF78B4E2FB08E2F908E2FA08E22E
:10141D00CBF8EB2FFFEA3EFEE93DFDE83CFCC004B6
:10142D00A905AA06AB07789BE2FE08E2FFEE33950D
:10143D00E0FDFCD000EB2FFFEA3EFEE93DFDE83C70
:10144D00FC78041205ECD003D002D001D000EB2FB4
:10145D00FFEA3EFEE93DFDE83CFC78BC1206137840
:10146D00BCE2FC08E2FD08E2FE08E2FFE41202BC69
:10147D007BB07A507955784112021F7865120613A8
:10148D007865E2FC08E2FD08E2FE08E2FF1202FACE
:07149D007863EEF208EFF2A4
:0114A4002225
:102384001231F67FFD1249FAE4FCFD78B01206130F
:10239400E4FF7E80FDFC78B0E2FB08E2F908E2FA93
:1023A40008E2CBF8C31205B2700302264C7885E22A
:1023B400FC08E2FD08E2FE08E22400FFEE34D4FE4D
:1023C400ED34FEFDEC34FFFC78B412061378A4E27D
:1023D400FFE4FCFDFE78B4E2FB08E2F908E2FA0847
:1023E400E2CBF8120487780B1205ECE42FFFEE34ED
:1023F40080FEE43DFDE43CFCC004C005C006C0070B
:1024040078A9E2FF3395E0FEFDFC78B4E2FB08E234
:10241400F908E2FA08E2CBF8120487780A1205EC0C
:10242400D003D002D001D000120487780A1205EC40
:10243400E42FFFE43EFEED3420FDE43CFCC004A99F
:1024440005AA06AB0778A2E2FE08E2FFEE3395E0A8
:10245400FDFCD000120487E42FFFEE3420FEE43D9F
:10246400FDE43CFC780E1205ECC004C005C006C0B7
:102474000778A5E2FE08E2FFEE3395E0FDFC781450
:10248400120600C004C005C006C00778B0E2FC080C
:10249400E2FD08E2FE08E2FF780E120600D003D047
:1024A40002D001D000C3EF9BFFEE9AFEED99FDEC44
:1024B40098FCC004C005C006C00778A7E2FE08E285
:1024C400FFEE3395E0FDFC78B4E2FB08E2F908E2A4
:1024D400FA08E2CBF8120487A804A905AA06AB07F8
:1024E400D007D006D005D004C3EF9BFFEE9AFEEDD3
:1024F40099FDEC98FCE42FFFEE3440FEE43DFDE44E
:102504003CFC780F1205ECD003D002D001D00012AD
:10251400048778B412061378B4E2FC08E2FD08E2FA
:10252400FE08E2FFC004C005C006C00778B4E2FCA0
:1025340008E2FD08E2FE08E2FF780F1205ECC00491
:10254400C005C006C00778B4E2FC08E2FD08E2FE5C
:1025540008E2FF780F1205ECD003D002D001D000BE
:1025640012048778071205ECC004A905AA06AB0774
:1025740078A1E2FFE4FCFDFED00012048778041287
:1025840005ECA804A905AA06AB07D007D006D00518
:10259400D004C3EF9BFFEE9AFEED99FDEC98FC7816
:1025A400B412061378B4E2FCEC335007E4FFFEFDEA
:1025B400FC800D78B4E2FC08E2FD08E2FE08E2FFCC
:1025C40078B4120613E4FFFEFD7C1978B4E2FB082C
:1025D400E2F908E2FA08E2CBF8D31205B24008E4C3
:1025E400FFFEFD7C19800D78B4E2FC08E2FD08E2F0
:1025F400FE08E2FF78B412061378B4E2FC08E2FDA8
:1026040008E2FE08E2FF780C1205EC78B412061317
:1026140078B4E2FC08E2FD08E2FE08E2FFEC1202F4
:10262400BC7B0A7AD77923784112021F7865120697
:10263400137865E2FC08E2FD08E2FE08E2FF1202FC
:08264400FA7883EEF208EFF2D0
:01264C00226B
:03526C0002105DD0
:0652560012105D0223842A
:104F5D007869E224AA24FD500B24F9600A240B7011
:0B4F6D00090214A502526C12525622D9
:08000300786AE2FE08E2FF2228
:085228007863E2FE08E2FF22B8
:085230007883E2FE08E2FF2290
:055261007869E2FF2264
:0A440A00C10882AA000082AC000085
:0D48590078B6EBF208EAF208E9F208EDF299
:104866007F80125046E478BAF278B9E2FF08E2FE99
:10487600C39F5023EEFF78B8E22FF218E23400F21D
:1048860018E2FB08E2FA08E2F912037BFF124DF682
:0A48960078BAE204F280D20251ACBD
:0D47C80078B6EBF208EAF208E9F208EDF22B
:1047D5007F81125046E478BAF278B9E2FF08E2C365
:1047E5009F5022D201124C4178B6E2FB08E2FA084A
:1047F500E2F978BAE2F582758300EF1203C878BA58
:0D480500E204F280D4C201124C410251AC19
:104D270078B2EFF208EBF208EAF208E9F27BFE7AD2
:104D37000079B27D011248597F191251BB78B3E24D
:0C4D4700FB08E2FA08E2F97D020247C80E
:1048A0007BFE7A0079B07FF3124D2778B0E2FE08E4
:1048B000E2FDEDFFAC06EC1202C17B527AB8792F13
:1048C0007843120116E4FBFA7980784712021F7BC5
:1048D000667A66793B78C2120025E4FBFA79C878DB
:0748E000421201160202FA68
:10492D007BFE7A0079B07FF5124D2778B0E2FE0854
:10493D00E2FDEDFFAC06E41202C1E4FBFA79FA7870
:10494D0042120116E4FBFA7980784712021FE4FB4C
:10495D00FA79C078C0120025E4FBFA79C8784212C2
:05496D0001160202FA30
:0B520A007F8012502DB392080251ACBF
:104F0B001248A07C007D0A12045178AAEEF208EF39
:0C4F1B00F212492D78ACEEF208EFF22201
:0852380078AAE2FE08E2FF2261
:0852400078ACE2FE08E2FF2257
:03526F00A2082270
:10001E00020366E86480F8E933E83360110460F0A7
:10002E00ED33EC337009E8FCE9FDEAFEEBFF220448
:10003E0060DED3EB9FEA9EE99DE8C2E78CF0C2F743
:10004E0095F0400CE8CCF8E9CDF9EACEFAEBCFFB0F
:10005E0012033185D0F05804700320D5B3E8047034
:10006E00075002B2D502037092D5EC0460F7E4CCCF
:10007E00C0E0C398F8603B94186008400DD0E0FBD8
:10008E00020348E4FBFAC9FC8028E830E406E4C920
:10009E00FBE4CAFCE830E305E4C9CACBFCE854072C
:1000AE006010F8C3E913F9EA13FAEB13FBEC13FC37
:1000BE00D8F130F52FC3E49CFCEF9BFFEE9AFEEDDA
:1000CE0099FDD0E0FBEF4E4D4C701222DB03020384
:1000DE006DEC2CFCEF33FFEE33FEED33FDED30E730
:1000EE00EB020348EF2BFFEE3AFEED39FDD0E0FBBD
:1000FE0050130BBB0003020370ED13FDEE13FEEF66
:08010E0013FFEC13FC0203488F
:10011600EC4D6011E8497017ED33EC3304600DE4E3
:10012600FCFFFEFD22E933E8330470F80203661291
:10013600033158046009E4CC248150062850090292
:10014600037028400302036DC0E0EB4A7044B98097
:1001560006D0E0FB02035CEF4E701CBD8008EBFF8F
:10016600EAFEE9FD80EBE98DF0A4FEE5F00201FF71
:10017600E9CDF9EAFEEBFFEF89F0A4FCE5F0CE89C4
:10018600F0A42EFFE435F0CD89F0A42DFEE435F081
:100196008067EF4E7005BD80D780C3EF8BF0A4ACAF
:1001A600F0EE8BF0A42CFCE435F0F8EF8AF0A42CEA
:1001B600E5F038FCE433CB8DF0A42CFCE5F03BF8FD
:1001C600EE8AF0A42CFCE5F038F8E433CF89F0A4ED
:1001D6002CFCE5F038CF3400CE89F0A42FFFE5F0F3
:1001E6003EFEE433C98DF0A42EFEE5F039CD8AF04B
:1001F600A42FFFE5F03EFEE43DFD33D0E0FB5007C3
:100206000BBB000F020370EC2CFCEF33FFEE33FE4A
:06021600ED33FD02034878
:10021C00020370EC5D046005E85904700302036688
:10022C00120331580460F6EC4860F2EC7004FDFEE9
:10023C00FF22C860DB2481C85009C39860025006B5
:10024C0002036D9850CAF582E9294B4A7005AB82BE
:10025C0002035C75F0007C1A7880C3EF9BEE9AED7C
:10026C0099400DC3EF9BFFEE9AFEED99FDE842F02D
:10027C00DC23ACF0D0E0FFD0E0FED0E0FDAB822080
:10028C00E7101BEB60BAEC2CFCEF33FFEE33FEED0A
:10029C0033FD020348E803F830E705C0F075F000C1
:1002AC00EF2FFFEE33FEED33FD40B830E7C280AAEE
:1002BC0075F020800E75F010800575F0087D007EBD
:1002CC00007F003392D530D5031205A4EC334010D7
:1002DC00EF33FFEE33FEED33FDEC33FCD5F0ED22C6
:0E02EC00E5F0247EA2D513CC92E7CDCEFF2202
:1002FA00EDD2E7CD33EC3392D524814006E4FFFEFC
:10030A00FDFC22FCE4CFCECDCC24E0501174FF805A
:10031A00EDC3CC13CCCD13CDCE13CECF13CF0470F7
:07032A00F030D5DE0205A44E
:10033100E9D2E7C933E833F892D5EDD2E7CD33EC12
:0703410033FC5002B2D5228B
:10034800EC30E7100FBF000C0EBE00080DBD000416
:100358000BEB6014A2D5EB13FCED92E7FD2274FFC2
:10036800FCFDFEFF22E480F8A2D574FF13FC7D801B
:03037800E480EF2F
:103C9A0002066FE493A3F8E493A34003F68001F2CB
:103CAA0008DFF48029E493A3F85407240CC8C3332B
:103CBA00C4540F4420C8834004F456800146F6DFFA
:103CCA00E4800B01020408102040809043AFE47E98
:103CDA00019360BCA3FF543F30E509541FFEE493EF
:103CEA00A360010ECF54C025E060A840B8E493A3B6
:103CFA00FAE493A3F8E493A3C8C582C8CAC583CAE1
:103D0A00F0A3C8C582C8CAC583CADFE9DEE780BE98
:0144140000A7
:10037B00BB010689828A83E0225002E722BBFE0280
:09038B00E32289828A83E49322B3
:10039400BB010989828A83F8E028F022500327F7F9
:1003A40022BBFE05F8E328F3228A838982F8E493CA
:0203B4002822FD
:1003B600BB010689828A83F0225002F722BBFE0126
:0203C600F32220
:1003C800F8BB010DE58229F582E5833AF583E8F06B
:1003D800225006E92582C8F622BBFE05E92582C817
:0203E800F222FF
:1003EA00EF8DF0A4A8F0CF8CF0A428CE8DF0A42E27
:0203FA00FE22E1
:1003FC00BC000BBE0029EF8DF084FFADF022E4CCE5
:10040C00F875F008EF2FFFEE33FEEC33FCEE9DECAD
:10041C00984005FCEE9DFE0FD5F0E9E4CEFD22EDF3
:10042C00F8F5F0EE8420D21CFEADF075F008EF2F3D
:10043C00FFED33FD4007985006D5F0F222C398FD2E
:05044C000FD5F0EA22CB
:10045100C2D5EC30E709B2D5E4C39DFDE49CFCEEC6
:1004610030E715B2D5E4C39FFFE49EFE1203FCC33F
:10047100E49DFDE49CFC80031203FC30D507C3E43A
:060481009FFFE49EFE2235
:10048700E88FF0A4CC8BF0A42CFCE98EF0A42CFC14
:100497008AF0EDA42CFCEA8EF0A4CDA8F08BF0A492
:1004A7002DCC3825F0FDE98FF0A42CCD35F0FCEBF1
:1004B7008EF0A4FEA9F0EB8FF0A4CFC5F02ECD39B6
:0F04C700FEE43CFCEAA42DCE35F0FDE43CFC2223
:1004D60075F008758200EF2FFFEE33FECD33CDCCDD
:1004E60033CCC58233C5829BED9AEC99E582984060
:1004F6000CF582EE9BFEED9AFDEC99FC0FD5F0D63D
:10050600E4CEFBE4CDFAE4CCF9A88222B800C1B966
:100516000059BA002DEC8BF084CFCECDFCE5F0CBA4
:10052600F97818EF2FFFEE33FEED33FDEC33FCEBDD
:1005360033FB10D703994004EB99FB0FD8E5E4F998
:10054600FA227818EF2FFFEE33FEED33FDEC33FC85
:10055600C933C910D7059BE99A4007EC9BFCE99A79
:10056600F90FD8E0E4C9FAE4CCFB2275F010EF2FBE
:10057600FFEE33FEED33FDCC33CCC833C810D707BE
:100586009BEC9AE899400AED9BFDEC9AFCE899F8F9
:0E0596000FD5F0DAE4CDFBE4CCFAE4C8F9228C
:1049B600C2D5E830E70FB2D5E4C39BFBE49AFAE42C
:1049C60099F9E498F8EC30E717B2D51249EC1205DC
:1049D60012E4C39BFBE49AFAE499F9E498F880039D
:1049E60012051230D50DE4C39FFFE49EFEE49DFD43
:0449F600E49CFC221F
:0E05A400C3E49FFFE49EFEE49DFDE49CFC2268
:1005B200EB9FF5F0EA9E42F0E99D42F0EC6480C8C0
:0605C20064809845F02260
:1005C800EB9FF5F0EA9E42F0E99D42F0E89C45F089
:0105D8002200
:1005D900E8600FECC313FCED13FDEE13FEEF13FF00
:0305E900D8F12224
:1005EC00E86010ECA2E713FCED13FDEE13FEEF1325
:0405FC00FFD8F02212
:10060000E8600FEFC333FFEE33FEED33FDEC33FC58
:03061000D8F122FC
:0C061300ECF208EDF208EEF208EFF22223
:10061F00D083D082E493F208740193F208740293AA
:09062F00F208740393F2740473E1
:10063800F5F0C582A4C582C5F0C583A42583F583DA
:01064800228F
:10064900D083D082F8E4937012740193700DA3A340
:1006590093F8740193F5828883E473740293686054
:06066900EFA3A3A380DF54
:00000001FF
