:03000000023E2D90
:103E2D0078FFE4F6D8FD9000007F007E03E4F0A358
:0A3E3D00DFFCDEFA758121023E82EF
:10519400124DF3124E5E1254A71248A9124DBA12C0
:0B51A4004218125492783274FFF2227D
:10533F003006FD12000EC2AF124DF3D2AFE4782A41
:05534F00F2780BF222D0
:0E544F003006FD12000EC2AF124CCBD2AF22BF
:1007650078B17401F21251947F14125412783B74CB
:1007750002F23006FDC2067824E2FE08E2FF7C00A4
:100785007D0A1204F2ED4C702E7819E2FF600964BF
:10079500026024EF6403601F783BE27014740AF270
:1007A5001254F7EF60031251AF1255025003125164
:1007B5007812440D12351D1254E578B0EFF2600F32
:1007C500E2C3941050047F1480027F2812541278DB
:1007D500B0E224FE700302096F24FE70030209745F
:1007E50024F47003020A31240F6003020A98784149
:1007F500E2640570227819E2701D7410F2782AE21D
:10080500FF700404F28010EFD39400400AEF9407C0
:100815005005782AE204F27819E214B41200400374
:10082500020A9890083675F003A4C58325F0C583A0
:100835007302086C0208F20208FD02090F02096939
:1008450002096902096902096602096902092902A0
:100855000969020969020949020A98020969020A35
:1008650098020A980209697817E2FF24FEB410007D
:100875004003020A9890088875F003A4C58325F003
:10088500C583730208B80208C40208CA0208EC024C
:1008950008EC0208EC0208EC0208EC0208EC02087D
:1008A500EC0208EC0208E60208D00208D6020A9813
:1008B5000208E078327402F27819EFF2020A9878A9
:1008C5003274068003E4785EF2801C1252E4020A58
:1008D50098E47819F2782AF2020A98123EC7020AB9
:1008E500987853E27818F27817E2020A847832E2AF
:1008F5007012124FF8020A8F7832E2B40406124FD2
:10090500A3020A8F12501F020A98785EE2FF700553
:100915007854E26004EFB40905124D448046125341
:10092500B7020A9878197411F2782BE2FF781DE462
:10093500F208EFF2E47826F208F27820F208743B28
:10094500F2020A987818E260057853E27010E478AC
:100955000BF27810F208F274FF780CF208F2020A32
:100965008F12537D12544F020A9578B17401F278B3
:10097500B0E2B404040874FFF27819E2B40E004042
:1009850003020A98900990F82828730209BA020907
:10099500BC0209C60209C60209D00209DA0209EE3B
:1009A500020A02020A0C020A16020A280209E402D5
:1009B50009F8020A1F804678B1E2FF125369020A5C
:1009C5009878B1E2FF123FEF020A9878B1E2FF1280
:1009D500407D020A9878B1E2FF125218020A98780F
:1009E500B1E2FF1251CA020A9878B1E2FF1251E44E
:1009F500020A9878B1E2FF1251FE020A9878B1E234
:100A0500FF1250B8020A9878B1E2FF125232020A78
:100A15009878B1E2FF12524C807978B1E2FF125218
:100A250066807078B1E2FF12539180677819E2B45D
:100A35001400505F900A40F8282873020A7C020AC5
:100A450083020A8F020A8F020A89020A8C020A8C23
:100A5500020A8C020A8C020A8C020A91020A8C0292
:100A65000A8C020A8F020A8F020A8F020A98020A6A
:100A750091020A98020A8F78197401F28015E478B8
:100A850019F2800F124DBA12533F8004E4781CF21C
:100A950012546B7819E2B414004003020B59900A02
:100AA500AAF8282873020AE6020AF0020AF5020AE1
:100AB500FA020AFF020B04020B0E020B17020B20AF
:100AC500020B25020B2F020B09020B12020B2A0245
:100AD5000B59020B55020B55020B37020B4D020A3F
:100AE500EB1248F8806E1253138069123CC680647D
:100AF500123A2C805F123916805A1221CC80551279
:100B05004EF18050124D08804B78418007124806FF
:100B150080427845E2FF12410980391254D0803471
:100B25001254D7802F124F1E802A781CE2FFE4FD55
:100B35008019781CE2D3648094804005123EC780FA
:100B45001378197401F2800CE4FDFF1249DB80046F
:100B5500E47819F27829E22401F218E23400F278F7
:100B650025E22401F218E23400F27823E22401F2AE
:100B750018E23400F2D37829E2947718E294004021
:100B850004E4F208F230072C782AE2B40826782427
:100B9500E2FE08E2FF7C007D051204F2ED4C7014C4
:100BA500C3780EE264809480400A08E22401F218BA
:100BB500E23400F2D37825E2943B18E294004077C2
:100BC500E4F208F27813E22401F218E23400F27834
:100BD5002AE2B409005060900BE3F8282873020B51
:100BE500FE020C0E020C12020C16020C1A020C1E4E
:100BF500020C22020C26020C2C7841E2B40506E414
:100C05007812F208F27F3C801A7F0280167F0280FC
:100C1500127F02800E7F05800A7F0280067F028098
:100C2500027F057E00800DC3780EE26480948050BB
:100C350006E4FFFE1246282007030207777853E2F1
:100C450070030207777841E2640560030207773095
:100C5500072C780BE2B401267822E2FE08E2FF7C3D
:100C6500007D051204F2ED4C7014C3780CE264802B
:100C75009480400A08E22401F218E23400F2D378A5
:100C850023E2943B18E294005003020777E4F2084C
:100C9500F27811E22401F218E23400F2780BE21442
:100CA50060100460030207777F107E0E124A22024D
:100CB5000777C3780CE2648094804003020777E4E9
:080CC500FFFE124A220207772C
:1024E700007F7F40407F7F007F7F08087F7F00035A
:1024F7001F227E7F0300007F7F49497F36004040CF
:102507007F7F4040007F7F4848783000003E7F4112
:10251700416322007F7F4848783000031F227E7F77
:10252700030000707808087F7F0040407F7F4040AD
:10253700007F7F49497F3600007F7F40407F7F00D3
:1025470040407F7F4040007F7F08087F7F00003E3C
:102557007F414163220060731B0F7C70007F7F49BE
:10256700494F4600007F7F49497F36003E7F414102
:102577006322007F7F0814636300007C7C40407CFB
:102587007C007C7C10107C7C000C3C48787C0C0028
:10259700007C7C54547C280040407C7C4040007C7C
:1025A7007C505070200000387C44446C28007C7CB0
:1025B70050507020000C3C48787C0C000060701074
:1025C700107C7C0040407C7C4040007C7C54547CE8
:1025D7002800007C7C40407C7C0040407C7C404064
:1025E700007C7C10107C7C0000387C44446C280004
:1025F70064741C187060007C7C54545C4800007C38
:102607007C54547C2800387C44446C28007C7C1023
:10261700386C440000607F7F60006F6F007F3F1061
:102627001F103F7F007F7F4949007F7F63361C0073
:102637001F3F6C6C3F1F00607F7F60007F7F4949B1
:102647003F7F4C7F3F007F7F0303003F7F4C7F3FEF
:10265700007F7F6C6C370000003E41417149493E65
:10266700000000063A433A06000000007F7F6868D2
:10267700003E7F417F3E007F3F180C7E7F00607FDA
:102687007F607F7F41633E1C006F6F00327B496F25
:1026970026007F7F446C38007F3F101F103F7F006C
:1026A7006F6F007F7F63361C007F7F6C6C387F7F86
:1026B700497F36007F7F6C6C37006F6F003E7F412C
:1026C7004D2E0000003E41417149493E0000000087
:1026D70000000011117D1111000000000000007FB3
:1026E7007F417F7F007F7F381C7F7F0000000000D5
:1026F7000000007F7F417F7F007F7F6C6C007F7FC2
:102707006C6C00000000607F7F6000730B7E7C00B4
:102717007F7F4C380036007F7F49497F36007F7FB7
:102727004C4E7B3100360000705070003E7F634195
:10273700410000000011117D1111000000607F7F32
:1027470060006F6F007F3F101F103F7F007F7F6C1F
:102757006C377F413E003249260022493600234527
:10276700390022493600207F007F7F49490063777F
:102777001C1C7763006F6F0060607F7F6060327B37
:10278700496F2600607F7F60007F7F6C6C37003E5B
:102797007F414D2E0000007F7F6C6C3700327B49F4
:1027A7006F2600607F7F60000000000012345555DF
:0627B70055555554321087
:1045C200810A00820EFFFF820CFFFF811900811712
:1045D200028212000082100000812A00810B0081F9
:0A45E2001C00810000810100C1846B
:104E5E00E4F59375943FF5917592FFF5957596FF70
:104E6E00F5B175B27F7845E2781FF2C206A2C792FD
:104E7E000512486678147401F2087400F20874E59D
:024E8E00F2220E
:0D000E0053B0807590FF75A0FF43803F2226
:103698007801E2FEC394055011781FE2FDEEB505EE
:1036A8000312000E7801E204F222E47801F212001B
:1036B8000E20050A18E2FEC374159EFF80047800E8
:1036C800E2FFEFB4160040030237729036DAF828AA
:1036D800287302371C0237200237240237280237A2
:1036E8002C02373002373402373802373C02374071
:1036F80002374402374802374C0237500237540227
:10370800375802375C02376002376402376802377D
:103718006C023770C2908052C291804EC292804A29
:10372800C2938046C2948042C295803EC296803A37
:10373800C2978036C2A08032C2A1802EC2A2802A3F
:10374800C2A38026C2A48022C2A5801EC2A6801A57
:10375800C2A78016C2808012C281800EC282800AEF
:10376800C2838006C2848002C28520050CC37415FA
:103778009F2408F8E6F5B0804474082FF8E6FEC4E4
:103788005402FDEEC4131354014DFE74082FF8E6DD
:10379800FD131354044EFEED54084EFE74082FF822
:1037A800E6FD25E025E054104EFEEDC454204EFE03
:1037B80074082FF8E6C4333354404EF5B07800E26D
:1037C80004F2E2D39415400BE4F2A2C79205200656
:0337D80002D20614
:0137DB0022CB
:0D546B00E47819F27812F208F2782AF222A1
:10440D001244F1782BE27068300467C2047854E2EC
:10441D00603908E2FF782DE26F70307856E2FF7850
:10442D002CE2B50726782EE27E007BFE2456F9EEAF
:10443D003400FA120471603A7844E2FF7C007D3C4E
:10444D001204E07837EEF208EFF2227855E2FF33EE
:10445D0095E0FE782DE2D39FEE6480F8748098404D
:10446D0011782CE2700C7840E260077F280254121C
:02447D00D20467
:01447F00221A
:0C485A007814E4F2087400F2087408F20C
:104866007843E214601514601C14602314602A80D7
:1048760000781A740DF2087431F222781A740DF267
:10488600087459F222781A740DF2087481F22278AB
:104896001A740DF20874A9F222781A740DF20874CB
:0348A600D1F2222A
:104AF70078B27427F2087459F2E4FFEFC3941650A2
:104B07003478B2E2FC08E2F5828C83E493FE7814F1
:104B1700E2FB08E2FA08E2F9EE1204AC0F78B3E21E
:104B27002401F218E23400F27816E22401F218E2C6
:054B37003400F280C60D
:014B3C002256
:1046EE007828E2FC08E2FDC3941EEC94005004E42A
:1046FE00FF800FC3ED945AEC940050047F038002A8
:10470E00E4FFE4FEEEC39404503675F004EFA42EDD
:10471E00F582E435F0F583E58224CDF582E5833428
:10472E000CF583E493FD7814E2FB08E2FA08E2F953
:10473E00ED1204AC0EE22401F218E23400F280C451
:01474E002248
:1031B0007842E214603E14606214700302327A14A2
:1031C00070030232C914700302330780007828E2CA
:1031D000FC08E2FDC3941EEC94005005E4FF0233AA
:1031E00043C3ED945AEC940050057F03023343E44B
:1031F000FF0233437828E2FC08E2FDC3941EEC94FE
:103200000050057F02023343C3ED945AEC94005002
:10321000057F030233437F020233437828E2FC0830
:10322000E2FDC3940AEC94005005E4FF023343C36B
:10323000ED941AEC940050057F01023343C3ED94E2
:103240002CEC940050057F02023343C3ED944EEC06
:10325000940050057F03023343C3ED9460EC940067
:1032600050057F02023343C3ED9470EC9400500587
:103270007F01023343E4FF0233437828E2FC08E293
:10328000FDC3940CEC94005005E4FF023343C3EDFE
:103290009424EC940050057F03023343C3ED943C27
:1032A000EC940050057F04023343C3ED9454EC9436
:1032B0000050057F05023343C3ED946CEC9400503D
:1032C000047F06807EE4FF807A7828E2FC08E2FD35
:1032D000C3940EEC94005004E4FF8067C3ED942C7B
:1032E000EC940050047F07805AC3ED944AEC94009C
:1032F00050047F03804DC3ED9468EC940050047F2C
:10330000088040E4FF803C7828E2FC08E2FDC3949A
:103310000EEC94005004E4FF8029C3ED942CEC944F
:103320000050047F01801CC3ED944AEC94005004CB
:103330007F02800FC3ED9468EC940050047F0180FD
:1033400002E4FFE4FEEEC39404503675F004EFA4EB
:103350002EF582E435F0F583E58224CDF582E58310
:10336000340CF583E493FD7814E2FB08E2FA08E2FA
:10337000F9ED1204AC0EE22401F218E23400F280FE
:01338000C488
:013381002229
:0937DC00782CE2FF7E00E4FBFD05
:0D37E50078B6EEF208EFF208EDF208EBF214
:1037F200E408F278BAE2FBC3940440030238867804
:10380200B8E2705F08E2601778B6E2FE08E2FF7C79
:10381200007D0A1204F2D3EF9400EE940040447843
:10382200B6E2FE08E2FF7C007D0A1204F2EF7802A3
:10383200C333CE33CED8F9FFEB7C002FFFEC3EFE34
:10384200781BE22FFF18E23EFE78BBF208EFF2F59A
:10385200828E83E493FF7814E2FB08E2FA08E2F92D
:10386200EF800B7814E2FB08E2FA08E2F9E41204B2
:10387200AC78BAE204F27816E22401F218E23400DB
:10388200F20237F57814E2FB08E2FA08E2F9E412F0
:1038920004ACE22401F218E23400F2E478BAF278DD
:1038A200BAE2FBC39404506B78B8E2704678B6E291
:1038B200FE08E2FF7C007D0A1204F2EDAE047802FB
:1038C200C333CE33CED8F9FFEB7C002FFFEC3EFEA4
:1038D200781BE22FFF18E23EFE78BBF208EFF2F50A
:1038E200828E83E493FF7814E2FB08E2FA08E2F99D
:1038F200EF800B7814E2FB08E2FA08E2F9E4120422
:10390200AC78BAE204F27816E22401F218E234004A
:03391200F2808CB4
:01391500228F
:10513F00782DE2FDD39418500618E2943C400302F8
:0D514F004AF7ED1237DF1231B01237DC22C3
:10455C007B007A0079087814EBF208EAF208E9F2A9
:10456C00E41204ACE22401F218E23400F218E2FB8B
:10457C0008E2FA08E2F9E41204ACE22401F218E2CF
:10458C003400F2E4FBFD7F14FE1237E57814E2FBF5
:10459C0008E2FA08E2F9E41204ACE22401F218E2AF
:1045AC003400F278311237DE7814E2FB08E2FA08B4
:0645BC00E2F9E40204AC88
:104B82007830E2D3940C500718E2FD9420400302DF
:104B92004AF7ED1237DFE4FFEFC394045020EF90A1
:104BA2000CD193FE7814E2FB08E2FA08E2F9EE1265
:104BB20004AC0FE22401F218E23400F280DA783019
:034BC2001237DEC9
:014BC50022CD
:103C0700782EE214B407005070903C1E75F003A4A0
:103C1700C58325F0C58373023C33023C3E023C4911
:103C2700023C54023C5F023C6A023C7578B2742441
:103C3700F20874E7F2804B78B27424F20874FDF24C
:103C4700804078B27425F2087413F2803578B27424
:103C570025F2087429F2802A78B27425F208743F95
:103C6700F2801F78B27425F2087455F2801478B286
:103C77007425F208746BF2800978B27427F208741D
:103C870059F2E4FFEFC39416503478B2E2FC08E22D
:103C9700F5828C83E493FE7814E2FB08E2FA08E2EB
:103CA700F9EE1204AC0F78B3E22401F218E2340003
:0E3CB700F27816E22401F218E23400F280C620
:013CC50022DC
:1053DD001237DC1246EE782BE2FF7E00E4FBFD0275
:0253ED0037E5A2
:101A4800E478B5F208F2125502500F1254C07C0027
:101A58007D0A1204E078B5EE80211254F7EF600F8A
:101A68001200037C007D0A1204E078B5EE800C7841
:101A780033E275F064A4FF78B5E5F0F208EFF27888
:101A880050E2FF3395E0FE7C007D641204E078B6F6
:101A9800E22FF218E23EF2E418F278B4E2FFC394BF
:101AA80005500D74022FF8E4F278B4E204F280EAEB
:101AB80078B47404F2D378B6E2940018E26480949F
:101AC80080500618E29400403278B5E2FA08E2FB4A
:101AD8007C007D0AFFAE0212054778B4E22402F8C2
:101AE800EDF278B4E214F27C007D0AAF03AE021284
:101AF800054778B5EEF208EFF280BA7802E26003A3
:101B0800021C7578B4F278B4E2FDC39404504578A9
:101B180003E275F004A47C002DFFEC35F0FE781B81
:101B2800E22FFF18E23EFE78B2F208EFF2F5828E5D
:101B380083E493FF7814E2FB08E2FA08E2F9EF1273
:101B480004AC78B4E204F27816E22401F218E23424
:101B580000F280B27814E2FB08E2FA08E2F9E41233
:101B680004ACE22401F218E23400F2E478B4F2782A
:101B7800B4E2FDC3940450457804E275F004A47CF3
:101B8800002DFFEC35F0FE781BE22FFF18E23EFE39
:101B980078B2F208EFF2F5828E83E493FF7814E2CC
:101BA800FB08E2FA08E2F9EF1204AC78B4E204F2B6
:101BB8007816E22401F218E23400F280B27814E2D6
:101BC800FB08E2FA08E2F9E41204ACE22401F21894
:101BD800E23400F218E2FB08E2FA08E2F9740312B0
:101BE80004ACE22401F218E23400F218E2FB08E245
:101BF800FA08E2F974031204ACE22401F218E234A0
:101C080000F218E2FB08E2FA08E2F9E41204ACE296
:101C18002401F218E23400F2E478B4F278B4E2FD78
:101C2800C394044003021DC77805E275F004A47C40
:101C3800002DFFEC35F0FE781BE22FFF18E23EFE88
:101C480078B2F208EFF2F5828E83E493FF7814E21B
:101C5800FB08E2FA08E2F9EF1204AC78B4E204F205
:101C68007816E22401F218E23400F280AF7814E228
:101C7800FB08E2FA08E2F9E41204ACE22401F218E3
:101C8800E23400F2E478B4F278B4E2FDC39404508C
:101C9800457802E275F004A47C002DFFEC35F0FED7
:101CA800781BE22FFF18E23EFE78B2F208EFF2F559
:101CB800828E83E493FF7814E2FB08E2FA08E2F9E3
:101CC800EF1204AC78B4E204F27816E22401F218B8
:101CD800E23400F280B27814E2FB08E2FA08E2F992
:101CE800E41204ACE22401F218E23400F2E478B41D
:101CF800F278B4E2FDC3940450457803E275F00429
:101D0800A47C002DFFEC35F0FE781BE22FFF18E2D3
:101D18003EFE78B2F208EFF2F5828E83E493FF7804
:101D280014E2FB08E2FA08E2F9EF1204AC78B4E234
:101D380004F27816E22401F218E23400F280B27854
:101D480014E2FB08E2FA08E2F9E41204ACE2240126
:101D5800F218E23400F2E478B4F278B4E2FDC39405
:101D68000450457804E275F004A47C002DFFEC359E
:101D7800F0FE781BE22FFF18E23EFE78B2F208EF81
:101D8800F2F5828E83E493FF7814E2FB08E2FA0806
:101D9800E2F9EF1204AC78B4E204F27816E2240116
:101DA800F218E23400F280B27814E2FB08E2FA0892
:101DB800E2F9E41204ACE22401F218E23400F27809
:101DC80014E2FB08E2FA08E2F9E41204ACE22401A6
:101DD800F218E23400F218E2FB08E2FA08E2F974B9
:101DE8003E1204ACE22401F218E23400F218E2FBDD
:101DF80008E2FA08E2F974411204ACE22401F2188C
:101E0800E23400F218E2FB08E2FA08E2F97441123F
:101E180004ACE22401F218E23400F218E2FB08E212
:101E2800FA08E2F974411204ACE22401F218E2342F
:101E380000F218E2FB08E2FA08E2F974221204AC94
:091E4800E22401F218E23400F278
:011E5100226E
:102F7E00E478B3F208F208120715000000001254AC
:102F8E00B0AC06AD07EC1202C178B5120709E4FB2E
:102F9E00FA79207841C00078B5E2FC08E2FD08E23B
:102FAE00FE08E2FFD00012021F7B5C7A8F79027856
:102FBE003F12002578B512070978B5E2FC08E2FD4C
:102FCE0008E2FE08E2FF1202FA78B3EEF208EFF220
:102FDE007814E2FB08E2FA08E2F9E41204ACE22407
:102FEE0001F218E23400F218E2FB08E2FA08E2F904
:102FFE00E41204ACE22401F218E23400F2E478B2F6
:10300E00F278B2E2FFC3648094855055EFFB33959E
:10301E00E0FA08E2FE08E2FF7C007D641205478FAD
:10302E00828E83740512072EE5822BF582E5833A94
:10303E00F583E58224F1F582E583340CF583E49380
:10304E00FF7814E2FB08E2FA08E2F9EF1204AC781A
:10305E00B2E204F27816E22401F218E23400F280B1
:10306E00A07814E2FB08E2FA08E2F9E41204ACE2FA
:10307E002401F218E23400F2E478B2F278B2E2FF00
:10308E00C364809485505CEFFB3395E0FA08E2FE52
:10309E0008E2FF7C007D0A1205477C007D0A1205BE
:1030AE00478D828C83740512072EE5822BF582E5FF
:1030BE00833AF583E58224F1F582E583340CF583BA
:1030CE00E493FF7814E2FB08E2FA08E2F9EF120447
:1030DE00AC78B2E204F27816E22401F218E234007F
:1030EE00F280997814E2FB08E2FA08E2F9E412049D
:1030FE00ACE22401F218E23400F2E478B2F278B2D3
:10310E00E2FFC3648094855055EFFB3395E0FA08D7
:10311E00E2FE08E2FF7C007D0A1205478D828C8359
:10312E00740512072EE5822BF582E5833AF583E5C9
:10313E008224F1F582E583340CF583E493FF781451
:10314E00E2FB08E2FA08E2F9EF1204AC78B2E2040C
:10315E00F27816E22401F218E23400F280A078141C
:10316E00E2FB08E2FA08E2F9E41204ACE22401F20E
:10317E0018E23400F218E2FB08E2FA08E2F9E4126F
:10318E0004ACE22401F218E23400F218E2FB08E289
:10319E00FA08E2F9E41204ACE22401F218E2340077
:0131AE00F22E
:0131AF0022FD
:102A8600E478B3F208F208120715000000001255A8
:102A96000250051254C880091254F7BF600A125436
:102AA600B878B3EEF208EFF278B3E2FC08E2FDE4A0
:102AB6001202C178B5120709E4FBFA79C87842C058
:102AC6000078B5E2FC08E2FD08E2FE08E2FFD0006D
:102AD60012021F7B5C7A8F7902783F12002578B547
:102AE60012070978B5E2FC08E2FD08E2FE08E2FFFB
:102AF6001202FA78B3EEF208EFF27814E2FB08E27B
:102B0600FA08E2F9E41204ACE22401F218E2340015
:102B1600F218E2FB08E2FA08E2F9E41204ACE22455
:102B260001F218E23400F2D3EF9409EE9400406704
:102B3600E478B2F278B2E2FFC3648094854003027F
:102B46002BCBEFFB3395E0FA08E2FE08E2FF7C00B0
:102B56007D0A1204F28F828E83740512072EE58297
:102B66002BF582E5833AF583E58224F1F582E58348
:102B7600340CF583E493FF7814E2FB08E2FA08E2EA
:102B8600F9EF1204AC78B2E204F27816E22401F20C
:102B960018E23400F2809DE478B2F278B2E2C364BF
:102BA60080948550207814E2FB08E2FA08E2F9E402
:102BB6001204AC78B2E204F27816E22401F218E2CA
:102BC6003400F280D67814E2FB08E2FA08E2F9E46F
:102BD6001204ACE22401F218E23400F2E478B2F214
:102BE60078B2E2FFC3648094855055EFFB3395E0DD
:102BF600FA08E2FE08E2FF7C007D0A1204F28D82EA
:102C06008C83740512072EE5822BF582E5833AF54F
:102C160083E58224F1F582E583340CF583E493FFA2
:102C26007814E2FB08E2FA08E2F9EF1204AC78B293
:102C3600E204F27816E22401F218E23400F280A0EF
:102C46007814E2FB08E2FA08E2F9E41204ACE224A2
:102C560001F218E23400F218E2FB08E2FA08E2F99F
:102C6600E41204ACE22401F218E23400F218E2FBAA
:102C760008E2FA08E2F974621204ACE22401F218DE
:102C8600E23400F218E2FB08E2FA08E2F974641290
:102C960004ACE22401F218E23400F218E2FB08E286
:102CA600FA08E2F974081204ACE22401F218E234DC
:102CB60000F218E2FB08E2FA08E2F974131204AC17
:102CC600E22401F218E23400F218E2FB08E2FA0804
:102CD600E2F974231204ACE22401F218E23400F2A1
:102CE60018E2FB08E2FA08E2F9E41204ACE2240175
:102CF600F218E23400F218E2FB08E2FA08E2F9E41C
:0C2D06001204ACE22401F218E23400F2E6
:012D1200229E
:104EC200782DE2FFC3941850257845E26406701EDF
:104ED200EF782D30E009E2C3139027B1938008E206
:0F4EE200C3139027B193C4540FFF781FEFF22230
:1053130012485A124EC2780BE2146003048003024F
:06532300429C12513F22E2
:1048F80012485A124EC2782AE2B40900503C904934
:104908000DF828287302492802492A02492D02492C
:104918003002493302493602493902493C02493FCB
:10492800801802455C024B82023C070253DD021AE2
:0E49380048022F7E022A8602431C12513F22A3
:104E2B00ED12048A120471FF78B7E2D36480F8EFB5
:104E3B00648098400678B6E21204AC120471FF78D5
:104E4B00B6E2C36480F8EF648098500678B7E2123C
:034E5B0004AC2282
:105369007BFE7A007917AD0778B67402F208740FDC
:04537900F2024E2BC3
:103CC6007817E224FEB40E004003023D5D903CE10D
:103CD60075F003A4C58325F0C58373023D0B023D31
:103CE60011023D17023D1D023D29023D35023D3BB5
:103CF600023D41023D4D023D23023D2F023D47025A
:103D06003D53023D597E267F1B804C7E267F3180A7
:103D1600467E267F4780407E267F5D803A7E267FD0
:103D26007380347E267F89802E7E267F9F80287E24
:103D3600267FB580227E267FCB801C7E277F2D8026
:103D4600167E277F8580107E277F43800A7E277F09
:103D56009B80047E277F6FE4FDEDC3941650158F7C
:103D6600828E83E493FC74082DF8A6040D0FBF0021
:043D7600010E80E5D5
:013D7A002226
:103A2C0012485A7824E2FE08E2FFC3940FEE940089
:103A3C005004C200800FC3EF942DEE94005004D2BA
:103A4C00008002C2007832E2707878B2F278B2E28A
:103A5C00C3940950207814E2FB08E2FA08E2F9E476
:103A6C001204AC78B2E204F27816E22401F218E205
:103A7C003400F280D8E478B2F278B2E2FFC3940456
:103A8C005026EF900CD993FF7814E2FB08E2FA0869
:103A9C00E2F9EF1204AC78B2E204F27816E22401F7
:103AAC00F218E23400F280D1782BE2FF7E007832FB
:103ABC00E2FD700A300003ED60047D01806E7D0034
:103ACC00806A782DE2FF7E007832E2B4020B30007F
:103ADC0004640260047D0180027D00E4FB1237E582
:103AEC00E478B2F278B2E2FFC394045026EF900C63
:103AFC00D993FF7814E2FB08E2FA08E2F9EF12041A
:103B0C00AC78B2E204F27816E22401F218E2340046
:103B1C00F280D1782CE2FF7E007832E2B4010B30D7
:103B2C000004640160047D0180027D00E4FB123717
:013B3C00E5A3
:013B3D002265
:1039160012485A7824E2FE08E2FFC3940FEE9400A0
:103926005004C200800FC3EF942DEE94005004D2D1
:10393600008002C2007832E2640660030239C7786A
:1039460014E2FB08E2FA08E2F9E41204ACE224010C
:10395600F218E23400F218E2FB08E2FA08E2F9E4AF
:103966001204ACE22401F218E23400F2E4FBFD7F1B
:1039760014FE1237E57814E2FB08E2FA08E2F9E4ED
:103986001204ACE22401F218E23400F27831E2FFCC
:103996007E0008E2B4060B300004640660047D0174
:1039A60080027D00E4FB1237E57814E2FB08E2FAB8
:1039B60008E2F9E41204ACE22401F218E23400F25F
:1039C60022782FE2FF7E007832E2B4040B30000446
:1039D600640460047D0180027D007B011237E5E40A
:1039E600FFEFC394045020EF900CD193FE7814E2BD
:1039F600FB08E2FA08E2F9EE1204AC0FE22401F247
:103A060018E23400F280DA7830E2FF7E007832E2A3
:103A1600B4050B300004640560047D0180027D005E
:053A2600E4FB1237E58E
:013A2B002278
:1021CC0012485A785EE2FF704C7854E278B4600999
:1021DC007426F20874E1F280077426F20874F7F2A0
:1021EC00E478B2F278B2E2FEC3941640030224E61D
:1021FC0078B4E2FC08E2F5828C83E493FD74082E3B
:10220C00F8A60578B2E204F278B5E22401F218E2FD
:10221C003400F280CFEF6401600A785EE264026001
:10222C00030222C57824E2FE08E2FFC3940FEE9469
:10223C00005004C200800FC3EF942DEE94005004A4
:10224C00D2008002C2007855E2FF3395E0FE785E42
:10225C00E2B4010B300004640160047D0180027D56
:10226C0000E4FB1237E5E478B2F278B2E2FFC394F3
:10227C00045026EF900CD993FF7814E2FB08E2FA95
:10228C0008E2F9EF1204AC78B2E204F27816E22418
:10229C0001F218E23400F280D17856E2FF3395E077
:1022AC00FE785EE2B4020B300004640260047D012F
:1022BC0080027D00E4FB0237E57824E2FE08E2FFB1
:1022CC00C3941BEE94005004C200800FC3EF942102
:1022DC00EE94005004D2008002C200785EE224FD2D
:1022EC00B40700506E9022FF75F003A4C58325F04F
:1022FC00C5837302231402231F02232A02233502EF
:10230C00234002234B02235678B47425F2087481BF
:10231C00F2804078B47425F2087497F2803578B462
:10232C007425F20874ADF2802A78B47425F208741E
:10233C00C3F2801F78B47425F20874D9F280147833
:10234C00B47425F20874EFF2800978B47426F2089C
:10235C007405F2E478B2F278B2E2FFC3941640034B
:10236C000224E6E408F2EF12073F23A40123A4029F
:10237C0023D10423D10523FE0723FE08242B0A2492
:10238C002B0B244E0D244E0E247110247111249409
:10239C0013249414000024B8785EE2FF64036005F3
:1023AC007857E2704AEF640360030224B87857E26E
:1023BC00FF6003300039EF60030224B820000302F1
:1023CC0024B80224B3785EE2FF640460057858E216
:1023DC00701DEF640460030224B87858E2FF6003B8
:1023EC0030000CEF60030224B82000030224B80272
:1023FC0024B3785EE2FF640560057859E2701DEF46
:10240C00640560030224B87859E2FF600330000CC5
:10241C00EF60030224B82000030224B80224B3782E
:10242C005EE2FF64066005785AE27014EF64067091
:10243C007B785AE2FF6003300006EF706F30006C5F
:10244C008065785EE2FF64076005785BE27014EFEC
:10245C0064077058785BE2FF6003300006EF704C45
:10246C003000498042785EE2FF64086005785CE2E7
:10247C007014EF64087035785CE2FF60033000067E
:10248C00EF7029300026801F785EE2FF640960043B
:10249C0018E27013EFB40914785DE2FF60033000AA
:1024AC0006EF700830000578B37401F278B4E2FEE0
:1024BC0008E2F5828E83E493FF78B3E2FEEF4EFFE1
:1024CC0018E22408F8A60778B2E204F278B5E22400
:0A24DC0001F218E23400F20223635B
:0124E60022D3
:104109007814E4F2087400F2087408F2E4FEEEC3CD
:1041190094105020EE90270D93FD7814E2FB08E2ED
:10412900FA08E2F9ED1204AC0EE22401F218E234C5
:1041390000F280DA7814E2FB08E2FA08E2F9E41204
:1041490004ACE22401F218E23400F2E4FEEEC39476
:1041590005503675F005EFA42EF582E435F0F583A8
:10416900E58224F1F582E583340CF583E493FD7847
:1041790014E2FB08E2FA08E2F9ED1204AC0EE224BB
:0941890001F218E23400F280C4D6
:01419200220A
:1051CA007BFE7A007943AD07904CA5E49378B6F25A
:0A51DA00904CBAE49308F2024E2B49
:104D080012485A782D1237DEE4FFEFC3940450207E
:104D1800EF900CD993FE7814E2FB08E2FA08E2F966
:104D2800EE1204AC0FE22401F218E23400F280DA49
:0C4D3800782CE2FF7E00E4FBFD0237E572
:1051E4007BFE7A007941AD07904CA3E49378B6F244
:0A51F400904CB8E49308F2024E2B31
:1051FE007BFE7A007942AD07904CA4E49378B6F228
:0A520E00904CB9E49308F2024E2B15
:104806007814E4F2087400F2087408F2E4FFEFC3C7
:10481600940A501A7814E2FB08E2FA08E2F9E41264
:1048260004AC0FE22401F218E23400F280E0123107
:10483600B0E4FFEFC3940A501A7814E2FB08E2FAD8
:1048460008E2F9E41204AC0FE22401F218E23400A3
:03485600F280E00D
:01485900223C
:1050B8007BFE7A007945AD07904CA7E49378B6F269
:1050C800904CBCE49308F2124E2B7845E2781FF21C
:0350D800024EC2C3
:105218007BFE7A007940AD07904CA2E49378B6F211
:0A522800904CB7E49308F2024E2BFD
:104EF1007840E260067E267FE180047E267FF7E42B
:104F0100FDEDC3941650158F828E83E493FC7408D3
:0C4F11002DF8A6040D0FBF00010E80E576
:014F1D002271
:105232007BFE7A007951AD07904CB3E49378B6F2D5
:0A524200904CC8E49308F2024E2BD2
:102D13007814E4F2087400F2087408F2C3EF6480D4
:102D2300948040028001D39200300008EFF40478CD
:102D3300B5F2800478B5EFF2E478B4F278B4E2FF48
:102D4300C364809483500D74072FF8E4F278B4E2DF
:102D530004F280E878B47402F278B5E2D3940050B8
:102D63000818E264809480401E78B5E2FF75F00A8B
:102D73008418E22407F8E5F0F278B4E214F2EF7570
:102D8300F00A8408F280D278B57403F2200004E2DA
:102D93002405F27807E2701178B5E22405F2780889
:102DA300E2700678B5E22405F2E478B4F278B5E28D
:102DB300FF18E2FD3395E0FCC3ED9F7480F86C9837
:102DC30050207814E2FB08E2FA08E2F9E41204ACBA
:102DD30078B4E204F27816E22401F218E23400F245
:102DE30080CB300046E478B4F278B4E2C3648094D4
:102DF3008450217814E2FB08E2FA08E2F97408121D
:102E030004AC78B4E204F27816E22401F218E23456
:102E130000F280D57814E2FB08E2FA08E2F9E41242
:102E230004ACE22401F218E23400F27807E2D3940E
:102E3300004070E478B4F278B4E2FDC36480948413
:102E4300504A7807E275F004A4FFED3395E0FCEFF8
:102E53002DFFE5F03CFE781BE22FFF18E23EFE78E3
:102E6300B2F208EFF2F5828E83E493FF7814E2FB6B
:102E730008E2FA08E2F9EF1204AC78B4E204F2785B
:102E830016E22401F218E23400F280AB7814E2FB7C
:102E930008E2FA08E2F9E41204ACE22401F218E2CF
:102EA3003400F27807E2D39400500608E29400401D
:102EB30070E478B4F278B4E2FDC364809484504A39
:102EC3007808E275F004A4FFED3395E0FCEF2DFFE5
:102ED300E5F03CFE781BE22FFF18E23EFE78B2F2EB
:102EE30008EFF2F5828E83E493FF7814E2FB08E2A5
:102EF300FA08E2F9EF1204AC78B4E204F27816E2CD
:102F03002401F218E23400F280AB7814E2FB08E209
:102F1300FA08E2F9E41204ACE22401F218E2340004
:102F2300F2E478B4F278B4E2FDC364809484504A46
:102F33007809E275F004A4FFED3395E0FCEF2DFF73
:102F4300E5F03CFE781BE22FFF18E23EFE78B2F27A
:102F530008EFF2F5828E83E493FF7814E2FB08E234
:102F6300FA08E2F9EF1204AC78B4E204F27816E25C
:0A2F73002401F218E23400F280ABF2
:012F7D002231
:0754D0007851E2FF022D13E9
:10524C007BFE7A007950AD07904CB2E49378B6F2BD
:0A525C00904CC7E49308F2024E2BB9
:0754D7007850E2FF022D13E3
:105391007BFE7A00791CAD07E478B6F2087463F2FB
:0353A100024E2B8E
:103EC700782BE2FF7E00781DE2FC08E2FDC3EF9D40
:103ED700FDEE9CFCC3ED9401EC94004025781CE2B8
:103EE70064809481401C08EEF208EFF27827E22400
:103EF70001F218E23400F27821E224FFF218E234EA
:103F0700FFF2781CE214FF782008E2FD1249DB7803
:103F170027E2643C700218E270197826F208F278FA
:103F270020F208743BF2781CE2C36480948140035A
:103F3700E214F2781CE2701EFDFF1249DB7844E2BE
:103F4700FF7E007C007D3C1204E07837EEF208EF3C
:073F5700F278197412F22246
:0449DB0078B2EDF2CF
:1049DF007814E4F2087400F2087408F21237E0E475
:1049EF00FFEFC394045020EF900CD993FE7814E29C
:1049FF00FB08E2FA08E2F9EE1204AC0FE22401F22E
:104A0F0018E23400F280DA78B2E2FF7E00E4FBFDB8
:034A1F000237E576
:105266007BFE7A007953AD07904CB5E49378B6F29D
:0A527600904CCAE49308F2024E2B9C
:104F1E007853E260067E267FE180047E267FF7E4EA
:104F2E00FDEDC3941650158F828E83E493FC7408A6
:0C4F3E002DF8A6040D0FBF00010E80E549
:014F4A002244
:104A2200D37811E29F18E29E403C780BE204F2E454
:104A32007810F208F2780BE2D394024002E4F278A2
:104A42000BE2700204F2780BE2B4011A30070D781F
:104A520019E270087413F2E4780C8007E4780BF220
:074A620074FF08F208F222C4
:10462800D37813E29F18E29E4059782AE204F2E414
:104638007812F208F2782AE2D394094002E4F27878
:104648002AE2B4060B1254F7EF7005782A7407F2C1
:10465800782AE2B407121254F7EF6460600A125520
:10466800024005782A7408F2782AE2B4081530075F
:10467800077819E270028006E4782AF274FF780E4F
:04468800F208F22220
:10431C00780EE2FE08E2FF24EA78B3F2EE34FF18DE
:10432C00F2780AE22416FDE433FCD3EF9DEC6480B2
:10433C00F8EE648098401074FF780EF208F2E4787E
:10434C002AF27812F208F2E4FFEFFD78B3E22DFDC9
:10435C0018E23400FCC3648094804025780AE2FBA8
:10436C00ED9B7480F86C98501878B208E22F24E515
:10437C00F582E43400F583E0FE74082FF8A606807D
:0C438C000674082FF8E4F60FEFB416BD1D
:014398002202
:10429C00780CE2FE08E2FF24EA78B3F2EE34FF1861
:1042AC00F2780AE22416FDE433FCD3EF9DEC648033
:1042BC00F8EE648098401374FF780CF208F2E478FE
:1042CC0010F208F2780BF27819F2E4FFEFFD78B3F4
:1042DC00E22DFD18E23400FCC36480948040257804
:1042EC000AE2FBED9B7480F86C98501878B208E2E7
:1042FC002F24E5F582E43400F583E0FE74082FF8F2
:0F430C00A606800674082FF8E4F60FEFB416BD6E
:01431B00227F
:10528000780AE2C394FE5010E2FE04F274E52EF5B3
:0952900082E43400F583EFF02202
:0444800078B3EFF22C
:10448400E4780AF278B4F278B3E214FF08E2C39F46
:10449400505A120471FDC394A0400674C02DFD80CF
:1044A4000EEDC39420400674E02DFD80027D1FE4D0
:1044B400FC75F005EDA42CF582E435F0F583E58276
:1044C40024F9F582E583340DF583E493FF64A56054
:1044D400031252800CECB405D8E4FF12528078B475
:0C44E400E204F2740129F9E43AFA809B2A
:0144F00022A9
:1052E4001253A412544F7845E2781FF2124EC212A0
:0852F400546B78177402F222DA
:100CCD000000000000080800001C1C000036360063
:100CDD0000243600002424000024000000303000E1
:100CED00000606007F7F417F7F00007F7F000F4F52
:100CFD004979794149497F7F7878087F7F797949AA
:100D0D004F0F7F7F494F0F4040407F7F7F7F497F4F
:100D1D007F7879497F7F3040454830705070003E74
:100D2D007F6341417F41417F00007F004F494979F9
:100D3D004949497F7808087F7949494F7F49494F8B
:100D4D004040407F7F49497F7949497F3E41413E3F
:100D5D0000217F0123454931425169460C14247FFE
:100D6D007251514E1E294906404F50603649493641
:100D7D0030494A3C7E41413F00407F000F4949398F
:100D8D004949493E7C04041F7849490F7F49490769
:100D9D006040403F7E49493F7849493F7F63637FCB
:100DAD0000607F006F6B6B7B6B6B6B7F7878087F60
:100DBD007B7B4B4F7F7F494F40407F7F7F6B6B7FAE
:100DCD007B6B6B7F007F417F00007F00004F497977
:100DDD000049497F0078087F0079494F007F494FCE
:100DED000040407F007F497F0079497F000000006F
:100DFD00A57DA5A5A5A5700070A5A5147F147F14CC
:100E0D00122A7F2A2462640813233649552205507D
:100E1D0060A5A5A51C2241A5A541221CA5A51408C8
:100E2D003E081408083E08080506A5A5A5040404F7
:100E3D0004A501A5A5A5A502040810203E41413E2B
:100E4D00A500217F01A521434539A522414936A59C
:100E5D000C14247FA57251514EA53E494926A5403B
:100E6D00474870A536494936A53249493EA512A5D0
:100E7D00A5A5A50112A5A5A508142241A514141414
:100E8D00141441221408A520404548303E415D55BB
:100E9D003C1F2444241F7F494949363E414141228C
:100EAD007F4141221C7F494949417F484848403E86
:100EBD004149492F7F0808087F417F41A5A50201BF
:100ECD00417E407F081422417F010101A57F20183A
:100EDD00207F7F1008047F3E4141413E7F484848B6
:100EED00303E4145423D7F484C4A313249494926C1
:100EFD0040407F40407E0101017E700C030C707EEE
:100F0D00010E017E631408146370080708704345D1
:100F1D004951617F4141A5A50C123F120441417F0A
:100F2D00A5A5102040201001010101014020A5A51B
:100F3D00A5021515150F7F0911110E0E11111102B4
:100F4D000E1111097F0E1515150C083F484020187C
:100F5D002525253E7F0810100F115F01A5A5020163
:100F6D00115EA57F040A11A5417F01A5A51F100CD7
:100F7D00100F1F08100FA50E1111110E3F24222264
:100F8D001C1C2222243F1F081008A5081515150248
:100F9D00107E1101021E0101021F18060106181E06
:100FAD000106011E110A040A11180505051E11136B
:100FBD00151911083641A5A57FA5A5A5A54136088A
:100FCD00A5A508100810A5A5A5A5A5A5021E3F1E3F
:100FDD00023049294936184525451E0201417E40FA
:100FED002A1C771C2A3F202020607F7F7F7F7F7FF8
:100FFD007F7F7F7F3F692969217F7F7F7F7F3E498B
:10100D0049412208142A14227F7F7F7F7F1E2927C2
:10101D00211E7F7F7F7F7F413F41A5A5003048483E
:10102D003009097D0909417F41A5A5115F01A5A5DC
:10103D001F101058A57F7F7F7F7F7F7F7F7F7F7FF2
:10104D007F7F7F7F0E5515550C7F7F7F7F7F0E1520
:10105D0015110A22142A14087F7F7F7F7F7F7F7FDF
:10106D007F7F7F7F7F7F7F511F51A5A53F444444E4
:10107D003F7F494949467F494949367F4040406055
:10108D00033E427E037F4949494177087F087741F6
:10109D00494949367F0408107F3F0264083F7F08A5
:1010AD00142241011E20407F7F2018207F7F0808D9
:1010BD00087F3E4141413E7F4040407F7F48484848
:1010CD00303E4141412240407F4040700909097E38
:1010DD003C42FF423C63140814637F01017F0170A1
:1010ED000808087F7F017F017F7E027E027F407F9F
:1010FD000909067F0906007F7F0911110E2241495A
:10110D00493E7F083E413E314A4C487F0215151538
:10111D000F1E292949061F15150AA51F101018A500
:10112D00030E121E030E1515150C1B041F041B11A7
:10113D0015150AA51F0204081F1F4224481F1F046E
:10114D000A11A50708101FA51F0804081F1F040476
:10115D001FA50E1111110E1F10101FA51F14121215
:10116D000C0E1111110210101F1010180505051E7F
:10117D000C129F120C110A040A111F01011F0118F4
:10118D0004041FA51F011F011F1E021E021F101F99
:10119D000505021F0502001F1F050502A50A1115F1
:0C11AD00150E1F040E110E081516141F5D
:104FCE0000000001010100FF003B3B17071F0C63AF
:104FDE00FF630000001F003B005A0078009700B5E9
:0A4FEE0000D400F301110130014E60
:10468C007830E2FFD3940240047E0080027E0178F1
:10469C0031E2240CC39EFDEE75F00CA42F24FEF920
:1046AC00EDFF782FE22FFFE433FEED1313543F7C24
:1046BC00002FFBEC3EFAE975F01FA4FFAEF07D0C69
:1046CC001204F2EF2BFFEE3ACF24FFCF34FFFE7C27
:1046DC00007D071204F2AF05782EEFF27003740719
:0146EC00F2DB
:0146ED0022AA
:1050FE007830E2FFB4020F08E2540360047E1D8094
:10510E00027E1CAF0622EFD3940740010FEF441E20
:01511E00FF91
:01511F00226D
:1048A9007FD01252B27F0A1250467F8112504612AF
:1048B90054317FD01252B27F0D1250467F8112506F
:1048C900467F04125046E4FF1250467851E2FF1227
:1048D90050461254311244F1782EE278B2F212465F
:0E48E9008C782EE2FF78B2E26F6003124FA3CC
:0148F700229E
:104FF8007FD01252B2E4FF125046E478B2F278B28F
:10500800E2FFD39402500D1250DB12504678B2E200
:0750180004F280EA025431AA
:104FA30012468C7FD01252B27F0312504678B374EC
:104FB30003F278B3E2FFD39406500D1250DB125084
:0B4FC3004678B3E204F280EA025431A9
:10537D007FD01252B27F101250467851E2FF125078
:04538D00460254314F
:1044F1007FD01252B2E4FF1250461254317FD112D2
:1045010052B2E478B3F278B3E2FFD39406502BEFC2
:10451100B40603C38001D39201124E9078B4EFF236
:1045210012542278B3E27C007BFE242BF9EC340098
:10453100FAEF1204ACE204F280CC1254317FD012B3
:1045410052B27F111250461254317FD11252B2C26F
:0B45510001124E907833EFF20254315B
:043FEF0078B2EFF2C3
:103FF3007832E2FFFD7C00242BF9EC3400FA78B32D
:1040030074FEF208EAF208E9F27BFF74D72DF9ECAB
:10401300344FFA120471FEEF24CEF9EC344FFA1246
:104023000471FD7832E2B404051250FEAE0778B293
:10403300E2FF08E2FB08E2FA08E2F9EF12048A78E9
:10404300B3E2FB08E2FA08E2F9120471FFD3EE646B
:1040530080F8EF6480984004ED1204AC78B3E2FB7F
:1040630008E2FA08E2F9120471FFC3ED6480F8EF85
:094073006480985004EE1204ACC4
:01407C002221
:10501F007832E2601024FE600A24FE24FD5004243E
:10502F0006700E800678327404F2227832E214F29F
:07503F002278327402F22214
:104D80007830E2FF25E024DEF582E4344FF5831825
:104D9000E2FD7401932DFDE4933400FC7831E2547C
:104DA00003700CEFD3940240067E007F0180047EE6
:0A4DB000007F00ED2FFFEC3EFE2215
:0F542200EFC4540F75F00AA4FEEF540F2EFF22B3
:1050DB007E007BFE742B2FF9EE3400FA120471FF65
:1050EB00EF75F00A84C454F0FEEF75F00A84E5F016
:0350FB002EFF2263
:105401001254F2D2C11254F2A2C29203C2C1A20337
:015411002278
:0754DE00A20292C202540178
:1052990078B2EFF2D2C1D2C21254F2C2C21254F29F
:0952A900C2C178B2E2FF02506DAF
:1052B20078E2EFF2D2C1D2C21254F2C2C21254F256
:0952C200C2C178E2E2FF0250468D
:0F543100C2C1C2C21254F2D2C11254F2D2C2226C
:0450460078E3EFF22A
:10504A00E408F2F278E3E23392021254DE78E3E201
:10505A00FF25E0F208E204F2E2C3940840E6D20235
:03506A000254DE0F
:04506D0078B3EFF233
:10507100E408F2F278B3E23392021254DE78B3E23A
:10508100FF25E0F208E204F2E2C3940840E6D2C24E
:03509100025401C5
:104E9000D2C2E478E3F218F278E3E2FF25E0F212FE
:104EA0005401500678E3E24401F278E2E204F2E2CF
:104EB000C3940840E3A201B392021254DE78E3E205
:014EC000FFF2
:014EC10022CE
:0454F2007F02DFFE58
:0154F6002293
:0E544000EF600B7E127DEBDDFEDEFC1F80F2C6
:01544E00223B
:1045EC00813B0081390082370000813A00813CFA1E
:0A45FC00813D00823400008136008A
:103B3E00E4FF20C6010F20C504EF4402FF20C40499
:103B4E00EF4404FFEF602A7836E2FEB5071D18E257
:103B5E002401F218E23400F208E2647D700218E2E9
:103B6E007035EEC454F0783DF2802C7836EFF2804A
:103B7E00267834E2FE08E2FFD39419EE6480948036
:103B8E00400FEF947DEE64809480500508E2783DFE
:103B9E00F2E47834F208F2783CE26005E214F28046
:103BAE0028783C74FAF218E26003E214F27839E2F3
:103BBE006003E214F27838E2700218E2600B783893
:103BCE00E224FFF218E234FFF2783AE26005E214E2
:103BDE00F2800E7838E2700218E26005783A74FAD4
:103BEE00F2783AE2540ED39408400B783CE2D39428
:083BFE007D4005C2C322D2C3C1
:013C0600229B
:10541200783AEFF2783C74FAF2E47837F208F22242
:0654E500783DE2FFE4F255
:0154EB00229E
:104C8C00FF00050100010100071E010101010100E7
:104C9C000000000001FF0001000000000000000007
:104CAC00000000000000F7800000FF010505040172
:0F4CBC000601173B01010101010101097F0201FE
:03460600813E00F2
:10474F00D200E478B3F278B3E2FFC39409501D7E30
:10475F00007BFE74462FF9EE3400FA120471F460F8
:10476F0004C200800778B3E204F280DA30002EE44E
:10477F0078B3F278B3E2FF7C007BFF248CF9EC3442
:10478F004CFA120471FEEF1B243FF9EC3400FAEEE1
:0D479F001204ACE204F2E2B415D9124CCBC6
:0147AC0022EA
:104DF300E478B2F278B2E2FDC394155028783EE22B
:104E030025E0FE7C00E42DFFEC3EFE1252FC78B25E
:104E1300E27C007BFE243FF9EC3400FAEF1204AC91
:084E2300E204F280CF02474FC8
:104CCB00783EE2FF7E00125354E478B4F278B4E2FB
:104CDB00FDC394155026783EE225E0FE7C00E42DC2
:104CEB00FFEC3EFE7BFE743F2DF9EC3400FA120410
:0C4CFB0071FD1252CB78B4E204F280D1BB
:014D07002289
:1053A400783F7C007DFE7BFF7A4C798C7E007F15F4
:0353B40002044BA5
:1053290000000000000000000000FF01173B010120
:065339000101010101FF6A
:104DBA00E478B2F278B2E2FFFD3395E0FC7BFE7450
:104DCA00462DF974003CFA120471FEEF3395E0FCAB
:104DDA0074542DF974003CFAEE1204ACE204F2E2C7
:084DEA00B40AD1785E74FFF2F7
:014DF200229E
:104D4400E478B2F278B2E2FFFD3395E0FC7BFE74C6
:104D5400542DF974003CFA120471FEEF3395E0FC13
:104D640074462DF974003CFAEE1204ACE204F2E24B
:0B4D7400B40AD1124CCB785E74FFF241
:014D7F002211
:1053B700785EE2C3648094894003E4F222785EE277
:0353C70004F222CB
:04407D0078B2EFF234
:10408100785EE2FFFD3395E0FC74542DF974003C39
:10409100FA78B374FEF208EAF208E9F27BFF7434AD
:1040A1002DF974533CFA120471FEEFFD3395E0FCD7
:1040B10074292DF974533CFA120471FF78B2E2FDB0
:1040C10008E2FB08E2FA08E2F9ED12048A78B3E2A9
:1040D100FB08E2FA08E2F9120471FDD3EE6480F8FC
:1040E100ED6480984004EF1204AC78B3E2FB08E27F
:1040F100FA08E2F9120471FDC3EF6480F8ED6480FF
:07410100985004EE1204AC1B
:014108002294
:0D547800E4F5C7F5C5F5C675C380F5C4227F
:1052FC0075C78275C5018FC4EEF5C375C65A75C6E0
:07530C00A500AFC2025478B6
:1052CB0075C78275C5028FC4EEF5C3AF058FC27566
:0952DB00C65A75C6A500025478FC
:1053540075C78275C5038FC4EEF5C375C65A75C685
:05536400A500025478D1
:015505002283
:1053CA00438E805389F0E4F58A758CF7C28DD28CAE
:0353DA00D2A92233
:0954A7001253CA125505D2AF22BE
:03000B0002494661
:10494600C0E0C0F0C083C082C0D075D000C000C037
:1049560001C002C003C004C005C006C007123698D5
:10496600785FE204F2E2D394204005E4F2123B3E83
:10497600D007D006D005D004D003D002D001D00095
:0B498600D0D0D082D083D0F0D0E0323F
:03001B0002550685
:015506003272
:101E5200D120CDCEC2DBCC20C3CEC4CECC21212119
:101E620000D0EEE6E4E5F1F2E2EE20F5F0E8F1F280
:101E7200EEE2EE2E00D1F2E0F0FBE920CDEEE2FB45
:101E8200E920E3EEE42E00CAF0E5F9E5EDE8E5200D
:101E9200C3EEF1EFEEE4EDE52E00D2E0F2FCFFED51
:101EA200E8ED20E4E5EDFC2E00C4E5EDFC20E2F1D6
:101EB200E5F520E2EBFEE1EBB8EDEDFBF52E00C41B
:101EC200E5EDFC20E7E0F9E8F2EDE8EAE020CEF209
:101ED200E5F7E5F1F2E2E02E00CCE5E6E4F3EDE031
:101EE200F0EEE4EDFBE920E6E5EDF1EAE8E920E4D5
:101EF200E5EDFC2E00C4E5EDFC20ECEEF0FFEAE09F
:101F02002DEFEEE4E2EEE4EDE8EAE02E00C4E5EDCA
:101F1200FC20F1ECE5F5E02E00C4E5EDFC20EAEE54
:101F2200F1ECEEEDE0E2F2E8EAE82E00CFF0E0E7D5
:101F3200E4EDE8EA20C2E5F1EDFB20E820D2F0F37F
:101F4200E4E02E00C4E5EDFC20EFEEE1E5E4FB2148
:101F5200212100C4E5EDFC20EFE8EEEDE5F0E8E834
:101F62002E00C4E5EDFC20EFEEE3F0E0EDE8F7ED46
:101F7200E8EAE02E00C4E5EDFC20E7E0F9E8F2FB38
:101F820020E4E5F2E5E92E00C4E5EDFC20D0CED157
:101F9200D1C8C82E00C4E5EDFC20ECEEEBEEE4E582
:101FA200E6E82E00C4E5EDFC20F1E5ECFCE82C208F
:101FB200EBFEE1E2E820E820E2E5F0EDEEF1F2E806
:101FC2002E00C4E5EDFC20C2EEE7E4F3F8EDEE2DC1
:101FD200E4E5F1E0EDF2EDFBF520E2EEE9F1EA2EC7
:101FE20000C4E5EDFC20C2EEE5EDEDEE2DE2EEE7FC
:101FF200E4F3F8EDFBF520F1E8EB2E00C4E5EDFC8F
:1020020020E7EDE0EDE8E92E00C4E5EDFC20F2E585
:10201200F1F2E8F0EEE2F9E8EAE02E00C4E5EDFCC8
:1020220020F3F7E8F2E5EBFF2E00C4E5EDFC20F02B
:10203200EEE6E4E5EDE8FF20C4E5E4E020CCEEF0D6
:10204200EEE7E02E00C4E5EDFC20FDEDE5F0E3E572
:10205200F2E8EAE02E00C4E5EDFC20EFF0EEE3F05A
:10206200E0ECECE8F1F2E02E00C4E5EDFC20ECE55A
:10207200E4E8F6E8EDF1EAEEE3EE20F0E0E1EEF27C
:10208200EDE8EAE02E00C4E5EDFC20F1E8F1F2E52E
:10209200ECEDEEE3EE20E0E4ECE8EDE8F1F2F0E066
:1020A200F2EEF0E02E00C4E5EDFC20C2EEE5EDED2F
:1020B200EE2DCCEEF0F1EAEEE3EE20D4EBEEF2E020
:1020C2002E00CCE5E6E4F3EDE0F0EEE4EDFBE920F2
:1020D200E4E5EDFC20EFE8E2E02E00C4E5EDFC20B3
:1020E200F1F2F0EEE8F2E5EBFF2E00C4E5EDFC20A4
:1020F200F2E0EDEAE8F1F2E02E00C4E5EDFC20E0CA
:10210200E2F2EEECEEE1E8EBE8F1F2E02E00C4E5FB
:10211200EDFC20ECE0F2E5F0E82E000101111E5288
:102122000107141E63010E121E770113131E89018B
:10213200190F1E9C020E161EAB02171A1EC10308AF
:102142001C1EDB0313181EF704010C1F0F040C13D3
:102152001F1B0501181F2E05090F1F4605130F1F10
:1021620055051C131F640601131F77060C0D1F8AE9
:10217200061B0F1F9707081E1FA608021F1FC40871
:102182000C1B1FE309010D1FFE090913200B0A0591
:102192000E201E0B121B202C0C161120476100135F
:1021A200205836071D206B770520208877071C20D2
:1021B200A818051920C428071020DD29070F20EDD3
:0A21C2007A071420FC7B070D2110A2
:02460900C107E7
:1047AD00782EE278B3F27F057860E4F208DFFC7FC3
:1047BD0005782FE278B3F278B3E2D3648094874022
:1047CD0006E224F9F280F01250FEAE07E4FFEFC3CB
:1047DD0094055024EEFD78B3E2F9FB3395E0FAD35E
:1047ED00EB9D7480F86A98500F74602FF8E9F20F02
:0847FD0078B3E22407F280D634
:014805002290
:10515C007864E2FF700C782FE2FE7863E2B5060A01
:0C516C00D322782FE2B50702D322C32221
:1053EF0074602FF8E2FF782FE2FEEFB50602D322AA
:0253FF00C322C7
:10351D00C207E4780AF21247ADE478B2F278B2E26B
:10352D00FFC394234003023697300703023697EF0B
:10353D0075F005A4241DF582E43421F583E493FF91
:10354D0054F0FEC4540F1424FB503F70030235E3B6
:10355D0014700302361D2407600302368978B2E227
:10356D0075F005A4241EF582E43421F583E493FE61
:10357D00782FE2FDEE6D600302368FEF540FFF08DA
:10358D00E26F600302368F02365578B2E2FF75F0B6
:10359D0005A4241DF582E43421F583E493FE540F34
:1035AD00FD7830E26D600302368FEF75F005A424CF
:1035BD001EF582E43421F583E493FF782EE26F60EB
:1035CD000302368FEE5470C4540F14FF1253EF40A4
:1035DD000302368F8072124D80AC06AD0778B2E2D1
:1035ED00FB75F005A4241DF582E43421F583E493E5
:1035FD005401FEEB75F005A4241EF582E43421F58B
:10360D0083E493FBEB6D7002EC6E7076D207803C19
:10361D0078B2E2FF75F005A4241DF582E43421F59E
:10362D0083E493540FFE7830E26E7056EF75F0051B
:10363D00A4241EF582E43421F583E493FF782EE271
:10364D006F703F12515C503AD20778B2E2FE75F0BE
:10365D0005A4241FF582E43421F583E493FFEE7570
:10366D00F005A42420F582E43421F583E493FC7461
:10367D000193AA04F97BFF1244808006C207E47807
:0A368D000AF278B2E204F202352AD4
:013697002210
:10460B008184EC816B00826C0000826500008285E6
:02461B0000009D
:1051200078B2EFF208EDF27884E2FF1252B278B270
:0F513000E2FF12504678B3E2FF125046025431AC
:044F4B0078B2EFF257
:104F4F007884E2FF1252B278B2E2FF1250467884B0
:104F5F00E24401FF1252B2C201124E9078B3EFF247
:074F6F0012543178B3E2FF98
:014F76002218
:044C0A0078DFEFF26E
:104C0E007884E2FF1252B278DFE2FF1250467884C7
:104C1E00E24401FF1252B2D201124E90EFF8E47943
:104C2E00E1F3E819F3C201124E9078E0E2F208E2E5
:0C4C3E004FF212543178E0E2FE08E2FF71
:014C4A002247
:044C4B0078B2EFF25A
:104C4F007884E2FF1252B278B2E2FF1250467884B3
:104C5F00E24401FF1252B2D201124E9078B3E4F245
:104C6F0008EFF2C201124E90EFFE78B3E24EF20857
:0C4C7F00E2F212543178B3E2FE08E2FFCA
:014C8B002206
:0354FC00024C4B14
:043D7B0078CAEFF221
:103D7F007884E2FF1252B278CAE2FF12504678847A
:103D8F00E24401FF1252B2D201124E90E4FCFDFE4A
:103D9F00780C1206F678CB12070978CBE2FB08E213
:103DAF00F908E2FA08E2CBF8C000C001C002C00374
:103DBF00D201124E90E4FCFDFE78041206F6D003F9
:103DCF00D002D001D000EB4FFFEA4EFEE94DFDE8E7
:103DDF004CFC78CB12070978CBE2FB08E2F908E23A
:103DEF00FA08E2CBF8C000C001C002C003C2011242
:103DFF004E90EFC4540FFFD003D002D001D000EB90
:103E0F004FFFEAFEE9FDE8FC78CB120709125431A7
:0D3E1F0078CBE2FC08E2FD08E2FE08E2FFBD
:013E2C002273
:104193007FAA124C0A786EEEF208EFF27FAC124C53
:1041A3000A7870EEF208EFF27FAE124C0A7872EEE4
:1041B300F208EFF27FB0124C0A7874EEF208EFF2D5
:1041C3007FB2124C0A7876EEF208EFF27FB4124C0B
:1041D3000A7878EEF208EFF27FB6124C0A787AEE9C
:1041E300F208EFF27FB8124C0A787CEEF208EFF295
:1041F3007FBA124C0A787EEEF208EFF27FBC124CC3
:104203000A7880EEF208EFF27FBE124C0A7882EE53
:05421300F208EFF222A9
:103F5E007F88124C4B788BEEF208EFF27F8A125468
:103F6E00FC788DEEF208EFF27F8C1254FC788FEE17
:103F7E00F208EFF27F8E124C4B7891EEF208EFF2D0
:103F8E007F901254FC7893EEF208EFF27F92125467
:103F9E00FC7895EEF208EFF27F941254FC7897EECF
:103FAE00F208EFF27F961254FC7899EEF208EFF2D7
:103FBE007F981254FC789BEEF208EFF27F9A12541F
:103FCE00FC789DEEF208EFF27F9C1254FC789FEE87
:103FDE00F208EFF27F9E1254FC78A1EEF208EFF297
:013FEE0022B0
:10439900123F5E7FA1124F4B78A3EFF27FE11254D7
:1043A900FC78A4EEF208EFF27FE3124F4B78A6EF08
:1043B900F27FE4124F4BEF75F010A4FFAEF0C00787
:1043C900C0067FE5124F4BEF540FFDD0E078A7F2FE
:1043D900D0E04D08F27FE6124F4BEF75F010A4FFC5
:1043E900AEF0C007C0067FE5124F4BEFC4540FFD76
:1043F900D0E078A9F2D0E04D08F27FE7124F4B7870
:04440900ABEFF22201
:0E545D00E4FD7FF51251207DAB7FF40251205B
:0A549D007D057FF212512002545DDC
:0450940078DEEFF2E1
:105098007884E2FF1252B27FF412504678DEE2FFC3
:1050A8001250461254317F051254407FF6024C0AC2
:0C5485007FF3124F4BEF30E002D322C344
:0154910022F8
:104218007FEC125299B3920012543130000778841F
:1042280074ECF280137FEE125299B392001254315B
:10423800300005788474EEF23000097FD0124F4BBD
:10424800786BEFF2786BE2FF6003B4FF05E4786BFC
:10425800F222EF6455601C7DB67FE01251207F95F5
:104268001254407F95800712548550077F6412547A
:104278004080F4786BE224AA24FD500B24F9600DE9
:10428800240B700F024193123F5E02545D12439952
:0342980012549D20
:01429B002200
:101601007F2E12509478DAEEF208EFF27F34125006
:101611009478DCEEF208EFF2786BE2645560030235
:101621001A4778DAE2FE08E2FFE4FCFDC006C007D3
:101631007878E2FE08E2FBAA06D007D006C3EF9B4A
:10164100FFEE9AFEED9400FDEC9400FCC004A905A8
:10165100AA06AB077876E2FE08E2FFE4FCFDD000C3
:1016610012057D780F1206E278B21207097880E23E
:10167100FE08E2FFEE3395E0FDFC780B1206F6C0A2
:1016810004C005C006C0077882E2FE08E2FFEE331F
:1016910095E0FDFC78B2E2FB08E2F908E2FA08E223
:1016A100CBF8EB2FFBEA3EFAE93DF9E83CF8D0072D
:1016B100D006D005D004124BC678B612070978B609
:1016C100E2FC08E2FD08E2FE08E2FF78B2E2FB0874
:1016D100E2F908E2FA08E2CBF8EB2FFFEA3EFEE975
:1016E1003DFDE83CFC78C212070978C2E2FC08E241
:1016F100FD08E2FE08E22408FFE43EFEE43DFDE4CD
:101701003CFC78041206E2786CEEF208EFF278C243
:10171100E2FC08E2FD08E2FE08E22460FFEE34F09C
:10172100FEED34FFFDEC34FFFC0812070978C6E238
:10173100FC08E2FD08E2FE08E2FFA804A905AA06EA
:10174100FB12057D780C1206E278CA12070978703F
:10175100E2FE08E2FFEE3395E0FDFC78C6E2FB080D
:10176100E2F908E2FA08E2CBF812057DC004C005EF
:10177100C006C007787CE2FE08E2FFEE3395E0FD8B
:10178100FC78CAE2FB08E2F908E2FA08E2CBF812B7
:10179100057DD003D002D001D000EF2BFFEE3AFE41
:1017A100ED39FDEC38FC780B1206E278BA12070924
:1017B100786EE2FE08E2FFEE3395E0FDFCE47B0487
:1017C100FAF9F812057D78BAE2FB08E2F908E2FAC3
:1017D10008E2CBF8EB2FFFEA3EFEE93DFDE83CFCD9
:1017E100EF2402FFE43EFEE43DFDE43CFC780212FE
:1017F10006E278BE1207097872E2FE08E2FFEE33D4
:1018010095E0FDFC78C6E2FB08E2F908E2FA08E29D
:10181100CBF812057D780D1206E278B2120709782D
:101821007AE2FE08E2FFEE3395E0FDFC78CAE2FBC6
:1018310008E2F908E2FA08E2CBF812057D78101205
:1018410006E278B612070978B6E2FC08E2FD08E282
:10185100FE08E2FF78B2E2FB08E2F908E2FA08E2E8
:10186100CBF8EB2FFFEA3EFEE93DFDE83CFCEF241F
:1018710002FFE43EFEE43DFDE43CFC78021206E298
:1018810078BA12070978BAE2FC08E2FD08E2FE081C
:10189100E22400FFEE3480FEE43DFDE43CFCC004A4
:1018A100A905AA06AB077874E2FE08E2FFE4FCFD95
:1018B100D00012057D780F1206CF78D21207097871
:1018C100DCE2FE08E2FFE4FCFDC004C005C006C086
:1018D1000778BEE2FC08E2FD08E2FE08E2FBAA0688
:1018E100A905A804D007D006D005D004C3EF9BFFFB
:1018F100EE9AFEED99FDEC98FCE47B507AC3F9F881
:1019010012057D78D612070978D2E2FB08E2F908C0
:10191100E2FA08E2CBF8C00078D6E2FC08E2FD0862
:10192100E2FE08E2FFD00012060878011206F678FE
:10193100CE12070978CEE2FC08E2FD08E2FE08E2D9
:10194100FF78081206E2C004C005C006C00778CEC1
:10195100E2FC08E2FD08E2FE08E2FF78081206E276
:10196100D003D002D001D00012057D78B212070950
:10197100E47FDE7E0BFDFC78B2E2FB08E2F908E2CF
:10198100FA08E2CBF812057D78101206E278B2125D
:1019910007097F437EE37DFF7CFF78CEE2FB08E20F
:1019A100F908E2FA08E2CBF812057D78101206E296
:1019B10078B612070978B6E2FC08E2FD08E2FE08F3
:1019C100E2FF78B2E2FB08E2F908E2FA08E2CBF8BA
:1019D100EB2FFFEA3EFEE93DFDE83CFCEF24CFFFA3
:1019E100EE340EFEE43DFDE43CFC78041206E278A0
:1019F100CEE2FB08E2F908E2FA08E2CBF8EB2FFFAE
:101A0100EA3EFEE93DFDE83CFC78BA12070978BAE6
:101A1100E2FC08E2FD08E2FE08E2FFEC1202BC7BF8
:101A2100B07A507955784112021F78671207097808
:101A310067E2FC08E2FD08E2FE08E2FF1202FA7822
:061A410065EEF208EFF271
:011A4700227C
:103382007FFA123D7B78C6120709E4FFFE7D08FC36
:1033920078C6E2FB08E2F908E2FA08E2CBF8C312C7
:1033A20006BE700302351C788BE2FE08E2FFE4FCE5
:1033B200FD78011206F6AB07AA06A905C004C005EE
:1033C200C006C00778C6E2FC08E2FD08E2FE08E299
:1033D200FF78031206CFD003D002D001D000C3EF92
:1033E2009BFFEE9AFEED99FDEC98FCC004A905AA9C
:1033F20006AB07788DE2FE08E2FFEE3395E0FDFCB6
:10340200D00012057D780B1206CF78C21207097818
:103412008BE2FE08E2FFE4FCFDAB07AA06F9C0045A
:10342200C005C006C00778C6E2FC08E2FD08E2FE5D
:1034320008E2FF78041206CFD003D002D001D000F8
:10344200C3EF9BFFEE9AFEED99FDEC98FCC004C021
:1034520005C006C007788BE2FE08E2FFE4FCFDAB84
:1034620007AA06F9C004C005C006C00778C6E2FC78
:1034720008E2FD08E2FE08E2FF78041206CFD0035C
:10348200D002D001D000C3EF9BFFEE9AFEED99FD72
:10349200EC98FCD003D002D001D00012057D780C4C
:1034A2001206CFC004A905AA06AB07788FE2FE0870
:1034B200E2FFEE3395E0FDFCD00012057D780E129E
:1034C20006CF78C2E2FB08E2F908E2FA08E2CBF89A
:1034D200EB2FFFEA3EFEE93DFDE83CFC7887120750
:1034E20009E47F05FEFDFC7887E2FB08E2F908E2C9
:1034F200FA08E2CBF812057DEF2480FFE43EFEE4F9
:103502003DFDE43CFC78081206E2E47B0AFAF9F895
:0A351200124BC6786CEEF208EFF2DF
:01351C00228C
:1011B9001233827FF7123D7B78B21207097887E2F2
:1011C900FC08E2FD08E2FE08E2FF78011206E2E40B
:1011D9002FFFEE3406FEED34FFFDEC34FFFC78B64C
:1011E90012070978B6E2FC08E2FD08E2FE08E2FF10
:1011F90078021206E2C004C005C006C00778B6E24C
:10120900FC08E2FD08E2FE08E2FF78021206E2D0DD
:1012190003D002D001D00012057D780B1206E2C07E
:1012290004A905AA06AB07789BE2FE08E2FFEE33A4
:1012390095E0FDFCD00012057D78BA12070978BA4D
:10124900E2FB08E2F908E2FA08E2CBF8C000C001C3
:10125900C002C0037899E2FE08E2FFEE3395E0FD93
:10126900FC78B6E2FB08E2F908E2FA08E2CBF812E8
:10127900057D78011206F6D003D002D001D000EB2B
:101289002FFFEA3EFEE93DFDE83CFC78BA1207096A
:101299007897E2FE08E2FFEE3395E0FDFC78101244
:1012A90006F6C004C005C006C00778BAE2FC08E229
:1012B900FD08E2FE08E2FF78021206E2D003D0023E
:1012C900D001D000EF2BFFEE3AFEED39FDEC38FCF2
:1012D90078BA12070978B6E2FC08E2FD08E2FE08CE
:1012E900E2FF78021206E2C004C005C006C0077812
:1012F900B6E2FC08E2FD08E2FE08E2FF7802120607
:10130900E2D003D002D001D00012057D780D12067B
:10131900E2C004A905AA06AB077895E2FE08E2FF38
:10132900EE3395E0FDFCD00012057D78031206E24C
:10133900C004C005C006C0077893E2FE08E2FFEECC
:101349003395E0FDFC78B6E2FB08E2F908E2FA0819
:10135900E2CBF812057D78011206E2D003D002D063
:1013690001D000EB2FFFEA3EFEE93DFDE83CFC78A9
:10137900121206E278B612070978B6E2FC08E2FD15
:1013890008E2FE08E22400FFEE3480FEE43DFDE4BD
:101399003CFCC004A905AA06AB077891E2FE08E265
:1013A900FFE4FCFDD00012057D780F1206E278B645
:1013B90012070978B6E2FC08E2FD08E2FE08E2FF3E
:1013C900EC4D4E4F700302160008E2FC08E2FD08DE
:1013D900E2FE08E2FF780C1206E2C004C005C0066E
:1013E900C00778B2E2FB08E2F908E2FA08E2CBF8B2
:1013F900C3E49BFFE49AFE741099FDE498FCD003C2
:10140900D002D001D000C3EF9BFFEE9AFEED99FD0B
:10141900EC98FCE47B357A0CF9F812057D78BE125C
:101429000709E4FFFEFD7C8078BEE2FB08E2F908CB
:10143900E2FA08E2CBF8C31206BE503A78BEE2FCE3
:1014490008E2FD08E2FE08E2FF78011206F6C00490
:10145900C005C006C00778B6E2FC08E2FD08E2FE56
:1014690008E2FBAA06A905A804D007D006D005D032
:1014790004120608803078B6E2FC08E2FD08E2FEB4
:1014890008E2FFC004A905AA06AB0778BEE2FC087A
:10149900E2FD08E2FE08E2FFD000120608E47B0242
:1014A900FAF9F812057D78BE12070978BEE2FC0840
:1014B900E2FD08E2FE08E2FF78031206CFC004C08D
:1014C90005C006C00778BEE2FC08E2FD08E2FE0896
:1014D900E2FF78031206CFD003D002D001D0001268
:1014E900057D780D1206CFC004A905AA06AB0778B9
:1014F900A1E2FE08E2FFEE3395E0FDFCD000120503
:101509007D780C1206E278B612070978BEE2FC086B
:10151900E2FD08E2FE08E2FF78021206CFC004A944
:1015290005AA06AB07789FE2FE08E2FFEE3395E0D5
:10153900FDFCD00012057D780D1206E278BA12077B
:101549000978BEE2FB08E2F908E2FA08E2CBF8C042
:1015590000C001C002C00378BAE2FC08E2FD08E25B
:10156900FE08E2FF78B6E2FB08E2F908E2FA08E2CF
:10157900CBF8EB2FFFEA3EFEE93DFDE83CFCC00459
:10158900A905AA06AB07789DE2FE08E2FFEE3395AE
:10159900E0FDFCD000EB2FFFEA3EFEE93DFDE83C13
:1015A900FC78041206E2D003D002D001D000EB2F60
:1015B900FFEA3EFEE93DFDE83CFC78BE12070978EA
:1015C900BEE2FC08E2FD08E2FE08E2FFE41202BC0A
:1015D9007BB07A507955784112021F786712070952
:1015E9007867E2FC08E2FD08E2FE08E2FF1202FA6F
:0715F9007865EEF208EFF245
:0116000022C7
:1027BD001233827FFD124C0AE4FCFD78B212070938
:1027CD00E4FF7E80FDFC78B2E2FB08E2F908E2FA54
:1027DD0008E2CBF8C31206A87003022A857887E2B7
:1027ED00FC08E2FD08E2FE08E22400FFEE34D4FE10
:1027FD00ED34FEFDEC34FFFC78B612070978A6E245
:10280D00FFE4FCFDFE78B6E2FB08E2F908E2FA0807
:10281D00E2CBF812057D780B1206E2E42FFFEE34C1
:10282D0080FEE43DFDE43CFCC004C005C006C007CD
:10283D0078ABE2FF3395E0FEFDFC78B6E2FB08E2F3
:10284D00F908E2FA08E2CBF812057D780A1206E2E1
:10285D00D003D002D001D00012057D780A1206E215
:10286D00E42FFFE43EFEED3420FDE43CFCC004A962
:10287D0005AA06AB0778A4E2FE08E2FFEE3395E069
:10288D00FDFCD00012057DE42FFFEE3420FEE43D6B
:10289D00FDE43CFC780E1206E2C004C005C006C083
:1028AD000778A7E2FE08E2FFEE3395E0FDFC781411
:1028BD001206F6C004C005C006C00778B2E2FC08D7
:1028CD00E2FD08E2FE08E2FF780E1206F6D003D014
:1028DD0002D001D000C3EF9BFFEE9AFEED99FDEC07
:1028ED0098FCC004C005C006C00778A9E2FE08E246
:1028FD00FFEE3395E0FDFC78B6E2FB08E2F908E265
:10290D00FA08E2CBF812057DA804A905AA06AB07C3
:10291D00D007D006D005D004C3EF9BFFEE9AFEED95
:10292D0099FDEC98FCE42FFFEE3440FEE43DFDE410
:10293D003CFC780F1206E2D003D002D001D0001279
:10294D00057D78B612070978B6E2FC08E2FD08E2CB
:10295D00FE08E2FFC004C005C006C00778B6E2FC61
:10296D0008E2FD08E2FE08E2FF780F1206E2C0045D
:10297D00C005C006C00778B6E2FC08E2FD08E2FE1D
:10298D0008E2FF780F1206E2D003D002D001D0008A
:10299D0012057D78071206E2C004A905AA06AB0749
:1029AD0078A3E2FFE4FCFDFED00012057D78041251
:1029BD0006E2A804A905AA06AB07D007D006D005E4
:1029CD00D004C3EF9BFFEE9AFEED99FDEC98FC78D9
:1029DD00B612070978B6E2FCEC335007E4FFFEFDB2
:1029ED00FC800D78B6E2FC08E2FD08E2FE08E2FF8D
:1029FD0078B6120709E4FFFEFD7C1978B6E2FB08F4
:102A0D00E2F908E2FA08E2CBF8D31206A84008E48E
:102A1D00FFFEFD7C19800D78B6E2FC08E2FD08E2B0
:102A2D00FE08E2FF78B612070978B6E2FC08E2FD6F
:102A3D0008E2FE08E2FF780C1206E278B6120709EA
:102A4D0078B6E2FC08E2FD08E2FE08E2FFEC1202B5
:102A5D00BC7B0A7AD77923784112021F7867120757
:102A6D00097867E2FC08E2FD08E2FE08E2FF1202C7
:082A7D00FA7885EEF208EFF291
:012A8500222E
:0354FF000211B9DE
:0654EC001211B90227BDF8
:1051AF00786BE224AA24FD500B24F9600A240B70BB
:0B51BF00090216010254FF1254EC22FA
:08000300786CE2FE08E2FF2226
:0854B0007865E2FE08E2FF222C
:0854B8007885E2FE08E2FF2204
:0554F700786BE2FF22CA
:0A461D00C10882AC000082AE00006C
:0D4A690078B8EBF208EAF208E9F208EDF285
:104A76007F801252B2E478BCF278BBE2FF08E2FE15
:104A8600C39F5023EEFF78BAE22FF218E23400F209
:104A960018E2FB08E2FA08E2F9120471FF12504626
:0A4AA60078BCE204F280D202543121
:0D49910078B8EBF208EAF208E9F208EDF25E
:10499E007F811252B2E478BCF278BBE2FF08E2C328
:1049AE009F5022D201124E9078B8E2FB08E2FA082C
:1049BE00E2F978BCE2F582758300EF1204BE78BC92
:0D49CE00E204F280D4C201124E9002543176
:104F770078B4EFF208EBF208EAF208E9F27BFE7A7E
:104F87000079B47D01124A697F1912544078B5E25D
:0C4F9700FB08E2FA08E2F97D02024991F1
:104AB0007BFE7A0079B27FF3124F7778B2E2FE087C
:104AC000E2FDEDFFAC06EC1202C17B527AB8792F01
:104AD0007843120116E4FBFA7980784712021F7BB3
:104AE000667A66793B78C2120025E4FBFA79C878C9
:074AF000421201160202FA56
:104B3D007BFE7A0079B27FF5124F7778B2E2FE08EC
:104B4D00E2FDEDFFAC06E41202C1E4FBFA79FA785E
:104B5D0042120116E4FBFA7980784712021FE4FB3A
:104B6D00FA79C078C0120025E4FBFA79C8784212B0
:054B7D0001160202FA1E
:0B5492007F80125299B392080254313F
:10517800124AB07C007D0A12054778ACEEF208EFBF
:0C518800F2124B3D78AEEEF208EFF2227E
:0854C00078ACE2FE08E2FF22D5
:0854C80078AEE2FE08E2FF22CB
:03550200A20822DA
:10001E00020366E86480F8E933E83360110460F0A7
:10002E00ED33EC337009E8FCE9FDEAFEEBFF220448
:10003E0060DED3EB9FEA9EE99DE8C2E78CF0C2F743
:10004E0095F0400CE8CCF8E9CDF9EACEFAEBCFFB0F
:10005E0012033185D0F05804700320D5B3E8047034
:10006E00075002B2D502037092D5EC0460F7E4CCCF
:10007E00C0E0C398F8603B94186008400DD0E0FBD8
:10008E00020348E4FBFAC9FC8028E830E406E4C920
:10009E00FBE4CAFCE830E305E4C9CACBFCE854072C
:1000AE006010F8C3E913F9EA13FAEB13FBEC13FC37
:1000BE00D8F130F52FC3E49CFCEF9BFFEE9AFEEDDA
:1000CE0099FDD0E0FBEF4E4D4C701222DB03020384
:1000DE006DEC2CFCEF33FFEE33FEED33FDED30E730
:1000EE00EB020348EF2BFFEE3AFEED39FDD0E0FBBD
:1000FE0050130BBB0003020370ED13FDEE13FEEF66
:08010E0013FFEC13FC0203488F
:10011600EC4D6011E8497017ED33EC3304600DE4E3
:10012600FCFFFEFD22E933E8330470F80203661291
:10013600033158046009E4CC248150062850090292
:10014600037028400302036DC0E0EB4A7044B98097
:1001560006D0E0FB02035CEF4E701CBD8008EBFF8F
:10016600EAFEE9FD80EBE98DF0A4FEE5F00201FF71
:10017600E9CDF9EAFEEBFFEF89F0A4FCE5F0CE89C4
:10018600F0A42EFFE435F0CD89F0A42DFEE435F081
:100196008067EF4E7005BD80D780C3EF8BF0A4ACAF
:1001A600F0EE8BF0A42CFCE435F0F8EF8AF0A42CEA
:1001B600E5F038FCE433CB8DF0A42CFCE5F03BF8FD
:1001C600EE8AF0A42CFCE5F038F8E433CF89F0A4ED
:1001D6002CFCE5F038CF3400CE89F0A42FFFE5F0F3
:1001E6003EFEE433C98DF0A42EFEE5F039CD8AF04B
:1001F600A42FFFE5F03EFEE43DFD33D0E0FB5007C3
:100206000BBB000F020370EC2CFCEF33FFEE33FE4A
:06021600ED33FD02034878
:10021C00020370EC5D046005E85904700302036688
:10022C00120331580460F6EC4860F2EC7004FDFEE9
:10023C00FF22C860DB2481C85009C39860025006B5
:10024C0002036D9850CAF582E9294B4A7005AB82BE
:10025C0002035C75F0007C1A7880C3EF9BEE9AED7C
:10026C0099400DC3EF9BFFEE9AFEED99FDE842F02D
:10027C00DC23ACF0D0E0FFD0E0FED0E0FDAB822080
:10028C00E7101BEB60BAEC2CFCEF33FFEE33FEED0A
:10029C0033FD020348E803F830E705C0F075F000C1
:1002AC00EF2FFFEE33FEED33FD40B830E7C280AAEE
:1002BC0075F020800E75F010800575F0087D007EBD
:1002CC00007F003392D530D50312069AEC334010E0
:1002DC00EF33FFEE33FEED33FDEC33FCD5F0ED22C6
:0E02EC00E5F0247EA2D513CC92E7CDCEFF2202
:1002FA00EDD2E7CD33EC3392D524814006E4FFFEFC
:10030A00FDFC22FCE4CFCECDCC24E0501174FF805A
:10031A00EDC3CC13CCCD13CDCE13CECF13CF0470F7
:07032A00F030D5DE02069A57
:10033100E9D2E7C933E833F892D5EDD2E7CD33EC12
:0703410033FC5002B2D5228B
:10034800EC30E7100FBF000C0EBE00080DBD000416
:100358000BEB6014A2D5EB13FCED92E7FD2274FFC2
:10036800FCFDFEFF22E480F8A2D574FF13FC7D801B
:03037800E480EF2F
:103E4700020765E493A3F8E493A34003F68001F225
:103E570008DFF48029E493A3F85407240CC8C3337C
:103E6700C4540F4420C8834004F456800146F6DF4B
:103E7700E4800B01020408102040809045C2E47ED4
:103E8700019360BCA3FF543F30E509541FFEE49340
:103E9700A360010ECF54C025E060A840B8E493A307
:103EA700FAE493A3F8E493A3C8C582C8CAC583CA32
:103EB700F0A3C8C582C8CAC583CADFE9DEE780BEEA
:014627000092
:10037B00E709F608DFFA8046E709F208DFFA803E64
:10038B0088828C83E709F0A3DFFA8032E309F60851
:10039B00DFFA8078E309F208DFFA807088828C83B9
:1003AB00E309F0A3DFFA806489828A83E0A3F6086D
:1003BB00DFFA805889828A83E0A3F208DFFA804C47
:1003CB0080D280FA80C680D4806980F2803380101E
:1003DB0080A680EA809A80A880DA80E280CA803387
:1003EB0089828A83ECFAE493A3C8C582C8CCC583FF
:1003FB00CCF0A3C8C582C8CCC583CCDFE9DEE780CF
:10040B000D89828A83E493A3F608DFF9ECFAA9F04D
:10041B00EDFB2289828A83ECFAE0A3C8C582C8CCA3
:10042B00C583CCF0A3C8C582C8CCC583CCDFEADEBC
:10043B00E880DB89828A83E493A3F208DFF980CC1E
:10044B0088F0EF60010E4E60C388F0ED2402B40417
:10045B000050B9F582EB2402B4040050AF232345BE
:06046B0082239003CB7315
:10047100BB010689828A83E0225002E722BBFE0289
:09048100E32289828A83E49322BC
:10048A00BB010989828A83F8E028F022500327F702
:10049A0022BBFE05F8E328F3228A838982F8E493D3
:0204AA00282206
:1004AC00BB010689828A83F0225002F722BBFE012F
:0204BC00F32229
:1004BE00F8BB010DE58229F582E5833AF583E8F074
:1004CE00225006E92582C8F622BBFE05E92582C820
:0204DE00F22208
:1004E000EF8DF0A4A8F0CF8CF0A428CE8DF0A42E30
:0204F000FE22EA
:1004F200BC000BBE0029EF8DF084FFADF022E4CCEE
:10050200F875F008EF2FFFEE33FEEC33FCEE9DECB6
:10051200984005FCEE9DFE0FD5F0E9E4CEFD22EDFC
:10052200F8F5F0EE8420D21CFEADF075F008EF2F46
:10053200FFED33FD4007985006D5F0F222C398FD37
:050542000FD5F0EA22D4
:10054700C2D5EC30E709B2D5E4C39DFDE49CFCEECF
:1005570030E715B2D5E4C39FFFE49EFE1204F2C351
:10056700E49DFDE49CFC80031204F230D507C3E44C
:060577009FFFE49EFE223E
:10057D00E88FF0A4CC8BF0A42CFCE98EF0A42CFC1D
:10058D008AF0EDA42CFCEA8EF0A4CDA8F08BF0A49B
:10059D002DCC3825F0FDE98FF0A42CCD35F0FCEBFA
:1005AD008EF0A4FEA9F0EB8FF0A4CFC5F02ECD39BF
:0F05BD00FEE43CFCEAA42DCE35F0FDE43CFC222C
:1005CC0075F008758200EF2FFFEE33FECD33CDCCE6
:1005DC0033CCC58233C5829BED9AEC99E582984069
:1005EC000CF582EE9BFEED9AFDEC99FC0FD5F0D646
:1005FC00E4CEFBE4CDFAE4CCF9A88222B800C1B970
:10060C000059BA002DEC8BF084CFCECDFCE5F0CBAD
:10061C00F97818EF2FFFEE33FEED33FDEC33FCEBE6
:10062C0033FB10D703994004EB99FB0FD8E5E4F9A1
:10063C00FA227818EF2FFFEE33FEED33FDEC33FC8E
:10064C00C933C910D7059BE99A4007EC9BFCE99A82
:10065C00F90FD8E0E4C9FAE4CCFB2275F010EF2FC7
:10066C00FFEE33FEED33FDCC33CCC833C810D707C7
:10067C009BEC9AE899400AED9BFDEC9AFCE899F802
:0E068C000FD5F0DAE4CDFBE4CCFAE4C8F92295
:104BC600C2D5E830E70FB2D5E4C39BFBE49AFAE41A
:104BD60099F9E498F8EC30E717B2D5124BFC1206B7
:104BE60008E4C39BFBE49AFAE499F9E498F8800395
:104BF60012060830D50DE4C39FFFE49EFEE49DFD3A
:044C0600E49CFC220C
:0E069A00C3E49FFFE49EFEE49DFDE49CFC2271
:1006A800EB9FF5F0EA9E42F0E99D42F0EC6480C8C9
:0606B80064809845F02269
:1006BE00EB9FF5F0EA9E42F0E99D42F0E89C45F092
:0106CE002209
:1006CF00E8600FECC313FCED13FDEE13FEEF13FF09
:0306DF00D8F1222D
:1006E200E86010ECA2E713FCED13FDEE13FEEF132E
:0406F200FFD8F0221B
:1006F600E8600FEFC333FFEE33FEED33FDEC33FC62
:03070600D8F12205
:0C070900ECF208EDF208EEF208EFF2222C
:10071500D083D082E493F208740193F208740293B3
:09072500F208740393F2740473EA
:10072E00F5F0C582A4C582C5F0C583A42583F583E3
:01073E002298
:10073F00D083D082F8E4937012740193700DA3A349
:10074F0093F8740193F5828883E47374029368605D
:06075F00EFA3A3A380DF5D
:00000001FF
