:030000000237467E
:1037460078FFE4F6D8FD9000007F007E03E4F0A346
:0A375600DFFCDEFA75812102379BCB
:10494D001245CE124639124C2E1241871245951240
:0B495D003BBF124C19782474FFF222BB
:104AC7003006FD12000EC2AF1245CED2AFE4781603
:054AD700F2781CF22240
:104B3F003006FD12000EC2AF1244A6D2AFE47816B3
:024B4F00F22250
:10195E0078A27401F212494D7F14124B74782D74D3
:10196E0002F23006FDC206781AE275F00A84E5F03E
:10197E00702E7816E2FF600964026024EF64036043
:10198E001F782DE27014740AF2124C7CEF60031271
:10199E004968124C8A5003124931123D32122DEC15
:1019AE00124C5E78A1EFF2600FE2C3941050047FE8
:1019BE001480027F28124B7478A1E224FE70030279
:1019CE001AF124FE7003021AF624F47003021B9619
:1019DE00240F6003021BE27833E26405702278164E
:1019EE00E2701D740DF2781CE2FF700404F2801098
:1019FE00EFD39400400AEF94075005781CE204F2EE
:101A0E007816E214B40C004003021BE2901A2875FB
:101A1E00F003A4C58325F0C58373021A4C021AB1D4
:101A2E00021ABC021ACE021AEB021AEB021AEB02CF
:101A3E001AEB021AEB021AE8021AEB021AEB7815ED
:101A4E00E2FF24FEB40B004003021BE2901A6875FD
:101A5E00F003A4C58325F0C58373021A89021A9573
:101A6E00021A9B021AAB021AA1021AAB021AA102A7
:101A7E001AAB021AAB021AAB021AA178247402F244
:101A8E007816EFF2021BE2782474068003E4784F96
:101A9E00F2800AE47816F2781CF2021BE27815E264
:101AAE00021BD47824E270121247CE021BDF782478
:101ABE00E2B40406124751021BDF1247F5021BE285
:101ACE00784FE2FF70057845E26004EFB409051225
:101ADE00451F8009124B19021BE2124B05124B3F98
:101AEE00021BDF78A27401F278A1E2B40404087438
:101AFE00FFF27816E2B40C004003021BE2901B12B8
:101B0E00F8282873021B36021B38021B42021B42A6
:101B1E00021B4C021B56021B60021B69021B720247
:101B2E001B7B021B84021B8D804378A2E2FF124AAC
:101B3E00F1021BE278A2E2FF123908021BE278A240
:101B4E00E2FF123AAE021BE278A2E2FF1249D10284
:101B5E001BE278A2E2FF124983807978A2E2FF129B
:101B6E00499D807078A2E2FF1249B7806778A2E2A1
:101B7E00FF12488E805E78A2E2FF1249EB80557804
:101B8E00A2E2FF124A05804C7816E2B40D005044D2
:101B9E00901BA5F8282873021BCC021BD3021BDF57
:101BAE00021BDF021BD9021BDC021BDC021BDC0248
:101BBE001BDC021BDC021BDC021BDC021BDC7816AE
:101BCE007401F2800FE47816F28009124595124ADC
:101BDE00C7124C037816E2B40E005071901BF1F848
:101BEE00282873021C1B021C20021C25021C2A0220
:101BFE001C2F021C34021C39021C3E021C43021C08
:101C0E0048021C4D021C52021C57021C5712422441
:101C1E00803B1237E08036123329803112342E8009
:101C2E002C121CC880271246CC8022124C65801DB7
:101C3E001239968018124C6B8013123A22800E12B3
:101C4E0025438009124B848004E47816F2781BE257
:101C5E0004F2781AE204F2300725781CE2B4081F69
:101C6E00781AE275F00584E5F07014C3780FE2641B
:101C7E00809480400A08E22401F218E23400F278DF
:101C8E001BE2D394774002E4F2781AE2D3943B50ED
:101C9E0003021970E4F27811E204F2781CE275F096
:101CAE0003A42429F582E43425F583E493FE74011C
:0A1CBE0093AA06F9120966021970D4
:10229400007F7F40407F7F007F7F08087F7F0003AF
:1022A4001F227E7F0300007F7F49497F3600404024
:1022B4007F7F4040007F7F4848783000003E7F4168
:1022C400416322007F7F4848783000031F227E7FCD
:1022D400030000707808087F7F0040407F7F404003
:1022E400007F7F49497F3600007F7F40407F7F0029
:1022F40040407F7F4040007F7F08087F7F00003E92
:102304007F414163220060731B0F7C70007F7F4913
:10231400494F4600007F7F49497F36003E7F414157
:102324006322007F7F0814636300007C7C40407C50
:102334007C007C7C10107C7C000C3C48787C0C007D
:10234400007C7C54547C280040407C7C4040007CD1
:102354007C505070200000387C44446C28007C7C05
:1023640050507020000C3C48787C0C0000607010C9
:10237400107C7C0040407C7C4040007C7C54547C3D
:102384002800007C7C40407C7C0040407C7C4040B9
:10239400007C7C10107C7C0000387C44446C280059
:1023A40064741C187060007C7C54545C4800007C8D
:1023B4007C54547C2800387C44446C28007C7C1079
:1023C400386C440000607F7F60006F6F007F3F10B7
:1023D4001F103F7F007F7F4949007F7F63361C00C9
:1023E4001F3F6C6C3F1F00607F7F60007F7F494907
:1023F4003F7F4C7F3F007F7F0303003F7F4C7F3F45
:10240400007F7F6C6C370000003E41417149493EBA
:10241400000000063A433A06000000007F7F686827
:10242400003E7F417F3E007F3F180C7E7F00607F2F
:102434007F607F7F41633E1C006F6F00327B496F7A
:1024440026007F7F446C38007F3F101F103F7F00C1
:102454006F6F007F7F63361C007F7F6C6C387F7FDB
:10246400497F36007F7F6C6C37006F6F003E7F4181
:102474004D2E0000003E41417149493E00000000DC
:1024840000000011117D1111000000000000007F08
:102494007F417F7F007F7F381C7F7F00000000002A
:1024A4000000007F7F417F7F007F7F6C6C007F7F17
:1024B4006C6C00000000607F7F6000730B7E7C000A
:1024C4007F7F4C380036007F7F49497F36007F7F0D
:1024D4004C4E7B3100360000705070003E7F6341EB
:1024E400410000000011117D111100007F413E00E8
:1024F4003249260022493600234539002249360054
:10250400207F007F7F49490063771C1C7763006F3D
:102514006F0060607F7F6060000012345555555530
:10252400555432103C4BDC023E16023E16023E1657
:0F253400053E16023E16023E16023E16004BC032
:1040E100810E00820FFFFF811600811502811100F0
:0B40F100811C00810000810100C184DF
:10463900E4F59375943FF5917592FFF5957596FF9D
:10464900F5B175B27F7837E27819F2C206A2C7923E
:104659000512414478127401F2087400F20874D604
:02466900F2223B
:0D000E0053B0807590FF75A0FF43803F2226
:1030BB007801E2FEC3940550117819E2FDEEB505D7
:1030CB000312000E7801E204F222E47801F21200FE
:1030DB000E20050A18E2FEC374159EFF80047800CB
:1030EB00E2FFEFB4160040030231959030FDF82853
:1030FB00287302313F02314302314702314B023117
:10310B004F02315302315702315B02315F0231639F
:10311B0002316702316B02316F0231730231770278
:10312B00317B02317F02318302318702318B0231D5
:10313B008F023193C2908052C291804EC292804ACC
:10314B00C2938046C2948042C295803EC296803A1A
:10315B00C2978036C2A08032C2A1802EC2A2802A22
:10316B00C2A38026C2A48022C2A5801EC2A6801A3A
:10317B00C2A78016C2808012C281800EC282800AD2
:10318B00C2838006C2848002C28520050CC37415DD
:10319B009F2408F8E6F5B0804474082FF8E6FEC4C7
:1031AB005402FDEEC4131354014DFE74082FF8E6C0
:1031BB00FD131354044EFEED54084EFE74082FF805
:1031CB00E6FD25E025E054104EFEEDC454204EFEE6
:1031DB0074082FF8E6C4333354404EF5B07800E250
:1031EB0004F2E2D39415400BE4F2A2C79205200639
:0331FB0002D206F7
:0131FE0022AE
:0B4C0300E47816F27811F2781CF2221F
:103D3200123F5D781DE27068300467C2047845E284
:103D4200603908E2FF781FE26F70307847E2FF784F
:103D52001EE2B507267820E27E007BFE2447F9EEBC
:103D62003400FA12068B603A7836E2FF7C007D3C22
:103D72001206FA7829EEF208EFF2227846E2FF33D1
:103D820095E0FE781FE2D39FEE6480F8748098403D
:103D920011781EE2700C7832E260077F28024B74C1
:023DA200D20449
:013DA40022FC
:0C4138007812E4F2087400F2087408F237
:104144007835E214601514601C14602314602A800E
:104154000078177400F2087482F22278177400F25F
:104164000874AAF22278177400F20874D2F2227842
:10417400177400F20874FAF22278177401F20874C2
:0341840022F22202
:10439A0078A37424F20874F0F2E4FFEFC394165081
:1043AA003478A3E2FC08E2F5828C83E493FE781267
:1043BA00E2FB08E2FA08E2F9EE1206C60F78A4E276
:1043CA002401F218E23400F27814E22401F218E22D
:0543DA003400F280C672
:0143DF0022BB
:102F67007834E224FE607814700302302014700372
:102F770002304F2404701E781BE2FEC3941E5005D6
:102F8700E4FF02307CEEC3945A50057F0302307C85
:102F9700E4FF02307C781BE2FEC394055005E4FF92
:102FA70002307CEEC3940D50057F0102307CEEC3E6
:102FB700941650057F0202307CEEC3942750057F9C
:102FC7000302307CEEC3943050057F0202307CEE62
:102FD700C3943850057F0102307CE4FF02307C78CF
:102FE7001BE2FEC394065005E4FF02307CEEC39457
:102FF7001250047F03807EEEC3941E50047F04802A
:1030070074EEC3942A50047F05806AEEC394365049
:10301700047F068060E4FF805C781BE2FEC39407B0
:103027005004E4FF804FEEC3941650047F07804599
:10303700EEC3942550047F03803BEEC394345004C1
:103047007F088031E4FF802D781BE2FEC394075090
:1030570004E4FF8020EEC3941650047F018016EE2F
:10306700C3942550047F02800CEEC3943450047F30
:10307700018002E4FFE4FEEEC39404503675F004C9
:10308700EFA42EF582E435F0F583E582241EF58260
:10309700E5833400F583E493FD7812E2FB08E2FA56
:1030A70008E2F9ED1206C60EE22401F218E2340036
:0330B700F280C4E0
:0130BA0022F3
:1031FF00E41206C6E22401F218E23400F218E2FBF0
:10320F0008E2FA08E2F9E41206C6E22401F218E233
:08321F003400F2E4FBFD7F1412
:0A32270078A7EFF208EDF208EBF2D1
:10323100E408F278AAE2FDC39404506B78A8E27026
:103241004608E2600C78A7E275F00A84D394004046
:103251003678A7E275F00A8475F004A47C002DFF8E
:10326100EC35F0FE7818E22FFF18E23EFE78ABF263
:1032710008EFF2F5828E83E493FF7812E2FB08E215
:10328100FA08E2F9EF800B7812E2FB08E2FA08E2B1
:10329100F9E41206C678AAE204F27814E22401F2F3
:1032A10018E23400F2808C7812E2FB08E2FA08E2BC
:1032B100F9E41206C6E22401F218E23400F2E478DD
:1032C100AAF278AAE2FDC39404505C78A8E27037B0
:1032D10018E275F00A84E5F075F004A47C002DFF76
:1032E100EC35F0FE7818E22FFF18E23EFE78ABF2E3
:1032F10008EFF2F5828E83E493FF7812E2FB08E295
:10330100FA08E2F9EF800B7812E2FB08E2FA08E230
:10331100F9E41206C678AAE204F27814E22401F272
:0733210018E23400F2809B6A
:013328002282
:1047A600781FE2FDD39418500618E2943C400302A9
:1047B600439AAF05E4FBFD123227122F67781EE2FB
:0847C600FFE4FBFD1232272283
:104272007B007A0079087812EBF208EAF208E9F298
:104282001231FF7812E2FB08E2FA08E2F9E41206C0
:10429200C6E22401F218E23400F27823E2FFE4FBE2
:1042A200FD1232277812E2FB08E2FA08E2F9E41280
:0C42B20006C6E22401F218E23400F222F9
:1041D6007822E2D3940C500718E2FD9420400302A3
:1041E600439AAF057B01E4FD123227E4FFEFC39447
:1041F600045020EF90002293FE7812E2FB08E2FAC8
:1042060008E2F9EE1206C60FE22401F218E23400C3
:0D421600F280DA7822E2FFE4FBFD1232278D
:014223002278
:1035D5007820E214B4070050709035EC75F003A420
:1035E500C58325F0C5837302360102360C023617F2
:1035F50002362202362D02363802364378A374226B
:10360500F2087494F2804B78A37422F20874AAF23B
:10361500804078A37422F20874C0F2803578A374D0
:1036250022F20874D6F2802A78A37422F20874EC88
:10363500F2801F78A37423F2087402F2801478A331
:103645007423F2087418F2800978A37424F20874BC
:10365500F0F2E4FFEFC39416503478A3E2FC08E2DD
:10366500F5828C83E493FE7812E2FB08E2FA08E225
:10367500F9EE1206C60F78A4E22401F218E234002E
:0E368500F27814E22401F218E23400F280C65A
:013693002214
:104A8300781EE2FFE4FBFD123227122F67781DE246
:074A9300FFE4FBFD023227E6
:102A03007842E278A4F27825E2FF78A4E22FF2126A
:102A13004C8A5016124C477C007D0512076178A43E
:102A2300EFF230E01FE204F2801A124C7CEF601BDD
:102A33001200037C007D0512076178A4EFF230E0F9
:102A430003E204F278A4E2A2E713F278A4E2FFD34C
:102A5300648094E35003022AEAE418F278A3E2C301
:102A6300940450207812E2FB08E2FA08E2F9E41237
:102A730006C678A3E204F27814E22401F218E234E1
:102A830000F280D8E478A3F278A3E2FEC394055061
:102A930026EE90007493FE7812E2FB08E2FA08E255
:102AA300F9EE1206C678A3E204F27814E22401F2E6
:102AB30018E23400F280D17812E2FB08E2FA08E26D
:102AC300F9E41206C6E22401F218E23400F218E235
:102AD300FB08E2FA08E2F9E41206C6E22401F2185E
:102AE300E23400F2022BF0D3EF64809489405CE47B
:102AF30078A3F278A3E2FFC39405507B08E2FE7546
:102B0300F00A120669FD3395E08D82F58374051290
:102B1300092FE5822FF582E43583F583E58224428C
:102B2300F582E5833400F583E493FF7812E2FB0832
:102B3300E2FA08E2F9EF1206C678A3E204F2781487
:102B4300E22401F218E23400F280A8E478A3F278D8
:102B5300A3E2C3940550207812E2FB08E2FA08E2EC
:102B6300F9E41206C678A3E204F27814E22401F22F
:102B730018E23400F280D87812E2FB08E2FA08E2A5
:102B8300F9E41206C6E22401F218E23400F2E47812
:102B9300A3F278A3E2FFC39405505208E2FE75F056
:102BA3000A120669AEF0EEFD3395E08D82F583746B
:102BB3000512092FE5822FF582E43583F583E5823B
:102BC3002442F582E5833400F583E493FF7812E22F
:102BD300FB08E2FA08E2F9EF1206C678A3E204F270
:102BE3007814E22401F218E23400F280A57812E2AC
:102BF300FB08E2FA08E2F9E41206C6E22401F2183D
:102C0300E23400F218E2FB08E2FA08E2F9E4120601
:102C1300C6E22401F218E23400F2E478A3F278A3C6
:102C2300E2FFC394095026EF90007993FF7812E2F4
:102C3300FB08E2FA08E2F9EF1206C678A3E204F20F
:0D2C43007814E22401F218E23400F280D18E
:012C50002261
:1027B000124C37AB07AA06E478A5F278A5E2FFC36E
:1027C00064809484500D74022FF8E4F278A5E2043A
:1027D000F280E878A57403F2D3EB9400EA64809465
:1027E00080500978A5E26480948040297C007D0AAD
:1027F000AF03AE0212076178A5E22402F8EDF27889
:10280000A5E214F27C007D0AAF03AE02120761AAB2
:1028100006AB0780C3E478A5F278A5E2FDC3648027
:102820009484504A7802E275F004A4FFED3395E0F9
:10283000FCEF2DFFE5F03CFE7818E22FFF18E23E9A
:10284000FE78A3F208EFF2F5828E83E493FF78120C
:10285000E2FB08E2FA08E2F9EF1206C678A5E20404
:10286000F27814E22401F218E23400F280AB78121C
:10287000E2FB08E2FA08E2F9E41206C6E22401F2F9
:1028800018E23400F2E478A5F278A5E2FDC3648092
:102890009484504A7803E275F004A4FFED3395E088
:1028A000FCEF2DFFE5F03CFE7818E22FFF18E23E2A
:1028B000FE78A3F208EFF2F5828E83E493FF78129C
:1028C000E2FB08E2FA08E2F9EF1206C678A5E20494
:1028D000F27814E22401F218E23400F280AB7812AC
:1028E000E2FB08E2FA08E2F9E41206C6E22401F289
:1028F00018E23400F2E478A5F278A5E2FDC3648022
:102900009484504A7804E275F004A4FFED3395E016
:10291000FCEF2DFFE5F03CFE7818E22FFF18E23EB9
:10292000FE78A3F208EFF2F5828E83E493FF78122B
:10293000E2FB08E2FA08E2F9EF1206C678A5E20423
:10294000F27814E22401F218E23400F280AB78123B
:10295000E2FB08E2FA08E2F9E41206C6E22401F218
:1029600018E23400F218E2FB08E2FA08E2F9740314
:102970001206C6E22401F218E23400F218E2FB0863
:10298000E2FA08E2F974031206C6E22401F218E240
:102990003400F218E2FB08E2FA08E2F9E41206C693
:1029A000E22401F218E23400F2E478A5F278A5E21C
:1029B000FDC364809484504A7805E275F004A4FF56
:1029C000ED3395E0FCEF2DFFE5F03CFE7818E22FAB
:1029D000FF18E23EFE78A3F208EFF2F5828E83E460
:1029E00093FF7812E2FB08E2FA08E2F9EF1206C65A
:1029F00078A5E204F27814E22401F218E23400F23D
:022A000080ABA9
:012A020022B1
:1011FB00E478A6F208F2124C8A5005124C4F800983
:10120B00124C7CBF600A124C3F78A6EEF208EFF24C
:10121B00E478A5F278A5E2FFC364809485500D7441
:10122B00062FF8E4F278A5E204F280E878A57404BE
:10123B00F2D378A7E2940018E29400500818E26405
:10124B00809480403278A6E2FA08E2FB7C007D0AAB
:10125B00FFAE0212070C78A5E22406F8EDF278A592
:10126B00E214F27C007D0AAF03AE0212070C78A6E3
:10127B00EEF208EFF280BA7806E260030213F2781E
:10128B00A5F278A5E2FDC364809484504A7807E206
:10129B0075F004A4FFED3395E0FCEF2DFFE5F03C7A
:1012AB00FE7818E22FFF18E23EFE78A3F208EFF269
:1012BB00F5828E83E493FF7812E2FB08E2FA08E2F0
:1012CB00F9EF1206C678A5E204F27814E22401F2D3
:1012DB0018E23400F280AB7812E2FB08E2FA08E283
:1012EB00F9E41206C6E22401F218E23400F2E478C3
:1012FB00A5F278A5E2FDC364809484504A7808E295
:10130B0075F004A4FFED3395E0FCEF2DFFE5F03C09
:10131B00FE7818E22FFF18E23EFE78A3F208EFF2F8
:10132B00F5828E83E493FF7812E2FB08E2FA08E27F
:10133B00F9EF1206C678A5E204F27814E22401F262
:10134B0018E23400F280AB7812E2FB08E2FA08E212
:10135B00F9E41206C6E22401F218E23400F218E2B4
:10136B00FB08E2FA08E2F974031206C6E22401F262
:10137B0018E23400F218E2FB08E2FA08E2F9E41290
:10138B0006C6E22401F218E23400F2E478A5F27802
:10139B00A5E2FDC36480948440030215597809E2E9
:1013AB0075F004A4FFED3395E0FCEF2DFFE5F03C69
:1013BB00FE7818E22FFF18E23EFE78A3F208EFF258
:1013CB00F5828E83E493FF7812E2FB08E2FA08E2DF
:1013DB00F9EF1206C678A5E204F27814E22401F2C2
:1013EB0018E23400F280A87812E2FB08E2FA08E275
:1013FB00F9E41206C6E22401F218E23400F2E478B2
:10140B00A5F278A5E2FDC364809484504A7806E285
:10141B0075F004A4FFED3395E0FCEF2DFFE5F03CF8
:10142B00FE7818E22FFF18E23EFE78A3F208EFF2E7
:10143B00F5828E83E493FF7812E2FB08E2FA08E26E
:10144B00F9EF1206C678A5E204F27814E22401F251
:10145B0018E23400F280AB7812E2FB08E2FA08E201
:10146B00F9E41206C6E22401F218E23400F2E47841
:10147B00A5F278A5E2FDC364809484504A7807E214
:10148B0075F004A4FFED3395E0FCEF2DFFE5F03C88
:10149B00FE7818E22FFF18E23EFE78A3F208EFF277
:1014AB00F5828E83E493FF7812E2FB08E2FA08E2FE
:1014BB00F9EF1206C678A5E204F27814E22401F2E1
:1014CB0018E23400F280AB7812E2FB08E2FA08E291
:1014DB00F9E41206C6E22401F218E23400F2E478D1
:1014EB00A5F278A5E2FDC364809484504A7808E2A3
:1014FB0075F004A4FFED3395E0FCEF2DFFE5F03C18
:10150B00FE7818E22FFF18E23EFE78A3F208EFF206
:10151B00F5828E83E493FF7812E2FB08E2FA08E28D
:10152B00F9EF1206C678A5E204F27814E22401F270
:10153B0018E23400F280AB7812E2FB08E2FA08E220
:10154B00F9E41206C6E22401F218E23400F2781232
:10155B00E2FB08E2FA08E2F9E41206C6E22401F221
:10156B0018E23400F218E2FB08E2FA08E2F97462BE
:10157B001206C6E22401F218E23400F218E2FB086C
:10158B00E2FA08E2F974641206C6E22401F218E2E8
:10159B003400F218E2FB08E2FA08E2F974081206CA
:1015AB00C6E22401F218E23400F218E2FB08E2FA78
:1015BB0008E2F974131206C6E22401F218E23400B1
:1015CB00F218E2FB08E2FA08E2F974231206C6E20B
:0815DB002401F218E23400F2D1
:0115E30022E5
:10469D00781FE2FFC3941850257837E26406701E28
:1046AD00EF781F30E009E2C31390251C938008E2D8
:0F46BD00C31390251C93C4540FFF7819EFF222FA
:1042240012413812469D781CE2B40900503C904279
:1042340039F8282873024254024256024259024273
:104244005C02425F02426202426502426802426BC1
:1042540080180242720241D60235D5024A83022AEC
:0E426400030227B00211FB023C431247A622C0
:10460600ED1206A412068BFF78A8E2D36480F8EFB9
:10461600648098400678A7E21206C612068BFF78D9
:10462600A7E2C36480F8EF648098500678A8E21287
:0346360006C62293
:104AF1007BFE7A007915AD0778A77402F208740C71
:044B0100F202460670
:1037E0007815E224FEB40B00506F9037F875F003A3
:1037F000A4C58325F0C5837302381902381F023827
:103800002502382B02383102383702383D0238435E
:1038100002384902384F0238557E237FC8803A7EED
:10382000237FDE80347E237FF4802E7E247F0A80F7
:10383000287E247F2080227E247F36801C7E247F69
:103840004C80167E247F6280107E247F78800A7EE2
:10385000247FDA80047E257F06E4FDEDC3941650B4
:10386000158F828E83E493FC74082DF8A6040D0F47
:06387000BF00010E80E51F
:01387600222F
:10332900124138781AE2FFC3940F5004C200800C8E
:10333900EFC3942D5004D2008002C2007824E270B9
:103349007678A3F278A3E2C3940950207812E2FBBD
:1033590008E2FA08E2F9E41206C678A3E204F27870
:1033690014E22401F218E23400F280D8E478A3F2DE
:1033790078A3E2FFC394045026EF90002A93FF78C4
:1033890012E2FB08E2FA08E2F9EF1206C678A3E2B4
:1033990004F27814E22401F218E23400F280D178C0
:1033A9001DE2FF7824E2FE700A300003EE60047D1E
:1033B90001806C7D008068781FE2FF7824E2FEB40A
:1033C900020B300004640260047D0180027D00E488
:1033D900FB123227E478A3F278A3E2FFC3940450E6
:1033E90026EF90002A93FF7812E2FB08E2FA08E23E
:1033F900F9EF1206C678A3E204F27814E22401F286
:1034090018E23400F280D1781EE2FF7824E2FEB49B
:10341900010B300004640160047D0180027D00E439
:04342900FB12322739
:01342D00227C
:10342E00124138781AE2FFC3940F5004C200800C88
:10343E00EFC3942D5004D2008002C2007824E264BF
:10344E000670587812E2FB08E2FA08E2F91231FF30
:10345E007812E2FB08E2FA08E2F9E41206C6E22468
:10346E0001F218E23400F27823E2FF08E2FEB4061D
:10347E000B300004640660047D0180027D00E4FBD5
:10348E001232277812E2FB08E2FA08E2F9E4120699
:10349E00C6E22401F218E23400F2227821E2FF782B
:1034AE0024E2FEB4040B300004640460047D018049
:1034BE00027D007B01123227E4FFEFC394045020FB
:1034CE00EF90002293FE7812E2FB08E2FA08E2F98E
:1034DE00EE1206C60FE22401F218E23400F280DA90
:1034EE007822E2FF7824E2FEB4050B300004640576
:0D34FE0060047D0180027D00E4FB12322796
:01350B00229D
:101CC800124138784FE2FF704C7845E278A56009F8
:101CD8007424F208748EF280077424F20874A4F253
:101CE800E478A3F278A3E2FEC394164003021FCA65
:101CF80078A5E2FC08E2F5828C83E493FD74082E53
:101D0800F8A60578A3E204F278A6E22401F218E224
:101D18003400F280CFEF6401600A784FE264026019
:101D280003021DB2781AE2FFC3940F5004C2008068
:101D38000CEFC3942D5004D2008002C2007846E212
:101D4800FF784FE2FEB4010B300004640160047DAB
:101D58000180027D00E4FB123227E478A3F278A325
:101D6800E2FFC394045026EF90002A93FF7812E212
:101D7800FB08E2FA08E2F9EF1206C678A3E204F2D9
:101D88007814E22401F218E23400F280D17847E2B4
:101D9800FF784FE2FEB4020B300004640260047D59
:101DA8000180027D00E4FB023227781AE2FFC39427
:101DB8001B5004C200800CEFC394215004D2008051
:101DC80002C200784FE224FDB40700506E901DE374
:101DD80075F003A4C58325F0C58373021DF8021EA0
:101DE80003021E0E021E19021E24021E2F021E3A94
:101DF80078A57423F208742EF2804078A57423F233
:101E0800087444F2803578A57423F208745AF28075
:101E18002A78A57423F2087470F2801F78A57423B9
:101E2800F2087486F2801478A57423F208749CF280
:101E3800800978A57423F20874B2F2E478A3F278E2
:101E4800A3E2FFC394164003021FCAE408F2EF128C
:101E580009401E88011E88021EB5041EB5051EE233
:101E6800071EE2081F0F0A1F0F0B1F320D1F320E2D
:101E78001F55101F55111F78131F781400001F9C41
:101E8800784FE2FF640360057848E2704AEF640324
:101E98006003021F9C7848E2FF6003300039EF605E
:101EA80003021F9C200003021F9C021F97784FE229
:101EB800FF640460057849E2701DEF640460030262
:101EC8001F9C7849E2FF600330000CEF6003021F9B
:101ED8009C200003021F9C021F97784FE2FF6405B5
:101EE8006005784AE2701DEF64056003021F9C7864
:101EF8004AE2FF600330000CEF6003021F9C2000E1
:101F080003021F9C021F97784FE2FF640660057862
:101F18004BE27014EF6406707B784BE2FF6003308D
:101F28000006EF706F30006C8065784FE2FF640741
:101F38006005784CE27014EF64077058784CE2FF43
:101F48006003300006EF704C3000498042784FE261
:101F5800FF64086005784DE27014EF640870357806
:101F68004DE2FF6003300006EF7029300026801F25
:101F7800784FE2FF6409600418E27013EFB40914A3
:101F8800784EE2FF6003300006EF700830000578F5
:101F9800A47401F278A5E2FE08E2F5828E83E49348
:101FA800FF78A4E2FEEF4EFF18E22408F8A60778AF
:101FB800A3E204F278A6E22401F218E23400F20265
:021FC8001E47B2
:011FCA0022F4
:104983007BFE7A007935AD079044FBE49378A7F278
:0A49930090450FE49308F202460677
:064C65001241380247A6CF
:10499D007BFE7A007933AD079044F9E49378A7F262
:0A49AD0090450DE49308F20246065F
:103996007812E4F2087400F2087408F2E4FFEFC348
:1039A60094105020EF9024BA93FE7812E2FB08E2BE
:1039B600FA08E2F9EE1206C60FE22401F218E23422
:1039C60000F280DA7812E2FB08E2FA08E2F9E41281
:1039D60006C6E22401F218E23400F2E4FFEFC394D3
:1039E6000550387833E275F005A42FF582E435F0FA
:1039F600F583E5822442F582E5833400F583E4937A
:103A0600FE7812E2FB08E2FA08E2F9EE1206C60FA9
:0B3A1600E22401F218E23400F280C24A
:013A21002282
:1049B7007BFE7A007934AD079044FAE49378A7F246
:0A49C70090450EE49308F202460644
:064C6B001241380247A6C9
:10488E007BFE7A007937AD079044FDE49378A7F26A
:10489E00904511E49308F21246067837E27819F241
:0348AE0002469D22
:103A22007812E4F2087400F2087408F2E4FFEFC3BB
:103A320094105020EF9024CA93FE7812E2FB08E221
:103A4200FA08E2F9EE1206C60FE22401F218E23495
:103A520000F280DA7812E2FB08E2FA08E2F9E412F4
:103A620006C6E22401F218E23400F2E4FFEFC39446
:103A72000550387837E275F005A42FF582E435F069
:103A8200F583E5822442F582E5833400F583E493ED
:103A9200FE7812E2FB08E2FA08E2F9EE1206C60F1D
:0B3AA200E22401F218E23400F280C2BE
:013AAD0022F6
:1049D1007BFE7A007932AD079044F8E49378A7F230
:0A49E10090450CE49308F20246062C
:1046CC007832E260067E247F8E80047E247FA4E410
:1046DC00FDEDC3941650158F828E83E493FC740801
:0C46EC002DF8A6040D0FBF00010E80E5A4
:0146F800229F
:1049EB007BFE7A007943AD07904509E49378A7F2F3
:0A49FB0090451DE49308F202460601
:102543007812E4F2087400F2087408F27843E2FFA8
:10255300C36480948040028001D39200300005EF71
:10256300F40480037843E278A6F2E478A5F278A530
:10257300E2FFC364809483500D740B2FF8E4F27868
:10258300A5E204F280E878A57402F278A6E2D39477
:1025930000500818E264809480401E78A6E2FF751C
:1025A300F00A8418E2240BF8E5F0F278A5E214F2BD
:1025B300EF75F00A8408F280D278A67403F2200043
:1025C30004E22405F2780BE2701178A6E22405F206
:1025D300780CE2700678A6E22405F2E478A5F27896
:1025E300A6E2FF18E2FD3395E0FCC3ED9F7480F88B
:1025F3006C9850207812E2FB08E2FA08E2F9E41240
:1026030006C678A5E204F27814E22401F218E23453
:1026130000F280CB300046E478A5F278A5E2C364EB
:1026230080948450217812E2FB08E2FA08E2F974FC
:10263300081206C678A5E204F27814E22401F2181F
:10264300E23400F280D57812E2FB08E2FA08E2F9FC
:10265300E41206C6E22401F218E23400F2780BE237
:10266300D394004070E478A5F278A5E2FDC36480BA
:102673009484504A780BE275F004A4FFED3395E09F
:10268300FCEF2DFFE5F03CFE7818E22FFF18E23E49
:10269300FE78A3F208EFF2F5828E83E493FF7812BB
:1026A300E2FB08E2FA08E2F9EF1206C678A5E204B3
:1026B300F27814E22401F218E23400F280AB7812CB
:1026C300E2FB08E2FA08E2F9E41206C6E22401F2A8
:1026D30018E23400F2780BE2D39400500608E29437
:1026E300004070E478A5F278A5E2FDC36480948489
:1026F300504A780CE275F004A4FFED3395E0FCEF4B
:102703002DFFE5F03CFE7818E22FFF18E23EFE783D
:10271300A3F208EFF2F5828E83E493FF7812E2FBD3
:1027230008E2FA08E2F9EF1206C678A5E204F278A5
:1027330014E22401F218E23400F280AB7812E2FBD7
:1027430008E2FA08E2F9E41206C6E22401F218E20A
:102753003400F2E478A5F278A5E2FDC364809484A2
:10276300504A780DE275F004A4FFED3395E0FCEFD9
:102773002DFFE5F03CFE7818E22FFF18E23EFE78CD
:10278300A3F208EFF2F5828E83E493FF7812E2FB63
:1027930008E2FA08E2F9EF1206C678A5E204F27835
:0C27A30014E22401F218E23400F280ABD2
:0127AF002207
:104A05007BFE7A007942AD07904508E49378A7F2DA
:0A4A150090451CE49308F2024606E7
:0F4B84007812E4F2087400F2087408F2022A03AF
:103E1600781CE275F003A42428F582E43425F583A2
:103E2600E493FF7811E2D39F4052781CE204F2E457
:103E36007811F2781CE2D394094002E4F2781CE28D
:103E4600B4060B124C7CEF7005781C7407F2781CD4
:103E5600E2B40712124C7CEF6460600A124C8A408E
:103E660005781C7408F2781CE2B40810E4300702E6
:0D3E76008005781CF274FF780FF208F2222C
:0D4BDC007833E2B40504E47811F2023E16CD
:0E4BC000C3780FE2648094805003123E1622E8
:103C4300780FE2FE08E2FF24EA78A4F2EE34FF18CC
:103C5300F2780EE22416FDE433FCD3EF9DEC64808E
:103C6300F8EE648098400E74FF780FF208F2E4785F
:103C73001CF27811F2E4FFEFFD78A4E22DFD18E2C7
:103C83003400FCC3648094804025780EE2FBED9BF6
:103C93007480F86C98501878A308E22F24D6F58224
:103CA300E43400F583E0FE74082FF8A6068006745A
:0A3CB300082FF8E4F60FEFB416BD79
:013CBD0022E4
:104A1F00780EE2C394FE5010E2FE04F274D62EF527
:094A2F0082E43400F583EFF0226B
:043DA50078A4EFF21D
:103DA900E4780EF278A5F278A4E214FF08E2C39F42
:103DB900505A12068BFDC394A0400674C02DFD8095
:103DC9000EEDC39420400674E02DFD80027D1FE4B2
:103DD900FC75F005EDA42CF582E435F0F583E58258
:103DE900244AF582E5833401F583E493FF64A560F1
:103DF90003124A1F0CECB405D8E4FF124A1F78A538
:0C3E0900E204F2740129F9E43AFA809B0B
:013E1500228A
:10001E000000000000080800001C1C00003636001E
:10002E00002436000024240000240000003030009C
:10003E00000606007F7F417F7F00007F7F000F4F0D
:10004E004979794149497F7F7878087F7F79794965
:10005E004F0F7F7F494F0F4040407F7F7F7F497F0B
:10006E007F7879497F7F3040454830705070003E30
:10007E007F6341417F41417F00007F004F494979B5
:10008E004949497F7808087F7949494F7F49494F47
:10009E004040407F7F49497F7949497F3E45413EF7
:1000AE0000217F0123454931425169460C14245FDA
:1000BE007251514E1E294906404F5060367F4936C7
:1000CE0030494A3C7E41413F00407F000F4949394B
:1000DE004949493E7C04041F7849490F7F49490725
:1000EE006040403F7E49493F7849493F7F63637F87
:1000FE0000607F006F6B6B7B6B6B6B7F7878087F1C
:10010E007B7B4B4F7F7F494F40407F7F7F6B6B7F69
:10011E007969497F007F417F00007F00004F497958
:10012E000049497F0078087F0079494F007F494F89
:10013E000040407F007F497F0079497F000000002A
:10014E00A57DA5A5A5A5700070A5A5147F147F1487
:10015E00122A7F2A24626408132336495522055039
:10016E0060A5A5A51C2241A5A541221CA5A5140884
:10017E003E081408083E08080506A5A5A5040404B3
:10018E0004A501A5A5A5A502040810203E41413EE7
:10019E00A500217F01A521434539A522414936A558
:1001AE000C14247FA57251514EA53E494926A540F7
:1001BE00474870A536494936A53249493EA512A58C
:1001CE00A5A5A50112A5A5A508142241A5141414D0
:1001DE00141441221408A520404548303E415D5577
:1001EE003C1F2444241F7F494949363E4141412248
:1001FE007F4141221C7F494949417F484848403E42
:10020E004149492F7F0808087F417F41A5A502017A
:10021E00417E407F081422417F010101A57F2018F5
:10022E00207F7F1008047F3E4141413E7F48484871
:10023E00303E4145423D7F484C4A3132494949267C
:10024E0040407F40407E0101017E700C030C707EA9
:10025E00010E017E6314081463700807087043458D
:10026E004951617F4141A5A50C123F120441417FC6
:10027E00A5A5102040201001010101014020A5A5D7
:10028E00A5021515150F7F0911110E0E1111110270
:10029E000E1111097F0E1515150C083F4840201838
:1002AE002525253E7F0810100F115F01A5A502011F
:1002BE00115EA57F040A11A5417F01A5A51F100C93
:1002CE00100F1F08100FA50E1111110E3F24222220
:1002DE001C1C2222243F1F081008A5081515150204
:1002EE00107E1101021E0101021F18060106181EC2
:1002FE000106011E110A040A11180505051E111327
:10030E00151911083641A5A57FA5A5A5A541360845
:10031E00A5A508100810A5A5A5A5A5A5021E3F1EFA
:10032E00023049294936184525451E0201417E40B5
:10033E002A1C771C2A3F202020607F7F7F7F7F7FB3
:10034E007F7F7F7F3F692969217F7F7F7F7F3E4946
:10035E0049412208142A14227F7F7F7F7F1E29277E
:10036E00211E7F7F7F7F7F413F41A5A500304848FA
:10037E003009097D0909417F41A5A5115F01A5A598
:10038E001F101058A57F7F7F7F7F7F7F7F7F7F7FAE
:10039E007F7F7F7F0E5515550C7F7F7F7F7F0E15DC
:1003AE0015110A22142A14087F7F7F7F7F7F7F7F9B
:1003BE007F7F7F7F7F7F7F511F51A5A53F444444A0
:1003CE003F7F494949467F494949367F4040406011
:1003DE00033E427E037F4949494177087F087741B2
:1003EE00494949367F0408107F3F0264083F7F0861
:1003FE00142241011E20407F7F2018207F7F080895
:10040E00087F3E4141413E7F4040407F7F48484803
:10041E00303E4141412240407F4040700909097EF3
:10042E003C42FF423C63140814637F01017F01705C
:10043E000808087F7F017F017F7E027E027F407F5A
:10044E000909067F0906007F7F0911110E22414915
:10045E00493E7F083E413E314A4C487F02151515F4
:10046E000F1E292949061F15150AA51F101018A5BC
:10047E00030E121E030E1515150C1B041F041B1163
:10048E0015150AA51F0204081F1F4224481F1F042A
:10049E000A11A50708101FA51F0804081F1F040432
:1004AE001FA50E1111110E1F10101FA51F141212D1
:1004BE000C0E1111110210101F1010180505051E3B
:1004CE000C129F120C110A040A111F01011F0118B0
:1004DE0004041FA51F011F011F1E021E021F101F55
:1004EE000505021F0502001F1F050502A50A1115AD
:0C04FE00150E1F040E110E081516141F19
:10477C0000000001010100FF003B3B17071F0C6309
:10478C00FF630000001F003B005A0078009700B543
:0A479C0000D400F301110130014EBA
:103FC8007822E2FFD3940240047E0080027E0178CA
:103FD80023E2240CC39EFDEE75F00CA42F24FEF9F9
:103FE800EDFF7821E22FFFE433FEED1313543F7CFD
:103FF800002FFBEC3EFAE975F01FA4FFAEF07D0C34
:1040080012070CEF2BFFEE3ACF24FFCF34FFFE7CD4
:10401800007D0712070CAF057820EFF270037407D4
:01402800F2A5
:014029002274
:1048D4007822E2FFB4020F08E2540360047E1D80D4
:1048E400027E1CAF0622EFD3940740010FEF441E53
:0148F400FFC4
:0148F50022A0
:104187007FD0124A517F0A12481C7F8112481C12A5
:104197004BA27FD0124A517F0D12481C7F811248D3
:1041A7001C7F0412481CE4FF12481C7843E2FF12EC
:1041B700481C124BA2123F5D7820E278A3F2123F0F
:0E41C700C87820E2FF78A3E26F600312475130
:0141D50022C7
:1047CE007FD0124A51E4FF12481CE478A3F278A37A
:1047DE00E2FFD39402500D1248B112481C78A3E2A6
:0747EE0004F280EA024BA275
:10475100123FC87FD0124A517F0312481C78A474BB
:1047610003F278A4E2FFD39406500D1248B1124827
:0B4771001C78A4E204F280EA024BA2D4
:104B05007FD0124A517F1012481C7843E2FF1248A9
:044B15001C024BA291
:103F5D007FD0124A51E4FF12481C124BA27FD1129E
:103F6D004A51E478A4F278A4E2FFD39406502BEFE3
:103F7D00B40603C38001D3920112466B78A5EFF20C
:103F8D00124B9378A4E27C007BFE241DF9EC3400E7
:103F9D00FAEF1206C6E204F280CC124BA27FD012C9
:103FAD004A517F1112481C124BA27FD1124A51C2A5
:0B3FBD000112466B7825EFF2024BA2C8
:0439080078A3EFF2BF
:10390C007824E2FFFD7C00241DF9EC3400FA78A445
:10391C0074FEF208EAF208E9F27BFF74852DF9ECEB
:10392C003447FA12068BFEEF247CF9EC3447FA127A
:10393C00068BFD7824E2B404051248D4AE0778A3B4
:10394C00E2FF08E2FB08E2FA08E2F9EF1206A478BB
:10395C00A4E2FB08E2FA08E2F912068BFFD3EE644C
:10396C0080F8EF6480984004ED1206C678A4E2FB60
:10397C0008E2FA08E2F912068BFFC3ED6480F8EF57
:09398C006480985004EE1206C696
:01399500220F
:1047F5007824E2601024FE600A24FE24FD5004247F
:1048050006700E800678247404F2227824E214F2ED
:074815002278247402F22254
:10455B007822E2FF25E0248CF582E43447F58318BA
:10456B00E2FD7401932DFDE4933400FC7823E254B7
:10457B0003700CEFD3940240067E007F0180047E13
:0A458B00007F00ED2FFFEC3EFE2242
:0F4B9300EFC4540F75F00AA4FEEF540F2EFF224B
:1048B1007E007BFE741D2FF9EE3400FA12068BFF89
:1048C100EF75F00A84C454F0FEEF75F00A84E5F048
:0348D1002EFF2295
:104B6300124C77D2C1124C77A2C29203C2C1A203E4
:014B7300221F
:074C5700A20292C2024B63AE
:104A380078A3EFF2D2C1D2C2124C77C2C2124C771D
:094A4800C2C178A3E2FF02484359
:104A510078D3EFF2D2C1D2C2124C77C2C2124C77D4
:094A6100C2C178D3E2FF02481C37
:0F4BA200C2C1C2C2124C77D2C1124C77D2C2220A
:04481C0078D4EFF26B
:10482000E408F2F278D4E2339202124C5778D4E2E0
:10483000FF25E0F208E204F2E2C3940840E6D20267
:03484000024C57D0
:0448430078A4EFF274
:10484700E408F2F278A4E2339202124C5778A4E219
:10485700FF25E0F208E204F2E2C3940840E6D2C280
:03486700024B639E
:10466B00D2C2E478D4F218F278D4E2FF25E0F21249
:10467B004B63500678D4E24401F278D3E204F2E2C1
:10468B00C3940840E3A201B39202124C5778D4E2D0
:01469B00FF1F
:01469C0022FB
:044C77007F02DFFEDB
:014C7B002216
:0A4C0E00EF60077E13DEFE1F80F644
:014C18002279
:0E4BB100EF600B7E127DEBDDFEDEFC1F80F25E
:014BBF0022D3
:1040FC00812D00812B0082290000812C00812EFA59
:0A410C00812F0082260000812800A8
:10350C00E4FF20C6010F20C504EF4402FF20C404D1
:10351C00EF4404FFEF602A7828E2FEB5071D18E29D
:10352C002401F218E23400F208E2647D700218E221
:10353C007035EEC454F0782FF2802C7828EFF2809E
:10354C00267826E2FE08E2FFD39419EE648094807C
:10355C00400FEF947DEE64809480500508E2782F44
:10356C00F2E47826F208F2782EE26005E214F2809A
:10357C0028782E74FAF218E26003E214F2782BE247
:10358C006003E214F2782AE2700218E2600B782AE7
:10359C00E224FFF218E234FFF2782CE26005E21428
:1035AC00F2800E782AE2700218E26005782C74FA28
:1035BC00F2782CE2540ED39408400B782EE2D3947C
:0835CC007D4005C2C322D2C3F9
:0135D40022D4
:104B7400782CEFF2782E74FAF2E47829F208F22213
:064C5E00782FE2FFE4F2F2
:014C6400222D
:1044E300FF00020000010500071E01010101010098
:1044F30000000000FF0001000000000000000000B9
:104503000000000000F78000FF010504040106011C
:0C451300173B01010101010101097F02B9
:03411600813000F5
:10402A00D200E478A4F278A4E2FFC39409501D7E7A
:10403A00007BFE74382FF9EE3400FA12068BF46016
:10404A0004C200800778A4E204F280DA30002EE489
:10405A0078A4F278A4E2FF7C007BFF24E3F9EC3435
:10406A0044FA12068BFEEF1B2431F9EC3400FAEE07
:0D407A001206C6E204F2E2B414D91244A604
:014087002216
:1045CE00E478A3F278A3E2FDC3941450287830E285
:1045DE0025E0FE7C00E42DFFEC3EFE124A9A78A305
:1045EE00E27C007BFE2431F9EC3400FAEF1206C6B1
:0845FE00E204F280CF02402A22
:1044A6007830E2FF7E00124ADCE478A5F278A5E2D5
:1044B600FDC3941450267830E225E0FE7C00E42DFE
:1044C600FFEC3EFE7BFE74312DF9EC3400FA120649
:0C44D6008BFD124A6A78A5E204F280D146
:0144E20022B7
:104AB10000000000000000000000FF01173B0101A1
:064AC1000101010101FFEB
:10459500E478A3F278A3E2FFFD3395E0FC7BFE749B
:1045A500382DF974003CFA12068BFEEF3395E0FCCA
:1045B50074452DF974003CFAEE1206C6E204F2E2E7
:0845C500B40AD1784F74FFF233
:0145CD0022CB
:10451F00E478A3F278A3E2FFFD3395E0FC7BFE7411
:10452F00452DF974003CFA12068BFEEF3395E0FC33
:10453F0074382DF974003CFAEE1206C6E204F2E26A
:0B454F00B40AD11244A6784F74FFF2AA
:01455A00223E
:104B1900784FE2C3648094894003E4F222784FE23B
:034B290004F22271
:043AAE0078A3EFF218
:103AB200784FE2FFFD3395E0FC74452DF974003C2C
:103AC200FA78A474FEF208EAF208E9F27BFF74BC09
:103AD2002DF9744A3CFA12068BFEEFFD3395E0FC99
:103AE20074B12DF9744A3CFA12068BFF78A3E2FDF9
:103AF20008E2FB08E2FA08E2F9ED1206A478A4E271
:103B0200FB08E2FA08E2F912068BFDD3EE6480F8B4
:103B1200ED6480984004EF1206C678A4E2FB08E246
:103B2200FA08E2F912068BFDC3EF6480F8ED6480B7
:073B3200985004EE1206C6D4
:013B39002269
:0D4BE900E4F5C7F5C5F5C675C380F5C42217
:104A9A0075C78275C5018FC4EEF5C375C65A75C64A
:074AAA00A500AFC2024BE9B9
:104A6A0075C78275C5028FC4EEF5C3AF058FC275CF
:094A7A00C65A75C6A500024BE9FD
:104ADC0075C78275C5038FC4EEF5C375C65A75C606
:054AEC00A500024BE9EA
:014C8D002204
:104B2C00438E805389F0E4F58A758CF7C28DD28C54
:034B3C00D2A922D9
:094C2E00124B2C124C8DD2AF2266
:03000B000242BEF0
:1042BE00C0E0C0F0C083C082C0D075D000C000C0C6
:1042CE0001C002C003C004C005C006C0071230BB47
:1042DE007850E204F2E2D394204005E4F212350C59
:1042EE00D007D006D005D004D003D002D001D00024
:0B42FE00D0D0D082D083D0F0D0E032CE
:03001B00024C8E06
:014C8E0032F3
:1015E400D120CDCEC2DBCC20C3CEC4CECC21212190
:1015F40000D0EEE6E4E5F1F2E2EE20F5F0E8F1F2F7
:10160400EEE2EE2E00D1F2E0F0FBE920CDEEE2FBBB
:10161400E920E3EEE42E00CAF0E5F9E5EDE8E52083
:10162400C3EEF1EFEEE4EDE52E00D2E0F2FCFFEDC7
:10163400E8ED20E4E5EDFC2E00C4E5EDFC20E2F14C
:10164400E5F520E2EBFEE1EBB8EDEDFBF52E00C491
:10165400E5EDFC20E7E0F9E8F2EDE8EAE020CEF27F
:10166400E5F7E5F1F2E2E02E00CCE5E6E4F3EDE0A7
:10167400F0EEE4EDFBE920E6E5EDF1EAE8E920E44B
:10168400E5EDFC2E00C4E5EDFC20ECEEF0FFEAE015
:101694002DEFEEE4E2EEE4EDE8EAE02E00C4E5ED41
:1016A400FC20F1ECE5F5E02E00C4E5EDFC20EAEECB
:1016B400F1ECEEEDE0E2F2E8EAE82E00CFF0E0E74C
:1016C400E4EDE8EA20C2E5F1EDFB20E820D2F0F3F6
:1016D400E4E02E00C4E5EDFC20EFEEE1E5E4FB21BF
:1016E400212100C4E5EDFC20EFE8EEEDE5F0E8E8AB
:1016F4002E00C4E5EDFC20EFEEE3F0E0EDE8F7EDBD
:10170400E8EAE02E00C4E5EDFC20E7E0F9E8F2FBAE
:1017140020E4E5F2E5E92E00C4E5EDFC20D0CED1CD
:10172400D1C8C82E00C4E5EDFC20ECEEEBEEE4E5F8
:10173400E6E82E00C4E5EDFC20F1E5ECFCE82C2005
:10174400EBFEE1E2E820E820E2E5F0EDEEF1F2E87C
:101754002E00C4E5EDFC20C2EEE7E4F3F8EDEE2D37
:10176400E4E5F1E0EDF2EDFBF520E2EEE9F1EA2E3D
:1017740000C4E5EDFC20C2EEE5EDEDEE2DE2EEE772
:10178400E4F3F8EDFBF520F1E8EB2E00C4E5EDFC05
:1017940020E7EDE0EDE8E92E00C4E5EDFC20F2E5FC
:1017A400F1F2E8F0EEE2F9E8EAE02E00C4E5EDFC3F
:1017B40020F3F7E8F2E5EBFF2E00C4E5EDFC20F0A2
:1017C400EEE6E4E5EDE8FF20C4E5E4E020CCEEF04D
:1017D400EEE7E02E00C4E5EDFC20FDEDE5F0E3E5E9
:1017E400F2E8EAE02E00C4E5EDFC20EFF0EEE3F0D1
:1017F400E0ECECE8F1F2E02E00C4E5EDFC20ECE5D1
:10180400E4E8F6E8EDF1EAEEE3EE20F0E0E1EEF2F2
:10181400EDE8EAE02E00C4E5EDFC20F1E8F1F2E5A4
:10182400ECEDEEE3EE20E0E4ECE8EDE8F1F2F0E0DC
:10183400F2EEF0E02E00C4E5EDFC20C2EEE5EDEDA5
:10184400EE2DCCEEF0F1EAEEE3EE20D4EBEEF2E096
:101854002E00CCE5E6E4F3EDE0F0EEE4EDFBE92068
:10186400E4E5EDFC20EFE8E2E02E00C4E5EDFC2029
:10187400F1F2F0EEE8F2E5EBFF2E00C4E5EDFC201A
:10188400F2E0EDEAE8F1F2E02E00C4E5EDFC20E040
:10189400E2F2EEECEEE1E8EBE8F1F2E02E00C4E572
:1018A400EDFC20ECE0F2E5F0E82E0001011115E476
:1018B40001071415F5010E121609011313161B0165
:1018C400190F162E020E16163D02171A1653030888
:1018D4001C166D031318168904010C16A1040C13AD
:1018E40016AD05011816C005090F16D805130F16F5
:1018F400E7051C1316F60601131709060C0D171C31
:10190400061B0F172907081E173808021F17560849
:101914000C1B177509010D1790090913179D0A056A
:101924000E17B00B121B17BE0C161117D96100133A
:1019340017EA36071D17FD770520181A77071C18B4
:101944003A1805191856280710186F29070F187F19
:0A1954007A0714188E7B070D18A205
:02411900C107DC
:104088007820E278A4F27F057851E4F208DFFC7F1B
:10409800057821E278A4F278A4E2D364809487407A
:1040A80006E224F9F280F01248D4AE07E4FFEFC329
:1040B80094055024EEFD78A4E2F9FB3395E0FAD399
:1040C800EB9D7480F86A98500F74512FF8E9F20F3D
:0840D80078A4E22407F280D66F
:0140E00022BD
:104915007855E2FF700C7821E2FE7854E2B5060A7C
:0C492500D3227821E2B50702D322C3227E
:104B510074512FF8E2FF7821E2FEEFB50602D3226D
:024B6100C3226D
:102DEC00C207E4780EF2124088E478A3F278A3E2EA
:102DFC00FFC394234003022F66300703022F66EFB4
:102E0C0075F005A424AFF582E43418F583E493FF40
:102E1C0054F0FEC4540F1424FB503F7003022EB226
:102E2C00147003022EEC24076003022F5878A3E2DF
:102E3C0075F005A424B0F582E43418F583E493FE10
:102E4C007821E2FDEE6D6003022F5EEF540FFF0858
:102E5C00E26F6003022F5E022F2478A3E2FF75F06D
:102E6C0005A424AFF582E43418F583E493FE540FE3
:102E7C00FD7822E26D6003022F5EEF75F005A4244D
:102E8C00B0F582E43418F583E493FF7820E26F60A8
:102E9C0003022F5EEE5470C4540F14FF124B5140BA
:102EAC0003022F5E807212455BAC06AD0778A3E27D
:102EBC00FB75F005A424AFF582E43418F583E49394
:102ECC005401FEEB75F005A424B0F582E43418F53A
:102EDC0083E493FBEB6D7002EC6E7076D207803C52
:102EEC0078A3E2FF75F005A424AFF582E43418F55D
:102EFC0083E493540FFE7822E26E7056EF75F00562
:102F0C00A424B0F582E43418F583E493FF7820E22E
:102F1C006F703F124915503AD20778A3E2FE75F054
:102F2C0005A424B1F582E43418F583E493FFEE751F
:102F3C00F005A424B2F582E43418F583E493FC7410
:102F4C000193AA04F97BFF123DA58006C207E47821
:0A2F5C000EF278A3E204F2022DF950
:012F66002248
:10411B008175EC815C00825D000082560000827626
:02412B00000092
:1048F60078A3EFF208EDF27875E2FF124A5178A339
:0F490600E2FF12481C78A4E2FF12481C024BA2E9
:0446F90078A3EFF2C1
:1046FD007875E2FF124A5178A3E2FF12481C7875D3
:10470D00E24401FF124A51C20112466B78A4EFF246
:07471D00124BA278A4E2FF99
:014724002272
:0444240078D0EFF26B
:104428007875E2FF124A5178D0E2FF12481C78757D
:10443800E24401FF124A51D20112466BEFF8E479C7
:10444800D2F3E819F3C20112466B78D1E2F208E21E
:0C4458004FF2124BA278D1E2FE08E2FF06
:014464002235
:0444650078A3EFF257
:104469007875E2FF124A5178A3E2FF12481C787569
:10447900E24401FF124A51D20112466B78A4E4F2D8
:1044890008EFF2C20112466BEFFE78A4E24EF20881
:0C449900E2F2124BA278A4E2FE08E2FF5F
:0144A50022F4
:034C8100024424C6
:034C840002446582
:0436940078BBEFF21E
:103698007875E2FF124A5178BBE2FF12481C787530
:1036A800E24401FF124A51D20112466BE4FCFDFECE
:1036B800780C12091078BC12092378BCE2FB08E2E6
:1036C800F908E2FA08E2CBF8C000C001C002C00362
:1036D800D20112466BE4FCFDFE7804120910D003F7
:1036E800D002D001D000EB4FFFEA4EFEE94DFDE8D5
:1036F8004CFC78BC12092378BCE2FB08E2F908E22A
:10370800FA08E2CBF8C000C001C002C003C201122F
:10371800466BEFC4540FFFD003D002D001D000EBAA
:103728004FFFEAFEE9FDE8FC78BC120923124BA220
:0D37380078BCE2FC08E2FD08E2FE08E2FFBA
:013745002261
:103B3A007FAA124424785FEEF208EFF27FAC1244B7
:103B4A00247861EEF208EFF27FAE1244247863EE35
:103B5A00F208EFF27FB01244247865EEF208EFF231
:103B6A007FB21244247867EEF208EFF27FB412446F
:103B7A00247869EEF208EFF27FB6124424786BEEED
:103B8A00F208EFF27FB8124424786DEEF208EFF2F1
:103B9A007FBA124424786FEEF208EFF27FBC124427
:103BAA00247871EEF208EFF27FBE1244247873EEA5
:053BBA00F208EFF22209
:103877007F88124465787CEEF208EFF27F8A124C5B
:1038870084787EEEF208EFF27F8C124C847880EE1B
:10389700F208EFF27F8E1244657882EEF208EFF2BB
:1038A7007F90124C847884EEF208EFF27F92124CEC
:1038B700847886EEF208EFF27F94124C847888EED3
:1038C700F208EFF27F96124C84788AEEF208EFF254
:1038D7007F98124C84788CEEF208EFF27F9A124CA4
:1038E70084788EEEF208EFF27F9C124C847890EE8B
:1038F700F208EFF27F9E124C847892EEF208EFF214
:01390700229D
:103CBE001238777FA11246F97894EFF27FE1124C19
:103CCE00847895EEF208EFF27FE31246F97897EFDB
:103CDE00F27FE41246F9EF75F010A4FFAEF0C007C4
:103CEE00C0067FE51246F9EF540FFDD0E07898F24A
:103CFE00D0E04D08F27FE61246F9EF75F010A4FF02
:103D0E00AEF0C007C0067FE51246F9EFC4540FFDB2
:103D1E00D0E0789AF2D0E04D08F27FE71246F978BB
:043D2E009CEFF222F2
:0E4BCE00E4FD7FF51248F67DAB7FF40248F659
:0A4C24007D057FF21248F6024BCE28
:04486A0078CFEFF222
:10486E007875E2FF124A517FF412481C78CFE2FFAE
:10487E0012481C124BA27F05124BB17FF602442444
:0C4BF6007FF31246F9EF30E002D322C337
:014C0200228F
:103BBF007FEC124A38B39200124BA230000778758F
:103BCF0074ECF280137FEE124A38B39200124BA2BC
:103BDF00300005787574EEF23000097FD01246F987
:103BEF00785CEFF2785CE2FF6003B4FF05E4785C89
:103BFF00F222EF6455601C7DB67FE01248F67F9588
:103C0F00124BB17F958007124BF650077F64124B12
:103C1F00B180F4785CE224AA24FD500B24F9600DE6
:103C2F00240B700F023B3A123877024BCE123CBE78
:033C3F00124C2400
:013C4200225F
:100DB4007F2E12486A78CBEEF208EFF27F341248A5
:100DC4006A78CDEEF208EFF2785CE26455600302D3
:100DD40011FA78CBE2FE08E2FFE4FCFDC006C0078E
:100DE4007869E2FE08E2FBAA06D007D006C3EF9BAF
:100DF400FFEE9AFEED9400FDEC9400FCC004A905FE
:100E0400AA06AB077867E2FE08E2FFE4FCFDD00027
:100E1400120797780F1208FC78A31209237871E25D
:100E2400FE08E2FFEE3395E0FDFC780B120910C0DA
:100E340004C005C006C0077873E2FE08E2FFEE3383
:100E440095E0FDFC78A3E2FB08E2F908E2FA08E287
:100E5400CBF8EB2FFBEA3EFAE93DF9E83CF8D00782
:100E6400D006D005D0041243E078A712092378A74E
:100E7400E2FC08E2FD08E2FE08E2FF78A3E2FB08D8
:100E8400E2F908E2FA08E2CBF8EB2FFFEA3EFEE9CA
:100E94003DFDE83CFC78B312092378B3E2FC08E298
:100EA400FD08E2FE08E22408FFE43EFEE43DFDE422
:100EB4003CFC78041208FC785DEEF208EFF278B39B
:100EC400E2FC08E2FD08E2FE08E22460FFEE34F0F2
:100ED400FEED34FFFDEC34FFFC0812092378B7E281
:100EE400FC08E2FD08E2FE08E2FFA804A905AA0640
:100EF400FB120797780C1208FC78BB12092378615F
:100F0400E2FE08E2FFEE3395E0FDFC78B7E2FB0871
:100F1400E2F908E2FA08E2CBF8120797C004C00528
:100F2400C006C007786DE2FE08E2FFEE3395E0FDEF
:100F3400FC78BBE2FB08E2F908E2FA08E2CBF8121B
:100F44000797D003D002D001D000EF2BFFEE3AFE7A
:100F5400ED39FDEC38FC780B1208FC78AB12092350
:100F6400785FE2FE08E2FFEE3395E0FDFCE47B04EB
:100F7400FAF9F812079778ABE2FB08E2F908E2FA0B
:100F840008E2CBF8EB2FFFEA3EFEE93DFDE83CFC2E
:100F9400EF2402FFE43EFEE43DFDE43CFC78021253
:100FA40008FC78AF1209237863E2FE08E2FFEE330F
:100FB40095E0FDFC78B7E2FB08E2F908E2FA08E202
:100FC400CBF8120797780D1208FC78A3120923783E
:100FD4006BE2FE08E2FFEE3395E0FDFC78BBE2FB3A
:100FE40008E2F908E2FA08E2CBF81207977810123F
:100FF40008FC78A712092378A7E2FC08E2FD08E2BE
:10100400FE08E2FF78A3E2FB08E2F908E2FA08E24C
:10101400CBF8EB2FFFEA3EFEE93DFDE83CFCEF2474
:1010240002FFE43EFEE43DFDE43CFC78021208FCD1
:1010340078AB12092378ABE2FC08E2FD08E2FE0873
:10104400E22400FFEE3480FEE43DFDE43CFCC004F9
:10105400A905AA06AB077865E2FE08E2FFE4FCFDF9
:10106400D000120797780F1208E978C31209237881
:10107400CDE2FE08E2FFE4FCFDC004C005C006C0EA
:101084000778AFE2FC08E2FD08E2FE08E2FBAA06EC
:10109400A905A804D007D006D005D004C3EF9BFF50
:1010A400EE9AFEED99FDEC98FCE47B507AC3F9F8D6
:1010B40012079778C712092378C3E2FB08E2F908FC
:1010C400E2FA08E2CBF8C00078C7E2FC08E2FD08C7
:1010D400E2FE08E2FFD0001208227801120910781B
:1010E400BF12092378BFE2FC08E2FD08E2FE08E231
:1010F400FF78081208FCC004C005C006C00778BF0A
:10110400E2FC08E2FD08E2FE08E2FF78081208FCAF
:10111400D003D002D001D00012079778A31209237C
:10112400E47FDE7E0BFDFC78A3E2FB08E2F908E233
:10113400FA08E2CBF812079778101208FC78A31289
:1011440009237F437EE37DFF7CFF78BFE2FB08E257
:10115400F908E2FA08E2CBF812079778101208FCB3
:1011640078A712092378A7E2FC08E2FD08E2FE084A
:10117400E2FF78A3E2FB08E2F908E2FA08E2CBF81E
:10118400EB2FFFEA3EFEE93DFDE83CFCEF24CFFFF8
:10119400EE340EFEE43DFDE43CFC78041208FC78D9
:1011A400BFE2FB08E2F908E2FA08E2CBF8EB2FFF12
:1011B400EA3EFEE93DFDE83CFC78AB12092378AB3E
:1011C400E2FC08E2FD08E2FE08E2FFEC1205AA7B5D
:1011D400B07A507955784112050D78581209237860
:1011E40058E2FC08E2FD08E2FE08E2FF1205E87896
:0611F40056EEF208EFF2D6
:0111FA0022D2
:102C51007FFA12369478B7120923E4FFFE7D08FC4F
:102C610078B7E2FB08E2F908E2FA08E2CBF8C3120E
:102C710008D87003022DEB787CE2FE08E2FFE4FC49
:102C8100FD7801120910AB07AA06A905C004C00509
:102C9100C006C00778B7E2FC08E2FD08E2FE08E2E0
:102CA100FF78031208E9D003D002D001D000C3EFAE
:102CB1009BFFEE9AFEED99FDEC98FCC004A905AAD4
:102CC10006AB07787EE2FE08E2FFEE3395E0FDFCFD
:102CD100D000120797780B1208E978B3120923780C
:102CE1007CE2FE08E2FFE4FCFDAB07AA06F9C004A2
:102CF100C005C006C00778B7E2FC08E2FD08E2FEA5
:102D010008E2FF78041208E9D003D002D001D00014
:102D1100C3EF9BFFEE9AFEED99FDEC98FCC004C059
:102D210005C006C007787CE2FE08E2FFE4FCFDABCB
:102D310007AA06F9C004C005C006C00778B7E2FCBF
:102D410008E2FD08E2FE08E2FF78041208E9D00378
:102D5100D002D001D000C3EF9BFFEE9AFEED99FDAA
:102D6100EC98FCD003D002D001D000120797780C68
:102D71001208E9C004A905AA06AB077880E2FE089B
:102D8100E2FFEE3395E0FDFCD000120797780E12BA
:102D910008E978B3E2FB08E2F908E2FA08E2CBF8C5
:102DA100EB2FFFEA3EFEE93DFDE83CFC7878120995
:102DB10023E47F05FEFDFC7878E2FB08E2F908E2F6
:102DC100FA08E2CBF8120797EF2480FFE43EFEE415
:102DD1003DFDE43CFC78081208FCE47B0AFAF9F8B2
:0A2DE1001243E0785DEEF208EFF215
:012DEB0022C5
:10096C00122C517FF712369478A31209237878E26F
:10097C00FC08E2FD08E2FE08E2FF78011208FCE444
:10098C002FFFEE3406FEED34FFFDEC34FFFC78A7B0
:10099C0012092378A7E2FC08E2FD08E2FE08E2FF58
:1009AC0078021208FCC004C005C006C00778A7E294
:1009BC00FC08E2FD08E2FE08E2FF78021208FCD017
:1009CC0003D002D001D000120797780B1208FCC09C
:1009DC0004A905AA06AB07788CE2FE08E2FFEE3309
:1009EC0095E0FDFCD00012079778AB12092378AB89
:1009FC00E2FB08E2F908E2FA08E2CBF8C000C00119
:100A0C00C002C003788AE2FE08E2FFEE3395E0FDF7
:100A1C00FC78A7E2FB08E2F908E2FA08E2CBF8124C
:100A2C0007977801120910D003D002D001D000EB47
:100A3C002FFFEA3EFEE93DFDE83CFC78AB120923B2
:100A4C007888E2FE08E2FFEE3395E0FDFC781012A8
:100A5C000910C004C005C006C00778ABE2FC08E270
:100A6C00FD08E2FE08E2FF78021208FCD003D00277
:100A7C00D001D000EF2BFFEE3AFEED39FDEC38FC47
:100A8C0078AB12092378A7E2FC08E2FD08E2FE0825
:100A9C00E2FF78021208FCC004C005C006C007784B
:100AAC00A7E2FC08E2FD08E2FE08E2FF7802120869
:100ABC00FCD003D002D001D000120797780D120899
:100ACC00FCC004A905AA06AB077886E2FE08E2FF83
:100ADC00EE3395E0FDFCD00012079778031208FC6A
:100AEC00C004C005C006C0077884E2FE08E2FFEE31
:100AFC003395E0FDFC78A7E2FB08E2F908E2FA087E
:100B0C00E2CBF812079778011208FCD003D002D080
:100B1C0001D000EB2FFFEA3EFEE93DFDE83CFC78FE
:100B2C00121208FC78A712092378A7E2FC08E2FD50
:100B3C0008E2FE08E22400FFEE3480FEE43DFDE412
:100B4C003CFCC004A905AA06AB077882E2FE08E2C9
:100B5C00FFE4FCFDD000120797780F1208FC78A771
:100B6C0012092378A7E2FC08E2FD08E2FE08E2FF86
:100B7C00EC4D4E4F7003020DB308E2FC08E2FD0889
:100B8C00E2FE08E2FF780C1208FCC004C005C006A7
:100B9C00C00778A3E2FB08E2F908E2FA08E2CBF816
:100BAC00C3E49BFFE49AFE741099FDE498FCD00317
:100BBC00D002D001D000C3EF9BFFEE9AFEED99FD61
:100BCC00EC98FCE47B357A0CF9F812079778AF12A5
:100BDC000923E4FFFEFD7C8078AFE2FB08E2F90814
:100BEC00E2FA08E2CBF8C31208D8503A78AFE2FC2C
:100BFC0008E2FD08E2FE08E2FF7801120910C004C9
:100C0C00C005C006C00778A7E2FC08E2FD08E2FEBA
:100C1C0008E2FBAA06A905A804D007D006D005D087
:100C2C0004120822803078A7E2FC08E2FD08E2FEFC
:100C3C0008E2FFC004A905AA06AB0778AFE2FC08DE
:100C4C00E2FD08E2FE08E2FFD000120822E47B027B
:100C5C00FAF9F812079778AF12092378AFE2FC087B
:100C6C00E2FD08E2FE08E2FF78031208E9C004C0C6
:100C7C0005C006C00778AFE2FC08E2FD08E2FE08FA
:100C8C00E2FF78031208E9D003D002D001D00012A1
:100C9C000797780D1208E9C004A905AA06AB0778D6
:100CAC0092E2FE08E2FFEE3395E0FDFCD000120765
:100CBC0097780C1208FC78A712092378AFE2FC088D
:100CCC00E2FD08E2FE08E2FF78021208E9C004A97E
:100CDC0005AA06AB077890E2FE08E2FFEE3395E03A
:100CEC00FDFCD000120797780D1208FC78AB1209A6
:100CFC002378AFE2FB08E2F908E2FA08E2CBF8C08D
:100D0C0000C001C002C00378ABE2FC08E2FD08E2BF
:100D1C00FE08E2FF78A7E2FB08E2F908E2FA08E233
:100D2C00CBF8EB2FFFEA3EFEE93DFDE83CFCC004AE
:100D3C00A905AA06AB07788EE2FE08E2FFEE339512
:100D4C00E0FDFCD000EB2FFFEA3EFEE93DFDE83C68
:100D5C00FC78041208FCD003D002D001D000EB2F99
:100D6C00FFEA3EFEE93DFDE83CFC78AF1209237832
:100D7C00AFE2FC08E2FD08E2FE08E2FFE41205AA7D
:100D8C007BB07A507955784112050D7858120923A9
:100D9C007858E2FC08E2FD08E2FE08E2FF1205E8E2
:070DAC007856EEF208EFF2A9
:010DB300221D
:101FCB00122C517FFD124424E4FCFD78A31209234B
:101FDB00E4FF7E80FDFC78A3E2FB08E2F908E2FA5D
:101FEB0008E2CBF8C31208C270030222937878E29E
:101FFB00FC08E2FD08E2FE08E22400FFEE34D4FE0A
:10200B00ED34FEFDEC34FFFC78A71209237897E240
:10201B00FFE4FCFDFE78A7E2FB08E2F908E2FA0810
:10202B00E2CBF8120797780B1208FCE42FFFEE3483
:10203B0080FEE43DFDE43CFCC004C005C006C007C7
:10204B00789CE2FF3395E0FEFDFC78A7E2FB08E20B
:10205B00F908E2FA08E2CBF8120797780A1208FCA3
:10206B00D003D002D001D000120797780A1208FCD7
:10207B00E42FFFE43EFEED3420FDE43CFCC004A95C
:10208B0005AA06AB077895E2FE08E2FFEE3395E072
:10209B00FDFCD000120797E42FFFEE3420FEE43D49
:1020AB00FDE43CFC780E1208FCC004C005C006C061
:1020BB00077898E2FE08E2FFEE3395E0FDFC78141A
:1020CB00120910C004C005C006C00778A3E2FC08C3
:1020DB00E2FD08E2FE08E2FF780E120910D003D0F1
:1020EB0002D001D000C3EF9BFFEE9AFEED99FDEC01
:1020FB0098FCC004C005C006C007789AE2FE08E24F
:10210B00FFEE3395E0FDFC78A7E2FB08E2F908E26D
:10211B00FA08E2CBF8120797A804A905AA06AB07A1
:10212B00D007D006D005D004C3EF9BFFEE9AFEED8F
:10213B0099FDEC98FCE42FFFEE3440FEE43DFDE40A
:10214B003CFC780F1208FCD003D002D001D0001257
:10215B00079778A712092378A7E2FC08E2FD08E2AB
:10216B00FE08E2FFC004C005C006C00778A7E2FC6A
:10217B0008E2FD08E2FE08E2FF780F1208FCC0043B
:10218B00C005C006C00778A7E2FC08E2FD08E2FE26
:10219B0008E2FF780F1208FCD003D002D001D00068
:1021AB0012079778071208FCC004A905AA06AB070B
:1021BB007894E2FFE4FCFDFED0001207977804123E
:1021CB0008FCA804A905AA06AB07D007D006D005C2
:1021DB00D004C3EF9BFFEE9AFEED99FDEC98FC78D3
:1021EB00A712092378A7E2FCEC335007E4FFFEFDAE
:1021FB00FC800D78A7E2FC08E2FD08E2FE08E2FF96
:10220B0078A7120923E4FFFEFD7C1978A7E2FB08EF
:10221B00E2F908E2FA08E2CBF8D31208C24008E46C
:10222B00FFFEFD7C19800D78A7E2FC08E2FD08E2B9
:10223B00FE08E2FF78A712092378A7E2FC08E2FD6B
:10224B0008E2FE08E2FF780C1208FC78A7120923BB
:10225B0078A7E2FC08E2FD08E2FE08E2FFEC1205BB
:10226B00AA7B0A7AD77923784112050D785812097F
:10227B00237858E2FC08E2FD08E2FE08E2FF1205B3
:08228B00E87876EEF208EFF2AC
:012293002228
:034C870002096CB3
:064C710012096C021FCBCA
:10496800785CE224AA24FD500B24F9600A240B7019
:0B49780009020DB4024C87124C7122A2
:08000300785DE2FE08E2FF2235
:084C37007856E2FE08E2FF22BC
:084C3F007876E2FE08E2FF2294
:054C7C00785CE2FF225C
:0A412D00C108829D0000829F00007F
:0D43530078ADEBF208EAF208E9F208EDF2AD
:104360007F80124A51E478B1F278B0E2FF08E2FEB1
:10437000C39F5023EEFF78AFE22FF218E23400F231
:1043800018E2FB08E2FA08E2F912068BFF12481C59
:0A43900078B1E204F280D2024BA2E1
:0D43090078ADEBF208EAF208E9F208EDF2F7
:104316007F81124A51E478B1F278B0E2FF08E2C335
:104326009F5022D20112466B78ADE2FB08E2FA08F2
:10433600E2F978B1E2F582758300EF1206D878B11A
:0D434600E204F280D4C20112466B024BA2C9
:1047250078A9EFF208EBF208EAF208E9F27BFE7AE3
:104735000079A97D011243537F14124BB178AAE287
:0C474500FB08E2FA08E2F97D02024309D9
:103E83007BFE7A0079A77FF312472578A7E2FFE448
:103E9300FCFDFE7808120910C004A905AA06AB07A9
:103EA30078A8E2FFD000EB4FFFEAFEE9FDE8FC78DB
:103EB300A312092378A30808E2FE08E254FCFFE4F6
:103EC300FDFC78A3120923E47FA47E44FDFC78A3C0
:103ED300E2FB08E2F908E2FA08E2CBF81207977866
:0C3EE300101208FCEF24B3FFEE34EDFEDB
:013EEF0022B0
:103EF0007BFE7A0079A77FF512472578A7E2FFE4D9
:103F0000FCFDFE7808120910C004A905AA06AB073B
:103F100078A8E2FFD000EB4FFFEAFEE9FDE8FC786D
:103F2000A312092378A30808E2FE08E254FCFFE488
:103F3000FDFC78A3120923E47FD47E30FDFC78A336
:103F4000E2FB08E2F908E2FA08E2CBF812079778F8
:0C3F5000101208FCEF24A8FFEE34FDFE68
:013F5C002242
:0B4C19007F80124A38B39208024BA2C1
:10493100123E837C007D0A120761789DEEF208EF3A
:0C494100F2123EF0789FEEF208EFF22236
:084C4700789DE2FE08E2FF2265
:084C4F00789FE2FE08E2FF225B
:034C8A00A208225B
:10050A0002065EEC5D046005E859047003020654B5
:10051A0012061F580460F6EC4860F2EC7004FDFE07
:10052A00FF22C860DB2481C85009C39860025006C4
:10053A0002065B9850CAF582E9294B4A7005AB82DC
:10054A0002064A75F0007C1A7880C3EF9BEE9AED9A
:10055A0099400DC3EF9BFFEE9AFEED99FDE842F03C
:10056A00DC23ACF0D0E0FFD0E0FED0E0FDAB82208F
:10057A00E7101BEB60BAEC2CFCEF33FFEE33FEED19
:10058A0033FD020636E803F830E705C0F075F000DF
:10059A00EF2FFFEE33FEED33FD40B830E7C280AAFD
:1005AA0075F020800E75F010800575F0087D007ECC
:1005BA00007F003392D530D5031208B4EC334010D3
:1005CA00EF33FFEE33FEED33FDEC33FCD5F0ED22D5
:0E05DA00E5F0247EA2D513CC92E7CDCEFF2211
:1005E800EDD2E7CD33EC3392D524814006E4FFFE0B
:1005F800FDFC22FCE4CFCECDCC24E0501174FF806A
:10060800EDC3CC13CCCD13CDCE13CECF13CF047006
:07061800F030D5DE0208B44A
:10061F00E9D2E7C933E833F892D5EDD2E7CD33EC21
:07062F0033FC5002B2D5229A
:10063600EC30E7100FBF000C0EBE00080DBD000425
:100646000BEB6014A2D5EB13FCED92E7FD2274FFD1
:10065600FCFDFEFF22E480F8A2D574FF13FC7D802A
:03066600E480EF3E
:1037600002195EE493A3F8E493A34003F68001F208
:1037700008DFF48029E493A3F85407240CC8C3336A
:10378000C4540F4420C8834004F456800146F6DF39
:10379000E4800B01020408102040809040E1E47EA8
:1037A000019360BCA3FF543F30E509541FFEE4932E
:1037B000A360010ECF54C025E060A840B8E493A3F5
:1037C000FAE493A3F8E493A3C8C582C8CAC583CA20
:1037D000F0A3C8C582C8CAC583CADFE9DEE780BED8
:014137000087
:10066900C2D530F707B2D563F0FF05F030E70CB219
:10067900D5F4048463F0FF05F080018430D502F4D9
:02068900042249
:10068B00BB010689828A83E0225002E722BBFE026D
:09069B00E32289828A83E49322A0
:1006A400BB010989828A83F8E028F022500327F7E6
:1006B40022BBFE05F8E328F3228A838982F8E493B7
:0206C4002822EA
:1006C600BB010689828A83F0225002F722BBFE0113
:0206D600F3220D
:1006D800F8BB010DE58229F582E5833AF583E8F058
:1006E800225006E92582C8F622BBFE05E92582C804
:0206F800F222EC
:1006FA00EF8DF0A4A8F0CF8CF0A428CE8DF0A42E14
:02070A00FE22CD
:10070C00BC000BBE0029EF8DF084FFADF022E4CCD1
:10071C00F875F008EF2FFFEE33FEEC33FCEE9DEC9A
:10072C00984005FCEE9DFE0FD5F0E9E4CEFD22EDE0
:10073C00F8F5F0EE8420D21CFEADF075F008EF2F2A
:10074C00FFED33FD4007985006D5F0F222C398FD1B
:05075C000FD5F0EA22B8
:10076100C2D5EC30E709B2D5E4C39DFDE49CFCEEB3
:1007710030E715B2D5E4C39FFFE49EFE12070CC318
:10078100E49DFDE49CFC800312070C30D507C3E413
:060791009FFFE49EFE2222
:10079700E88FF0A4CC8BF0A42CFCE98EF0A42CFC01
:1007A7008AF0EDA42CFCEA8EF0A4CDA8F08BF0A47F
:1007B7002DCC3825F0FDE98FF0A42CCD35F0FCEBDE
:1007C7008EF0A4FEA9F0EB8FF0A4CFC5F02ECD39A3
:0F07D700FEE43CFCEAA42DCE35F0FDE43CFC2210
:1007E60075F008758200EF2FFFEE33FECD33CDCCCA
:1007F60033CCC58233C5829BED9AEC99E58298404D
:100806000CF582EE9BFEED9AFDEC99FC0FD5F0D629
:10081600E4CEFBE4CDFAE4CCF9A88222B800C1B953
:100826000059BA002DEC8BF084CFCECDFCE5F0CB91
:10083600F97818EF2FFFEE33FEED33FDEC33FCEBCA
:1008460033FB10D703994004EB99FB0FD8E5E4F985
:10085600FA227818EF2FFFEE33FEED33FDEC33FC72
:10086600C933C910D7059BE99A4007EC9BFCE99A66
:10087600F90FD8E0E4C9FAE4CCFB2275F010EF2FAB
:10088600FFEE33FEED33FDCC33CCC833C810D707AB
:100896009BEC9AE899400AED9BFDEC9AFCE899F8E6
:0E08A6000FD5F0DAE4CDFBE4CCFAE4C8F92279
:1043E000C2D5E830E70FB2D5E4C39BFBE49AFAE408
:1043F00099F9E498F8EC30E717B2D5124416120890
:1044000022E4C39BFBE49AFAE499F9E498F8800368
:1044100012082230D50DE4C39FFFE49EFEE49DFD0B
:04442000E49CFC22FA
:0E08B400C3E49FFFE49EFEE49DFDE49CFC2255
:1008C200EB9FF5F0EA9E42F0E99D42F0EC6480C8AD
:0608D20064809845F0224D
:1008D800EB9FF5F0EA9E42F0E99D42F0E89C45F076
:0108E80022ED
:1008E900E8600FECC313FCED13FDEE13FEEF13FFED
:0308F900D8F12211
:1008FC00E86010ECA2E713FCED13FDEE13FEEF1312
:04090C00FFD8F022FE
:10091000E8600FEFC333FFEE33FEED33FDEC33FC45
:03092000D8F122E9
:0C092300ECF208EDF208EEF208EFF22210
:10092F00F5F0C582A4C582C5F0C583A42583F583E0
:01093F002295
:10094000D083D082F8E4937012740193700DA3A346
:1009500093F8740193F5828883E47374029368605A
:06096000EFA3A3A380DF5A
:060966008A838982E4731C
:00000001FF
