:03000000023CFBC4
:103CFB0078FFE4F6D8FD9000007F007E03E4F0A38C
:0A3D0B00DFFCDEFA758121023D5055
:104FD200124C22124C8D1252D512470F124BE9126B
:0B4FE20040E61252C0783274FFF22249
:10513D003006FD12000EC2AF124C22D2AFE4781928
:08514D00F2782AF2780BF2223D
:10520E003006FD12000EC2AF124B36D2AFE4781943
:02521E00F2227A
:10066F0078B17401F2124FD27F14125243783B7457
:10067F0002F23006FDC2067824E2FE08E2FF7C009B
:10068F007D0A1203FCED4C702E7819E2FF600964AD
:10069F00026024EF6403601F783BE27014740AF267
:1006AF00125325EF60031250081253335003124FA9
:1006BF00B61242DB12340012531378B0EFF2600F10
:1006CF00E2C3941050047F1480027F2812524378A3
:1006DF00B0E224FE700302086C24FE70030208715E
:1006EF0024F4700302092E240F6003020995784148
:1006FF00E2640570227819E2701D740FF2782AE215
:10070F00FF700404F28010EFD39400400AEF9407B7
:10071F005005782AE204F27819E214B4110040036C
:10072F0002099590074075F003A4C58325F0C58392
:10073F00730207730207F00207FB02080D02086637
:10074F0002086602086602086302086602082702AA
:10075F000866020866020847020866020995020940
:10076F00950208667817E2FF24FEB40F00400302DB
:10077F00099590078F75F003A4C58325F0C5837382
:10078F000207BC0207C80207CE0207EA0207EA0205
:10079F0007EA0207EA0207EA0207EA0207EA020784
:1007AF00EA0207E40207D40209950207DE783274E1
:1007BF0002F27819EFF2020995783274068003E499
:1007CF00785EF28016E47819F2782AF2020995120F
:1007DF003D950209957853E27818F27817E20209ED
:1007EF007E7832E27012124E530209897832E2B4E7
:1007FF000406124DFE020989124E7A020995785E9F
:10080F00E2FF70057854E26004EFB40905124B73F0
:10081F0080451251E802099578197410F2782BE28D
:10082F00FF781DE4F208EFF2E47826F208F2782060
:10083F00F208743BF20209957818E260057853E2EA
:10084F007010E4780BF27810F208F274FF780CF263
:10085F0008F280031251C112520E02099278B1743C
:10086F0001F278B0E2B404040874FFF27819E2B42C
:10087F000E00400302099590088DF828287302088E
:10088F00B70208B90208C30208C30208CD0208D78D
:10089F000208EB0208FF02090902091302092502E7
:1008AF0008E10208F502091C804678B1E2FF1251F7
:1008BF00AD02099578B1E2FF123EBD02099578B1FC
:1008CF00E2FF123F4B02099578B1E2FF125071021D
:1008DF00099578B1E2FF12502302099578B1E2FF32
:1008EF0012503D02099578B1E2FF12505702099557
:1008FF0078B1E2FF124F1302099578B1E2FF12505F
:10090F008B02099578B1E2FF1250A5807978B1E298
:10091F00FF1250BF807078B1E2FF1251D580677817
:10092F0019E2B41300505F90093DF82828730209AB
:10093F007602097D02098902098902098302098663
:10094F0002098602098602098602098602098B02BC
:10095F00098602098602098602098602099502099B
:10096F008B02099502098678197401F28018E478D0
:10097F0019F28012124BE912513D8007E4781CF2F4
:10098F0012513D12528E7819E2B413004003020A3D
:10099F00519009A7F82828730209E00209EA020911
:1009AF00EF0209F40209F90209FE020A07020A0F0F
:1009BF00020A18020A1D020A27020A03020A0B0280
:1009CF000A22020A4D020A4D020A2F020A450209A3
:1009DF00E512475E806C12516C8067123C4F80624B
:1009EF00123819805D12392B80581220C48053128F
:1009FF004D20804E7843800A7841800678428002ED
:100A0F007845E2FF123FD780391252FE80341253DD
:100A1F0005802F124D4D802A781CE2FFE4FD8019CE
:100A2F00781CE2D3648094804005123D9580137842
:100A3F00197401F2800CE4FDFF1247AC8004E478D6
:100A4F0019F27829E22401F218E23400F27825E253
:100A5F002401F218E23400F27823E22401F218E2C2
:100A6F003400F2D37829E2947718E294004004E43A
:100A7F00F208F230072C782AE2B408267824E2FE36
:100A8F0008E2FF7C007D051203FCED4C7014C37867
:100A9F000EE264809480400A08E22401F218E234E6
:100AAF0000F2D37825E2943B18E294004077E4F209
:100ABF0008F27813E22401F218E23400F2782AE205
:100ACF00B409005060900ADBF8282873020AF60276
:100ADF000B06020B0A020B0E020B12020B16020B75
:100AEF001A020B1E020B247841E2B40506E47812B9
:100AFF00F208F27F3C801A7F0280167F0280127FFD
:100B0F0002800E7F05800A7F0280067F0280027FAF
:100B1F00057E00800DC3780EE2648094805006E459
:100B2F00FFFE1244902007030206817853E2700300
:100B3F000206817841E26405600302068130072CCA
:100B4F00780BE2B401267822E2FE08E2FF7C007DFA
:100B5F00051203FCED4C7014C3780CE26480948092
:100B6F00400A08E22401F218E23400F2D37823E2BB
:100B7F00943B18E294005003020681E4F208F278E5
:100B8F0011E22401F218E23400F2780BE214601043
:100B9F000460030206817F107E0E12488D020681CB
:100BAF00C3780CE2648094804003020681E4FFFE68
:060BBF0012488D020681C0
:1026A800007F7F40407F7F007F7F08087F7F000397
:1026B8001F227E7F0300007F7F49497F360040400C
:1026C8007F7F4040007F7F4848783000003E7F4150
:1026D800416322007F7F4848783000031F227E7FB5
:1026E800030000707808087F7F0040407F7F4040EB
:1026F800007F7F49497F3600007F7F40407F7F0011
:1027080040407F7F4040007F7F08087F7F00003E79
:102718007F414163220060731B0F7C70007F7F49FB
:10272800494F4600007F7F49497F36003E7F41413F
:102738006322007F7F0814636300007C7C40407C38
:102748007C007C7C10107C7C000C3C48787C0C0065
:10275800007C7C54547C280040407C7C4040007CB9
:102768007C505070200000387C44446C28007C7CED
:1027780050507020000C3C48787C0C0000607010B1
:10278800107C7C0040407C7C4040007C7C54547C25
:102798002800007C7C40407C7C0040407C7C4040A1
:1027A800007C7C10107C7C0000387C44446C280041
:1027B80064741C187060007C7C54545C4800007C75
:1027C8007C54547C2800387C44446C28007C7C1061
:1027D800386C440000607F7F60006F6F007F3F109F
:1027E8001F103F7F007F7F4949007F7F63361C00B1
:1027F8001F3F6C6C3F1F00607F7F60007F7F4949EF
:102808003F7F4C7F3F007F7F0303003F7F4C7F3F2C
:10281800007F7F6C6C370000003E41417149493EA2
:10282800000000063A433A06000000007F7F68680F
:10283800003E7F417F3E007F3F180C7E7F00607F17
:102848007F607F7F41633E1C006F6F00327B496F62
:1028580026007F7F446C38007F3F101F103F7F00A9
:102868006F6F007F7F63361C007F7F6C6C387F7FC3
:10287800497F36007F7F6C6C37006F6F003E7F4169
:102888004D2E0000003E41417149493E00000000C4
:1028980000000011117D1111000000000000007FF0
:1028A8007F417F7F007F7F381C7F7F000000000012
:1028B8000000007F7F417F7F007F7F6C6C007F7FFF
:1028C8006C6C00000000607F7F6000730B7E7C00F2
:1028D8007F7F4C380036007F7F49497F36007F7FF5
:1028E8004C4E7B3100360000705070003E7F6341D3
:1028F800410000000011117D1111000000607F7F70
:1029080060006F6F007F3F101F103F7F007F7F6C5C
:102918006C377F413E003249260022493600234564
:10292800390022493600207F007F7F4949006377BC
:102938001C1C7763006F6F0060607F7F6060327B74
:10294800496F2600607F7F60007F7F6C6C37003E98
:102958007F414D2E000012345555555555543210AF
:10442A00810A00820EFFFF820CFFFF8119008117AB
:10443A00028212000082100000812A00810B008192
:0A444A001C00810000810100C18404
:104C8D00E4F59375943FF5917592FFF5957596FF43
:104C9D00F5B175B27F7845E2781FF2C206A2C792D0
:104CAD00051246CB78147401F2087400F20874E50D
:024CBD00F222E1
:0D000E0053B0807590FF75A0FF43803F2226
:1036D5007801E2FEC394055011781FE2FDEEB505B1
:1036E5000312000E7801E204F222E47801F21200DE
:1036F5000E20050A18E2FEC374159EFF80047800AB
:10370500E2FFEFB4160040030237AF903717F828F1
:10371500287302375902375D023761023765023770
:103725006902376D02377102377502377902377DC5
:1037350002378102378502378902378D02379102B8
:10374500379502379902379D0237A10237A502370F
:10375500A90237ADC2908052C291804EC292804A72
:10376500C2938046C2948042C295803EC296803AFA
:10377500C2978036C2A08032C2A1802EC2A2802A02
:10378500C2A38026C2A48022C2A5801EC2A6801A1A
:10379500C2A78016C2808012C281800EC282800AB2
:1037A500C2838006C2848002C28520050CC37415BD
:1037B5009F2408F8E6F5B0804474082FF8E6FEC4A7
:1037C5005402FDEEC4131354014DFE74082FF8E6A0
:1037D500FD131354044EFEED54084EFE74082FF8E5
:1037E500E6FD25E025E054104EFEEDC454204EFEC6
:1037F50074082FF8E6C4333354404EF5B07800E230
:1038050004F2E2D39415400BE4F2A2C79205200618
:0338150002D206D6
:01381800228D
:0D528E00E47819F27812F208F2782AF22280
:1042DB001243BF782BE27068300467C2047854E253
:1042EB00603908E2FF782DE26F70307856E2FF7884
:1042FB002CE2B50726782EE27E007BFE2456F9EEE3
:10430B003400FA12037B603A7844E2FF7C007D3C78
:10431B001203EA7837EEF208EFF2227855E2FF3318
:10432B0095E0FE782DE2D39FEE6480F87480984080
:10433B0011782CE2700C7840E260077F2802524320
:02434B00D2049A
:01434D00224D
:0C46BF007814E4F2087400F2087408F2A9
:1046CB007843E224FE601514601C14602314602AE6
:1046DB008000781A740CF2087429F222781A740C80
:1046EB00F2087451F222781A740CF2087479F222DF
:1046FB00781A740CF20874A1F222781A740CF2086E
:04470B0074C9F22259
:1049620078B27429F208741AF2E4FFEFC394165075
:104972003478B2E2FC08E2F5828C83E493FE781488
:10498200E2FB08E2FA08E2F9EE1203B60F78B3E2AC
:104992002401F218E23400F27816E22401F218E25D
:0549A2003400F280C6A4
:0149A70022ED
:104556007828E2FC08E2FDC3941EEC94005004E4C3
:10456600FF800FC3ED945AEC940050047F03800241
:10457600E4FFE4FEEEC39404503675F004EFA42E77
:10458600F582E435F0F583E58224C5F582E58334CA
:104596000BF583E493FD7814E2FB08E2FA08E2F9EE
:1045A600ED1203B60EE22401F218E23400F280C4E2
:0145B60022E2
:103092007842E224FE603E14606214700302315DE5
:1030A2001470030231AC1470030231EA80007828F4
:1030B200E2FC08E2FDC3941EEC94005005E4FF021A
:1030C2003226C3ED945AEC940050057F0302322657
:1030D200E4FF0232267828E2FC08E2FDC3941EECEB
:1030E200940050057F02023226C3ED945AEC9400FC
:1030F20050057F030232267F020232267828E2FC44
:1031020008E2FDC3940AEC94005005E4FF02322663
:10311200C3ED941AEC940050057F01023226C3EDF0
:10312200942CEC940050057F02023226C3ED944E9B
:10313200EC940050057F03023226C3ED9460EC94B8
:103142000050057F02023226C3ED9470EC940050C9
:10315200057F01023226E4FF0232267828E2FC08CB
:10316200E2FDC3940CEC94005005E4FF023226C346
:10317200ED9424EC940050057F03023226C3ED94B3
:103182003CEC940050057F04023226C3ED9454ECCB
:10319200940050057F05023226C3ED946CEC940036
:1031A20050047F06807EE4FF807A7828E2FC08E201
:1031B200FDC3940EEC94005004E4FF8067C3ED94C9
:1031C2002CEC940050047F07805AC3ED944AEC948F
:1031D2000050047F03804DC3ED9468EC94005004CA
:1031E2007F088040E4FF803C7828E2FC08E2FDC3CF
:1031F200940EEC94005004E4FF8029C3ED942CEC6F
:10320200940050047F01801CC3ED944AEC9400505A
:10321200047F02800FC3ED9468EC940050047F0198
:103222008002E4FFE4FEEEC39404503675F004EF2E
:10323200A42EF582E435F0F583E58224C5F582E516
:1032420083340BF583E493FD7814E2FB08E2FA0879
:10325200E2F9ED1203B60EE22401F218E23400F2B2
:0232620080C426
:013264002247
:10357B00E41203B6E22401F218E23400F218E2FB83
:10358B0008E2FA08E2F9E41203B6E22401F218E2C7
:09359B003400F2E4FBFD7F14FE94
:0D35A40078B6EEF208EFF208EDF208EBF257
:1035B100E408F278BAE2FBC394044003023645788A
:1035C100B8E2705F08E2601778B6E2FE08E2FF7CBD
:1035D100007D0A1203FCD3EF9400EE94004044787E
:1035E100B6E2FE08E2FF7C007D0A1203FCEF7802DE
:1035F100C333CE33CED8F9FFEB7C002FFFEC3EFE78
:10360100781BE22FFF18E23EFE78BBF208EFF2F5DD
:10361100828E83E493FF7814E2FB08E2FA08E2F970
:10362100EF800B7814E2FB08E2FA08E2F9E41203F6
:10363100B678BAE204F27816E22401F218E2340014
:10364100F20235B47814E2FB08E2FA08E2F9E41276
:1036510003B6E22401F218E23400F2E478BAF27817
:10366100BAE2FBC39404506B78B8E2704678B6E2D4
:10367100FE08E2FF7C007D0A1203FCEDAE04780235
:10368100C333CE33CED8F9FFEB7C002FFFEC3EFEE7
:10369100781BE22FFF18E23EFE78BBF208EFF2F54D
:1036A100828E83E493FF7814E2FB08E2FA08E2F9E0
:1036B100EF800B7814E2FB08E2FA08E2F9E4120366
:1036C100B678BAE204F27816E22401F218E2340084
:0336D100F2808CF8
:0136D40022D3
:104D7A00782DE2FDD39418500618E2943C400302C1
:104D8A004962EDFF7E00E4FBFD1235A412309278F1
:0C4D9A002CE2FF7E00E4FBFD1235A42299
:1049ED007B007A0079087814EBF208EAF208E9F214
:1049FD0012357B7814E2FB08E2FA08E2F9E41203BF
:104A0D00B6E22401F218E23400F27831E2FF7E00C2
:104A1D00E4FBFD1235A47814E2FB08E2FA08E2F992
:044A2D00E40203B6E6
:10466E007830E2D3940C500718E2FD9420400302F8
:10467E004962EDFF7E00E4FBFD1235A4E4FFEFC3BB
:10468E0094045020EF900BC993FE7814E2FB08E2DD
:10469E00FA08E2F9EE1203B60FE22401F218E23440
:1046AE0000F280DA7830E2FF7E00E4FBFD1235A4E2
:0146BE0022D9
:103ADE00782EE214B407005070903AF575F003A4F6
:103AEE00C58325F0C58373023B0A023B15023B20BA
:103AFE00023B2B023B36023B41023B4C78B2742612
:103B0E00F20874A8F2804B78B27426F20874BEF2F2
:103B1E00804078B27426F20874D4F2803578B2748C
:103B2E0026F20874EAF2802A78B27427F20874003A
:103B3E00F2801F78B27427F2087416F2801478B2ED
:103B4E007427F208742CF2800978B27429F2087482
:103B5E001AF2E4FFEFC39416503478B2E2FC08E296
:103B6E00F5828C83E493FE7814E2FB08E2FA08E215
:103B7E00F9EE1203B60F78B3E22401F218E2340024
:0E3B8E00F27816E22401F218E23400F280C64A
:013B9C002206
:104FED00782CE2FF7E00E4FBFD1235A412455678C5
:0B4FFD002BE2FF7E00E4FBFD0235A468
:10194000E478B5F208F2125333500F1252EE7C00D5
:101950007D0A1203EA78B5EE8021125325EF600F5D
:101960001200037C007D0A1203EA78B5EE800C7841
:1019700033E275F064A4FF78B5E5F0F208EFF27891
:1019800050E2FF3395E0FE7C007D641203EA78B6F6
:10199000E22FF218E23EF2E418F278B4E2FFC394C8
:1019A00005500D74022FF8E4F278B4E204F280EAF4
:1019B00078B47404F2D378B6E2940018E2648094A8
:1019C00080500618E29400403278B5E2FA08E2FB53
:1019D0007C007D0AFFAE0212045178B4E22402F8C2
:1019E000EDF278B4E214F27C007D0AAF03AE02128D
:1019F000045178B5EEF208EFF280BA7802E26003A3
:101A0000021B6D78B4F278B4E2FDC39404504578BB
:101A100003E275F004A47C002DFFEC35F0FE781B8A
:101A2000E22FFF18E23EFE78B2F208EFF2F5828E66
:101A300083E493FF7814E2FB08E2FA08E2F9EF127C
:101A400003B678B4E204F27816E22401F218E23424
:101A500000F280B27814E2FB08E2FA08E2F9E4123C
:101A600003B6E22401F218E23400F2E478B4F2782A
:101A7000B4E2FDC3940450457804E275F004A47CFC
:101A8000002DFFEC35F0FE781BE22FFF18E23EFE42
:101A900078B2F208EFF2F5828E83E493FF7814E2D5
:101AA000FB08E2FA08E2F9EF1203B678B4E204F2B6
:101AB0007816E22401F218E23400F280B27814E2DF
:101AC000FB08E2FA08E2F9E41203B6E22401F21894
:101AD000E23400F218E2FB08E2FA08E2F9740312B9
:101AE00003B6E22401F218E23400F218E2FB08E245
:101AF000FA08E2F974031203B6E22401F218E234A0
:101B000000F218E2FB08E2FA08E2F9E41203B6E296
:101B10002401F218E23400F2E478B4F278B4E2FD81
:101B2000C394044003021CBF7805E275F004A47C52
:101B3000002DFFEC35F0FE781BE22FFF18E23EFE91
:101B400078B2F208EFF2F5828E83E493FF7814E224
:101B5000FB08E2FA08E2F9EF1203B678B4E204F205
:101B60007816E22401F218E23400F280AF7814E231
:101B7000FB08E2FA08E2F9E41203B6E22401F218E3
:101B8000E23400F2E478B4F278B4E2FDC394045095
:101B9000457802E275F004A47C002DFFEC35F0FEE0
:101BA000781BE22FFF18E23EFE78B2F208EFF2F562
:101BB000828E83E493FF7814E2FB08E2FA08E2F9EC
:101BC000EF1203B678B4E204F27816E22401F218B8
:101BD000E23400F280B27814E2FB08E2FA08E2F99B
:101BE000E41203B6E22401F218E23400F2E478B41D
:101BF000F278B4E2FDC3940450457803E275F00432
:101C0000A47C002DFFEC35F0FE781BE22FFF18E2DC
:101C10003EFE78B2F208EFF2F5828E83E493FF780D
:101C200014E2FB08E2FA08E2F9EF1203B678B4E234
:101C300004F27816E22401F218E23400F280B2785D
:101C400014E2FB08E2FA08E2F9E41203B6E2240126
:101C5000F218E23400F2E478B4F278B4E2FDC3940E
:101C60000450457804E275F004A47C002DFFEC35A7
:101C7000F0FE781BE22FFF18E23EFE78B2F208EF8A
:101C8000F2F5828E83E493FF7814E2FB08E2FA080F
:101C9000E2F9EF1203B678B4E204F27816E2240116
:101CA000F218E23400F280B27814E2FB08E2FA089B
:101CB000E2F9E41203B6E22401F218E23400F27809
:101CC00014E2FB08E2FA08E2F9E41203B6E22401A6
:101CD000F218E23400F218E2FB08E2FA08E2F974C2
:101CE0003E1203B6E22401F218E23400F218E2FBDD
:101CF00008E2FA08E2F974411203B6E22401F2188C
:101D0000E23400F218E2FB08E2FA08E2F974411248
:101D100003B6E22401F218E23400F218E2FB08E212
:101D2000FA08E2F974411203B6E22401F218E2342F
:101D300000F218E2FB08E2FA08E2F974221203B694
:091D4000E22401F218E23400F281
:011D49002277
:102E6000E478B3F208F20812061F000000001252C4
:102E7000DEAC06AD07EC1202C178B5120613E4FB16
:102E8000FA79207841C00078B5E2FC08E2FD08E25A
:102E9000FE08E2FFD00012021F7B5C7A8F79027875
:102EA0003F12002578B512061378B5E2FC08E2FD62
:102EB00008E2FE08E2FF1202FA78B3EEF208EFF23F
:102EC0007814E2FB08E2FA08E2F9E41203B6E2241D
:102ED00001F218E23400F218E2FB08E2FA08E2F923
:102EE000E41203B6E22401F218E23400F2E478B20C
:102EF000F278B2E2FFC3648094855055EFFB3395BE
:102F0000E0FA08E2FE08E2FF7C007D641204518FC3
:102F1000828E837405120638E5822BF582E5833AAA
:102F2000F583E58224E9F582E583340BF583E493A8
:102F3000FF7814E2FB08E2FA08E2F9EF1203B67830
:102F4000B2E204F27816E22401F218E23400F280D0
:102F5000A07814E2FB08E2FA08E2F9E41203B6E210
:102F60002401F218E23400F2E478B2F278B2E2FF1F
:102F7000C364809485505CEFFB3395E0FA08E2FE71
:102F800008E2FF7C007D0A1204517C007D0A1204D5
:102F9000518D828C837405120638E5822BF582E50B
:102FA000833AF583E58224E9F582E583340BF583E2
:102FB000E493FF7814E2FB08E2FA08E2F9EF120367
:102FC000B678B2E204F27816E22401F218E2340094
:102FD000F280997814E2FB08E2FA08E2F9E41203BD
:102FE000B6E22401F218E23400F2E478B2F278B2E8
:102FF000E2FFC3648094855055EFFB3395E0FA08F7
:10300000E2FE08E2FF7C007D0A1204518D828C836F
:103010007405120638E5822BF582E5833AF583E5DF
:103020008224E9F582E583340BF583E493FF781479
:10303000E2FB08E2FA08E2F9EF1203B678B2E20422
:10304000F27816E22401F218E23400F280A078143B
:10305000E2FB08E2FA08E2F9E41203B6E22401F224
:1030600018E23400F218E2FB08E2FA08E2F9E4128E
:1030700003B6E22401F218E23400F218E2FB08E29F
:10308000FA08E2F9E41203B6E22401F218E234008D
:01309000F24D
:01309100221C
:10296800E478B3F208F20812061F000000001253C0
:102978003350051252F68009125325BF600A1252CD
:10298800E678B3EEF208EFF278B3E2FC08E2FDE491
:102998001202C178B5120613E4FBFA79C87842C06E
:1029A8000078B5E2FC08E2FD08E2FE08E2FFD0008C
:1029B80012021F7B5C7A8F7902783F12002578B566
:1029C80012061378B5E2FC08E2FD08E2FE08E2FF11
:1029D8001202FA78B3EEF208EFF27814E2FB08E29A
:1029E800FA08E2F9E41203B6E22401F218E234002C
:1029F800F218E2FB08E2FA08E2F9E41203B6E2246C
:102A080001F218E23400F2D3EF9409EE9400406723
:102A1800E478B2F278B2E2FFC3648094854003029E
:102A28002AADEFFB3395E0FA08E2FE08E2FF7C00EE
:102A38007D0A1203FC8F828E837405120638E582A4
:102A48002BF582E5833AF583E58224E9F582E5836F
:102A5800340BF583E493FF7814E2FB08E2FA08E20A
:102A6800F9EF1203B678B2E204F27816E22401F222
:102A780018E23400F2809DE478B2F278B2E2C364DE
:102A880080948550207814E2FB08E2FA08E2F9E421
:102A98001203B678B2E204F27816E22401F218E2E0
:102AA8003400F280D67814E2FB08E2FA08E2F9E48E
:102AB8001203B6E22401F218E23400F2E478B2F22A
:102AC80078B2E2FFC3648094855055EFFB3395E0FC
:102AD800FA08E2FE08E2FF7C007D0A1203FC8D8200
:102AE8008C837405120638E5822BF582E5833AF566
:102AF80083E58224E9F582E583340BF583E493FFCB
:102B08007814E2FB08E2FA08E2F9EF1203B678B2A9
:102B1800E204F27816E22401F218E23400F280A00E
:102B28007814E2FB08E2FA08E2F9E41203B6E224B8
:102B380001F218E23400F218E2FB08E2FA08E2F9BE
:102B4800E41203B6E22401F218E23400F218E2FBC0
:102B580008E2FA08E2F974621203B6E22401F218F4
:102B6800E23400F218E2FB08E2FA08E2F9746412AF
:102B780003B6E22401F218E23400F218E2FB08E29C
:102B8800FA08E2F974081203B6E22401F218E234F2
:102B980000F218E2FB08E2FA08E2F974131203B62D
:102BA800E22401F218E23400F218E2FB08E2FA0823
:102BB800E2F974231203B6E22401F218E23400F2B7
:102BC80018E2FB08E2FA08E2F9E41203B6E224018B
:102BD800F218E23400F218E2FB08E2FA08E2F9E43B
:0C2BE8001203B6E22401F218E23400F2FD
:012BF40022BE
:104CF100782DE2FFC3941850257845E26406701EB2
:104D0100EF782D30E009E2C31390295C938008E22B
:0F4D1100C31390295C93C4540FFF781FEFF22255
:10516C001246BF124CF1780BE21460030480030268
:06517C00416A124D7A2287
:10475E001246BF124CF1782AE2B40900503C904741
:10476E0073F828287302478E024790024793024738
:10477E009602479902479C02479F0247A20247A50D
:10478E0080180249ED02466E023ADE024FED021922
:0E479E0040022E600229680241EA124D7A2282
:104C5A00ED12039412037BFF78B7E2D36480F8EF76
:104C6A00648098400678B6E21203B612037BFF7896
:104C7A00B6E2C36480F8EF648098500678B7E2120F
:034C8A0003B6224C
:1051AD007BFE7A007917AD0778B67402F208740E9B
:0451BD00F2024C5A54
:103C4F007817E224FEB40D004003023CDD903C6A7D
:103C5F0075F003A4C58325F0C58373023C91023C24
:103C6F0097023C9D023CA3023CAF023CBB023CC10D
:103C7F00023CC7023CD3023CA9023CB5023CCD0238
:103C8F003CD97E277FDC80467E277FF280407E28CE
:103C9F007F08803A7E287F1E80347E287F34802ED6
:103CAF007E287F4A80287E287F6080227E287F762C
:103CBF00801C7E287F8C80167E287FEE80107E29C8
:103CCF007F46800A7E297F0480047E297F30E4FDB1
:103CDF00EDC3941650158F828E83E493FC74082DD8
:0B3CEF00F8A6040D0FBF00010E80E5D9
:013CFA0022A7
:103819001246BF7824E2FE08E2FFC3940FEE94003B
:103829005004C200800FC3EF942DEE94005004D2CF
:10383900008002C2007832E2707878B2F278B2E29F
:10384900C3940950207814E2FB08E2FA08E2F9E48B
:103859001203B678B2E204F27816E22401F218E211
:103869003400F280D8E478B2F278B2E2FFC394046B
:103879005026EF900BD193FF7814E2FB08E2FA0887
:10388900E2F9EF1203B678B2E204F27816E2240103
:10389900F218E23400F280D1782BE2FF7E00783210
:1038A900E2FD700A300003ED60047D01806E7D0049
:1038B900806A782DE2FF7E007832E2B4020B300094
:1038C90004640260047D0180027D00E4FB1235A4DA
:1038D900E478B2F278B2E2FFC394045026EF900B79
:1038E900D193FF7814E2FB08E2FA08E2F9EF120338
:1038F900B678B2E204F27816E22401F218E2340052
:10390900F280D1782CE2FF7E007832E2B4010B30EC
:103919000004640160047D0180027D00E4FB12352E
:01392900A4F9
:01392A00227A
:10392B001246BF7824E2FE08E2FFC3940FEE940028
:10393B005004C200800FC3EF942DEE94005004D2BC
:10394B00008002C2007832E2640670597814E2FB00
:10395B0008E2FA08E2F912357B7814E2FB08E2FA86
:10396B0008E2F9E41203B6E22401F218E23400F2A1
:10397B007831E2FF7E0008E2B4060B3000046406E7
:10398B0060047D0180027D00E4FB1235A47814E213
:10399B00FB08E2FA08E2F9E41203B6E22401F2189A
:1039AB00E23400F222782FE2FF7E007832E2B40498
:1039BB000B300004640460047D0180027D007B01F8
:1039CB001235A4E4FFEFC394045020EF900BC9937E
:1039DB00FE7814E2FB08E2FA08E2F9EE1203B60FE6
:1039EB00E22401F218E23400F280DA7830E2FF7E52
:1039FB00007832E2B4050B300004640560047D01ED
:093A0B0080027D00E4FB1235A4E9
:013A1400228F
:1020C4001246BF785EE2FF704C7854E278B460093F
:1020D4007428F20874A2F280077428F20874B8F223
:1020E400E478B2F278B2E2FEC3941640030223DE2F
:1020F40078B4E2FC08E2F5828C83E493FD74082E44
:10210400F8A60578B2E204F278B5E22401F218E206
:102114003400F280CFEF6401600A785EE26402600A
:10212400030221BD7824E2FE08E2FFC3940FEE947B
:10213400005004C200800FC3EF942DEE94005004AD
:10214400D2008002C2007855E2FF3395E0FE785E4B
:10215400E2B4010B300004640160047D0180027D5F
:1021640000E4FB1235A4E478B2F278B2E2FFC3943F
:10217400045026EF900BD193FF7814E2FB08E2FAA7
:1021840008E2F9EF1203B678B2E204F27816E22418
:1021940001F218E23400F280D17856E2FF3395E080
:1021A400FE785EE2B4020B300004640260047D0138
:1021B40080027D00E4FB0235A47824E2FE08E2FFFD
:1021C400C3941BEE94005004C200800FC3EF94210B
:1021D400EE94005004D2008002C200785EE224FD36
:1021E400B40700506E9021F775F003A4C58325F061
:1021F400C5837302220C02221702222202222D021C
:10220400223802224302224E78B47427F208744220
:10221400F2804078B47427F2087458F2803578B4A8
:102224007427F208746EF2802A78B47427F2087462
:1022340084F2801F78B47427F208749AF2801478B8
:10224400B47427F20874B0F2800978B47427F208E1
:1022540074C6F2E478B2F278B2E2FFC39416400393
:102264000223DEE408F2EF120649229C01229C02BA
:1022740022C90422C90522F60722F60823230A23C9
:10228400230B23460D23460E236910236911238C47
:1022940013238C14000023B0785EE2FF640360050E
:1022A4007857E2704AEF640360030223B07857E280
:1022B400FF6003300039EF60030223B02000030203
:1022C40023B00223AB785EE2FF640460057858E231
:1022D400701DEF640460030223B07858E2FF6003CA
:1022E40030000CEF60030223B02000030223B0028D
:1022F40023AB785EE2FF640560057859E2701DEF58
:10230400640560030223B07859E2FF600330000CD7
:10231400EF60030223B02000030223B00223AB7852
:102324005EE2FF64066005785AE27014EF6406709A
:102334007B785AE2FF6003300006EF706F30006C68
:102344008065785EE2FF64076005785BE27014EFF5
:1023540064077058785BE2FF6003300006EF704C4E
:102364003000498042785EE2FF64086005785CE2F0
:102374007014EF64087035785CE2FF600330000687
:10238400EF7029300026801F785EE2FF6409600444
:1023940018E27013EFB40914785DE2FF60033000B3
:1023A40006EF700830000578B37401F278B4E2FEE9
:1023B40008E2F5828E83E493FF78B3E2FEEF4EFFEA
:1023C40018E22408F8A60778B2E204F278B5E22409
:0A23D40001F218E23400F202225B6D
:0123DE0022DC
:103FD7007814E4F2087400F2087408F2E4FEEEC301
:103FE70094105020EE9028CE93FD7814E2FB08E25F
:103FF700FA08E2F9ED1203B60EE22401F218E234F0
:1040070000F280DA7814E2FB08E2FA08E2F9E41237
:1040170003B6E22401F218E23400F2E4FEEEC394A0
:1040270005503675F005EFA42EF582E435F0F583DB
:10403700E58224E9F582E583340BF583E493FD7883
:1040470014E2FB08E2FA08E2F9ED1203B60EE224E5
:0940570001F218E23400F280C409
:01406000223D
:105023007BFE7A007943AD07904B10E49378B6F298
:0A503300904B25E49308F2024C5A5A
:10503D007BFE7A007941AD07904B0EE49378B6F282
:0A504D00904B23E49308F2024C5A42
:105057007BFE7A007942AD07904B0FE49378B6F266
:0A506700904B24E49308F2024C5A27
:104F13007BFE7A007945AD07904B12E49378B6F2A5
:104F2300904B27E49308F2124C5A7845E2781FF22B
:034F3300024CF13C
:105071007BFE7A007940AD07904B0DE49378B6F250
:0A508100904B22E49308F2024C5A0F
:104D20007840E260067E287FA280047E287FB8E477
:104D3000FDEDC3941650158F828E83E493FC7408A6
:0C4D40002DF8A6040D0FBF00010E80E549
:014D4C002244
:10508B007BFE7A007951AD07904B1EE49378B6F214
:0A509B00904B33E49308F2024C5AE4
:102BF5007814E4F2087400F2087408F2C3EF6480F4
:102C0500948040028001D39200300008EFF40478EC
:102C1500B5F2800478B5EFF2E478B4F278B4E2FF67
:102C2500C364809483500D74072FF8E4F278B4E2FE
:102C350004F280E878B47402F278B5E2D3940050D7
:102C45000818E264809480401E78B5E2FF75F00AAA
:102C55008418E22407F8E5F0F278B4E214F2EF758F
:102C6500F00A8408F280D278B57403F2200004E2F9
:102C75002405F27807E2701178B5E22405F27808A8
:102C8500E2700678B5E22405F2E478B4F278B5E2AC
:102C9500FF18E2FD3395E0FCC3ED9F7480F86C9856
:102CA50050207814E2FB08E2FA08E2F9E41203B6D0
:102CB50078B4E204F27816E22401F218E23400F264
:102CC50080CB300046E478B4F278B4E2C3648094F3
:102CD5008450217814E2FB08E2FA08E2F97408123C
:102CE50003B678B4E204F27816E22401F218E2346D
:102CF50000F280D57814E2FB08E2FA08E2F9E41262
:102D050003B6E22401F218E23400F27807E2D39424
:102D1500004070E478B4F278B4E2FDC36480948432
:102D2500504A7807E275F004A4FFED3395E0FCEF17
:102D35002DFFE5F03CFE781BE22FFF18E23EFE7802
:102D4500B2F208EFF2F5828E83E493FF7814E2FB8A
:102D550008E2FA08E2F9EF1203B678B4E204F27871
:102D650016E22401F218E23400F280AB7814E2FB9B
:102D750008E2FA08E2F9E41203B6E22401F218E2E5
:102D85003400F27807E2D39400500608E29400403C
:102D950070E478B4F278B4E2FDC364809484504A58
:102DA5007808E275F004A4FFED3395E0FCEF2DFF04
:102DB500E5F03CFE781BE22FFF18E23EFE78B2F20A
:102DC50008EFF2F5828E83E493FF7814E2FB08E2C4
:102DD500FA08E2F9EF1203B678B4E204F27816E2E3
:102DE5002401F218E23400F280AB7814E2FB08E229
:102DF500FA08E2F9E41203B6E22401F218E234001B
:102E0500F2E478B4F278B4E2FDC364809484504A65
:102E15007809E275F004A4FFED3395E0FCEF2DFF92
:102E2500E5F03CFE781BE22FFF18E23EFE78B2F299
:102E350008EFF2F5828E83E493FF7814E2FB08E253
:102E4500FA08E2F9EF1203B678B4E204F27816E272
:0A2E55002401F218E23400F280AB11
:012E5F002250
:0752FE007851E2FF022BF5DD
:1050A5007BFE7A007950AD07904B1DE49378B6F2FC
:0A50B500904B32E49308F2024C5ACB
:075305007850E2FF022BF5D6
:1051D5007BFE7A00791CAD07E478B6F2087463F2B9
:0351E500024C5A1F
:103D9500782BE2FF7E00781DE2FC08E2FDC3EF9D73
:103DA500FDEE9CFCC3ED9401EC94004025781CE2EB
:103DB50064809481401C08EEF208EFF27827E22433
:103DC50001F218E23400F27821E224FFF218E2341D
:103DD500FFF2781CE214FF782008E2FD1247AC7868
:103DE50027E2643C700218E270197826F208F2782E
:103DF50020F208743BF2781CE2C36480948140038E
:103E0500E214F2781CE2701EFDFF1247AC7844E222
:103E1500FF7E007C007D3C1203EA7837EEF208EF66
:073E2500F278197411F2227A
:0447AC0078B2EDF200
:1047B0007814E4F2087400F2087408F27E00E4FB56
:1047C000FD1235A4E4FFEFC394045020EF900BD109
:1047D00093FE7814E2FB08E2FA08E2F9EE1203B65F
:1047E0000FE22401F218E23400F280DA78B2E2FF3C
:0847F0007E00E4FBFD0235A48C
:1050BF007BFE7A007953AD07904B20E49378B6F2DC
:0A50CF00904B35E49308F2024C5AAE
:104D4D007853E260067E287FA280047E287FB8E437
:104D5D00FDEDC3941650158F828E83E493FC740879
:0C4D6D002DF8A6040D0FBF00010E80E51C
:014D79002217
:10488D00D37811E29F18E29E403C780BE204F2E4EB
:10489D007810F208F2780BE2D394024002E4F27839
:1048AD000BE2700204F2780BE2B4011A30070D78B6
:1048BD0019E270087412F2E4780C8007E4780BF2B8
:0748CD0074FF08F208F2225B
:10449000D37813E29F18E29E4059782AE204F2E4AE
:1044A0007812F208F2782AE2D394094002E4F27812
:1044B0002AE2B4060B125325EF7005782A7407F22E
:1044C000782AE2B40712125325EF6460600A12538F
:1044D000334005782A7408F2782AE2B408153007C8
:1044E000077819E270028006E4782AF274FF780EE9
:0444F000F208F222BA
:1041EA00780EE2FE08E2FF24EA78B3F2EE34FF1812
:1041FA00F2780AE22416FDE433FCD3EF9DEC6480E6
:10420A00F8EE648098401074FF780EF208F2E478B1
:10421A002AF27812F208F2E4FFEFFD78B3E22DFDFC
:10422A0018E23400FCC3648094804025780AE2FBDB
:10423A00ED9B7480F86C98501878B208E22F24E548
:10424A00F582E43400F583E0FE74082FF8A60680B0
:0C425A000674082FF8E4F60FEFB416BD50
:014266002235
:10416A00780CE2FE08E2FF24EA78B3F2EE34FF1894
:10417A00F2780AE22416FDE433FCD3EF9DEC648066
:10418A00F8EE648098401374FF780CF208F2E47831
:10419A0010F208F2780BF27819F2E4FFEFFD78B327
:1041AA00E22DFD18E23400FCC36480948040257837
:1041BA000AE2FBED9B7480F86C98501878B208E21A
:1041CA002F24E5F582E43400F583E0FE74082FF825
:0F41DA00A606800674082FF8E4F60FEFB416BDA2
:0141E90022B3
:1050D900780AE2C394FE5010E2FE04F274E52EF55C
:0950E90082E43400F583EFF022AB
:04434E0078B3EFF25F
:10435200E4780AF278B4F278B3E214FF08E2C39F79
:10436200505A12037BFDC394A0400674C02DFD80F9
:104372000EEDC39420400674E02DFD80027D1FE403
:10438200FC75F005EDA42CF582E435F0F583E582A9
:1043920024F1F582E583340CF583E493FF64A56090
:1043A200031250D90CECB405D8E4FF1250D978B4FA
:0C43B200E204F2740129F9E43AFA809B5D
:0143BE0022DC
:100BC5000000000000080800001C1C00003636006C
:100BD50000243600002424000024000000303000EA
:100BE500000606007F7F417F7F00007F7F000F4F5B
:100BF5004979794149497F7F7878087F7F797949B3
:100C05004F0F7F7F494F0F4040407F7F7F7F497F58
:100C15007F7879497F7F3040454830705070003E7D
:100C25007F6341417F41417F00007F004F49497902
:100C35004949497F7808087F7949494F7F49494F94
:100C45004040407F7F49497F7949497F3E41413E48
:100C550000217F0123454931425169460C14247F07
:100C65007251514E1E294906404F5060364949364A
:100C750030494A3C7E41413F00407F000F49493998
:100C85004949493E7C04041F7849490F7F49490772
:100C95006040403F7E49493F7849493F7F63637FD4
:100CA50000607F006F6B6B7B6B6B6B7F7878087F69
:100CB5007B7B4B4F7F7F494F40407F7F7F6B6B7FB7
:100CC5007B6B6B7F007F417F00007F00004F497980
:100CD5000049497F0078087F0079494F007F494FD7
:100CE5000040407F007F497F0079497F0000000078
:100CF500A57DA5A5A5A5700070A5A5147F147F14D5
:100D0500122A7F2A24626408132336495522055086
:100D150060A5A5A51C2241A5A541221CA5A51408D1
:100D25003E081408083E08080506A5A5A504040400
:100D350004A501A5A5A5A502040810203E41413E34
:100D4500A500217F01A521434539A522414936A5A5
:100D55000C14247FA57251514EA53E494926A54044
:100D6500474870A536494936A53249493EA512A5D9
:100D7500A5A5A50112A5A5A508142241A51414141D
:100D8500141441221408A520404548303E415D55C4
:100D95003C1F2444241F7F494949363E4141412295
:100DA5007F4141221C7F494949417F484848403E8F
:100DB5004149492F7F0808087F417F41A5A50201C8
:100DC500417E407F081422417F010101A57F201843
:100DD500207F7F1008047F3E4141413E7F484848BF
:100DE500303E4145423D7F484C4A313249494926CA
:100DF50040407F40407E0101017E700C030C707EF7
:100E0500010E017E631408146370080708704345DA
:100E15004951617F4141A5A50C123F120441417F13
:100E2500A5A5102040201001010101014020A5A524
:100E3500A5021515150F7F0911110E0E11111102BD
:100E45000E1111097F0E1515150C083F4840201885
:100E55002525253E7F0810100F115F01A5A502016C
:100E6500115EA57F040A11A5417F01A5A51F100CE0
:100E7500100F1F08100FA50E1111110E3F2422226D
:100E85001C1C2222243F1F081008A5081515150251
:100E9500107E1101021E0101021F18060106181E0F
:100EA5000106011E110A040A11180505051E111374
:100EB500151911083641A5A57FA5A5A5A541360893
:100EC500A5A508100810A5A5A5A5A5A5021E3F1E48
:100ED500023049294936184525451E0201417E4003
:100EE5002A1C771C2A3F202020607F7F7F7F7F7F01
:100EF5007F7F7F7F3F692969217F7F7F7F7F3E4994
:100F050049412208142A14227F7F7F7F7F1E2927CB
:100F1500211E7F7F7F7F7F413F41A5A50030484847
:100F25003009097D0909417F41A5A5115F01A5A5E5
:100F35001F101058A57F7F7F7F7F7F7F7F7F7F7FFB
:100F45007F7F7F7F0E5515550C7F7F7F7F7F0E1529
:100F550015110A22142A14087F7F7F7F7F7F7F7FE8
:100F65007F7F7F7F7F7F7F511F51A5A53F444444ED
:100F75003F7F494949467F494949367F404040605E
:100F8500033E427E037F4949494177087F087741FF
:100F9500494949367F0408107F3F0264083F7F08AE
:100FA500142241011E20407F7F2018207F7F0808E2
:100FB500087F3E4141413E7F4040407F7F48484851
:100FC500303E4141412240407F4040700909097E41
:100FD5003C42FF423C63140814637F01017F0170AA
:100FE5000808087F7F017F017F7E027E027F407FA8
:100FF5000909067F0906007F7F0911110E22414963
:10100500493E7F083E413E314A4C487F0215151541
:101015000F1E292949061F15150AA51F101018A509
:10102500030E121E030E1515150C1B041F041B11B0
:1010350015150AA51F0204081F1F4224481F1F0477
:101045000A11A50708101FA51F0804081F1F04047F
:101055001FA50E1111110E1F10101FA51F1412121E
:101065000C0E1111110210101F1010180505051E88
:101075000C129F120C110A040A111F01011F0118FD
:1010850004041FA51F011F011F1E021E021F101FA2
:101095000505021F0502001F1F050502A50A1115FA
:0C10A500150E1F040E110E081516141F66
:104E290000000001010100FF003B3B17071F0C6355
:104E3900FF630000001F003B005A0078009700B58F
:0A4E490000D400F301110130014E06
:1044F4007830E2FFD3940240047E0080027E01788B
:1045040031E2240CC39EFDEE75F00CA42F24FEF9B9
:10451400EDFF782FE22FFFE433FEED1313543F7CBD
:10452400002FFBEC3EFAE975F01FA4FFAEF07D0C02
:104534001203FCEF2BFFEE3ACF24FFCF34FFFE7CB7
:10454400007D071203FCAF05782EEFF270037407A9
:01455400F274
:014555002243
:104F59007830E2FFB4020F08E2540360047E1D803A
:104F6900027E1CAF0622EFD3940740010FEF441EC7
:014F7900FF38
:014F7A002214
:10470F007FD012510B7F0A124EA17F81124EA11240
:10471F0052627FD012510B7F0D124EA17F81124E2C
:10472F00A17F04124EA1E4FF124EA17851E2FF12B5
:10473F004EA11252621243BF782EE278B2F21244A7
:0E474F00F4782EE2FF78B2E26F6003124DFEA6
:01475D002239
:104E53007FD012510BE4FF124EA1E478B2F278B284
:104E6300E2FFD39402500D124F36124EA178B2E2F4
:074E730004F280EA02526222
:104DFE001244F47FD012510B7F03124EA178B3747C
:104E0E0003F278B3E2FFD39406500D124F36124ED2
:0B4E1E00A178B3E204F280EA025262C5
:1051C1007FD012510B7F10124EA17851E2FF124E87
:0451D100A102526283
:1043BF007FD012510BE4FF124EA11252627FD11225
:1043CF00510BE478B3F278B3E2FFD39406502BEF9E
:1043DF00B40603C38001D39201124CBF78B4EFF23D
:1043EF0012525378B3E27C007BFE242BF9EC34009D
:1043FF00FAEF1203B6E204F280CC1252627FD012AF
:10440F00510B7F11124EA11252627FD112510BC26A
:0B441F0001124CBF7833EFF202526232
:043EBD0078B2EFF2F6
:103EC1007832E2FFFD7C00242BF9EC3400FA78B360
:103ED10074FEF208EAF208E9F27BFF74322DF9EC84
:103EE100344EFA12037BFEEF2429F9EC344EFA1218
:103EF100037BFD7832E2B40405124F59AE0778B264
:103F0100E2FF08E2FB08E2FA08E2F9EF1203947813
:103F1100B3E2FB08E2FA08E2F912037BFFD3EE6495
:103F210080F8EF6480984004ED1203B678B3E2FBA9
:103F310008E2FA08E2F912037BFFC3ED6480F8EFAF
:093F41006480985004EE1203B6EE
:013F4A002254
:104E7A007832E2601024FE600A24FE24FD500424E5
:104E8A0006700E800678327404F2227832E214F246
:074E9A002278327402F222BB
:104BAF007830E2FF25E02439F582E4344EF583189E
:104BBF00E2FD7401932DFDE4933400FC7831E2544F
:104BCF0003700CEFD3940240067E007F0180047EB9
:0A4BDF00007F00ED2FFFEC3EFE22E8
:0F525300EFC4540F75F00AA4FEEF540F2EFF2284
:104F36007E007BFE742B2FF9EE3400FA12037BFF02
:104F4600EF75F00A84C454F0FEEF75F00A84E5F0BC
:034F56002EFF2209
:10523200125320D2C1125320A2C29203C2C1A203AE
:015242002249
:07530C00A20292C20252321C
:1050F20078B2EFF2D2C1D2C2125320C2C2125320EE
:09510200C2C178B2E2FF024EC8FE
:10510B0078E2EFF2D2C1D2C2125320C2C2125320A4
:09511B00C2C178E2E2FF024EA1DC
:0F526200C2C1C2C2125320D2C1125320D2C222E3
:044EA10078E3EFF2D1
:104EA500E408F2F278E3E233920212530C78E3E27B
:104EB500FF25E0F208E204F2E2C3940840E6D202DC
:034EC50002530C89
:044EC80078B3EFF2DA
:104ECC00E408F2F278B3E233920212530C78B3E2B4
:104EDC00FF25E0F208E204F2E2C3940840E6D2C2F5
:034EEC000252323D
:104CBF00D2C2E478E3F218F278E3E2FF25E0F212D1
:104CCF005232500678E3E24401F278E2E204F2E273
:104CDF00C3940840E3A201B3920212530C78E3E2AB
:014CEF00FFC5
:014CF00022A1
:045320007F02DFFE2B
:015324002266
:0A52B500EF60077E13DEFE1F80F697
:0152BF0022CC
:0E527100EF600B7E127DEBDDFEDEFC1F80F297
:01527F00220C
:10445400813B0081390082370000813A00813CFAB7
:0A446400813D008234000081360023
:103A1500E4FF20C6010F20C504EF4402FF20C404C3
:103A2500EF4404FFEF602A7836E2FEB5071D18E281
:103A35002401F218E23400F208E2647D700218E213
:103A45007035EEC454F0783DF2802C7836EFF28074
:103A5500267834E2FE08E2FFD39419EE6480948060
:103A6500400FEF947DEE64809480500508E2783D28
:103A7500F2E47834F208F2783CE26005E214F28070
:103A850028783C74FAF218E26003E214F27839E21D
:103A95006003E214F27838E2700218E2600B7838BD
:103AA500E224FFF218E234FFF2783AE26005E2140C
:103AB500F2800E7838E2700218E26005783A74FAFE
:103AC500F2783AE2540ED39408400B783CE2D39452
:083AD5007D4005C2C322D2C3EB
:013ADD0022C6
:10524300783AEFF2783C74FAF2E47837F208F22213
:06531300783DE2FFE4F228
:015319002271
:104AF700FF00020000010500071E0101010101007E
:104B07000000000001FF000101010000000000009B
:104B1700000000000000F7800000FF010506050106
:0F4B27000601173B01010101010101097F020194
:03446E00813E008C
:1045B700D200E478B3F278B3E2FFC39409501D7ECA
:1045C700007BFE74462FF9EE3400FA12037BF46089
:1045D70004C200800778B3E204F280DA30002EE4E8
:1045E70078B3F278B3E2FF7C007BFF24F7F9EC3471
:1045F7004AFA12037BFEEF1B243FF9EC3400FAEE74
:0D4607001203B6E204F2E2B415D9124B36EC
:014614002283
:104C2200E478B2F278B2E2FDC394155028783EE2FD
:104C320025E0FE7C00E42DFFEC3EFE12515578B2D9
:104C4200E27C007BFE243FF9EC3400FAEF1203B65B
:084C5200E204F280CF0245B735
:104B3600783EE2FF7E00125198E478B4F278B4E24F
:104B4600FDC394155026783EE225E0FE7C00E42D58
:104B5600FFEC3EFE7BFE743F2DF9EC3400FA1203A7
:0C4B66007BFD12512478B4E204F280D1EF
:014B72002220
:1051820000000000000000000000FF01173B0101C9
:065192000101010101FF13
:104BE900E478B2F278B2E2FFFD3395E0FC7BFE7423
:104BF900462DF974003CFA12037BFEEF3395E0FC75
:104C090074542DF974003CFAEE1203B6E204F2E290
:084C1900B40AD1785E74FFF2C9
:014C21002270
:104B7300E478B2F278B2E2FFFD3395E0FC7BFE7499
:104B8300542DF974003CFA12037BFEEF3395E0FCDD
:104B930074462DF974003CFAEE1203B6E204F2E215
:0B4BA300B40AD1124B36785E74FFF2AA
:014BAE0022E4
:1051E800785EE2C3648094894003E4F222785EE248
:0351F80004F2229C
:043F4B0078B2EFF267
:103F4F00785EE2FFFD3395E0FC74542DF974003C6C
:103F5F00FA78B374FEF208EAF208E9F27BFF748D87
:103F6F002DF974513CFA12037BFEEFFD3395E0FC03
:103F7F0074822DF974513CFA12037BFF78B2E2FD83
:103F8F0008E2FB08E2FA08E2F9ED12039478B3E2D3
:103F9F00FB08E2FA08E2F912037BFDD3EE6480F826
:103FAF00ED6480984004EF1203B678B3E2FB08E2A9
:103FBF00FA08E2F912037BFDC3EF6480F8ED648029
:073FCF00985004EE1203B646
:013FD60022C8
:0D529B00E4F5C7F5C5F5C675C380F5C4225E
:1051550075C78275C5018FC4EEF5C375C65A75C688
:07516500A500AFC202529B3E
:1051240075C78275C5028FC4EEF5C3AF058FC2750E
:09513400C65A75C6A50002529B83
:1051980075C78275C5038FC4EEF5C375C65A75C643
:0551A800A50002529B6E
:015336002254
:1051FB00438E805389F0E4F58A758CF7C28DD28C7F
:03520B00D2A92203
:0952D5001251FB125336D2AF2234
:03000B000247F8B1
:1047F800C0E0C0F0C083C082C0D075D000C000C087
:1048080001C002C003C004C005C006C0071236D5E7
:10481800785FE204F2E2D394204005E4F2123A15FC
:10482800D007D006D005D004D003D002D001D000E4
:0B483800D0D0D082D083D0F0D0E0328E
:03001B0002533756
:015337003243
:101D4A00D120CDCEC2DBCC20C3CEC4CECC21212122
:101D5A0000D0EEE6E4E5F1F2E2EE20F5F0E8F1F289
:101D6A00EEE2EE2E00D1F2E0F0FBE920CDEEE2FB4E
:101D7A00E920E3EEE42E00CAF0E5F9E5EDE8E52016
:101D8A00C3EEF1EFEEE4EDE52E00D2E0F2FCFFED5A
:101D9A00E8ED20E4E5EDFC2E00C4E5EDFC20E2F1DF
:101DAA00E5F520E2EBFEE1EBB8EDEDFBF52E00C424
:101DBA00E5EDFC20E7E0F9E8F2EDE8EAE020CEF212
:101DCA00E5F7E5F1F2E2E02E00CCE5E6E4F3EDE03A
:101DDA00F0EEE4EDFBE920E6E5EDF1EAE8E920E4DE
:101DEA00E5EDFC2E00C4E5EDFC20ECEEF0FFEAE0A8
:101DFA002DEFEEE4E2EEE4EDE8EAE02E00C4E5EDD4
:101E0A00FC20F1ECE5F5E02E00C4E5EDFC20EAEE5D
:101E1A00F1ECEEEDE0E2F2E8EAE82E00CFF0E0E7DE
:101E2A00E4EDE8EA20C2E5F1EDFB20E820D2F0F388
:101E3A00E4E02E00C4E5EDFC20EFEEE1E5E4FB2151
:101E4A00212100C4E5EDFC20EFE8EEEDE5F0E8E83D
:101E5A002E00C4E5EDFC20EFEEE3F0E0EDE8F7ED4F
:101E6A00E8EAE02E00C4E5EDFC20E7E0F9E8F2FB41
:101E7A0020E4E5F2E5E92E00C4E5EDFC20D0CED160
:101E8A00D1C8C82E00C4E5EDFC20ECEEEBEEE4E58B
:101E9A00E6E82E00C4E5EDFC20F1E5ECFCE82C2098
:101EAA00EBFEE1E2E820E820E2E5F0EDEEF1F2E80F
:101EBA002E00C4E5EDFC20C2EEE7E4F3F8EDEE2DCA
:101ECA00E4E5F1E0EDF2EDFBF520E2EEE9F1EA2ED0
:101EDA0000C4E5EDFC20C2EEE5EDEDEE2DE2EEE705
:101EEA00E4F3F8EDFBF520F1E8EB2E00C4E5EDFC98
:101EFA0020E7EDE0EDE8E92E00C4E5EDFC20F2E58F
:101F0A00F1F2E8F0EEE2F9E8EAE02E00C4E5EDFCD1
:101F1A0020F3F7E8F2E5EBFF2E00C4E5EDFC20F034
:101F2A00EEE6E4E5EDE8FF20C4E5E4E020CCEEF0DF
:101F3A00EEE7E02E00C4E5EDFC20FDEDE5F0E3E57B
:101F4A00F2E8EAE02E00C4E5EDFC20EFF0EEE3F063
:101F5A00E0ECECE8F1F2E02E00C4E5EDFC20ECE563
:101F6A00E4E8F6E8EDF1EAEEE3EE20F0E0E1EEF285
:101F7A00EDE8EAE02E00C4E5EDFC20F1E8F1F2E537
:101F8A00ECEDEEE3EE20E0E4ECE8EDE8F1F2F0E06F
:101F9A00F2EEF0E02E00C4E5EDFC20C2EEE5EDED38
:101FAA00EE2DCCEEF0F1EAEEE3EE20D4EBEEF2E029
:101FBA002E00CCE5E6E4F3EDE0F0EEE4EDFBE920FB
:101FCA00E4E5EDFC20EFE8E2E02E00C4E5EDFC20BC
:101FDA00F1F2F0EEE8F2E5EBFF2E00C4E5EDFC20AD
:101FEA00F2E0EDEAE8F1F2E02E00C4E5EDFC20E0D3
:101FFA00E2F2EEECEEE1E8EBE8F1F2E02E00C4E505
:10200A00EDFC20ECE0F2E5F0E82E000101111D4A9A
:10201A000107141D5B010E121D6F0113131D8101AF
:10202A00190F1D94020E161DA302171A1DB90308D3
:10203A001C1DD30313181DEF04010C1E07040C13F7
:10204A001E130501181E2605090F1E3E05130F1E35
:10205A004D051C131E5C0601131E6F060C0D1E8215
:10206A00061B0F1E8F07081E1E9E08021F1EBC0895
:10207A000C1B1EDB09010D1EF60909131F030A05B5
:10208A000E1F160B121B1F240C16111F3F61001383
:10209A001F5036071D1F637705201F8077071C1FF7
:1020AA00A01805191FBC2807101FD529070F1FE5FF
:0A20BA007A07141FF47B070D2008BD
:02447100C10781
:10461500782EE278B3F27F057860E4F208DFFC7F5C
:1046250005782FE278B3F278B3E2D36480948740BB
:1046350006E224F9F280F0124F59AE07E4FFEFC30A
:1046450094055024EEFD78B3E2F9FB3395E0FAD3F7
:10465500EB9D7480F86A98500F74602FF8E9F20F9B
:0846650078B3E22407F280D6CD
:01466D00222A
:104F9A007864E2FF700C782FE2FE7863E2B5060AC5
:0C4FAA00D322782FE2B50702D322C322E5
:1052200074602FF8E2FF782FE2FEEFB50602D3227A
:02523000C32297
:10340000C207E4780AF2124615E478B2F278B2E222
:10341000FFC39423400302357A30070302357AEF65
:1034200075F005A42415F582E43420F583E493FFB8
:1034300054F0FEC4540F1424FB503F70030234C6F2
:103440001470030235002407600302356C78B2E281
:1034500075F005A42416F582E43420F583E493FE88
:10346000782FE2FDEE6D6003023572EF540FFF0816
:10347000E26F600302357202353878B2E2FF75F010
:1034800005A42415F582E43420F583E493FE540F5B
:10349000FD7830E26D6003023572EF75F005A4240B
:1034A00016F582E43420F583E493FF782EE26F6012
:1034B00003023572EE5470C4540F14FF12522040B0
:1034C000030235728072124BAFAC06AD0778B2E2E0
:1034D000FB75F005A42415F582E43420F583E4930C
:1034E0005401FEEB75F005A42416F582E43420F5B2
:1034F00083E493FBEB6D7002EC6E7076D207803C38
:1035000078B2E2FF75F005A42415F582E43420F5C5
:1035100083E493540FFE7830E26E7056EF75F00539
:10352000A42416F582E43420F583E493FF782EE298
:103530006F703F124F9A503AD20778B2E2FE75F0A0
:1035400005A42417F582E43420F583E493FFEE7597
:10355000F005A42418F582E43420F583E493FC7488
:103560000193AA04F97BFF12434E8006C207E47858
:0A3570000AF278B2E204F202340D10
:01357A00222E
:104473008184EC816B00826C000082650000828580
:02448300000037
:104F7B0078B2EFF208EDF27884E2FF12510B78B2BF
:0F4F8B00E2FF124EA178B3E2FF124EA102526272
:044DA60078B2EFF2FE
:104DAA007884E2FF12510B78B2E2FF124EA17884A6
:104DBA00E24401FF12510BC201124CBF78B3EFF269
:074DCA0012526278B3E2FF10
:014DD10022BF
:044A750078DFEFF205
:104A79007884E2FF12510B78DFE2FF124EA17884AD
:104A8900E24401FF12510BD201124CBFEFF8E47955
:104A9900E1F3E819F3C201124CBF78E0E2F208E24F
:0C4AA9004FF212526278E0E2FE08E2FFD9
:014AB50022DE
:044AB60078B2EFF2F1
:104ABA007884E2FF12510B78B2E2FF124EA1788499
:104ACA00E24401FF12510BD201124CBF78B3E4F257
:104ADA0008EFF2C201124CBFEFFE78B3E24EF208C1
:0C4AEA00E2F212526278B3E2FE08E2FF32
:014AF600229D
:03532A00024A75BF
:03532D00024AB67B
:043B9D0078CAEFF201
:103BA1007884E2FF12510B78CAE2FF124EA17884A9
:103BB100E24401FF12510BD201124CBFE4FCFDFEA5
:103BC100780C12060078CB12061378CBE2FB08E2E0
:103BD100F908E2FA08E2CBF8C000C001C002C00354
:103BE100D201124CBFE4FCFDFE7804120600D003A2
:103BF100D002D001D000EB4FFFEA4EFEE94DFDE8C7
:103C01004CFC78CB12061378CBE2FB08E2F908E210
:103C1100FA08E2CBF8C000C001C002C003C2011221
:103C21004CBFEFC4540FFFD003D002D001D000EB42
:103C31004FFFEAFEE9FDE8FC78CB1206131252624F
:0D3C410078CBE2FC08E2FD08E2FE08E2FF9D
:013C4E002253
:104061007FAA124A75786EEEF208EFF27FAC124A1F
:10407100757870EEF208EFF27FAE124A757872EE43
:10408100F208EFF27FB0124A757874EEF208EFF29F
:104091007FB2124A757876EEF208EFF27FB4124AD7
:1040A100757878EEF208EFF27FB6124A75787AEEFB
:1040B100F208EFF27FB8124A75787CEEF208EFF25F
:1040C1007FBA124A75787EEEF208EFF27FBC124A8F
:1040D100757880EEF208EFF27FBE124A757882EEB3
:0540E100F208EFF222DD
:103E2C007F88124AB6788BEEF208EFF27F8A125333
:103E3C002D788DEEF208EFF27F8C12532D788FEEE9
:103E4C00F208EFF27F8E124AB67891EEF208EFF29A
:103E5C007F9012532D7893EEF208EFF27F9212536B
:103E6C002D7895EEF208EFF27F9412532D7897EEA1
:103E7C00F208EFF27F9612532D7899EEF208EFF2DA
:103E8C007F9812532D789BEEF208EFF27F9A125323
:103E9C002D789DEEF208EFF27F9C12532D789FEE59
:103EAC00F208EFF27F9E12532D78A1EEF208EFF29A
:013EBC0022E3
:10426700123E2C7FA1124DA678A3EFF27FE11253E5
:104277002D78A4EEF208EFF27FE3124DA678A6EFB1
:10428700F27FE4124DA6EF75F010A4FFAEF0C00761
:10429700C0067FE5124DA6EF540FFDD0E078A7F2D8
:1042A700D0E04D08F27FE6124DA6EF75F010A4FF9F
:1042B700AEF0C007C0067FE5124DA6EFC4540FFD50
:1042C700D0E078A9F2D0E04D08F27FE7124DA6784A
:0442D700ABEFF22235
:0E528000E4FD7FF5124F7B7DAB7FF4024F7B88
:0A52CB007D057FF2124F7B02528036
:044EEF0078DEEFF288
:104EF3007884E2FF12510B7FF4124EA178DEE2FFB9
:104F0300124EA11252627F051252717FF6024A7548
:0C52A8007FF3124DA6EF30E002D322C3CA
:0152B40022D7
:1040E6007FEC1250F2B392001252623000077884CD
:1040F60074ECF280137FEE1250F2B3920012526209
:10410600300005788474EEF23000097FD0124DA697
:10411600786BEFF2786BE2FF6003B4FF05E4786B2F
:10412600F222EF6455601C7DB67FE0124F7B7F95CF
:104136001252717F9580071252A850077F6412525F
:104146007180F4786BE224AA24FD500B24F9600DEB
:10415600240B700F024061123E2C025280124267FD
:034166001252CB27
:014169002233
:1014F9007F2E124EEF78DAEEF208EFF27F34124EB9
:10150900EF78DCEEF208EFF2786BE26455600302E3
:10151900193F78DAE2FE08E2FFE4FCFDC006C007E5
:101529007878E2FE08E2FBAA06D007D006C3EF9B53
:10153900FFEE9AFEED9400FDEC9400FCC004A905B1
:10154900AA06AB077876E2FE08E2FFE4FCFDD000CC
:10155900120487780F1205EC78B21206137880E22C
:10156900FE08E2FFEE3395E0FDFC780B120600C0A1
:1015790004C005C006C0077882E2FE08E2FFEE3328
:1015890095E0FDFC78B2E2FB08E2F908E2FA08E22C
:10159900CBF8EB2FFBEA3EFAE93DF9E83CF8D00736
:1015A900D006D005D004124A3178B612061378B69F
:1015B900E2FC08E2FD08E2FE08E2FF78B2E2FB087D
:1015C900E2F908E2FA08E2CBF8EB2FFFEA3EFEE97E
:1015D9003DFDE83CFC78C212061378C2E2FC08E241
:1015E900FD08E2FE08E22408FFE43EFEE43DFDE4D6
:1015F9003CFC78041205EC786CEEF208EFF278C244
:10160900E2FC08E2FD08E2FE08E22460FFEE34F0A5
:10161900FEED34FFFDEC34FFFC0812061378C6E238
:10162900FC08E2FD08E2FE08E2FFA804A905AA06F3
:10163900FB120487780C1205EC78CA12061378702D
:10164900E2FE08E2FFEE3395E0FDFC78C6E2FB0816
:10165900E2F908E2FA08E2CBF8120487C004C005EF
:10166900C006C007787CE2FE08E2FFEE3395E0FD94
:10167900FC78CAE2FB08E2F908E2FA08E2CBF812C0
:101689000487D003D002D001D000EF2BFFEE3AFE41
:10169900ED39FDEC38FC780B1205EC78BA1206131B
:1016A900786EE2FE08E2FFEE3395E0FDFCE47B0490
:1016B900FAF9F812048778BAE2FB08E2F908E2FAC3
:1016C90008E2CBF8EB2FFFEA3EFEE93DFDE83CFCE2
:1016D900EF2402FFE43EFEE43DFDE43CFC78021207
:1016E90005EC78BE1206137872E2FE08E2FFEE33CB
:1016F90095E0FDFC78C6E2FB08E2F908E2FA08E2A7
:10170900CBF8120487780D1205EC78B2120613781B
:101719007AE2FE08E2FFEE3395E0FDFC78CAE2FBCF
:1017290008E2F908E2FA08E2CBF812048778101205
:1017390005EC78B612061378B6E2FC08E2FD08E279
:10174900FE08E2FF78B2E2FB08E2F908E2FA08E2F1
:10175900CBF8EB2FFFEA3EFEE93DFDE83CFCEF2428
:1017690002FFE43EFEE43DFDE43CFC78021205EC98
:1017790078BA12061378BAE2FC08E2FD08E2FE081C
:10178900E22400FFEE3480FEE43DFDE43CFCC004AD
:10179900A905AA06AB077874E2FE08E2FFE4FCFD9E
:1017A900D000120487780F1205D978D2120613785F
:1017B900DCE2FE08E2FFE4FCFDC004C005C006C08F
:1017C9000778BEE2FC08E2FD08E2FE08E2FBAA0691
:1017D900A905A804D007D006D005D004C3EF9BFF04
:1017E900EE9AFEED99FDEC98FCE47B507AC3F9F88A
:1017F90012048778D612061378D2E2FB08E2F908B8
:10180900E2FA08E2CBF8C00078D6E2FC08E2FD086B
:10181900E2FE08E2FFD000120512780112060078F4
:10182900CE12061378CEE2FC08E2FD08E2FE08E2D9
:10183900FF78081205ECC004C005C006C00778CEC1
:10184900E2FC08E2FD08E2FE08E2FF78081205EC76
:10185900D003D002D001D00012048778B212061347
:10186900E47FDE7E0BFDFC78B2E2FB08E2F908E2D8
:10187900FA08E2CBF812048778101205EC78B21254
:1018890006137F437EE37DFF7CFF78CEE2FB08E20F
:10189900F908E2FA08E2CBF812048778101205EC8D
:1018A90078B612061378B6E2FC08E2FD08E2FE08F3
:1018B900E2FF78B2E2FB08E2F908E2FA08E2CBF8C3
:1018C900EB2FFFEA3EFEE93DFDE83CFCEF24CFFFAC
:1018D900EE340EFEE43DFDE43CFC78041205EC78A0
:1018E900CEE2FB08E2F908E2FA08E2CBF8EB2FFFB7
:1018F900EA3EFEE93DFDE83CFC78BA12061378BAE7
:10190900E2FC08E2FD08E2FE08E2FFEC1202BC7B01
:10191900B07A507955784112021F78671206137808
:1019290067E2FC08E2FD08E2FE08E2FF1202FA782B
:0619390065EEF208EFF27A
:01193F002285
:103265007FFA123B9D78C6120613E4FFFE7D08FC2B
:1032750078C6E2FB08E2F908E2FA08E2CBF8C312E5
:1032850005C870030233FF788BE2FE08E2FFE4FC19
:10329500FD7801120600AB07AA06A905C004C00502
:1032A500C006C00778C6E2FC08E2FD08E2FE08E2B7
:1032B500FF78031205D9D003D002D001D000C3EFA7
:1032C5009BFFEE9AFEED99FDEC98FCC004A905AABA
:1032D50006AB07788DE2FE08E2FFEE3395E0FDFCD4
:1032E500D000120487780B1205D978C2120613781C
:1032F5008BE2FE08E2FFE4FCFDAB07AA06F9C00479
:10330500C005C006C00778C6E2FC08E2FD08E2FE7B
:1033150008E2FF78041205D9D003D002D001D0000D
:10332500C3EF9BFFEE9AFEED99FDEC98FCC004C03F
:1033350005C006C007788BE2FE08E2FFE4FCFDABA2
:1033450007AA06F9C004C005C006C00778C6E2FC96
:1033550008E2FD08E2FE08E2FF78041205D9D00371
:10336500D002D001D000C3EF9BFFEE9AFEED99FD90
:10337500EC98FCD003D002D001D000120487780C61
:103385001205D9C004A905AA06AB07788FE2FE0885
:10339500E2FFEE3395E0FDFCD000120487780E12B3
:1033A50005D978C2E2FB08E2F908E2FA08E2CBF8AF
:1033B500EB2FFFEA3EFEE93DFDE83CFC788712066F
:1033C50013E47F05FEFDFC7887E2FB08E2F908E2DD
:1033D500FA08E2CBF8120487EF2480FFE43EFEE40E
:1033E5003DFDE43CFC78081205ECE47B0AFAF9F8AB
:0A33F500124A31786CEEF208EFF294
:0133FF0022AB
:1010B1001232657FF7123B9D78B21206137887E2F0
:1010C100FC08E2FD08E2FE08E2FF78011205ECE40B
:1010D1002FFFEE3406FEED34FFFDEC34FFFC78B655
:1010E10012061378B6E2FC08E2FD08E2FE08E2FF10
:1010F10078021205ECC004C005C006C00778B6E24C
:10110100FC08E2FD08E2FE08E2FF78021205ECD0DD
:1011110003D002D001D000120487780B1205ECC075
:1011210004A905AA06AB07789BE2FE08E2FFEE33AD
:1011310095E0FDFCD00012048778BA12061378BA44
:10114100E2FB08E2F908E2FA08E2CBF8C000C001CC
:10115100C002C0037899E2FE08E2FFEE3395E0FD9C
:10116100FC78B6E2FB08E2F908E2FA08E2CBF812F1
:1011710004877801120600D003D002D001D000EB21
:101181002FFFEA3EFEE93DFDE83CFC78BA1206136A
:101191007897E2FE08E2FFEE3395E0FDFC7810124D
:1011A1000600C004C005C006C00778BAE2FC08E228
:1011B100FD08E2FE08E2FF78021205ECD003D0023E
:1011C100D001D000EF2BFFEE3AFEED39FDEC38FCFB
:1011D10078BA12061378B6E2FC08E2FD08E2FE08CE
:1011E100E2FF78021205ECC004C005C006C0077812
:1011F100B6E2FC08E2FD08E2FE08E2FF7802120511
:10120100ECD003D002D001D000120487780D120572
:10121100ECC004A905AA06AB077895E2FE08E2FF37
:10122100EE3395E0FDFCD00012048778031205EC43
:10123100C004C005C006C0077893E2FE08E2FFEED5
:101241003395E0FDFC78B6E2FB08E2F908E2FA0822
:10125100E2CBF812048778011205ECD003D002D05A
:1012610001D000EB2FFFEA3EFEE93DFDE83CFC78B2
:10127100121205EC78B612061378B6E2FC08E2FD0C
:1012810008E2FE08E22400FFEE3480FEE43DFDE4C6
:101291003CFCC004A905AA06AB077891E2FE08E26E
:1012A100FFE4FCFDD000120487780F1205EC78B63C
:1012B10012061378B6E2FC08E2FD08E2FE08E2FF3E
:1012C100EC4D4E4F70030214F808E2FC08E2FD08F1
:1012D100E2FE08E2FF780C1205ECC004C005C0066E
:1012E100C00778B2E2FB08E2F908E2FA08E2CBF8BB
:1012F100C3E49BFFE49AFE741099FDE498FCD003CB
:10130100D002D001D000C3EF9BFFEE9AFEED99FD14
:10131100EC98FCE47B357A0CF9F812048778BE125C
:101321000613E4FFFEFD7C8078BEE2FB08E2F908CB
:10133100E2FA08E2CBF8C31205C8503A78BEE2FCE3
:1013410008E2FD08E2FE08E2FF7801120600C0048F
:10135100C005C006C00778B6E2FC08E2FD08E2FE5F
:1013610008E2FBAA06A905A804D007D006D005D03B
:1013710004120512803078B6E2FC08E2FD08E2FEB4
:1013810008E2FFC004A905AA06AB0778BEE2FC0883
:10139100E2FD08E2FE08E2FFD000120512E47B0242
:1013A100FAF9F812048778BE12061378BEE2FC0837
:1013B100E2FD08E2FE08E2FF78031205D9C004C08D
:1013C10005C006C00778BEE2FC08E2FD08E2FE089F
:1013D100E2FF78031205D9D003D002D001D0001268
:1013E1000487780D1205D9C004A905AA06AB0778B0
:1013F100A1E2FE08E2FFEE3395E0FDFCD00012040D
:1014010087780C1205EC78B612061378BEE2FC0858
:10141100E2FD08E2FE08E2FF78021205D9C004A944
:1014210005AA06AB07789FE2FE08E2FFEE3395E0DE
:10143100FDFCD000120487780D1205EC78BA120673
:101441001378BEE2FB08E2F908E2FA08E2CBF8C041
:1014510000C001C002C00378BAE2FC08E2FD08E264
:10146100FE08E2FF78B6E2FB08E2F908E2FA08E2D8
:10147100CBF8EB2FFFEA3EFEE93DFDE83CFCC00462
:10148100A905AA06AB07789DE2FE08E2FFEE3395B7
:10149100E0FDFCD000EB2FFFEA3EFEE93DFDE83C1C
:1014A100FC78041205ECD003D002D001D000EB2F60
:1014B100FFEA3EFEE93DFDE83CFC78BE12061378EA
:1014C100BEE2FC08E2FD08E2FE08E2FFE41202BC13
:1014D1007BB07A507955784112021F786712061352
:1014E1007867E2FC08E2FD08E2FE08E2FF1202FA78
:0714F1007865EEF208EFF24E
:0114F80022D1
:1023DF001232657FFD124A75E4FCFD78B2120613C6
:1023EF00E4FF7E80FDFC78B2E2FB08E2F908E2FA36
:1023FF0008E2CBF8C31205B270030226A77887E272
:10240F00FC08E2FD08E2FE08E22400FFEE34D4FEF1
:10241F00ED34FEFDEC34FFFC78B612061378A6E21D
:10242F00FFE4FCFDFE78B6E2FB08E2F908E2FA08E9
:10243F00E2CBF8120487780B1205ECE42FFFEE3491
:10244F0080FEE43DFDE43CFCC004C005C006C007AF
:10245F0078ABE2FF3395E0FEFDFC78B6E2FB08E2D5
:10246F00F908E2FA08E2CBF8120487780A1205ECB1
:10247F00D003D002D001D000120487780A1205ECE5
:10248F00E42FFFE43EFEED3420FDE43CFCC004A944
:10249F0005AA06AB0778A4E2FE08E2FFEE3395E04B
:1024AF00FDFCD000120487E42FFFEE3420FEE43D44
:1024BF00FDE43CFC780E1205ECC004C005C006C05C
:1024CF000778A7E2FE08E2FFEE3395E0FDFC7814F3
:1024DF00120600C004C005C006C00778B2E2FC08AF
:1024EF00E2FD08E2FE08E2FF780E120600D003D0EC
:1024FF0002D001D000C3EF9BFFEE9AFEED99FDECE9
:10250F0098FCC004C005C006C00778A9E2FE08E227
:10251F00FFEE3395E0FDFC78B6E2FB08E2F908E246
:10252F00FA08E2CBF8120487A804A905AA06AB079C
:10253F00D007D006D005D004C3EF9BFFEE9AFEED77
:10254F0099FDEC98FCE42FFFEE3440FEE43DFDE4F2
:10255F003CFC780F1205ECD003D002D001D0001252
:10256F00048778B612061378B6E2FC08E2FD08E29B
:10257F00FE08E2FFC004C005C006C00778B6E2FC43
:10258F0008E2FD08E2FE08E2FF780F1205ECC00436
:10259F00C005C006C00778B6E2FC08E2FD08E2FEFF
:1025AF0008E2FF780F1205ECD003D002D001D00063
:1025BF0012048778071205ECC004A905AA06AB0719
:1025CF0078A3E2FFE4FCFDFED0001204877804122A
:1025DF0005ECA804A905AA06AB07D007D006D005BD
:1025EF00D004C3EF9BFFEE9AFEED99FDEC98FC78BB
:1025FF00B612061378B6E2FCEC335007E4FFFEFD8B
:10260F00FC800D78B6E2FC08E2FD08E2FE08E2FF6E
:10261F0078B6120613E4FFFEFD7C1978B6E2FB08CC
:10262F00E2F908E2FA08E2CBF8D31205B24008E467
:10263F00FFFEFD7C19800D78B6E2FC08E2FD08E292
:10264F00FE08E2FF78B612061378B6E2FC08E2FD48
:10265F0008E2FE08E2FF780C1205EC78B6120613BA
:10266F0078B6E2FC08E2FD08E2FE08E2FFEC120297
:10267F00BC7B0A7AD77923784112021F786712063A
:10268F00137867E2FC08E2FD08E2FE08E2FF12029F
:08269F00FA7885EEF208EFF273
:0126A7002210
:035330000210B1B7
:06531A001210B10223DFB6
:10500800786BE224AA24FD500B24F9600A240B7063
:0B501800090214F902533012531A224F
:08000300786CE2FE08E2FF2226
:0852DE007865E2FE08E2FF2200
:0852E6007885E2FE08E2FF22D8
:05532500786BE2FF229D
:0A448500C10882AC000082AE000006
:0D48D40078B8EBF208EAF208E9F208EDF21C
:1048E1007F8012510BE478BCF278BBE2FF08E2FE54
:1048F100C39F5023EEFF78BAE22FF218E23400F2A0
:1049010018E2FB08E2FA08E2F912037BFF124EA15A
:0A49110078BCE204F280D202526288
:0D48430078B8EBF208EAF208E9F208EDF2AD
:104850007F8112510BE478BCF278BBE2FF08E2C31F
:104860009F5022D201124CBF78B8E2FB08E2FA084E
:10487000E2F978BCE2F582758300EF1203C878BCD8
:0D488000E204F280D4C201124CBF02526269
:104DD20078B4EFF208EBF208EAF208E9F27BFE7A25
:104DE2000079B47D011248D47F1912527178B5E26C
:0C4DF200FB08E2FA08E2F97D02024843E7
:10491B007BFE7A0079B27FF3124DD278B2E2FE08B9
:10492B00E2FDEDFFAC06EC1202C17B527AB8792F97
:10493B007843120116E4FBFA7980784712021F7B49
:10494B00667A66793B78C2120025E4FBFA79C8785F
:07495B00421201160202FAEC
:1049A8007BFE7A0079B27FF5124DD278B2E2FE082A
:1049B800E2FDEDFFAC06E41202C1E4FBFA79FA78F5
:1049C80042120116E4FBFA7980784712021FE4FBD1
:1049D800FA79C078C0120025E4FBFA79C878421247
:0549E80001160202FAB5
:0B52C0007F801250F2B392080252628D
:104FB60012491B7C007D0A12045178ACEEF208EF10
:0C4FC600F21249A878AEEEF208EFF222D9
:0852EE0078ACE2FE08E2FF22A9
:0852F60078AEE2FE08E2FF229F
:03533300A20822AB
:10001E00020366E86480F8E933E83360110460F0A7
:10002E00ED33EC337009E8FCE9FDEAFEEBFF220448
:10003E0060DED3EB9FEA9EE99DE8C2E78CF0C2F743
:10004E0095F0400CE8CCF8E9CDF9EACEFAEBCFFB0F
:10005E0012033185D0F05804700320D5B3E8047034
:10006E00075002B2D502037092D5EC0460F7E4CCCF
:10007E00C0E0C398F8603B94186008400DD0E0FBD8
:10008E00020348E4FBFAC9FC8028E830E406E4C920
:10009E00FBE4CAFCE830E305E4C9CACBFCE854072C
:1000AE006010F8C3E913F9EA13FAEB13FBEC13FC37
:1000BE00D8F130F52FC3E49CFCEF9BFFEE9AFEEDDA
:1000CE0099FDD0E0FBEF4E4D4C701222DB03020384
:1000DE006DEC2CFCEF33FFEE33FEED33FDED30E730
:1000EE00EB020348EF2BFFEE3AFEED39FDD0E0FBBD
:1000FE0050130BBB0003020370ED13FDEE13FEEF66
:08010E0013FFEC13FC0203488F
:10011600EC4D6011E8497017ED33EC3304600DE4E3
:10012600FCFFFEFD22E933E8330470F80203661291
:10013600033158046009E4CC248150062850090292
:10014600037028400302036DC0E0EB4A7044B98097
:1001560006D0E0FB02035CEF4E701CBD8008EBFF8F
:10016600EAFEE9FD80EBE98DF0A4FEE5F00201FF71
:10017600E9CDF9EAFEEBFFEF89F0A4FCE5F0CE89C4
:10018600F0A42EFFE435F0CD89F0A42DFEE435F081
:100196008067EF4E7005BD80D780C3EF8BF0A4ACAF
:1001A600F0EE8BF0A42CFCE435F0F8EF8AF0A42CEA
:1001B600E5F038FCE433CB8DF0A42CFCE5F03BF8FD
:1001C600EE8AF0A42CFCE5F038F8E433CF89F0A4ED
:1001D6002CFCE5F038CF3400CE89F0A42FFFE5F0F3
:1001E6003EFEE433C98DF0A42EFEE5F039CD8AF04B
:1001F600A42FFFE5F03EFEE43DFD33D0E0FB5007C3
:100206000BBB000F020370EC2CFCEF33FFEE33FE4A
:06021600ED33FD02034878
:10021C00020370EC5D046005E85904700302036688
:10022C00120331580460F6EC4860F2EC7004FDFEE9
:10023C00FF22C860DB2481C85009C39860025006B5
:10024C0002036D9850CAF582E9294B4A7005AB82BE
:10025C0002035C75F0007C1A7880C3EF9BEE9AED7C
:10026C0099400DC3EF9BFFEE9AFEED99FDE842F02D
:10027C00DC23ACF0D0E0FFD0E0FED0E0FDAB822080
:10028C00E7101BEB60BAEC2CFCEF33FFEE33FEED0A
:10029C0033FD020348E803F830E705C0F075F000C1
:1002AC00EF2FFFEE33FEED33FD40B830E7C280AAEE
:1002BC0075F020800E75F010800575F0087D007EBD
:1002CC00007F003392D530D5031205A4EC334010D7
:1002DC00EF33FFEE33FEED33FDEC33FCD5F0ED22C6
:0E02EC00E5F0247EA2D513CC92E7CDCEFF2202
:1002FA00EDD2E7CD33EC3392D524814006E4FFFEFC
:10030A00FDFC22FCE4CFCECDCC24E0501174FF805A
:10031A00EDC3CC13CCCD13CDCE13CECF13CF0470F7
:07032A00F030D5DE0205A44E
:10033100E9D2E7C933E833F892D5EDD2E7CD33EC12
:0703410033FC5002B2D5228B
:10034800EC30E7100FBF000C0EBE00080DBD000416
:100358000BEB6014A2D5EB13FCED92E7FD2274FFC2
:10036800FCFDFEFF22E480F8A2D574FF13FC7D801B
:03037800E480EF2F
:103D150002066FE493A3F8E493A34003F68001F24F
:103D250008DFF48029E493A3F85407240CC8C333AF
:103D3500C4540F4420C8834004F456800146F6DF7E
:103D4500E4800B010204081020408090442AE47EA0
:103D5500019360BCA3FF543F30E509541FFEE49373
:103D6500A360010ECF54C025E060A840B8E493A33A
:103D7500FAE493A3F8E493A3C8C582C8CAC583CA65
:103D8500F0A3C8C582C8CAC583CADFE9DEE780BE1D
:01448F00002C
:10037B00BB010689828A83E0225002E722BBFE0280
:09038B00E32289828A83E49322B3
:10039400BB010989828A83F8E028F022500327F7F9
:1003A40022BBFE05F8E328F3228A838982F8E493CA
:0203B4002822FD
:1003B600BB010689828A83F0225002F722BBFE0126
:0203C600F32220
:1003C800F8BB010DE58229F582E5833AF583E8F06B
:1003D800225006E92582C8F622BBFE05E92582C817
:0203E800F222FF
:1003EA00EF8DF0A4A8F0CF8CF0A428CE8DF0A42E27
:0203FA00FE22E1
:1003FC00BC000BBE0029EF8DF084FFADF022E4CCE5
:10040C00F875F008EF2FFFEE33FEEC33FCEE9DECAD
:10041C00984005FCEE9DFE0FD5F0E9E4CEFD22EDF3
:10042C00F8F5F0EE8420D21CFEADF075F008EF2F3D
:10043C00FFED33FD4007985006D5F0F222C398FD2E
:05044C000FD5F0EA22CB
:10045100C2D5EC30E709B2D5E4C39DFDE49CFCEEC6
:1004610030E715B2D5E4C39FFFE49EFE1203FCC33F
:10047100E49DFDE49CFC80031203FC30D507C3E43A
:060481009FFFE49EFE2235
:10048700E88FF0A4CC8BF0A42CFCE98EF0A42CFC14
:100497008AF0EDA42CFCEA8EF0A4CDA8F08BF0A492
:1004A7002DCC3825F0FDE98FF0A42CCD35F0FCEBF1
:1004B7008EF0A4FEA9F0EB8FF0A4CFC5F02ECD39B6
:0F04C700FEE43CFCEAA42DCE35F0FDE43CFC2223
:1004D60075F008758200EF2FFFEE33FECD33CDCCDD
:1004E60033CCC58233C5829BED9AEC99E582984060
:1004F6000CF582EE9BFEED9AFDEC99FC0FD5F0D63D
:10050600E4CEFBE4CDFAE4CCF9A88222B800C1B966
:100516000059BA002DEC8BF084CFCECDFCE5F0CBA4
:10052600F97818EF2FFFEE33FEED33FDEC33FCEBDD
:1005360033FB10D703994004EB99FB0FD8E5E4F998
:10054600FA227818EF2FFFEE33FEED33FDEC33FC85
:10055600C933C910D7059BE99A4007EC9BFCE99A79
:10056600F90FD8E0E4C9FAE4CCFB2275F010EF2FBE
:10057600FFEE33FEED33FDCC33CCC833C810D707BE
:100586009BEC9AE899400AED9BFDEC9AFCE899F8F9
:0E0596000FD5F0DAE4CDFBE4CCFAE4C8F9228C
:104A3100C2D5E830E70FB2D5E4C39BFBE49AFAE4B0
:104A410099F9E498F8EC30E717B2D5124A671205E4
:104A510012E4C39BFBE49AFAE499F9E498F8800321
:104A610012051230D50DE4C39FFFE49EFEE49DFDC7
:044A7100E49CFC22A3
:0E05A400C3E49FFFE49EFEE49DFDE49CFC2268
:1005B200EB9FF5F0EA9E42F0E99D42F0EC6480C8C0
:0605C20064809845F02260
:1005C800EB9FF5F0EA9E42F0E99D42F0E89C45F089
:0105D8002200
:1005D900E8600FECC313FCED13FDEE13FEEF13FF00
:0305E900D8F12224
:1005EC00E86010ECA2E713FCED13FDEE13FEEF1325
:0405FC00FFD8F02212
:10060000E8600FEFC333FFEE33FEED33FDEC33FC58
:03061000D8F122FC
:0C061300ECF208EDF208EEF208EFF22223
:10061F00D083D082E493F208740193F208740293AA
:09062F00F208740393F2740473E1
:10063800F5F0C582A4C582C5F0C583A42583F583DA
:01064800228F
:10064900D083D082F8E4937012740193700DA3A340
:1006590093F8740193F5828883E473740293686054
:06066900EFA3A3A380DF54
:00000001FF
