:03000000023ACFF2
:103ACF0078FFE4F6D8FD9000007F007E03E4F0A3BA
:0A3ADF00DFFCDEFA758121023B24B2
:104E0D00124A8E124AF912510112457E124A55125A
:0B4E1D003FC91250EC782474FFF22211
:104F87003006FD12000EC2AF124A8ED2AFE478127D
:054F9700F2781CF2227B
:105012003006FD12000EC2AF124966D2AFE478121A
:02502200F22278
:1017F30078A27401F2124E0D7F14125047782D74A3
:1018030002F23006FDC2067819E275F00A84E5F0AB
:10181300702E7812E2FF600964026024EF640360B3
:101823001F782DE27014740AF2125143EF60031211
:101833004E281251515003124DF112413C1230B057
:1018430012513178A1EFF2600FE2C3941050047F7C
:101853001480027F2812504778A1E224FE7003020D
:1018630019B824FE70030219BD24F47003021A6C24
:10187300240F6003021AC87833E2640570227812D9
:10188300E2701D740EF2781CE2FF700404F2801003
:10189300EFD39400400AEF94075005781CE204F25A
:1018A3007812E214B410004003021AC89018BD75F0
:1018B300F003A4C58325F0C583730218ED021961F3
:1018C30002196C02197E0219B20219B20219B2028C
:1018D30019980219B202199B0219B20219B202191C
:1018E300B2021AC8021AC80219B27811E2FF24FE22
:1018F300B40E004003021AC890190975F003A4C579
:101903008325F0C5837302193302193F0219450277
:10191300195502195502195502195502195502197B
:101923005502195502195502194B021AC802195BBF
:1019330078247402F27812EFF2021AC8782474063B
:101943008003E4784FF2800AE47812F2781CF20202
:101953001AC87811E2021AB312428D021AC8782407
:10196300E27012124C8E021AC57824E2B4040612F5
:101973004C11021AC5124CB5021AC8784FE2FF7017
:10198300057845E26004EFB409051249DF802012AF
:101993004FEC021AC8124FC57812740FF2781DE289
:1019A3007816F2E4781AF27818743BF2021AC81225
:1019B3005012021AC578A27401F278A1E2B40404A9
:1019C3000874FFF27812E2B40D004003021AC890C3
:1019D30019D9F8282873021A00021A02021A0C02F3
:1019E3001A0C021A16021A20021A34021A48021A90
:1019F30051021A5A021A63021A2A021A3E804678C0
:101A0300A2E2FF124FB1021AC878A2E2FF123BFA18
:101A1300021AC878A2E2FF123EB8021AC878A2E2FC
:101A2300FF124E91021AC878A2E2FF124E43021A25
:101A3300C878A2E2FF124E5D021AC878A2E2FF1232
:101A43004E77021AC878A2E2FF124D4E807778A231
:101A5300E2FF124EAB806E78A2E2FF124EC58065A4
:101A630078A2E2FF124FD9805C7812E2B4100050E2
:101A730054901A7BF8282873021AAB021AB2021A7E
:101A8300C5021AC5021AB8021ABB021ABB021ABB54
:101A9300021ABB021ABB021ABE021ABB021ABB020B
:101AA3001ABB021AC8021ABE78127401F28016E435
:101AB3007812F28010124A55124F87E47815F21209
:101AC3004F871250D67812E2B411004003021B7103
:101AD300901ADAF8282873021B0D021B12021B1737
:101AE300021B1C021B21021B26021B30021B3A0293
:101AF3001B3F021B44021B49021B2B021B35021B0B
:101B03006D021B6D021B51021B651245CD805F12D6
:101B13003A2F805A12361280551237178050121FEF
:101B230058804B124B8C8046123C888041123D14E6
:101B3300803C123DA08037123E2C8032122A7680E0
:101B43002D12505780287815E2FFE4FD8017781591
:101B5300E2D39400400512428D801378127401F28F
:101B6300800CE4FDFF1246FD8004E47812F2781B3A
:101B7300E204F27819E204F2300725781CE2B40893
:101B83001F7819E275F00584E5F07014C3780BE251
:101B930064809480400A08E22401F218E23400F2DF
:101BA300781BE2D394774002E4F27819E2D3943BB2
:101BB3005003021805E4F2780DE204F2781CE27592
:101BC300F003A424CFF582E43427F583E493FE7471
:0B1BD3000193AA06F912066F02180524
:10252400007F7F40407F7F007F7F08087F7F00031C
:102534001F227E7F0300007F7F49497F3600404091
:102544007F7F4040007F7F4848783000003E7F41D5
:10255400416322007F7F4848783000031F227E7F3A
:10256400030000707808087F7F0040407F7F404070
:10257400007F7F49497F3600007F7F40407F7F0096
:1025840040407F7F4040007F7F08087F7F00003EFF
:102594007F414163220060731B0F7C70007F7F4981
:1025A400494F4600007F7F49497F36003E7F4141C5
:1025B4006322007F7F0814636300007C7C40407CBE
:1025C4007C007C7C10107C7C000C3C48787C0C00EB
:1025D400007C7C54547C280040407C7C4040007C3F
:1025E4007C505070200000387C44446C28007C7C73
:1025F40050507020000C3C48787C0C000060701037
:10260400107C7C0040407C7C4040007C7C54547CAA
:102614002800007C7C40407C7C0040407C7C404026
:10262400007C7C10107C7C0000387C44446C2800C6
:1026340064741C187060007C7C54545C4800007CFA
:102644007C54547C2800387C44446C28007C7C10E6
:10265400386C440000607F7F60006F6F007F3F1024
:102664001F103F7F007F7F4949007F7F63361C0036
:102674001F3F6C6C3F1F00607F7F60007F7F494974
:102684003F7F4C7F3F007F7F0303003F7F4C7F3FB2
:10269400007F7F6C6C370000003E41417149493E28
:1026A400000000063A433A06000000007F7F686895
:1026B400003E7F417F3E007F3F180C7E7F00607F9D
:1026C4007F607F7F41633E1C006F6F00327B496FE8
:1026D40026007F7F446C38007F3F101F103F7F002F
:1026E4006F6F007F7F63361C007F7F6C6C387F7F49
:1026F400497F36007F7F6C6C37006F6F003E7F41EF
:102704004D2E0000003E41417149493E0000000049
:1027140000000011117D1111000000000000007F75
:102724007F417F7F007F7F381C7F7F000000000097
:102734000000007F7F417F7F007F7F6C6C007F7F84
:102744006C6C00000000607F7F6000730B7E7C0077
:102754007F7F4C380036007F7F49497F36007F7F7A
:102764004C4E7B3100360000705070003E7F634158
:10277400410000000011117D1111000000607F7FF5
:1027840060006F6F007F3F101F103F7F007F7F6CE2
:102794006C377F413E0032492600224936002345EA
:1027A400390022493600207F007F7F494900637742
:1027B4001C1C7763006F6F0060607F7F60600000A7
:1027C400123455555555555432103C50AF024220E1
:1027D40002422002422005422002422002422005F9
:0527E4004220005093AB
:10442300810A00820BFFFF811200811102810D00BE
:0E443300811C00811500810000810100C18400
:104AF900E4F59375943FF5917592FFF5957596FFD9
:104B0900F5B175B27F7837E27817F2C206A2C7927B
:104B19000512453A780E7401F2087400F20874D649
:024B2900F22276
:0D000E0053B0807590FF75A0FF43803F2226
:1033A4007801E2FEC3940550117817E2FDEEB505ED
:1033B4000312000E7801E204F222E47801F2120012
:1033C4000E20050A18E2FEC374159EFF80047800DF
:1033D400E2FFEFB41600400302347E9033E6F8288F
:1033E400287302342802342C023430023434023478
:1033F4003802343C02344002344402344802344C2F
:1034040002345002345402345802345C02346002F0
:10341400346402346802346C02347002347402344A
:103424007802347CC2908052C291804EC292804A0B
:10343400C2938046C2948042C295803EC296803A2E
:10344400C2978036C2A08032C2A1802EC2A2802A36
:10345400C2A38026C2A48022C2A5801EC2A6801A4E
:10346400C2A78016C2808012C281800EC282800AE6
:10347400C2838006C2848002C28520050CC37415F1
:103484009F2408F8E6F5B0804474082FF8E6FEC4DB
:103494005402FDEEC4131354014DFE74082FF8E6D4
:1034A400FD131354044EFEED54084EFE74082FF819
:1034B400E6FD25E025E054104EFEEDC454204EFEFA
:1034C40074082FF8E6C4333354404EF5B07800E264
:1034D40004F2E2D39415400BE4F2A2C7920520064D
:0334E40002D2060B
:0134E70022C2
:0B50D600E47812F2780DF2781CF22250
:10413C001242F8781DE27068300467C2047845E2D8
:10414C00603908E2FF781FE26F70307847E2FF7841
:10415C001EE2B507267820E27E007BFE2447F9EEAE
:10416C003400FA12037B603A7836E2FF7C007D3C27
:10417C001203EA7829EEF208EFF2227846E2FF33D6
:10418C0095E0FE781FE2D39FEE6480F8748098402F
:10419C0011781EE2700C7832E260077F28025047DB
:0241AC00D2043B
:0141AE0022EE
:0C452E00780EE4F2087400F2087408F241
:10453A007835E224FE601514601C14602314602A86
:10454A00800078137406F20874D9F222781374077B
:10455A00F2087401F22278137407F2087429F2221D
:10456A0078137407F2087451F22278137407F20868
:04457A007479F2223C
:1047D30078A37427F2087496F2E4FFEFC39416509B
:1047E3003478A3E2FC08E2F5828C83E493FE780E2E
:1047F300E2FB08E2FA08E2F9EE1203B60F78A4E24C
:104803002401F218E23400F27810E22401F218E2F3
:054813003400F280C634
:01481800227D
:1044D600781BE2FEC3941E5004E4FF800CEEC394E6
:1044E6005A50047F038002E4FFE4FEEEC3940450B6
:1044F6003675F004EFA42EF582E435F0F583E582F7
:104506002475F582E5833406F583E493FD780EE29F
:10451600FB08E2FA08E2F9ED1203B60EE22401F214
:0745260018E23400F280C42A
:01452D00226B
:10322B007834E224FE60351460501470030232CF00
:10323B001470030233091470030233388000781BB7
:10324B00E2FEC3941E5005E4FF023365EEC3945AAD
:10325B0050057F03023365E4FF023365781BE2FE02
:10326B00C3941E50057F02023365EEC3945A50057A
:10327B007F030233657F02023365781BE2FEC39442
:10328B000A5005E4FF023365EEC3941A50057F0123
:10329B00023365EEC3942C50057F02023365EEC3F7
:1032AB00944E50057F03023365EEC3946050057F47
:1032BB0002023365EEC3947050057F01023365E45F
:1032CB00FF023365781BE2FEC3940C5005E4FF024A
:1032DB003365EEC3942450047F03807EEEC3943C8D
:1032EB0050047F048074EEC3945450047F05806AAD
:1032FB00EEC3946C50047F068060E4FF805C781B07
:10330B00E2FEC3940E5004E4FF804FEEC3942C50A6
:10331B00047F078045EEC3944A50047F03803BEE45
:10332B00C3946850047F088031E4FF802D781BE242
:10333B00FEC3940E5004E4FF8020EEC3942C500483
:10334B007F018016EEC3944A50047F02800CEEC3BB
:10335B00946850047F018002E4FFE4FEEEC3940402
:10336B00503675F004EFA42EF582E435F0F583E5C5
:10337B00822475F582E5833406F583E493FD780E9C
:10338B00E2FB08E2FA08E2F9ED1203B60EE22401C1
:08339B00F218E23400F280C4D4
:0133A3002207
:1034E800E41203B6E22401F218E23400F218E2FB17
:1034F80008E2FA08E2F9E41203B6E22401F218E25B
:083508003400F2E4FBFD7F1426
:0A35100078A7EFF208EDF208EBF2E5
:10351A00E408F278AAE2FDC39404506B78A8E2703A
:10352A004608E2600C78A7E275F00A84D39400405A
:10353A003678A7E275F00A8475F004A47C002DFFA2
:10354A00EC35F0FE7814E22FFF18E23EFE78ABF27B
:10355A0008EFF2F5828E83E493FF780EE2FB08E22D
:10356A00FA08E2F9EF800B780EE2FB08E2FA08E2C9
:10357A00F9E41203B678AAE204F27810E22401F21E
:10358A0018E23400F2808C780EE2FB08E2FA08E2D4
:10359A00F9E41203B6E22401F218E23400F2E47804
:1035AA00AAF278AAE2FDC39404505C78A8E27037C4
:1035BA0018E275F00A84E5F075F004A47C002DFF8A
:1035CA00EC35F0FE7814E22FFF18E23EFE78ABF2FB
:1035DA0008EFF2F5828E83E493FF780EE2FB08E2AD
:1035EA00FA08E2F9EF800B780EE2FB08E2FA08E249
:1035FA00F9E41203B678AAE204F27810E22401F29E
:07360A0018E23400F2809B7E
:013611002296
:104C6600781FE2FDD39418500618E2943C400302E4
:104C760047D3AF05E4FBFD12351012322B781EE246
:084C8600FFE4FBFD12351022D2
:1048A2007B007A007908780EEBF208EAF208E9F266
:1048B2001234E8780EE2FB08E2FA08E2F9E41203A5
:1048C200B6E22401F218E23400F27823E2FFE4FBBC
:1048D200FD123510780EE2FB08E2FA08E2F9E40272
:0248E20003B61B
:10461B007822E2D3940C500718E2FD942040030259
:10462B0047D3AF05E4FBFD123510E4FFEFC3940451
:10463B005020EF90067993FE780EE2FB08E2FA0821
:10464B00E2F9EE1203B60FE22401F218E23400F2A3
:0C465B0080DA7822E2FFE4FBFD1235104B
:014667002230
:1038BE007820E214B4070050709038D575F003A448
:1038CE00C58325F0C583730238EA0238F502390044
:1038DE0002390B02391602392102392C78A37425CC
:1038EE00F2087424F2804B78A37425F208743AF22D
:1038FE00804078A37425F2087450F2803578A37452
:10390E0025F2087466F2802A78A37425F208747C76
:10391E00F2801F78A37425F2087492F2801478A3B3
:10392E007425F20874A8F2800978A37427F208743B
:10393E0096F2E4FFEFC39416503478A3E2FC08E24B
:10394E00F5828C83E493FE780EE2FB08E2FA08E23D
:10395E00F9EE1203B60F78A4E22401F218E2340055
:0E396E00F27810E22401F218E23400F280C672
:01397C002228
:104F4300781EE2FFE4FBFD1235101244D6781DE211
:074F5300FFE4FBFD02351035
:1013F000E478A6F208F2125151500F12511A7C00F3
:101400007D0A1203EA78A6EE8021125143EF600FA5
:101410001200037C007D0A1203EA78A6EE800C78A5
:1014200025E275F064A4FF78A6E5F0F208EFF27803
:1014300042E2FF3395E0FE78A7E22FF218E23EF297
:10144000E418F278A5E2FFC39405500D74022FF85A
:10145000E4F278A5E204F280EA78A57404F2D37885
:10146000A7E2940018E264809480500618E2940089
:10147000403278A6E2FA08E2FB7C007D0AFFAE0269
:1014800012045178A5E22402F8EDF278A5E214F2F4
:101490007C007D0AAF03AE0212045178A6EEF2087A
:1014A000EFF280BA7802E2600302161678A5F278AD
:1014B000A5E2FDC3940450457803E275F004A47CD2
:1014C000002DFFEC35F0FE7814E22FFF18E23EFE0F
:1014D00078A3F208EFF2F5828E83E493FF780EE2B0
:1014E000FB08E2FA08E2F9EF1203B678A5E204F28B
:1014F0007810E22401F218E23400F280B2780EE2B1
:10150000FB08E2FA08E2F9E41203B6E22401F21859
:10151000E23400F2E478A5F278A5E2FDC394045029
:10152000457804E275F004A47C002DFFEC35F0FE54
:101530007814E22FFF18E23EFE78A3F208EFF2F5EE
:10154000828E83E493FF780EE2FB08E2FA08E2F968
:10155000EF1203B678A5E204F27810E22401F21843
:10156000E23400F280B2780EE2FB08E2FA08E2F917
:10157000E41203B6E22401F218E23400F218E2FBAE
:1015800008E2FA08E2F974031203B6E22401F21841
:10159000E23400F218E2FB08E2FA08E2F9740312FE
:1015A00003B6E22401F218E23400F218E2FB08E28A
:1015B000FA08E2F9E41203B6E22401F218E2340078
:1015C000F2E478A5F278A5E2FDC394044003021783
:1015D000687805E275F004A47C002DFFEC35F0FE80
:1015E0007814E22FFF18E23EFE78A3F208EFF2F53E
:1015F000828E83E493FF780EE2FB08E2FA08E2F9B8
:10160000EF1203B678A5E204F27810E22401F21892
:10161000E23400F280AF780EE2FB08E2FA08E2F969
:10162000E41203B6E22401F218E23400F2E478A5F1
:10163000F278A5E2FDC3940450457802E275F00407
:10164000A47C002DFFEC35F0FE7814E22FFF18E2A9
:101650003EFE78A3F208EFF2F5828E83E493FF78E2
:101660000EE2FB08E2FA08E2F9EF1203B678A5E20F
:1016700004F27810E22401F218E23400F280B27829
:101680000EE2FB08E2FA08E2F9E41203B6E22401F2
:10169000F218E23400F2E478A5F278A5E2FDC394F2
:1016A0000450457803E275F004A47C002DFFEC356E
:1016B000F0FE7814E22FFF18E23EFE78A3F208EF66
:1016C000F2F5828E83E493FF780EE2FB08E2FA08DB
:1016D000E2F9EF1203B678A5E204F27810E22401F1
:1016E000F218E23400F280B2780EE2FB08E2FA0867
:1016F000E2F9E41203B6E22401F218E23400F2E463
:1017000078A5F278A5E2FDC3940450457804E2750B
:10171000F004A47C002DFFEC35F0FE7814E22FFFDE
:1017200018E23EFE78A3F208EFF2F5828E83E4938E
:10173000FF780EE2FB08E2FA08E2F9EF1203B6784E
:10174000A5E204F27810E22401F218E23400F280FB
:10175000B2780EE2FB08E2FA08E2F9E41203B6E21C
:101760002401F218E23400F2780EE2FB08E2FA08F3
:10177000E2F9E41203B6E22401F218E23400F218AE
:10178000E2FB08E2FA08E2F9743E1203B6E2240131
:10179000F218E23400F218E2FB08E2FA08E2F97407
:1017A000411203B6E22401F218E23400F218E2FB1F
:1017B00008E2FA08E2F974411203B6E22401F218D1
:1017C000E23400F218E2FB08E2FA08E2F97441128E
:1017D00003B6E22401F218E23400F218E2FB08E258
:1017E000FA08E2F974221203B6E22401F218E23494
:0217F00000F205
:0117F20022D4
:102CE300E478A4F208F20812061F00000000125153
:102CF3000AAC06AD07EC1202C178A6120613E4FB78
:102D0300FA79207841C00078A6E2FC08E2FD08E2E7
:102D1300FE08E2FFD00012021F7B5C7A8F790278F3
:102D23003F12002578A612061378A6E2FC08E2FDFE
:102D330008E2FE08E2FF1202FA78A4EEF208EFF2CC
:102D4300780EE2FB08E2FA08E2F9E41203B6E224A1
:102D530001F218E23400F218E2FB08E2FA08E2F9A1
:102D6300E41203B6E22401F218E23400F2E478A399
:102D7300F278A3E2FFC3648094855055EFFB33954B
:102D8300E0FA08E2FE08E2FF7C007D641204518F42
:102D9300828E837405120638E5822BF582E5833A29
:102DA300F583E5822499F582E5833406F583E4937C
:102DB300FF780EE2FB08E2FA08E2F9EF1203B678B5
:102DC300A3E204F27810E22401F218E23400F28064
:102DD300A0780EE2FB08E2FA08E2F9E41203B6E295
:102DE3002401F218E23400F2E478A3F278A3E2FFBC
:102DF300C364809485505CEFFB3395E0FA08E2FEF0
:102E030008E2FF7C007D0A1204517C007D0A120453
:102E1300518D828C837405120638E5822BF582E589
:102E2300833AF583E5822499F582E5833406F583B5
:102E3300E493FF780EE2FB08E2FA08E2F9EF1203EB
:102E4300B678A3E204F27810E22401F218E2340027
:102E5300F28099780EE2FB08E2FA08E2F9E4120341
:102E6300B6E22401F218E23400F2E478A3F278A384
:102E7300E2FFC3648094855055EFFB3395E0FA0875
:102E8300E2FE08E2FF7C007D0A1204518D828C83EE
:102E93007405120638E5822BF582E5833AF583E55E
:102EA300822499F582E5833406F583E493FF780E53
:102EB300E2FB08E2FA08E2F9EF1203B678A3E204B0
:102EC300F27810E22401F218E23400F280A0780EC6
:102ED300E2FB08E2FA08E2F9E41203B6E22401F2A3
:102EE30018E23400F218E2FB08E2FA08E2F9E4120D
:102EF30003B6E22401F218E23400F218E2FB08E21E
:102F0300FA08E2F9E41203B6E22401F218E234000B
:012F1300F2CB
:012F1400229A
:1027E900E478A4F208F20812061F00000000125152
:1027F9005150051251228009125143BF600A1251EA
:102809001278A4EEF208EFF278A4E2FC08E2FDE403
:102819001202C178A6120613E4FBFA79C87842C0FD
:102829000078A6E2FC08E2FD08E2FE08E2FFD0001B
:1028390012021F7B5C7A8F7902783F12002578A6F5
:1028490012061378A6E2FC08E2FD08E2FE08E2FFA0
:102859001202FA78A4EEF208EFF2780EE2FB08E22F
:10286900FA08E2F9E41203B6E22401F218E23400AC
:10287900F218E2FB08E2FA08E2F9E41203B6E224EC
:1028890001F218E23400F2D3EF9409EE94004067A4
:10289900E478A3F278A3E2FFC3648094854003023D
:1028A900292EEFFB3395E0FA08E2FE08E2FF7C00EF
:1028B9007D0A1203FC8F828E837405120638E58225
:1028C9002BF582E5833AF583E5822499F582E58340
:1028D9003406F583E493FF780EE2FB08E2FA08E296
:1028E900F9EF1203B678A3E204F27810E22401F2B8
:1028F90018E23400F2809DE478A3F278A3E2C3647D
:102909008094855020780EE2FB08E2FA08E2F9E4A7
:102919001203B678A3E204F27810E22401F218E275
:102929003400F280D6780EE2FB08E2FA08E2F9E414
:102939001203B6E22401F218E23400F2E478A3F2B9
:1029490078A3E2FFC3648094855055EFFB3395E08B
:10295900FA08E2FE08E2FF7C007D0A1203FC8D8280
:102969008C837405120638E5822BF582E5833AF5E6
:1029790083E5822499F582E5833406F583E493FFA0
:10298900780EE2FB08E2FA08E2F9EF1203B678A33F
:10299900E204F27810E22401F218E23400F280A095
:1029A900780EE2FB08E2FA08E2F9E41203B6E2243F
:1029B90001F218E23400F218E2FB08E2FA08E2F93F
:1029C900E41203B6E22401F218E23400F218E2FB41
:1029D90008E2FA08E2F974621203B6E22401F21875
:1029E900E23400F218E2FB08E2FA08E2F974641230
:1029F90003B6E22401F218E23400F218E2FB08E21D
:102A0900FA08E2F974081203B6E22401F218E23472
:102A190000F218E2FB08E2FA08E2F974131203B6AD
:102A2900E22401F218E23400F218E2FB08E2FA08A3
:102A3900E2F974231203B6E22401F218E23400F237
:102A490018E2FB08E2FA08E2F9E41203B6E224010B
:102A5900F218E23400F218E2FB08E2FA08E2F9E4BB
:0C2A69001203B6E22401F218E23400F27D
:012A7500223E
:104B5D00781FE2FFC3941850257837E26406701E63
:104B6D00EF781F30E009E2C3139027C2938008E26B
:0F4B7D00C3139027C293C4540FFF7817EFF2228F
:1045CD0012452E124B5D781CE2B40900503C90450B
:1045DD00E2F82828730245FD0245FF024602024615
:1045ED000502460802460B02460E0246110246140B
:1045FD0080180248A202461B0238BE024F43021326
:0E460D00F0022CE30227E902404D124C662217
:104AC600ED12039412037BFF78A8E2D36480F8EF1B
:104AD600648098400678A7E21203B612037BFF783B
:104AE600A7E2C36480F8EF648098500678A8E212C3
:034AF60003B622E2
:104FB1007BFE7A007911AD0778A77402F208740DAF
:044FC100F2024AC6E8
:103A2F007811E224FEB40C005078903A4775F003F9
:103A3F00A4C58325F0C58373023A6B023A71023A2B
:103A4F0077023A7D023A89023A95023A9B023AA1ED
:103A5F00023AA7023A83023A8F023AAD7E267F5886
:103A6F0080407E267F6E803A7E267F8480347E263D
:103A7F007F9A802E7E267FB080287E267FC680226A
:103A8F007E267FDC801C7E267FF280167E277F08B5
:103A9F0080107E277F6A800A7E277F8080047E27A2
:103AAF007FACE4FDEDC3941650158F828E83E493A3
:0F3ABF00FC74082DF8A6040D0FBF00010E80E562
:013ACE0022D5
:1036120012452E7819E2FFC3940F5004C200800CA9
:10362200EFC3942D5004D2008002C2007824E270CD
:103632007678A3F278A3E2C394095020780EE2FBD5
:1036420008E2FA08E2F9E41203B678A3E204F27897
:1036520010E22401F218E23400F280D8E478A3F2F6
:1036620078A3E2FFC394045026EF90068193FF787B
:103672000EE2FB08E2FA08E2F9EF1203B678A3E2DF
:1036820004F27810E22401F218E23400F280D178D8
:103692001DE2FF7824E2FE700A300003EE60047D32
:1036A20001806C7D008068781FE2FF7824E2FEB41E
:1036B200020B300004640260047D0180027D00E49C
:1036C200FB123510E478A3F278A3E2FFC39404500E
:1036D20026EF90068193FF780EE2FB08E2FA08E2F9
:1036E200F9EF1203B678A3E204F27810E22401F2B1
:1036F20018E23400F280D1781EE2FF7824E2FEB4B0
:10370200010B300004640160047D0180027D00E44D
:04371200FB12351061
:013716002290
:1037170012452E7819E2FFC3940F5004C200800CA3
:10372700EFC3942D5004D2008002C2007824E264D3
:10373700067058780EE2FB08E2FA08E2F91234E85C
:10374700780EE2FB08E2FA08E2F9E41203B6E22493
:1037570001F218E23400F27823E2FF08E2FEB40631
:103767000B300004640660047D0180027D00E4FBE9
:10377700123510780EE2FB08E2FA08E2F9E41203C8
:10378700B6E22401F218E23400F2227821E2FF784F
:1037970024E2FEB4040B300004640460047D01805D
:1037A700027D007B01123510E4FFEFC39404502023
:1037B700EF90067993FE780EE2FB08E2FA08E2F949
:1037C700EE1203B60FE22401F218E23400F280DAB7
:1037D7007822E2FF7824E2FEB4050B30000464058A
:0D37E70060047D0180027D00E4FB123510BE
:0137F40022B2
:101F580012452E784FE2FF704C7845E278A560096B
:101F68007427F208741EF280077427F2087434F29A
:101F7800E478A3F278A3E2FEC39416400302225A3F
:101F880078A5E2FC08E2F5828C83E493FD74082EC0
:101F9800F8A60578A3E204F278A6E22401F218E292
:101FA8003400F280CFEF6401600A784FE264026087
:101FB800030220427819E2FFC3940F5004C2008044
:101FC8000CEFC3942D5004D2008002C2007846E280
:101FD800FF784FE2FEB4010B300004640160047D19
:101FE8000180027D00E4FB123510E478A3F278A3A7
:101FF800E2FFC394045026EF90068193FF780EE227
:10200800FB08E2FA08E2F9EF1203B678A3E204F259
:102018007810E22401F218E23400F280D17847E225
:10202800FF784FE2FEB4020B300004640260047DC6
:102038000180027D00E4FB0235107819E2FFC394A9
:102048001B5004C200800CEFC394215004D20080BE
:1020580002C200784FE224FDB40700506E9020734E
:1020680075F003A4C58325F0C58373022088022078
:102078009302209E0220A90220B40220BF0220CA97
:1020880078A57425F20874BEF2804078A57425F20C
:102098000874D4F2803578A57425F20874EAF280C1
:1020A8002A78A57426F2087400F2801F78A5742691
:1020B800F2087416F2801478A57426F208742CF2CB
:1020C800800978A57426F2087442F2E478A3F278BD
:1020D800A3E2FFC39416400302225AE408F2EF1267
:1020E80006492118012118022145042145052172BC
:1020F80007217208219F0A219F0B21C20D21C20EC0
:1021080021E51021E5112208132208140000222CD1
:10211800784FE2FF640360057848E2704AEF640391
:10212800600302222C7848E2FF6003300039EF6038
:102138000302222C20000302222C022227784FE2DD
:10214800FF640460057849E2701DEF6404600302CF
:10215800222C7849E2FF600330000CEF6003022272
:102168002C20000302222C022227784FE2FF64056C
:102178006005784AE2701DEF6405600302222C783E
:102188004AE2FF600330000CEF600302222C2000BB
:102198000302222C022227784FE2FF6406600578AA
:1021A8004BE27014EF6406707B784BE2FF600330FB
:1021B8000006EF706F30006C8065784FE2FF6407AF
:1021C8006005784CE27014EF64077058784CE2FFB1
:1021D8006003300006EF704C3000498042784FE2CF
:1021E800FF64086005784DE27014EF640870357874
:1021F8004DE2FF6003300006EF7029300026801F93
:10220800784FE2FF6409600418E27013EFB4091410
:10221800784EE2FF6003300006EF70083000057862
:10222800A47401F278A5E2FE08E2F5828E83E493B5
:10223800FF78A4E2FEEF4EFF18E22408F8A607781C
:10224800A3E204F278A6E22401F218E23400F202D2
:0222580020D78D
:01225A002261
:104E43007BFE7A007935AD079049BBE49378A7F2EE
:0A4E53009049CFE49308F2024AC62A
:103C8800780EE4F2087400F2087408F2E4FFEFC357
:103C980094105020EF90274A93FE780EE2FB08E23A
:103CA800FA08E2F9EE1203B60FE22401F218E23440
:103CB80000F280DA780EE2FB08E2FA08E2F9E41290
:103CC80003B6E22401F218E23400F2E4FFEFC394F1
:103CD8000550387835E275F005A42FF582E435F003
:103CE800F583E5822499F582E5833406F583E49328
:103CF800FE780EE2FB08E2FA08E2F9EE1203B60FCC
:0B3D0800E22401F218E23400F280C255
:013D1300228D
:104E5D007BFE7A007933AD079049B9E49378A7F2D8
:0A4E6D009049CDE49308F2024AC612
:103D1400780EE4F2087400F2087408F2E4FFEFC3CA
:103D240094105020EF90274A93FE780EE2FB08E2AD
:103D3400FA08E2F9EE1203B60FE22401F218E234B3
:103D440000F280DA780EE2FB08E2FA08E2F9E41203
:103D540003B6E22401F218E23400F2E4FFEFC39464
:103D64000550387833E275F005A42FF582E435F078
:103D7400F583E5822499F582E5833406F583E4939B
:103D8400FE780EE2FB08E2FA08E2F9EE1203B60F3F
:0B3D9400E22401F218E23400F280C2C9
:013D9F002201
:104E77007BFE7A007934AD079049BAE49378A7F2BC
:0A4E87009049CEE49308F2024AC6F7
:103DA000780EE4F2087400F2087408F2E4FFEFC33E
:103DB00094105020EF90274A93FE780EE2FB08E221
:103DC000FA08E2F9EE1203B60FE22401F218E23427
:103DD00000F280DA780EE2FB08E2FA08E2F9E41277
:103DE00003B6E22401F218E23400F2E4FFEFC394D8
:103DF0000550387834E275F005A42FF582E435F0EB
:103E0000F583E5822499F582E5833406F583E4930E
:103E1000FE780EE2FB08E2FA08E2F9EE1203B60FB2
:0B3E2000E22401F218E23400F280C23C
:013E2B002274
:104D4E007BFE7A007937AD079049BDE49378A7F2E0
:104D5E009049D1E49308F2124AC67837E27817F2F6
:034D6E00024B5D98
:103E2C00780EE4F2087400F2087408F2E4FFEFC3B1
:103E3C0094105020EF90275A93FE780EE2FB08E284
:103E4C00FA08E2F9EE1203B60FE22401F218E2349A
:103E5C0000F280DA780EE2FB08E2FA08E2F9E412EA
:103E6C0003B6E22401F218E23400F2E4FFEFC3944B
:103E7C000550387837E275F005A42FF582E435F05B
:103E8C00F583E5822499F582E5833406F583E49382
:103E9C00FE780EE2FB08E2FA08E2F9EE1203B60F26
:0B3EAC00E22401F218E23400F280C2B0
:013EB70022E8
:104E91007BFE7A007932AD079049B8E49378A7F2A6
:0A4EA1009049CCE49308F2024AC6DF
:104B8C007832E260067E277F1E80047E277F34E425
:104B9C00FDEDC3941650158F828E83E493FC74083C
:0C4BAC002DF8A6040D0FBF00010E80E5DF
:014BB80022DA
:104EAB007BFE7A007943AD079049C9E49378A7F26A
:0A4EBB009049DDE49308F2024AC6B4
:102A7600780EE4F2087400F2087408F27843E2FF74
:102A8600C36480948040028001D39200300005EF39
:102A9600F40480037843E278A6F2E478A5F278A5F8
:102AA600E2FFC364809483500D74072FF8E4F27834
:102AB600A5E204F280E878A57402F278A6E2D3943F
:102AC60000500818E264809480401E78A6E2FF75E4
:102AD600F00A8418E22407F8E5F0F278A5E214F289
:102AE600EF75F00A8408F280D278A67403F220000B
:102AF60004E22405F27807E2701178A6E22405F2D2
:102B06007808E2700678A6E22405F2E478A5F27861
:102B1600A6E2FF18E2FD3395E0FCC3ED9F7480F852
:102B26006C985020780EE2FB08E2FA08E2F9E4120B
:102B360003B678A5E204F27810E22401F218E23432
:102B460000F280CB300046E478A5F278A5E2C364B3
:102B56008094845021780EE2FB08E2FA08E2F974C8
:102B6600081203B678A5E204F27810E22401F218FE
:102B7600E23400F280D5780EE2FB08E2FA08E2F9C8
:102B8600E41203B6E22401F218E23400F27807E216
:102B9600D394004070E478A5F278A5E2FDC3648082
:102BA6009484504A7807E275F004A4FFED3395E06B
:102BB600FCEF2DFFE5F03CFE7814E22FFF18E23E15
:102BC600FE78A3F208EFF2F5828E83E493FF780E87
:102BD600E2FB08E2FA08E2F9EF1203B678A5E2048E
:102BE600F27810E22401F218E23400F280AB780E9B
:102BF600E2FB08E2FA08E2F9E41203B6E22401F283
:102C060018E23400F27807E2D39400500608E29402
:102C1600004070E478A5F278A5E2FDC36480948450
:102C2600504A7808E275F004A4FFED3395E0FCEF16
:102C36002DFFE5F03CFE7814E22FFF18E23EFE7809
:102C4600A3F208EFF2F5828E83E493FF780EE2FB9F
:102C560008E2FA08E2F9EF1203B678A5E204F27880
:102C660010E22401F218E23400F280AB780EE2FBA7
:102C760008E2FA08E2F9E41203B6E22401F218E2E5
:102C86003400F2E478A5F278A5E2FDC3648094846A
:102C9600504A7809E275F004A4FFED3395E0FCEFA5
:102CA6002DFFE5F03CFE7814E22FFF18E23EFE7899
:102CB600A3F208EFF2F5828E83E493FF780EE2FB2F
:102CC60008E2FA08E2F9EF1203B678A5E204F27810
:0C2CD60010E22401F218E23400F280AB9E
:012CE20022CF
:104EC5007BFE7A007942AD079049C8E49378A7F252
:0A4ED5009049DCE49308F2024AC69B
:0F505700780EE4F2087400F2087408F20213F005
:104FD9007BFE7A007915AD07E478A7F2087463F2CD
:034FE900024AC6B3
:10428D007816E2FF781DE2FEC39FC39401401478B7
:10429D0015E29401400D08EEF2781AE204F2781856
:1042AD00E214F27815E214FF7818E2FD1246FD785B
:1042BD001AE2B43C12E4F27818743BF27815E2C3BA
:1042CD0094014003E214F27815E2701EFDFF1246D0
:1042DD00FD7836E2FF7E007C007D3C1203EA7829F2
:0B42ED00EEF208EFF278127410F222DB
:0446FD0078A3EDF2BF
:10470100780EE4F2087400F2087408F2E4FBFD127A
:104711003510E4FFEFC394045020EF90068193FE1F
:10472100780EE2FB08E2FA08E2F9EE1203B60FE2B4
:104731002401F218E23400F280DA78A3E2FFE4FB0C
:04474100FD02351030
:10422000781CE275F003A424CEF582E43427F583EC
:10423000E493FF780DE2D39F4052781CE204F2E44D
:10424000780DF2781CE2D394094002E4F2781CE283
:10425000B4060B125143EF7005781C7407F2781CFA
:10426000E2B40712125143EF6460600A12515140E8
:1042700005781C7408F2781CE2B40810E4300702D8
:0D4280008005781CF274FF780BF208F22222
:0D50AF007833E2B40504E4780DF2024220EB
:0E509300C3780BE26480948050031242202206
:10404D00780BE2FE08E2FF24EA78A4F2EE34FF18C2
:10405D00F2780AE22416FDE433FCD3EF9DEC648084
:10406D00F8EE648098400E74FF780BF208F2E47855
:10407D001CF2780DF2E4FFEFFD78A4E22DFD18E2BD
:10408D003400FCC3648094804025780AE2FBED9BEC
:10409D007480F86C98501878A308E22F24D6F58216
:1040AD00E43400F583E0FE74082FF8A6068006744C
:0A40BD00082FF8E4F60FEFB416BD6B
:0140C70022D6
:104EDF00780AE2C394FE5010E2FE04F274D62EF567
:094EEF0082E43400F583EFF022A7
:0441AF0078A4EFF20F
:1041B300E4780AF278A5F278A4E214FF08E2C39F38
:1041C300505A12037BFDC394A0400674C02DFD809A
:1041D3000EEDC39420400674E02DFD80027D1FE4A4
:1041E300FC75F005EDA42CF582E435F0F583E5824A
:1041F30024A1F582E5833407F583E493FF64A56086
:1042030003124EDF0CECB405D8E4FF124EDF78A5A1
:0C421300E204F2740129F9E43AFA809BFD
:01421F00227C
:100675000000000000080800001C1C0000363600C1
:10068500002436000024240000240000003030003F
:10069500000606007F7F417F7F00007F7F000F4FB0
:1006A5004979794149497F7F7878087F7F79794908
:1006B5004F0F7F7F494F0F4040407F7F7F7F497FAE
:1006C5007F7879497F7F3040454830705070003ED3
:1006D5007F6341417F41417F00007F004F49497958
:1006E5004949497F7808087F7949494F7F49494FEA
:1006F5004040407F7F49497F7949497F3E41413E9E
:1007050000217F0123454931425169460C14247F5C
:100715007251514E1E294906404F5060364949369F
:1007250030494A3C7E41413F00407F000F494939ED
:100735004949493E7C04041F7849490F7F494907C7
:100745006040403F7E49493F7849493F7F63637F29
:1007550000607F006F6B6B7B6B6B6B7F7878087FBE
:100765007B7B4B4F7F7F494F40407F7F7F6B6B7F0C
:100775007B6B6B7F007F417F00007F00004F4979D5
:100785000049497F0078087F0079494F007F494F2C
:100795000040407F007F497F0079497F00000000CD
:1007A500A57DA5A5A5A5700070A5A5147F147F142A
:1007B500122A7F2A246264081323364955220550DC
:1007C50060A5A5A51C2241A5A541221CA5A5140827
:1007D5003E081408083E08080506A5A5A504040456
:1007E50004A501A5A5A5A502040810203E41413E8A
:1007F500A500217F01A521434539A522414936A5FB
:100805000C14247FA57251514EA53E494926A54099
:10081500474870A536494936A53249493EA512A52E
:10082500A5A5A50112A5A5A508142241A514141472
:10083500141441221408A520404548303E415D5519
:100845003C1F2444241F7F494949363E41414122EA
:100855007F4141221C7F494949417F484848403EE4
:100865004149492F7F0808087F417F41A5A502011D
:10087500417E407F081422417F010101A57F201898
:10088500207F7F1008047F3E4141413E7F48484814
:10089500303E4145423D7F484C4A3132494949261F
:1008A50040407F40407E0101017E700C030C707E4C
:1008B500010E017E63140814637008070870434530
:1008C5004951617F4141A5A50C123F120441417F69
:1008D500A5A5102040201001010101014020A5A57A
:1008E500A5021515150F7F0911110E0E1111110213
:1008F5000E1111097F0E1515150C083F48402018DB
:100905002525253E7F0810100F115F01A5A50201C1
:10091500115EA57F040A11A5417F01A5A51F100C35
:10092500100F1F08100FA50E1111110E3F242222C2
:100935001C1C2222243F1F081008A50815151502A6
:10094500107E1101021E0101021F18060106181E64
:100955000106011E110A040A11180505051E1113C9
:10096500151911083641A5A57FA5A5A5A5413608E8
:10097500A5A508100810A5A5A5A5A5A5021E3F1E9D
:10098500023049294936184525451E0201417E4058
:100995002A1C771C2A3F202020607F7F7F7F7F7F56
:1009A5007F7F7F7F3F692969217F7F7F7F7F3E49E9
:1009B50049412208142A14227F7F7F7F7F1E292721
:1009C500211E7F7F7F7F7F413F41A5A5003048489D
:1009D5003009097D0909417F41A5A5115F01A5A53B
:1009E5001F101058A57F7F7F7F7F7F7F7F7F7F7F51
:1009F5007F7F7F7F0E5515550C7F7F7F7F7F0E157F
:100A050015110A22142A14087F7F7F7F7F7F7F7F3D
:100A15007F7F7F7F7F7F7F511F51A5A53F44444442
:100A25003F7F494949467F494949367F40404060B3
:100A3500033E427E037F4949494177087F08774154
:100A4500494949367F0408107F3F0264083F7F0803
:100A5500142241011E20407F7F2018207F7F080837
:100A6500087F3E4141413E7F4040407F7F484848A6
:100A7500303E4141412240407F4040700909097E96
:100A85003C42FF423C63140814637F01017F0170FF
:100A95000808087F7F017F017F7E027E027F407FFD
:100AA5000909067F0906007F7F0911110E224149B8
:100AB500493E7F083E413E314A4C487F0215151597
:100AC5000F1E292949061F15150AA51F101018A55F
:100AD500030E121E030E1515150C1B041F041B1106
:100AE50015150AA51F0204081F1F4224481F1F04CD
:100AF5000A11A50708101FA51F0804081F1F0404D5
:100B05001FA50E1111110E1F10101FA51F14121273
:100B15000C0E1111110210101F1010180505051EDD
:100B25000C129F120C110A040A111F01011F011852
:100B350004041FA51F011F011F1E021E021F101FF7
:100B45000505021F0502001F1F050502A50A11154F
:0C0B5500150E1F040E110E081516141FBB
:104C3C0000000001010100FF003B3B17071F0C6344
:104C4C00FF630000001F003B005A0078009700B57E
:0A4C5C0000D400F301110130014EF5
:104363007822E2FFD3940240047E0080027E01782B
:1043730023E2240CC39EFDEE75F00CA42F24FEF95A
:10438300EDFF7821E22FFFE433FEED1313543F7C5E
:10439300002FFBEC3EFAE975F01FA4FFAEF07D0C95
:1043A3001203FCEF2BFFEE3ACF24FFCF34FFFE7C4A
:1043B300007D071203FCAF057820EFF2700374074A
:0143C300F207
:0143C40022D6
:104D94007822E2FFB4020F08E2540360047E1D800F
:104DA400027E1CAF0622EFD3940740010FEF441E8E
:014DB400FFFF
:014DB50022DB
:10457E007FD0124F117F0A124CDC7F81124CDC125D
:10458E0050757FD0124F117F0D124CDC7F81124C73
:10459E00DC7F04124CDCE4FF124CDC7843E2FF12A9
:1045AE004CDC1250751242F87820E278A3F21243D6
:0E45BE00637820E2FF78A3E26F6003124C11D5
:0145CC0022CC
:104C8E007FD0124F11E4FF124CDCE478A3F278A32C
:104C9E00E2FFD39402500D124D71124CDC78A3E258
:074CAE0004F280EA025075D8
:104C11001243637FD0124F117F03124CDC78A474CE
:104C210003F278A4E2FFD39406500D124D71124C99
:0B4C3100DC78A4E204F280EA02507577
:104FC5007FD0124F117F10124CDC7843E2FF124C58
:044FD500DC02507535
:1042F8007FD0124F11E4FF124CDC1250757FD1129F
:104308004F11E478A4F278A4E2FFD39406502BEF7F
:10431800B40603C38001D39201124B2B78A5EFF2A8
:1043280012506678A4E27C007BFE241DF9EC340070
:10433800FAEF1203B6E204F280CC1250757FD01265
:104348004F117F11124CDC1250757FD1124F11C2E0
:0B43580001124B2B7825EFF20250758C
:043BFA0078A3EFF2CB
:103BFE007824E2FFFD7C00241DF9EC3400FA78A451
:103C0E0074FEF208EAF208E9F27BFF74452DF9EC36
:103C1E00344CFA12037BFEEF243CF9EC344CFA12CE
:103C2E00037BFD7824E2B40405124D94AE0778A30D
:103C3E00E2FF08E2FB08E2FA08E2F9EF12039478D9
:103C4E00A4E2FB08E2FA08E2F912037BFFD3EE646A
:103C5E0080F8EF6480984004ED1203B678A4E2FB7E
:103C6E0008E2FA08E2F912037BFFC3ED6480F8EF75
:093C7E006480985004EE1203B6B4
:013C8700221A
:104CB5007824E2601024FE600A24FE24FD500424BA
:104CC50006700E800678247404F2227824E214F229
:074CD5002278247402F22290
:104A1B007822E2FF25E0244CF582E4344CF5831830
:104A2B00E2FD7401932DFDE4933400FC7823E254F2
:104A3B0003700CEFD3940240067E007F0180047E4E
:0A4A4B00007F00ED2FFFEC3EFE227D
:0F506600EFC4540F75F00AA4FEEF540F2EFF2273
:104D71007E007BFE741D2FF9EE3400FA12037BFFD7
:104D8100EF75F00A84C454F0FEEF75F00A84E5F083
:034D91002EFF22D0
:1050360012513ED2C112513EA2C29203C2C1A20374
:015046002247
:07512A00A20292C2025036FE
:104EF80078A3EFF2D2C1D2C212513EC2C212513EC1
:094F0800C2C178A3E2FF024D03CF
:104F110078D3EFF2D2C1D2C212513EC2C212513E77
:094F2100C2C178D3E2FF024CDCAE
:0F507500C2C1C2C212513ED2C112513ED2C2229A
:044CDC0078D4EFF2A7
:104CE000E408F2F278D4E233920212512A78D4E244
:104CF000FF25E0F208E204F2E2C3940840E6D202A3
:034D000002512A33
:044D030078A4EFF2AF
:104D0700E408F2F278A4E233920212512A78A4E27C
:104D1700FF25E0F208E204F2E2C3940840E6D2C2BB
:034D270002503601
:104B2B00D2C2E478D4F218F278D4E2FF25E0F21284
:104B3B005036500678D4E24401F278D3E204F2E224
:104B4B00C3940840E3A201B3920212512A78D4E233
:014B5B00FF5A
:014B5C002236
:04513E007F02DFFE0F
:01514200224A
:0A50E100EF60077E13DEFE1F80F66D
:0150EB0022A2
:0E508400EF600B7E127DEBDDFEDEFC1F80F286
:0150920022FB
:10444100812D00812B0082290000812C00812EFA10
:0A445100812F008226000081280060
:1037F500E4FF20C6010F20C504EF4402FF20C404E6
:10380500EF4404FFEF602A7828E2FEB5071D18E2B1
:103815002401F218E23400F208E2647D700218E235
:103825007035EEC454F0782FF2802C7828EFF280B2
:10383500267826E2FE08E2FFD39419EE6480948090
:10384500400FEF947DEE64809480500508E2782F58
:10385500F2E47826F208F2782EE26005E214F280AE
:1038650028782E74FAF218E26003E214F2782BE25B
:103875006003E214F2782AE2700218E2600B782AFB
:10388500E224FFF218E234FFF2782CE26005E2143C
:10389500F2800E782AE2700218E26005782C74FA3C
:1038A500F2782CE2540ED39408400B782EE2D39490
:0838B5007D4005C2C322D2C30D
:0138BD0022E8
:10504700782CEFF2782E74FAF2E47829F208F2223B
:06513100782FE2FFE4F21A
:015137002255
:1049A300FF00020000010500071E010101010100D3
:1049B30000000000FF0001010100000000000000F2
:1049C3000000000000F78000FF0105060501060155
:0C49D300173B01010101010101097F02F5
:03445B00813000AD
:1043C500D200E478A4F278A4E2FFC39409501D7EDC
:1043D500007BFE74382FF9EE3400FA12037BF4608B
:1043E50004C200800778A4E204F280DA30002EE4EB
:1043F50078A4F278A4E2FF7C007BFF24A3F9EC34D7
:1044050049FA12037BFEEF1B2431F9EC3400FAEE76
:0D4415001203B6E204F2E2B414D9124966B3
:014422002277
:104A8E00E478A3F278A3E2FDC3941450287830E2C0
:104A9E0025E0FE7C00E42DFFEC3EFE124F5A78A37B
:104AAE00E27C007BFE2431F9EC3400FAEF1203B6FF
:084ABE00E204F280CF0243C5BF
:104966007830E2FF7E00124F9CE478A5F278A5E24B
:10497600FDC3941450267830E225E0FE7C00E42D39
:10498600FFEC3EFE7BFE74312DF9EC3400FA120387
:0C4996007BFD124F2A78A5E204F280D1CC
:0149A20022F2
:104F710000000000000000000000FF01173B0101DC
:064F81000101010101FF26
:104A5500E478A3F278A3E2FFFD3395E0FC7BFE74D6
:104A6500382DF974003CFA12037BFEEF3395E0FC18
:104A750074452DF974003CFAEE1203B6E204F2E235
:084A8500B40AD1784F74FFF26E
:014A8D002206
:1049DF00E478A3F278A3E2FFFD3395E0FC7BFE744D
:1049EF00452DF974003CFA12037BFEEF3395E0FC82
:1049FF0074382DF974003CFAEE1203B6E204F2E2B9
:0B4A0F00B40AD1124966784F74FFF220
:014A1A002279
:104FEC00784FE2C3648094894003E4F222784FE264
:034FFC0004F2229A
:043EB80078A3EFF20A
:103EBC00784FE2FFFD3395E0FC74452DF974003C1E
:103ECC00FA78A474FEF208EAF208E9F27BFF747C3B
:103EDC002DF9744F3CFA12037BFEEFFD3395E0FC99
:103EEC0074712DF9744F3CFA12037BFF78A3E2FD39
:103EFC0008E2FB08E2FA08E2F9ED12039478A4E276
:103F0C00FB08E2FA08E2F912037BFDD3EE6480F8B9
:103F1C00ED6480984004EF1203B678A4E2FB08E24B
:103F2C00FA08E2F912037BFDC3EF6480F8ED6480BC
:073F3C00985004EE1203B6D9
:013F4300225B
:0D50BC00E4F5C7F5C5F5C675C380F5C4223F
:104F5A0075C78275C5018FC4EEF5C375C65A75C685
:074F6A00A500AFC20250BC1C
:104F2A0075C78275C5028FC4EEF5C3AF058FC2750A
:094F3A00C65A75C6A5000250BC60
:104F9C0075C78275C5038FC4EEF5C375C65A75C641
:054FAC00A5000250BC4D
:015154002238
:104FFF00438E805389F0E4F58A758CF7C28DD28C7D
:03500F00D2A92201
:09510100124FFF125154D2AF22EB
:03000B0002466842
:10466800C0E0C0F0C083C082C0D075D000C000C018
:1046780001C002C003C004C005C006C0071233A4AD
:104688007850E204F2E2D394204005E4F21237F5C0
:10469800D007D006D005D004D003D002D001D00076
:0B46A800D0D0D082D083D0F0D0E03220
:03001B000251553A
:015155003227
:101BDE00D120CDCEC2DBCC20C3CEC4CECC21212190
:101BEE0000D0EEE6E4E5F1F2E2EE20F5F0E8F1F2F7
:101BFE00EEE2EE2E00D1F2E0F0FBE920CDEEE2FBBC
:101C0E00E920E3EEE42E00CAF0E5F9E5EDE8E52083
:101C1E00C3EEF1EFEEE4EDE52E00D2E0F2FCFFEDC7
:101C2E00E8ED20E4E5EDFC2E00C4E5EDFC20E2F14C
:101C3E00E5F520E2EBFEE1EBB8EDEDFBF52E00C491
:101C4E00E5EDFC20E7E0F9E8F2EDE8EAE020CEF27F
:101C5E00E5F7E5F1F2E2E02E00CCE5E6E4F3EDE0A7
:101C6E00F0EEE4EDFBE920E6E5EDF1EAE8E920E44B
:101C7E00E5EDFC2E00C4E5EDFC20ECEEF0FFEAE015
:101C8E002DEFEEE4E2EEE4EDE8EAE02E00C4E5ED41
:101C9E00FC20F1ECE5F5E02E00C4E5EDFC20EAEECB
:101CAE00F1ECEEEDE0E2F2E8EAE82E00CFF0E0E74C
:101CBE00E4EDE8EA20C2E5F1EDFB20E820D2F0F3F6
:101CCE00E4E02E00C4E5EDFC20EFEEE1E5E4FB21BF
:101CDE00212100C4E5EDFC20EFE8EEEDE5F0E8E8AB
:101CEE002E00C4E5EDFC20EFEEE3F0E0EDE8F7EDBD
:101CFE00E8EAE02E00C4E5EDFC20E7E0F9E8F2FBAF
:101D0E0020E4E5F2E5E92E00C4E5EDFC20D0CED1CD
:101D1E00D1C8C82E00C4E5EDFC20ECEEEBEEE4E5F8
:101D2E00E6E82E00C4E5EDFC20F1E5ECFCE82C2005
:101D3E00EBFEE1E2E820E820E2E5F0EDEEF1F2E87C
:101D4E002E00C4E5EDFC20C2EEE7E4F3F8EDEE2D37
:101D5E00E4E5F1E0EDF2EDFBF520E2EEE9F1EA2E3D
:101D6E0000C4E5EDFC20C2EEE5EDEDEE2DE2EEE772
:101D7E00E4F3F8EDFBF520F1E8EB2E00C4E5EDFC05
:101D8E0020E7EDE0EDE8E92E00C4E5EDFC20F2E5FC
:101D9E00F1F2E8F0EEE2F9E8EAE02E00C4E5EDFC3F
:101DAE0020F3F7E8F2E5EBFF2E00C4E5EDFC20F0A2
:101DBE00EEE6E4E5EDE8FF20C4E5E4E020CCEEF04D
:101DCE00EEE7E02E00C4E5EDFC20FDEDE5F0E3E5E9
:101DDE00F2E8EAE02E00C4E5EDFC20EFF0EEE3F0D1
:101DEE00E0ECECE8F1F2E02E00C4E5EDFC20ECE5D1
:101DFE00E4E8F6E8EDF1EAEEE3EE20F0E0E1EEF2F3
:101E0E00EDE8EAE02E00C4E5EDFC20F1E8F1F2E5A4
:101E1E00ECEDEEE3EE20E0E4ECE8EDE8F1F2F0E0DC
:101E2E00F2EEF0E02E00C4E5EDFC20C2EEE5EDEDA5
:101E3E00EE2DCCEEF0F1EAEEE3EE20D4EBEEF2E096
:101E4E002E00CCE5E6E4F3EDE0F0EEE4EDFBE92068
:101E5E00E4E5EDFC20EFE8E2E02E00C4E5EDFC2029
:101E6E00F1F2F0EEE8F2E5EBFF2E00C4E5EDFC201A
:101E7E00F2E0EDEAE8F1F2E02E00C4E5EDFC20E040
:101E8E00E2F2EEECEEE1E8EBE8F1F2E02E00C4E572
:101E9E00EDFC20ECE0F2E5F0E82E000101111BDE76
:101EAE000107141BEF010E121C030113131C150165
:101EBE00190F1C28020E161C3702171A1C4D030888
:101ECE001C1C670313181C8304010C1C9B040C13AD
:101EDE001CA70501181CBA05090F1CD205130F1CEF
:101EEE00E1051C131CF00601131D03060C0D1D1637
:101EFE00061B0F1D2307081E1D3208021F1D50084A
:101F0E000C1B1D6F09010D1D8A0909131D970A056A
:101F1E000E1DAA0B121B1DB80C16111DD36100133A
:101F2E001DE436071D1DF77705201E1477071C1EAE
:101F3E00341805191E502807101E6929070F1E791F
:0A1F4E007A07141E887B070D1E9C05
:02445E00C10794
:10447D007820E278A4F27F057851E4F208DFFC7F22
:10448D00057821E278A4F278A4E2D3648094874081
:10449D0006E224F9F280F0124D94AE07E4FFEFC36B
:1044AD0094055024EEFD78A4E2F9FB3395E0FAD3A0
:1044BD00EB9D7480F86A98500F74512FF8E9F20F44
:0844CD0078A4E22407F280D676
:0144D50022C4
:104DD5007855E2FF700C7821E2FE7854E2B5060AB8
:0C4DE500D3227821E2B50702D322C322BA
:1050240074512FF8E2FF7821E2FEEFB50602D32295
:02503400C32295
:1030B000C207E4780AF212447DE478A3F278A3E22E
:1030C000FFC39423400302322A30070302322AEF5F
:1030D00075F005A424A9F582E4341EF583E493FF7A
:1030E00054F0FEC4540F1424FB503F700302317699
:1030F0001470030231B02407600302321C78A3E28B
:1031000075F005A424AAF582E4341EF583E493FE49
:103110007821E2FDEE6D6003023222EF540FFF08CA
:10312000E26F60030232220231E878A3E2FF75F019
:1031300005A424A9F582E4341EF583E493FE540F1C
:10314000FD7822E26D6003023222EF75F005A424BF
:10315000AAF582E4341EF583E493FF7820E26F60E1
:1031600003023222EE5470C4540F14FF1250244054
:10317000030232228072124A1BAC06AD0778A3E22A
:10318000FB75F005A424A9F582E4341EF583E493CD
:103190005401FEEB75F005A424AAF582E4341EF573
:1031A00083E493FBEB6D7002EC6E7076D207803C8B
:1031B00078A3E2FF75F005A424A9F582E4341EF596
:1031C00083E493540FFE7822E26E7056EF75F0059B
:1031D000A424AAF582E4341EF583E493FF7820E268
:1031E0006F703F124DD5503AD20778A3E2FE75F0CA
:1031F00005A424ABF582E4341EF583E493FFEE7559
:10320000F005A424ACF582E4341EF583E493FC7449
:103210000193AA04F97BFF1241AF8006C207E4784C
:0A3220000AF278A3E204F20230BDC6
:01322A002281
:104460008175EC815C00825D0000825600008276DE
:0244700000004A
:104DB60078A3EFF208EDF27875E2FF124F1178A3AF
:0F4DC600E2FF124CDC78A4E2FF124CDC025075C5
:044BB90078A3EFF2FC
:104BBD007875E2FF124F1178A3E2FF124CDC787585
:104BCD00E24401FF124F11C201124B2B78A4EFF2F8
:074BDD0012507578A4E2FFFD
:014BE40022AE
:0448E40078D0EFF2A7
:1048E8007875E2FF124F1178D0E2FF124CDC787530
:1048F800E24401FF124F11D201124B2BEFF8E47979
:10490800D2F3E819F3C201124B2B78D1E2F208E294
:0C4918004FF212507578D1E2FE08E2FF69
:014924002270
:0449250078A3EFF292
:104929007875E2FF124F1178A3E2FF124CDC78751B
:10493900E24401FF124F11D201124B2B78A4E4F289
:1049490008EFF2C201124B2BEFFE78A4E24EF208F7
:0C495900E2F212507578A4E2FE08E2FFC2
:01496500222F
:035148000248E436
:03514B00024925F1
:04397D0078BBEFF232
:103981007875E2FF124F1178BBE2FF124CDC7875BB
:10399100E24401FF124F11D201124B2BE4FCFDFE58
:1039A100780C12060078BC12061378BCE2FB08E220
:1039B100F908E2FA08E2CBF8C000C001C002C00376
:1039C100D201124B2BE4FCFDFE7804120600D00359
:1039D100D002D001D000EB4FFFEA4EFEE94DFDE8E9
:1039E1004CFC78BC12061378BCE2FB08E2F908E251
:1039F100FA08E2CBF8C000C001C002C003C2011244
:103A01004B2BEFC4540FFFD003D002D001D000EBF9
:103A11004FFFEAFEE9FDE8FC78BC1206131250756F
:0D3A210078BCE2FC08E2FD08E2FE08E2FFCE
:013A2E002275
:103F44007FAA1248E4785FEEF208EFF27FAC1248E1
:103F5400E47861EEF208EFF27FAE1248E47863EEA3
:103F6400F208EFF27FB01248E47865EEF208EFF25F
:103F74007FB21248E47867EEF208EFF27FB4124899
:103F8400E47869EEF208EFF27FB61248E4786BEE5B
:103F9400F208EFF27FB81248E4786DEEF208EFF21F
:103FA4007FBA1248E4786FEEF208EFF27FBC124851
:103FB400E47871EEF208EFF27FBE1248E47873EE13
:053FC400F208EFF222FB
:103B69007F88124925787CEEF208EFF27F8A12519C
:103B79004B787EEEF208EFF27F8C12514B7880EE93
:103B8900F208EFF27F8E1249257882EEF208EFF201
:103B99007F9012514B7884EEF208EFF27F92125126
:103BA9004B7886EEF208EFF27F9412514B7888EE4B
:103BB900F208EFF27F9612514B788AEEF208EFF293
:103BC9007F9812514B788CEEF208EFF27F9A1251DE
:103BD9004B788EEEF208EFF27F9C12514B7890EE03
:103BE900F208EFF27F9E12514B7892EEF208EFF253
:013BF90022A9
:1040C800123B697FA1124BB97894EFF27FE112514C
:1040D8004B7895EEF208EFF27FE3124BB97897EF41
:1040E800F27FE4124BB9EF75F010A4FFAEF0C007F1
:1040F800C0067FE5124BB9EF540FFDD0E07898F277
:10410800D0E04D08F27FE6124BB9EF75F010A4FF2E
:10411800AEF0C007C0067FE5124BB9EFC4540FFDDF
:10412800D0E0789AF2D0E04D08F27FE7124BB978E8
:044138009CEFF222E4
:0E50A100E4FD7FF5124DB67DAB7FF4024DB6F7
:0A50F7007D057FF2124DB60250A1B4
:044D2A0078CFEFF25D
:104D2E007875E2FF124F117FF4124CDC78CFE2FF60
:104D3E00124CDC1250757F051250847FF60248E447
:0C50C9007FF3124BB9EF30E002D322C39A
:0150D50022B8
:103FC9007FEC124EF8B392001250753000077875E5
:103FD90074ECF280137FEE124EF8B3920012507512
:103FE900300005787574EEF23000097FD0124BB9B4
:103FF900785CEFF2785CE2FF6003B4FF05E4785C7B
:10400900F222EF6455601C7DB67FE0124DB67F95B4
:104019001250847F9580071250C950077F6412504F
:104029008480F4785CE224AA24FD500B24F9600D05
:10403900240B700F023F44123B690250A11240C881
:034049001250F71B
:01404C002251
:100FA9007F2E124D2A78CBEEF208EFF27F34124DE4
:100FB9002A78CDEEF208EFF2785CE264556003021C
:100FC90013EF78CBE2FE08E2FFE4FCFDC006C007A0
:100FD9007869E2FE08E2FBAA06D007D006C3EF9BB8
:100FE900FFEE9AFEED9400FDEC9400FCC004A90507
:100FF900AA06AB077867E2FE08E2FFE4FCFDD00031
:10100900120487780F1205EC78A31206137871E29F
:10101900FE08E2FFEE3395E0FDFC780B120600C0F6
:1010290004C005C006C0077873E2FE08E2FFEE338C
:1010390095E0FDFC78A3E2FB08E2F908E2FA08E290
:10104900CBF8EB2FFBEA3EFAE93DF9E83CF8D0078B
:10105900D006D005D00412485E78A712061378A7E7
:10106900E2FC08E2FD08E2FE08E2FF78A3E2FB08E1
:10107900E2F908E2FA08E2CBF8EB2FFFEA3EFEE9D3
:101089003DFDE83CFC78B312061378B3E2FC08E2B4
:10109900FD08E2FE08E22408FFE43EFEE43DFDE42B
:1010A9003CFC78041205EC785DEEF208EFF278B3B7
:1010B900E2FC08E2FD08E2FE08E22460FFEE34F0FB
:1010C900FEED34FFFDEC34FFFC0812061378B7E29D
:1010D900FC08E2FD08E2FE08E2FFA804A905AA0649
:1010E900FB120487780C1205EC78BB1206137861A1
:1010F900E2FE08E2FFEE3395E0FDFC78B7E2FB087B
:10110900E2F908E2FA08E2CBF8120487C004C00544
:10111900C006C007786DE2FE08E2FFEE3395E0FDF8
:10112900FC78BBE2FB08E2F908E2FA08E2CBF81224
:101139000487D003D002D001D000EF2BFFEE3AFE96
:10114900ED39FDEC38FC780B1205EC78AB1206137F
:10115900785FE2FE08E2FFEE3395E0FDFCE47B04F4
:10116900FAF9F812048778ABE2FB08E2F908E2FA27
:1011790008E2CBF8EB2FFFEA3EFEE93DFDE83CFC37
:10118900EF2402FFE43EFEE43DFDE43CFC7802125C
:1011990005EC78AF1206137863E2FE08E2FFEE333E
:1011A90095E0FDFC78B7E2FB08E2F908E2FA08E20B
:1011B900CBF8120487780D1205EC78A31206137880
:1011C9006BE2FE08E2FFEE3395E0FDFC78BBE2FB43
:1011D90008E2F908E2FA08E2CBF81204877810125B
:1011E90005EC78A712061378A7E2FC08E2FD08E2ED
:1011F900FE08E2FF78A3E2FB08E2F908E2FA08E256
:10120900CBF8EB2FFFEA3EFEE93DFDE83CFCEF247D
:1012190002FFE43EFEE43DFDE43CFC78021205ECED
:1012290078AB12061378ABE2FC08E2FD08E2FE088F
:10123900E22400FFEE3480FEE43DFDE43CFCC00402
:10124900A905AA06AB077865E2FE08E2FFE4FCFD02
:10125900D000120487780F1205D978C312061378C3
:10126900CDE2FE08E2FFE4FCFDC004C005C006C0F3
:101279000778AFE2FC08E2FD08E2FE08E2FBAA06F5
:10128900A905A804D007D006D005D004C3EF9BFF59
:10129900EE9AFEED99FDEC98FCE47B507AC3F9F8DF
:1012A90012048778C712061378C3E2FB08E2F9082B
:1012B900E2FA08E2CBF8C00078C7E2FC08E2FD08D0
:1012C900E2FE08E2FFD0001205127801120600784A
:1012D900BF12061378BFE2FC08E2FD08E2FE08E24D
:1012E900FF78081205ECC004C005C006C00778BF26
:1012F900E2FC08E2FD08E2FE08E2FF78081205ECCC
:10130900D003D002D001D00012048778A3120613AB
:10131900E47FDE7E0BFDFC78A3E2FB08E2F908E23C
:10132900FA08E2CBF812048778101205EC78A312B8
:1013390006137F437EE37DFF7CFF78BFE2FB08E273
:10134900F908E2FA08E2CBF812048778101205ECE2
:1013590078A712061378A7E2FC08E2FD08E2FE0866
:10136900E2FF78A3E2FB08E2F908E2FA08E2CBF827
:10137900EB2FFFEA3EFEE93DFDE83CFCEF24CFFF01
:10138900EE340EFEE43DFDE43CFC78041205EC78F5
:10139900BFE2FB08E2F908E2FA08E2CBF8EB2FFF1B
:1013A900EA3EFEE93DFDE83CFC78AB12061378AB5A
:1013B900E2FC08E2FD08E2FE08E2FFEC1202BC7B57
:1013C900B07A507955784112021F7858120613786D
:1013D90058E2FC08E2FD08E2FE08E2FF1202FA7890
:0613E90056EEF208EFF2DF
:0113EF0022DB
:102F15007FFA12397D78B7120613E4FFFE7D08FCAF
:102F250078B7E2FB08E2F908E2FA08E2CBF8C31247
:102F350005C870030230AF787CE2FE08E2FFE4FCCE
:102F4500FD7801120600AB07AA06A905C004C00555
:102F5500C006C00778B7E2FC08E2FD08E2FE08E219
:102F6500FF78031205D9D003D002D001D000C3EFFA
:102F75009BFFEE9AFEED99FDEC98FCC004A905AA0D
:102F850006AB07787EE2FE08E2FFEE3395E0FDFC36
:102F9500D000120487780B1205D978B3120613787E
:102FA5007CE2FE08E2FFE4FCFDAB07AA06F9C004DB
:102FB500C005C006C00778B7E2FC08E2FD08E2FEDE
:102FC50008E2FF78041205D9D003D002D001D00061
:102FD500C3EF9BFFEE9AFEED99FDEC98FCC004C093
:102FE50005C006C007787CE2FE08E2FFE4FCFDAB05
:102FF50007AA06F9C004C005C006C00778B7E2FCF9
:1030050008E2FD08E2FE08E2FF78041205D9D003C4
:10301500D002D001D000C3EF9BFFEE9AFEED99FDE3
:10302500EC98FCD003D002D001D000120487780CB4
:103035001205D9C004A905AA06AB077880E2FE08E7
:10304500E2FFEE3395E0FDFCD000120487780E1206
:1030550005D978B3E2FB08E2F908E2FA08E2CBF811
:10306500EB2FFFEA3EFEE93DFDE83CFC78781206D1
:1030750013E47F05FEFDFC7878E2FB08E2F908E23F
:10308500FA08E2CBF8120487EF2480FFE43EFEE461
:103095003DFDE43CFC78081205ECE47B0AFAF9F8FE
:0A30A50012485E785DEEF208EFF2CB
:0130AF0022FE
:100B6100122F157FF712397D78A31206137878E2D8
:100B7100FC08E2FD08E2FE08E2FF78011205ECE460
:100B81002FFFEE3406FEED34FFFDEC34FFFC78A7B9
:100B910012061378A7E2FC08E2FD08E2FE08E2FF74
:100BA10078021205ECC004C005C006C00778A7E2B0
:100BB100FC08E2FD08E2FE08E2FF78021205ECD033
:100BC10003D002D001D000120487780B1205ECC0CB
:100BD10004A905AA06AB07788CE2FE08E2FFEE3312
:100BE10095E0FDFCD00012048778AB12061378ABB8
:100BF100E2FB08E2F908E2FA08E2CBF8C000C00122
:100C0100C002C003788AE2FE08E2FFEE3395E0FD00
:100C1100FC78A7E2FB08E2F908E2FA08E2CBF81255
:100C210004877801120600D003D002D001D000EB76
:100C31002FFFEA3EFEE93DFDE83CFC78AB120613CE
:100C41007888E2FE08E2FFEE3395E0FDFC781012B1
:100C51000600C004C005C006C00778ABE2FC08E28C
:100C6100FD08E2FE08E2FF78021205ECD003D00293
:100C7100D001D000EF2BFFEE3AFEED39FDEC38FC50
:100C810078AB12061378A7E2FC08E2FD08E2FE0841
:100C9100E2FF78021205ECC004C005C006C0077867
:100CA100A7E2FC08E2FD08E2FE08E2FF7802120575
:100CB100ECD003D002D001D000120487780D1205C8
:100CC100ECC004A905AA06AB077886E2FE08E2FF9C
:100CD100EE3395E0FDFCD00012048778031205EC99
:100CE100C004C005C006C0077884E2FE08E2FFEE3A
:100CF1003395E0FDFC78A7E2FB08E2F908E2FA0887
:100D0100E2CBF812048778011205ECD003D002D0AF
:100D110001D000EB2FFFEA3EFEE93DFDE83CFC7807
:100D2100121205EC78A712061378A7E2FC08E2FD7F
:100D310008E2FE08E22400FFEE3480FEE43DFDE41B
:100D41003CFCC004A905AA06AB077882E2FE08E2D2
:100D5100FFE4FCFDD000120487780F1205EC78A7A0
:100D610012061378A7E2FC08E2FD08E2FE08E2FFA2
:100D7100EC4D4E4F7003020FA808E2FC08E2FD089B
:100D8100E2FE08E2FF780C1205ECC004C005C006C3
:100D9100C00778A3E2FB08E2F908E2FA08E2CBF81F
:100DA100C3E49BFFE49AFE741099FDE498FCD00320
:100DB100D002D001D000C3EF9BFFEE9AFEED99FD6A
:100DC100EC98FCE47B357A0CF9F812048778AF12C1
:100DD1000613E4FFFEFD7C8078AFE2FB08E2F90830
:100DE100E2FA08E2CBF8C31205C8503A78AFE2FC48
:100DF10008E2FD08E2FE08E2FF7801120600C004E5
:100E0100C005C006C00778A7E2FC08E2FD08E2FEC3
:100E110008E2FBAA06A905A804D007D006D005D090
:100E210004120512803078A7E2FC08E2FD08E2FE18
:100E310008E2FFC004A905AA06AB0778AFE2FC08E7
:100E4100E2FD08E2FE08E2FFD000120512E47B0297
:100E5100FAF9F812048778AF12061378AFE2FC08AA
:100E6100E2FD08E2FE08E2FF78031205D9C004C0E2
:100E710005C006C00778AFE2FC08E2FD08E2FE0803
:100E8100E2FF78031205D9D003D002D001D00012BD
:100E91000487780D1205D9C004A905AA06AB077805
:100EA10092E2FE08E2FFEE3395E0FDFCD000120471
:100EB10087780C1205EC78A712061378AFE2FC08CC
:100EC100E2FD08E2FE08E2FF78021205D9C004A99A
:100ED10005AA06AB077890E2FE08E2FFEE3395E043
:100EE100FDFCD000120487780D1205EC78AB1206D8
:100EF1001378AFE2FB08E2F908E2FA08E2CBF8C0A6
:100F010000C001C002C00378ABE2FC08E2FD08E2C8
:100F1100FE08E2FF78A7E2FB08E2F908E2FA08E23C
:100F2100CBF8EB2FFFEA3EFEE93DFDE83CFCC004B7
:100F3100A905AA06AB07788EE2FE08E2FFEE33951B
:100F4100E0FDFCD000EB2FFFEA3EFEE93DFDE83C71
:100F5100FC78041205ECD003D002D001D000EB2FB5
:100F6100FFEA3EFEE93DFDE83CFC78AF120613784E
:100F7100AFE2FC08E2FD08E2FE08E2FFE41202BC77
:100F81007BB07A507955784112021F7858120613B6
:100F91007858E2FC08E2FD08E2FE08E2FF1202FADC
:070FA1007856EEF208EFF2B2
:010FA8002226
:10225B00122F157FFD1248E4E4FCFD78A312061340
:10226B00E4FF7E80FDFC78A3E2FB08E2F908E2FACA
:10227B0008E2CBF8C31205B270030225237878E28B
:10228B00FC08E2FD08E2FE08E22400FFEE34D4FE77
:10229B00ED34FEFDEC34FFFC78A71206137897E2C1
:1022AB00FFE4FCFDFE78A7E2FB08E2F908E2FA087E
:1022BB00E2CBF8120487780B1205ECE42FFFEE3417
:1022CB0080FEE43DFDE43CFCC004C005C006C00735
:1022DB00789CE2FF3395E0FEFDFC78A7E2FB08E279
:1022EB00F908E2FA08E2CBF8120487780A1205EC37
:1022FB00D003D002D001D000120487780A1205EC6B
:10230B00E42FFFE43EFEED3420FDE43CFCC004A9C9
:10231B0005AA06AB077895E2FE08E2FFEE3395E0DF
:10232B00FDFCD000120487E42FFFEE3420FEE43DC9
:10233B00FDE43CFC780E1205ECC004C005C006C0E1
:10234B00077898E2FE08E2FFEE3395E0FDFC781487
:10235B00120600C004C005C006C00778A3E2FC0843
:10236B00E2FD08E2FE08E2FF780E120600D003D071
:10237B0002D001D000C3EF9BFFEE9AFEED99FDEC6E
:10238B0098FCC004C005C006C007789AE2FE08E2BC
:10239B00FFEE3395E0FDFC78A7E2FB08E2F908E2DB
:1023AB00FA08E2CBF8120487A804A905AA06AB0722
:1023BB00D007D006D005D004C3EF9BFFEE9AFEEDFD
:1023CB0099FDEC98FCE42FFFEE3440FEE43DFDE478
:1023DB003CFC780F1205ECD003D002D001D00012D8
:1023EB00048778A712061378A7E2FC08E2FD08E23F
:1023FB00FE08E2FFC004C005C006C00778A7E2FCD8
:10240B0008E2FD08E2FE08E2FF780F1205ECC004BB
:10241B00C005C006C00778A7E2FC08E2FD08E2FE93
:10242B0008E2FF780F1205ECD003D002D001D000E8
:10243B0012048778071205ECC004A905AA06AB079E
:10244B007894E2FFE4FCFDFED000120487780412BE
:10245B0005ECA804A905AA06AB07D007D006D00542
:10246B00D004C3EF9BFFEE9AFEED99FDEC98FC7840
:10247B00A712061378A7E2FCEC335007E4FFFEFD2E
:10248B00FC800D78A7E2FC08E2FD08E2FE08E2FF03
:10249B0078A7120613E4FFFEFD7C1978A7E2FB0870
:1024AB00E2F908E2FA08E2CBF8D31205B24008E4ED
:1024BB00FFFEFD7C19800D78A7E2FC08E2FD08E227
:1024CB00FE08E2FF78A712061378A7E2FC08E2FDEC
:1024DB0008E2FE08E2FF780C1205EC78A71206134F
:1024EB0078A7E2FC08E2FD08E2FE08E2FFEC12022C
:1024FB00BC7B0A7AD77923784112021F78581206CF
:10250B00137858E2FC08E2FD08E2FE08E2FF120233
:08251B00FA7876EEF208EFF207
:012523002295
:03514E00020B61F0
:06513800120B6102225B74
:104E2800785CE224AA24FD500B24F9600A240B7054
:0B4E380009020FA902514E125138224E
:08000300785DE2FE08E2FF2235
:08510A007856E2FE08E2FF22E4
:085112007876E2FE08E2FF22BC
:05514300785CE2FF2290
:0A447200C108829D0000829F000037
:0D47450078A9EBF208EAF208E9F208EDF2BB
:104752007F80124F11E478ADF278ACE2FF08E2FEFE
:10476200C39F5023EEFF78ABE22FF218E23400F23F
:1047720018E2FB08E2FA08E2F912037BFF124CDCB2
:0A47820078ADE204F280D202507517
:0D46B30078A9EBF208EAF208E9F208EDF24E
:1046C0007F81124F11E478ADF278ACE2FF08E2C3CB
:1046D0009F5022D201124B2B78A9E2FB08E2FA0884
:1046E000E2F978ADE2F582758300EF1203C878AD88
:0D46F000E204F280D4C201124B2B0250757F
:104BE50078A5EFF208EBF208EAF208E9F27BFE7A23
:104BF5000079A57D011247457F1912508478A6E2F8
:0C4C0500FB08E2FA08E2F97D020246B367
:10478C007BFE7A0079A37FF3124BE578A3E2FE0857
:10479C00E2FDEDFFAC06EC1202C17B527AB8792F28
:1047AC007843120116E4FBFA7980784712021F7BDA
:1047BC00667A66793B78C2120025E4FBFA79C878F0
:0747CC00421201160202FA7D
:104819007BFE7A0079A37FF5124BE578A3E2FE08C7
:10482900E2FDEDFFAC06E41202C1E4FBFA79FA7885
:1048390042120116E4FBFA7980784712021FE4FB61
:10484900FA79C078C0120025E4FBFA79C8784212D7
:0548590001160202FA45
:0B50EC007F80124EF8B392080250754E
:104DF10012478C7C007D0A120451789DEEF208EF77
:0C4E0100F2124819789FEEF208EFF2223E
:08511A00789DE2FE08E2FF228D
:08512200789FE2FE08E2FF2283
:03515100A208228F
:10001E00020366E86480F8E933E83360110460F0A7
:10002E00ED33EC337009E8FCE9FDEAFEEBFF220448
:10003E0060DED3EB9FEA9EE99DE8C2E78CF0C2F743
:10004E0095F0400CE8CCF8E9CDF9EACEFAEBCFFB0F
:10005E0012033185D0F05804700320D5B3E8047034
:10006E00075002B2D502037092D5EC0460F7E4CCCF
:10007E00C0E0C398F8603B94186008400DD0E0FBD8
:10008E00020348E4FBFAC9FC8028E830E406E4C920
:10009E00FBE4CAFCE830E305E4C9CACBFCE854072C
:1000AE006010F8C3E913F9EA13FAEB13FBEC13FC37
:1000BE00D8F130F52FC3E49CFCEF9BFFEE9AFEEDDA
:1000CE0099FDD0E0FBEF4E4D4C701222DB03020384
:1000DE006DEC2CFCEF33FFEE33FEED33FDED30E730
:1000EE00EB020348EF2BFFEE3AFEED39FDD0E0FBBD
:1000FE0050130BBB0003020370ED13FDEE13FEEF66
:08010E0013FFEC13FC0203488F
:10011600EC4D6011E8497017ED33EC3304600DE4E3
:10012600FCFFFEFD22E933E8330470F80203661291
:10013600033158046009E4CC248150062850090292
:10014600037028400302036DC0E0EB4A7044B98097
:1001560006D0E0FB02035CEF4E701CBD8008EBFF8F
:10016600EAFEE9FD80EBE98DF0A4FEE5F00201FF71
:10017600E9CDF9EAFEEBFFEF89F0A4FCE5F0CE89C4
:10018600F0A42EFFE435F0CD89F0A42DFEE435F081
:100196008067EF4E7005BD80D780C3EF8BF0A4ACAF
:1001A600F0EE8BF0A42CFCE435F0F8EF8AF0A42CEA
:1001B600E5F038FCE433CB8DF0A42CFCE5F03BF8FD
:1001C600EE8AF0A42CFCE5F038F8E433CF89F0A4ED
:1001D6002CFCE5F038CF3400CE89F0A42FFFE5F0F3
:1001E6003EFEE433C98DF0A42EFEE5F039CD8AF04B
:1001F600A42FFFE5F03EFEE43DFD33D0E0FB5007C3
:100206000BBB000F020370EC2CFCEF33FFEE33FE4A
:06021600ED33FD02034878
:10021C00020370EC5D046005E85904700302036688
:10022C00120331580460F6EC4860F2EC7004FDFEE9
:10023C00FF22C860DB2481C85009C39860025006B5
:10024C0002036D9850CAF582E9294B4A7005AB82BE
:10025C0002035C75F0007C1A7880C3EF9BEE9AED7C
:10026C0099400DC3EF9BFFEE9AFEED99FDE842F02D
:10027C00DC23ACF0D0E0FFD0E0FED0E0FDAB822080
:10028C00E7101BEB60BAEC2CFCEF33FFEE33FEED0A
:10029C0033FD020348E803F830E705C0F075F000C1
:1002AC00EF2FFFEE33FEED33FD40B830E7C280AAEE
:1002BC0075F020800E75F010800575F0087D007EBD
:1002CC00007F003392D530D5031205A4EC334010D7
:1002DC00EF33FFEE33FEED33FDEC33FCD5F0ED22C6
:0E02EC00E5F0247EA2D513CC92E7CDCEFF2202
:1002FA00EDD2E7CD33EC3392D524814006E4FFFEFC
:10030A00FDFC22FCE4CFCECDCC24E0501174FF805A
:10031A00EDC3CC13CCCD13CDCE13CECF13CF0470F7
:07032A00F030D5DE0205A44E
:10033100E9D2E7C933E833F892D5EDD2E7CD33EC12
:0703410033FC5002B2D5228B
:10034800EC30E7100FBF000C0EBE00080DBD000416
:100358000BEB6014A2D5EB13FCED92E7FD2274FFC2
:10036800FCFDFEFF22E480F8A2D574FF13FC7D801B
:03037800E480EF2F
:103AE9000217F3E493A3F8E493A34003F68001F2E9
:103AF90008DFF48029E493A3F85407240CC8C333DE
:103B0900C4540F4420C8834004F456800146F6DFAC
:103B1900E4800B0102040810204080904423E47ED5
:103B2900019360BCA3FF543F30E509541FFEE493A1
:103B3900A360010ECF54C025E060A840B8E493A368
:103B4900FAE493A3F8E493A3C8C582C8CAC583CA93
:103B5900F0A3C8C582C8CAC583CADFE9DEE780BE4B
:01447C00003F
:10037B00BB010689828A83E0225002E722BBFE0280
:09038B00E32289828A83E49322B3
:10039400BB010989828A83F8E028F022500327F7F9
:1003A40022BBFE05F8E328F3228A838982F8E493CA
:0203B4002822FD
:1003B600BB010689828A83F0225002F722BBFE0126
:0203C600F32220
:1003C800F8BB010DE58229F582E5833AF583E8F06B
:1003D800225006E92582C8F622BBFE05E92582C817
:0203E800F222FF
:1003EA00EF8DF0A4A8F0CF8CF0A428CE8DF0A42E27
:0203FA00FE22E1
:1003FC00BC000BBE0029EF8DF084FFADF022E4CCE5
:10040C00F875F008EF2FFFEE33FEEC33FCEE9DECAD
:10041C00984005FCEE9DFE0FD5F0E9E4CEFD22EDF3
:10042C00F8F5F0EE8420D21CFEADF075F008EF2F3D
:10043C00FFED33FD4007985006D5F0F222C398FD2E
:05044C000FD5F0EA22CB
:10045100C2D5EC30E709B2D5E4C39DFDE49CFCEEC6
:1004610030E715B2D5E4C39FFFE49EFE1203FCC33F
:10047100E49DFDE49CFC80031203FC30D507C3E43A
:060481009FFFE49EFE2235
:10048700E88FF0A4CC8BF0A42CFCE98EF0A42CFC14
:100497008AF0EDA42CFCEA8EF0A4CDA8F08BF0A492
:1004A7002DCC3825F0FDE98FF0A42CCD35F0FCEBF1
:1004B7008EF0A4FEA9F0EB8FF0A4CFC5F02ECD39B6
:0F04C700FEE43CFCEAA42DCE35F0FDE43CFC2223
:1004D60075F008758200EF2FFFEE33FECD33CDCCDD
:1004E60033CCC58233C5829BED9AEC99E582984060
:1004F6000CF582EE9BFEED9AFDEC99FC0FD5F0D63D
:10050600E4CEFBE4CDFAE4CCF9A88222B800C1B966
:100516000059BA002DEC8BF084CFCECDFCE5F0CBA4
:10052600F97818EF2FFFEE33FEED33FDEC33FCEBDD
:1005360033FB10D703994004EB99FB0FD8E5E4F998
:10054600FA227818EF2FFFEE33FEED33FDEC33FC85
:10055600C933C910D7059BE99A4007EC9BFCE99A79
:10056600F90FD8E0E4C9FAE4CCFB2275F010EF2FBE
:10057600FFEE33FEED33FDCC33CCC833C810D707BE
:100586009BEC9AE899400AED9BFDEC9AFCE899F8F9
:0E0596000FD5F0DAE4CDFBE4CCFAE4C8F9228C
:10485E00C2D5E830E70FB2D5E4C39BFBE49AFAE485
:10486E0099F9E498F8EC30E717B2D512489412058E
:10487E0012E4C39BFBE49AFAE499F9E498F88003F6
:10488E0012051230D50DE4C39FFFE49EFEE49DFD9C
:04489E00E49CFC2278
:0E05A400C3E49FFFE49EFEE49DFDE49CFC2268
:1005B200EB9FF5F0EA9E42F0E99D42F0EC6480C8C0
:0605C20064809845F02260
:1005C800EB9FF5F0EA9E42F0E99D42F0E89C45F089
:0105D8002200
:1005D900E8600FECC313FCED13FDEE13FEEF13FF00
:0305E900D8F12224
:1005EC00E86010ECA2E713FCED13FDEE13FEEF1325
:0405FC00FFD8F02212
:10060000E8600FEFC333FFEE33FEED33FDEC33FC58
:03061000D8F122FC
:0C061300ECF208EDF208EEF208EFF22223
:10061F00D083D082E493F208740193F208740293AA
:09062F00F208740393F2740473E1
:10063800F5F0C582A4C582C5F0C583A42583F583DA
:01064800228F
:10064900D083D082F8E4937012740193700DA3A340
:1006590093F8740193F5828883E473740293686054
:06066900EFA3A3A380DF54
:06066F008A838982E47316
:00000001FF
