:03000000023AD0F1
:103AD00078FFE4F6D8FD9000007F007E03E4F0A3B9
:0A3AE000DFFCDEFA758121023B25B0
:104C68001248E9124954124F5C1243D91248B01243
:0B4C78003E24124F47782474FFF22204
:104DE2003006FD12000EC2AF1248E9D2AFE47812CB
:054DF200F2781CF22222
:104E6D003006FD12000EC2AF1247C1D2AFE4781268
:024E7D00F2221F
:1017F30078A27401F2124C687F14124EA2782D74F1
:1018030002F23006FDC2067819E275F00A84E5F0AB
:10181300702E7812E2FF600964026024EF640360B3
:101823001F782DE27014740AF2124F9EEF600312B8
:101833004C83124FAC5003124C4C123F971230B1F1
:10184300124F8C78A1EFF2600FE2C3941050047F23
:101853001480027F28124EA278A1E224FE700302B4
:1018630019B824FE70030219BD24F47003021A6C24
:10187300240F6003021AC87833E2640570227812D9
:10188300E2701D740EF2781CE2FF700404F2801003
:10189300EFD39400400AEF94075005781CE204F25A
:1018A3007812E214B410004003021AC89018BD75F0
:1018B300F003A4C58325F0C583730218ED021961F3
:1018C30002196C02197E0219B20219B20219B2028C
:1018D30019980219B202199B0219B20219B202191C
:1018E300B2021AC8021AC80219B27811E2FF24FE22
:1018F300B40E004003021AC890190975F003A4C579
:101903008325F0C5837302193302193F0219450277
:10191300195502195502195502195502195502197B
:101923005502195502195502194B021AC802195BBF
:1019330078247402F27812EFF2021AC8782474063B
:101943008003E4784FF2800AE47812F2781CF20202
:101953001AC87811E2021AB31240E8021AC87824AE
:10196300E27012124AE9021AC57824E2B40406129C
:101973004A6C021AC5124B10021AC8784FE2FF7064
:10198300057845E26004EFB4090512483A80201255
:101993004E47021AC8124E207812740FF2781DE2D5
:1019A3007816F2E4781AF27818743BF2021AC81225
:1019B3004E6D021AC578A27401F278A1E2B4040450
:1019C3000874FFF27812E2B40D004003021AC890C3
:1019D30019D9F8282873021A00021A02021A0C02F3
:1019E3001A0C021A16021A20021A34021A48021A90
:1019F30051021A5A021A63021A2A021A3E804678C0
:101A0300A2E2FF124E0C021AC878A2E2FF123BFBBD
:101A1300021AC878A2E2FF123C89021AC878A2E22D
:101A2300FF124CEC021AC878A2E2FF124C9E021A73
:101A3300C878A2E2FF124CB8021AC878A2E2FF12D9
:101A43004CD2021AC878A2E2FF124BA9807778A27F
:101A5300E2FF124D06806E78A2E2FF124D208065F0
:101A630078A2E2FF124E34805C7812E2B410005088
:101A730054901A7BF8282873021AAB021AB2021A7E
:101A8300C5021AC5021AB8021ABB021ABB021ABB54
:101A9300021ABB021ABB021ABE021ABB021ABB020B
:101AA3001ABB021AC8021ABE78127401F28016E435
:101AB3007812F280101248B0124DE2E47815F21257
:101AC3004DE2124F317812E2B411004003021B724F
:101AD300901ADAF8282873021B0D021B12021B1737
:101AE300021B1C021B21021B26021B2F021B370297
:101AF3001B40021B45021B4A021B2B021B33021B0A
:101B03006E021B6E021B52021B6612442880601277
:101B13003A30805B12361380561237188051121FE9
:101B230059804C1249E780477835800A783380061C
:101B3300783480027837E2FF123D158032122A771B
:101B4300802D124EB280287815E2FFE4FD801778CD
:101B530015E2D3940040051240E880137812740113
:101B6300F2800CE4FDFF1245588004E47812F27809
:101B73001BE204F27819E204F2300725781CE2B480
:101B8300081F7819E275F00584E5F07014C3780B2B
:101B9300E264809480400A08E22401F218E23400EF
:101BA300F2781BE2D394774002E4F27819E2D394FB
:101BB3003B5003021805E4F2780DE204F2781CE2CC
:101BC30075F003A424D0F582E43427F583E493FE6F
:0C1BD300740193AA06F912066F021805AF
:10252500007F7F40407F7F007F7F08087F7F00031B
:102535001F227E7F0300007F7F49497F3600404090
:102545007F7F4040007F7F4848783000003E7F41D4
:10255500416322007F7F4848783000031F227E7F39
:10256500030000707808087F7F0040407F7F40406F
:10257500007F7F49497F3600007F7F40407F7F0095
:1025850040407F7F4040007F7F08087F7F00003EFE
:102595007F414163220060731B0F7C70007F7F4980
:1025A500494F4600007F7F49497F36003E7F4141C4
:1025B5006322007F7F0814636300007C7C40407CBD
:1025C5007C007C7C10107C7C000C3C48787C0C00EA
:1025D500007C7C54547C280040407C7C4040007C3E
:1025E5007C505070200000387C44446C28007C7C72
:1025F50050507020000C3C48787C0C000060701036
:10260500107C7C0040407C7C4040007C7C54547CA9
:102615002800007C7C40407C7C0040407C7C404025
:10262500007C7C10107C7C0000387C44446C2800C5
:1026350064741C187060007C7C54545C4800007CF9
:102645007C54547C2800387C44446C28007C7C10E5
:10265500386C440000607F7F60006F6F007F3F1023
:102665001F103F7F007F7F4949007F7F63361C0035
:102675001F3F6C6C3F1F00607F7F60007F7F494973
:102685003F7F4C7F3F007F7F0303003F7F4C7F3FB1
:10269500007F7F6C6C370000003E41417149493E27
:1026A500000000063A433A06000000007F7F686894
:1026B500003E7F417F3E007F3F180C7E7F00607F9C
:1026C5007F607F7F41633E1C006F6F00327B496FE7
:1026D50026007F7F446C38007F3F101F103F7F002E
:1026E5006F6F007F7F63361C007F7F6C6C387F7F48
:1026F500497F36007F7F6C6C37006F6F003E7F41EE
:102705004D2E0000003E41417149493E0000000048
:1027150000000011117D1111000000000000007F74
:102725007F417F7F007F7F381C7F7F000000000096
:102735000000007F7F417F7F007F7F6C6C007F7F83
:102745006C6C00000000607F7F6000730B7E7C0076
:102755007F7F4C380036007F7F49497F36007F7F79
:102765004C4E7B3100360000705070003E7F634157
:10277500410000000011117D1111000000607F7FF4
:1027850060006F6F007F3F101F103F7F007F7F6CE1
:102795006C377F413E0032492600224936002345E9
:1027A500390022493600207F007F7F494900637741
:1027B5001C1C7763006F6F0060607F7F60600000A6
:1027C500123455555555555432103C4F0A02407B2D
:1027D50002407B02407B05407B02407B02407B053B
:0527E500407B004EEEF8
:10427E00810A00820BFFFF811200811102810D0065
:0E428E00811C00811500810000810100C184A7
:10495400E4F59375943FF5917592FFF5957596FF7F
:10496400F5B175B27F7837E27817F2C206A2C79222
:1049740005124395780E7401F2087400F20874D697
:02498400F2221D
:0D000E0053B0807590FF75A0FF43803F2226
:1033A5007801E2FEC3940550117817E2FDEEB505EC
:1033B5000312000E7801E204F222E47801F2120011
:1033C5000E20050A18E2FEC374159EFF80047800DE
:1033D500E2FFEFB41600400302347F9033E7F8288C
:1033E500287302342902342D023431023435023473
:1033F5003902343D02344102344502344902344D28
:1034050002345102345502345902345D02346102EA
:10341500346502346902346D023471023475023444
:103425007902347DC2908052C291804EC292804A08
:10343500C2938046C2948042C295803EC296803A2D
:10344500C2978036C2A08032C2A1802EC2A2802A35
:10345500C2A38026C2A48022C2A5801EC2A6801A4D
:10346500C2A78016C2808012C281800EC282800AE5
:10347500C2838006C2848002C28520050CC37415F0
:103485009F2408F8E6F5B0804474082FF8E6FEC4DA
:103495005402FDEEC4131354014DFE74082FF8E6D3
:1034A500FD131354044EFEED54084EFE74082FF818
:1034B500E6FD25E025E054104EFEEDC454204EFEF9
:1034C50074082FF8E6C4333354404EF5B07800E263
:1034D50004F2E2D39415400BE4F2A2C7920520064C
:0334E50002D2060A
:0134E80022C1
:0B4F3100E47812F2780DF2781CF222F6
:103F9700124153781DE27068300467C2047845E225
:103FA700603908E2FF781FE26F70307847E2FF78E8
:103FB7001EE2B507267820E27E007BFE2447F9EE55
:103FC7003400FA12037B603A7836E2FF7C007D3CCE
:103FD7001203EA7829EEF208EFF2227846E2FF337D
:103FE70095E0FE781FE2D39FEE6480F874809840D6
:103FF70011781EE2700C7832E260077F28024EA229
:02400700D204E1
:014009002294
:0C438900780EE4F2087400F2087408F2E8
:104395007835E224FE601514601C14602314602A2D
:1043A500800078137406F20874D9F2227813740722
:1043B500F2087401F22278137407F2087429F222C4
:1043C50078137407F2087451F22278137407F2080F
:0443D5007479F222E3
:10462E0078A37427F2087497F2E4FFEFC394165040
:10463E003478A3E2FC08E2F5828C83E493FE780ED4
:10464E00E2FB08E2FA08E2F9EE1203B60F78A4E2F2
:10465E002401F218E23400F27810E22401F218E29A
:05466E003400F280C6DB
:014673002224
:10433100781BE2FEC3941E5004E4FF800CEEC3948C
:104341005A50047F038002E4FFE4FEEEC39404505C
:104351003675F004EFA42EF582E435F0F583E5829D
:104361002475F582E5833406F583E493FD780EE246
:10437100FB08E2FA08E2F9ED1203B60EE22401F2BB
:0743810018E23400F280C4D1
:014388002212
:10322C007834E224FE60351460501470030232D0FE
:10323C0014700302330A1470030233398000781BB4
:10324C00E2FEC3941E5005E4FF023366EEC3945AAB
:10325C0050057F03023366E4FF023366781BE2FEFF
:10326C00C3941E50057F02023366EEC3945A500578
:10327C007F030233667F02023366781BE2FEC3943F
:10328C000A5005E4FF023366EEC3941A50057F0121
:10329C00023366EEC3942C50057F02023366EEC3F4
:1032AC00944E50057F03023366EEC3946050057F45
:1032BC0002023366EEC3947050057F01023366E45C
:1032CC00FF023366781BE2FEC3940C5005E4FF0248
:1032DC003366EEC3942450047F03807EEEC3943C8B
:1032EC0050047F048074EEC3945450047F05806AAC
:1032FC00EEC3946C50047F068060E4FF805C781B06
:10330C00E2FEC3940E5004E4FF804FEEC3942C50A5
:10331C00047F078045EEC3944A50047F03803BEE44
:10332C00C3946850047F088031E4FF802D781BE241
:10333C00FEC3940E5004E4FF8020EEC3942C500482
:10334C007F018016EEC3944A50047F02800CEEC3BA
:10335C00946850047F018002E4FFE4FEEEC3940401
:10336C00503675F004EFA42EF582E435F0F583E5C4
:10337C00822475F582E5833406F583E493FD780E9B
:10338C00E2FB08E2FA08E2F9ED1203B60EE22401C0
:08339C00F218E23400F280C4D3
:0133A4002206
:1034E900E41203B6E22401F218E23400F218E2FB16
:1034F90008E2FA08E2F9E41203B6E22401F218E25A
:083509003400F2E4FBFD7F1425
:0A35110078A7EFF208EDF208EBF2E4
:10351B00E408F278AAE2FDC39404506B78A8E27039
:10352B004608E2600C78A7E275F00A84D394004059
:10353B003678A7E275F00A8475F004A47C002DFFA1
:10354B00EC35F0FE7814E22FFF18E23EFE78ABF27A
:10355B0008EFF2F5828E83E493FF780EE2FB08E22C
:10356B00FA08E2F9EF800B780EE2FB08E2FA08E2C8
:10357B00F9E41203B678AAE204F27810E22401F21D
:10358B0018E23400F2808C780EE2FB08E2FA08E2D3
:10359B00F9E41203B6E22401F218E23400F2E47803
:1035AB00AAF278AAE2FDC39404505C78A8E27037C3
:1035BB0018E275F00A84E5F075F004A47C002DFF89
:1035CB00EC35F0FE7814E22FFF18E23EFE78ABF2FA
:1035DB0008EFF2F5828E83E493FF780EE2FB08E2AC
:1035EB00FA08E2F9EF800B780EE2FB08E2FA08E248
:1035FB00F9E41203B678AAE204F27810E22401F29D
:07360B0018E23400F2809B7D
:013612002295
:104AC100781FE2FDD39418500618E2943C4003028B
:104AD100462EAF05E4FBFD12351112322C781EE291
:084AE100FFE4FBFD1235112278
:1046FD007B007A007908780EEBF208EAF208E9F20D
:10470D001234E9780EE2FB08E2FA08E2F9E412034A
:10471D00B6E22401F218E23400F27823E2FFE4FB62
:10472D00FD123511780EE2FB08E2FA08E2F9E40217
:02473D0003B6C1
:104476007822E2D3940C500718E2FD942040030200
:10448600462EAF05E4FBFD123511E4FFEFC394049D
:104496005020EF90067993FE780EE2FB08E2FA08C8
:1044A600E2F9EE1203B60FE22401F218E23400F24A
:0C44B60080DA7822E2FFE4FBFD123511F1
:0144C20022D7
:1038BF007820E214B4070050709038D675F003A446
:1038CF00C58325F0C583730238EB0238F602390140
:1038DF0002390C02391702392202392D78A37425C7
:1038EF00F2087425F2804B78A37425F208743BF22A
:1038FF00804078A37425F2087451F2803578A37450
:10390F0025F2087467F2802A78A37425F208747D73
:10391F00F2801F78A37425F2087493F2801478A3B1
:10392F007425F20874A9F2800978A37427F2087439
:10393F0097F2E4FFEFC39416503478A3E2FC08E249
:10394F00F5828C83E493FE780EE2FB08E2FA08E23C
:10395F00F9EE1203B60F78A4E22401F218E2340054
:0E396F00F27810E22401F218E23400F280C671
:01397D002227
:104D9E00781EE2FFE4FBFD123511124331781DE25D
:074DAE00FFE4FBFD023511DB
:1013F000E478A6F208F2124FAC500F124F757C0041
:101400007D0A1203EA78A6EE8021124F9EEF600F4C
:101410001200037C007D0A1203EA78A6EE800C78A5
:1014200025E275F064A4FF78A6E5F0F208EFF27803
:1014300042E2FF3395E0FE78A7E22FF218E23EF297
:10144000E418F278A5E2FFC39405500D74022FF85A
:10145000E4F278A5E204F280EA78A57404F2D37885
:10146000A7E2940018E264809480500618E2940089
:10147000403278A6E2FA08E2FB7C007D0AFFAE0269
:1014800012045178A5E22402F8EDF278A5E214F2F4
:101490007C007D0AAF03AE0212045178A6EEF2087A
:1014A000EFF280BA7802E2600302161678A5F278AD
:1014B000A5E2FDC3940450457803E275F004A47CD2
:1014C000002DFFEC35F0FE7814E22FFF18E23EFE0F
:1014D00078A3F208EFF2F5828E83E493FF780EE2B0
:1014E000FB08E2FA08E2F9EF1203B678A5E204F28B
:1014F0007810E22401F218E23400F280B2780EE2B1
:10150000FB08E2FA08E2F9E41203B6E22401F21859
:10151000E23400F2E478A5F278A5E2FDC394045029
:10152000457804E275F004A47C002DFFEC35F0FE54
:101530007814E22FFF18E23EFE78A3F208EFF2F5EE
:10154000828E83E493FF780EE2FB08E2FA08E2F968
:10155000EF1203B678A5E204F27810E22401F21843
:10156000E23400F280B2780EE2FB08E2FA08E2F917
:10157000E41203B6E22401F218E23400F218E2FBAE
:1015800008E2FA08E2F974031203B6E22401F21841
:10159000E23400F218E2FB08E2FA08E2F9740312FE
:1015A00003B6E22401F218E23400F218E2FB08E28A
:1015B000FA08E2F9E41203B6E22401F218E2340078
:1015C000F2E478A5F278A5E2FDC394044003021783
:1015D000687805E275F004A47C002DFFEC35F0FE80
:1015E0007814E22FFF18E23EFE78A3F208EFF2F53E
:1015F000828E83E493FF780EE2FB08E2FA08E2F9B8
:10160000EF1203B678A5E204F27810E22401F21892
:10161000E23400F280AF780EE2FB08E2FA08E2F969
:10162000E41203B6E22401F218E23400F2E478A5F1
:10163000F278A5E2FDC3940450457802E275F00407
:10164000A47C002DFFEC35F0FE7814E22FFF18E2A9
:101650003EFE78A3F208EFF2F5828E83E493FF78E2
:101660000EE2FB08E2FA08E2F9EF1203B678A5E20F
:1016700004F27810E22401F218E23400F280B27829
:101680000EE2FB08E2FA08E2F9E41203B6E22401F2
:10169000F218E23400F2E478A5F278A5E2FDC394F2
:1016A0000450457803E275F004A47C002DFFEC356E
:1016B000F0FE7814E22FFF18E23EFE78A3F208EF66
:1016C000F2F5828E83E493FF780EE2FB08E2FA08DB
:1016D000E2F9EF1203B678A5E204F27810E22401F1
:1016E000F218E23400F280B2780EE2FB08E2FA0867
:1016F000E2F9E41203B6E22401F218E23400F2E463
:1017000078A5F278A5E2FDC3940450457804E2750B
:10171000F004A47C002DFFEC35F0FE7814E22FFFDE
:1017200018E23EFE78A3F208EFF2F5828E83E4938E
:10173000FF780EE2FB08E2FA08E2F9EF1203B6784E
:10174000A5E204F27810E22401F218E23400F280FB
:10175000B2780EE2FB08E2FA08E2F9E41203B6E21C
:101760002401F218E23400F2780EE2FB08E2FA08F3
:10177000E2F9E41203B6E22401F218E23400F218AE
:10178000E2FB08E2FA08E2F9743E1203B6E2240131
:10179000F218E23400F218E2FB08E2FA08E2F97407
:1017A000411203B6E22401F218E23400F218E2FB1F
:1017B00008E2FA08E2F974411203B6E22401F218D1
:1017C000E23400F218E2FB08E2FA08E2F97441128E
:1017D00003B6E22401F218E23400F218E2FB08E258
:1017E000FA08E2F974221203B6E22401F218E23494
:0217F00000F205
:0117F20022D4
:102CE400E478A4F208F20812061F00000000124F54
:102CF40065AC06AD07EC1202C178A6120613E4FB1C
:102D0400FA79207841C00078A6E2FC08E2FD08E2E6
:102D1400FE08E2FFD00012021F7B5C7A8F790278F2
:102D24003F12002578A612061378A6E2FC08E2FDFD
:102D340008E2FE08E2FF1202FA78A4EEF208EFF2CB
:102D4400780EE2FB08E2FA08E2F9E41203B6E224A0
:102D540001F218E23400F218E2FB08E2FA08E2F9A0
:102D6400E41203B6E22401F218E23400F2E478A398
:102D7400F278A3E2FFC3648094855055EFFB33954A
:102D8400E0FA08E2FE08E2FF7C007D641204518F41
:102D9400828E837405120638E5822BF582E5833A28
:102DA400F583E5822499F582E5833406F583E4937B
:102DB400FF780EE2FB08E2FA08E2F9EF1203B678B4
:102DC400A3E204F27810E22401F218E23400F28063
:102DD400A0780EE2FB08E2FA08E2F9E41203B6E294
:102DE4002401F218E23400F2E478A3F278A3E2FFBB
:102DF400C364809485505CEFFB3395E0FA08E2FEEF
:102E040008E2FF7C007D0A1204517C007D0A120452
:102E1400518D828C837405120638E5822BF582E588
:102E2400833AF583E5822499F582E5833406F583B4
:102E3400E493FF780EE2FB08E2FA08E2F9EF1203EA
:102E4400B678A3E204F27810E22401F218E2340026
:102E5400F28099780EE2FB08E2FA08E2F9E4120340
:102E6400B6E22401F218E23400F2E478A3F278A383
:102E7400E2FFC3648094855055EFFB3395E0FA0874
:102E8400E2FE08E2FF7C007D0A1204518D828C83ED
:102E94007405120638E5822BF582E5833AF583E55D
:102EA400822499F582E5833406F583E493FF780E52
:102EB400E2FB08E2FA08E2F9EF1203B678A3E204AF
:102EC400F27810E22401F218E23400F280A0780EC5
:102ED400E2FB08E2FA08E2F9E41203B6E22401F2A2
:102EE40018E23400F218E2FB08E2FA08E2F9E4120C
:102EF40003B6E22401F218E23400F218E2FB08E21D
:102F0400FA08E2F9E41203B6E22401F218E234000A
:012F1400F2CA
:012F15002299
:1027EA00E478A4F208F20812061F00000000124F53
:1027FA00AC5005124F7D8009124F9EBF600A124FDE
:10280A006D78A4EEF208EFF278A4E2FC08E2FDE4A7
:10281A001202C178A6120613E4FBFA79C87842C0FC
:10282A000078A6E2FC08E2FD08E2FE08E2FFD0001A
:10283A0012021F7B5C7A8F7902783F12002578A6F4
:10284A0012061378A6E2FC08E2FD08E2FE08E2FF9F
:10285A001202FA78A4EEF208EFF2780EE2FB08E22E
:10286A00FA08E2F9E41203B6E22401F218E23400AB
:10287A00F218E2FB08E2FA08E2F9E41203B6E224EB
:10288A0001F218E23400F2D3EF9409EE94004067A3
:10289A00E478A3F278A3E2FFC3648094854003023C
:1028AA00292FEFFB3395E0FA08E2FE08E2FF7C00ED
:1028BA007D0A1203FC8F828E837405120638E58224
:1028CA002BF582E5833AF583E5822499F582E5833F
:1028DA003406F583E493FF780EE2FB08E2FA08E295
:1028EA00F9EF1203B678A3E204F27810E22401F2B7
:1028FA0018E23400F2809DE478A3F278A3E2C3647C
:10290A008094855020780EE2FB08E2FA08E2F9E4A6
:10291A001203B678A3E204F27810E22401F218E274
:10292A003400F280D6780EE2FB08E2FA08E2F9E413
:10293A001203B6E22401F218E23400F2E478A3F2B8
:10294A0078A3E2FFC3648094855055EFFB3395E08A
:10295A00FA08E2FE08E2FF7C007D0A1203FC8D827F
:10296A008C837405120638E5822BF582E5833AF5E5
:10297A0083E5822499F582E5833406F583E493FF9F
:10298A00780EE2FB08E2FA08E2F9EF1203B678A33E
:10299A00E204F27810E22401F218E23400F280A094
:1029AA00780EE2FB08E2FA08E2F9E41203B6E2243E
:1029BA0001F218E23400F218E2FB08E2FA08E2F93E
:1029CA00E41203B6E22401F218E23400F218E2FB40
:1029DA0008E2FA08E2F974621203B6E22401F21874
:1029EA00E23400F218E2FB08E2FA08E2F97464122F
:1029FA0003B6E22401F218E23400F218E2FB08E21C
:102A0A00FA08E2F974081203B6E22401F218E23471
:102A1A0000F218E2FB08E2FA08E2F974131203B6AC
:102A2A00E22401F218E23400F218E2FB08E2FA08A2
:102A3A00E2F974231203B6E22401F218E23400F236
:102A4A0018E2FB08E2FA08E2F9E41203B6E224010A
:102A5A00F218E23400F218E2FB08E2FA08E2F9E4BA
:0C2A6A001203B6E22401F218E23400F27C
:012A7600223D
:1049B800781FE2FFC3941850257837E26406701E0A
:1049C800EF781F30E009E2C3139027C3938008E211
:0F49D800C3139027C393C4540FFF7817EFF22235
:104428001243891249B8781CE2B40900503C904400
:104438003DF828287302445802445A02445D024455
:104448006002446302446602446902446C02446F99
:1044580080180246FD0244760238BF024D9E0213C0
:0E446800F0022CE40227EA023EA8124AC1220A
:10492100ED12039412037BFF78A8E2D36480F8EFC1
:10493100648098400678A7E21203B612037BFF78E1
:10494100A7E2C36480F8EF648098500678A8E21269
:0349510003B62288
:104E0C007BFE7A007911AD0778A77402F208740D55
:044E1C00F202492134
:103A30007811E224FEB40C005078903A4875F003F7
:103A4000A4C58325F0C58373023A6C023A72023A28
:103A500078023A7E023A8A023A96023A9C023AA2E6
:103A6000023AA8023A84023A90023AAE7E267F5980
:103A700080407E267F6F803A7E267F8580347E263A
:103A80007F9B802E7E267FB180287E267FC7802266
:103A90007E267FDD801C7E267FF380167E277F09B1
:103AA00080107E277F6B800A7E277F8180047E279F
:103AB0007FADE4FDEDC3941650158F828E83E493A1
:0F3AC000FC74082DF8A6040D0FBF00010E80E561
:013ACF0022D4
:103613001243897819E2FFC3940F5004C200800C4F
:10362300EFC3942D5004D2008002C2007824E270CC
:103633007678A3F278A3E2C394095020780EE2FBD4
:1036430008E2FA08E2F9E41203B678A3E204F27896
:1036530010E22401F218E23400F280D8E478A3F2F5
:1036630078A3E2FFC394045026EF90068193FF787A
:103673000EE2FB08E2FA08E2F9EF1203B678A3E2DE
:1036830004F27810E22401F218E23400F280D178D7
:103693001DE2FF7824E2FE700A300003EE60047D31
:1036A30001806C7D008068781FE2FF7824E2FEB41D
:1036B300020B300004640260047D0180027D00E49B
:1036C300FB123511E478A3F278A3E2FFC39404500C
:1036D30026EF90068193FF780EE2FB08E2FA08E2F8
:1036E300F9EF1203B678A3E204F27810E22401F2B0
:1036F30018E23400F280D1781EE2FF7824E2FEB4AF
:10370300010B300004640160047D0180027D00E44C
:04371300FB1235115F
:01371700228F
:103718001243897819E2FFC3940F5004C200800C49
:10372800EFC3942D5004D2008002C2007824E264D2
:10373800067058780EE2FB08E2FA08E2F91234E95A
:10374800780EE2FB08E2FA08E2F9E41203B6E22492
:1037580001F218E23400F27823E2FF08E2FEB40630
:103768000B300004640660047D0180027D00E4FBE8
:10377800123511780EE2FB08E2FA08E2F9E41203C6
:10378800B6E22401F218E23400F2227821E2FF784E
:1037980024E2FEB4040B300004640460047D01805C
:1037A800027D007B01123511E4FFEFC39404502021
:1037B800EF90067993FE780EE2FB08E2FA08E2F948
:1037C800EE1203B60FE22401F218E23400F280DAB6
:1037D8007822E2FF7824E2FEB4050B300004640589
:0D37E80060047D0180027D00E4FB123511BC
:0137F50022B1
:101F5900124389784FE2FF704C7845E278A5600911
:101F69007427F208741FF280077427F2087435F297
:101F7900E478A3F278A3E2FEC39416400302225B3D
:101F890078A5E2FC08E2F5828C83E493FD74082EBF
:101F9900F8A60578A3E204F278A6E22401F218E291
:101FA9003400F280CFEF6401600A784FE264026086
:101FB900030220437819E2FFC3940F5004C2008042
:101FC9000CEFC3942D5004D2008002C2007846E27F
:101FD900FF784FE2FEB4010B300004640160047D18
:101FE9000180027D00E4FB123511E478A3F278A3A5
:101FF900E2FFC394045026EF90068193FF780EE226
:10200900FB08E2FA08E2F9EF1203B678A3E204F258
:102019007810E22401F218E23400F280D17847E224
:10202900FF784FE2FEB4020B300004640260047DC5
:102039000180027D00E4FB0235117819E2FFC394A7
:102049001B5004C200800CEFC394215004D20080BD
:1020590002C200784FE224FDB40700506E9020744C
:1020690075F003A4C58325F0C58373022089022076
:102079009402209F0220AA0220B50220C00220CB90
:1020890078A57425F20874BFF2804078A57425F20A
:102099000874D5F2803578A57425F20874EBF280BE
:1020A9002A78A57426F2087401F2801F78A574268F
:1020B900F2087417F2801478A57426F208742DF2C8
:1020C900800978A57426F2087443F2E478A3F278BB
:1020D900A3E2FFC39416400302225BE408F2EF1265
:1020E90006492119012119022146042146052173B6
:1020F9000721730821A00A21A00B21C30D21C30EBA
:1021090021E61021E6112209132209140000222DCB
:10211900784FE2FF640360057848E2704AEF640390
:10212900600302222D7848E2FF6003300039EF6036
:102139000302222D20000302222D022228784FE2D9
:10214900FF640460057849E2701DEF6404600302CE
:10215900222D7849E2FF600330000CEF6003022270
:102169002D20000302222D022228784FE2FF640568
:102179006005784AE2701DEF6405600302222D783C
:102189004AE2FF600330000CEF600302222D2000B9
:102199000302222D022228784FE2FF6406600578A7
:1021A9004BE27014EF6406707B784BE2FF600330FA
:1021B9000006EF706F30006C8065784FE2FF6407AE
:1021C9006005784CE27014EF64077058784CE2FFB0
:1021D9006003300006EF704C3000498042784FE2CE
:1021E900FF64086005784DE27014EF640870357873
:1021F9004DE2FF6003300006EF7029300026801F92
:10220900784FE2FF6409600418E27013EFB409140F
:10221900784EE2FF6003300006EF70083000057861
:10222900A47401F278A5E2FE08E2F5828E83E493B4
:10223900FF78A4E2FEEF4EFF18E22408F8A607781B
:10224900A3E204F278A6E22401F218E23400F202D1
:0222590020D88B
:01225B002260
:103D1500780EE4F2087400F2087408F2E4FEEEC3CB
:103D250094105020EE90274B93FD780EE2FB08E2AD
:103D3500FA08E2F9ED1203B60EE22401F218E234B4
:103D450000F280DA780EE2FB08E2FA08E2F9E41202
:103D550003B6E22401F218E23400F2E4FEEEC39465
:103D650005503675F005EFA42EF582E435F0F583A0
:103D7500E5822499F582E5833406F583E493FD789D
:103D85000EE2FB08E2FA08E2F9ED1203B60EE224B0
:093D950001F218E23400F280C4CE
:013D9E002202
:104C9E007BFE7A007935AD07904816E49378A7F23B
:0A4CAE0090482AE49308F20249211D
:104CB8007BFE7A007933AD07904814E49378A7F225
:0A4CC800904828E49308F202492105
:104CD2007BFE7A007934AD07904815E49378A7F209
:0A4CE200904829E49308F2024921EA
:104BA9007BFE7A007937AD07904818E49378A7F22D
:104BB90090482CE49308F21249217837E27817F2E9
:034BC9000249B8E6
:104CEC007BFE7A007932AD07904813E49378A7F2F3
:0A4CFC00904827E49308F2024921D2
:1049E7007832E260067E277F1F80047E277F35E4CA
:1049F700FDEDC3941650158F828E83E493FC7408E3
:0C4A07002DF8A6040D0FBF00010E80E585
:014A13002280
:104D06007BFE7A007943AD07904824E49378A7F2B6
:0A4D1600904838E49308F2024921A6
:102A7700780EE4F2087400F2087408F27843E2FF73
:102A8700C36480948040028001D39200300005EF38
:102A9700F40480037843E278A6F2E478A5F278A5F7
:102AA700E2FFC364809483500D74072FF8E4F27833
:102AB700A5E204F280E878A57402F278A6E2D3943E
:102AC70000500818E264809480401E78A6E2FF75E3
:102AD700F00A8418E22407F8E5F0F278A5E214F288
:102AE700EF75F00A8408F280D278A67403F220000A
:102AF70004E22405F27807E2701178A6E22405F2D1
:102B07007808E2700678A6E22405F2E478A5F27860
:102B1700A6E2FF18E2FD3395E0FCC3ED9F7480F851
:102B27006C985020780EE2FB08E2FA08E2F9E4120A
:102B370003B678A5E204F27810E22401F218E23431
:102B470000F280CB300046E478A5F278A5E2C364B2
:102B57008094845021780EE2FB08E2FA08E2F974C7
:102B6700081203B678A5E204F27810E22401F218FD
:102B7700E23400F280D5780EE2FB08E2FA08E2F9C7
:102B8700E41203B6E22401F218E23400F27807E215
:102B9700D394004070E478A5F278A5E2FDC3648081
:102BA7009484504A7807E275F004A4FFED3395E06A
:102BB700FCEF2DFFE5F03CFE7814E22FFF18E23E14
:102BC700FE78A3F208EFF2F5828E83E493FF780E86
:102BD700E2FB08E2FA08E2F9EF1203B678A5E2048D
:102BE700F27810E22401F218E23400F280AB780E9A
:102BF700E2FB08E2FA08E2F9E41203B6E22401F282
:102C070018E23400F27807E2D39400500608E29401
:102C1700004070E478A5F278A5E2FDC3648094844F
:102C2700504A7808E275F004A4FFED3395E0FCEF15
:102C37002DFFE5F03CFE7814E22FFF18E23EFE7808
:102C4700A3F208EFF2F5828E83E493FF780EE2FB9E
:102C570008E2FA08E2F9EF1203B678A5E204F2787F
:102C670010E22401F218E23400F280AB780EE2FBA6
:102C770008E2FA08E2F9E41203B6E22401F218E2E4
:102C87003400F2E478A5F278A5E2FDC36480948469
:102C9700504A7809E275F004A4FFED3395E0FCEFA4
:102CA7002DFFE5F03CFE7814E22FFF18E23EFE7898
:102CB700A3F208EFF2F5828E83E493FF780EE2FB2E
:102CC70008E2FA08E2F9EF1203B678A5E204F2780F
:0C2CD70010E22401F218E23400F280AB9D
:012CE30022CE
:104D20007BFE7A007942AD07904823E49378A7F29E
:0A4D3000904837E49308F20249218D
:0F4EB200780EE4F2087400F2087408F20213F0AC
:104E34007BFE7A007915AD07E478A7F2087463F273
:034E4400024921FF
:1040E8007816E2FF781DE2FEC39FC394014014785E
:1040F80015E29401400D08EEF2781AE204F27818FD
:10410800E214F27815E214FF7818E2FD12455878A7
:104118001AE2B43C12E4F27818743BF27815E2C360
:1041280094014003E214F27815E2701EFDFF124577
:10413800587836E2FF7E007C007D3C1203EA78293D
:0B414800EEF208EFF278127410F22281
:0445580078A3EDF265
:10455C00780EE4F2087400F2087408F2E4FBFD1221
:10456C003511E4FFEFC394045020EF90068193FEC5
:10457C00780EE2FB08E2FA08E2F9EE1203B60FE25B
:10458C002401F218E23400F280DA78A3E2FFE4FBB3
:04459C00FD023511D6
:10407B00781CE275F003A424CFF582E43427F58392
:10408B00E493FF780DE2D39F4052781CE204F2E4F4
:10409B00780DF2781CE2D394094002E4F2781CE22A
:1040AB00B4060B124F9EEF7005781C7407F2781C48
:1040BB00E2B40712124F9EEF6460600A124FAC40DD
:1040CB0005781C7408F2781CE2B40810E43007027F
:0D40DB008005781CF274FF780BF208F222C9
:0D4F0A007833E2B40504E4780DF202407B38
:0E4EEE00C3780BE264809480500312407B2254
:103EA800780BE2FE08E2FF24EA78A4F2EE34FF1869
:103EB800F2780AE22416FDE433FCD3EF9DEC64802B
:103EC800F8EE648098400E74FF780BF208F2E478FC
:103ED8001CF2780DF2E4FFEFFD78A4E22DFD18E264
:103EE8003400FCC3648094804025780AE2FBED9B93
:103EF8007480F86C98501878A308E22F24D6F582BD
:103F0800E43400F583E0FE74082FF8A606800674F2
:0A3F1800082FF8E4F60FEFB416BD11
:013F2200227C
:104D3A00780AE2C394FE5010E2FE04F274D62EF50D
:094D4A0082E43400F583EFF0224D
:04400A0078A4EFF2B5
:10400E00E4780AF278A5F278A4E214FF08E2C39FDE
:10401E00505A12037BFDC394A0400674C02DFD8040
:10402E000EEDC39420400674E02DFD80027D1FE44A
:10403E00FC75F005EDA42CF582E435F0F583E582F0
:10404E0024A1F582E5833407F583E493FF64A5602C
:10405E0003124D3A0CECB405D8E4FF124D3A78A594
:0C406E00E204F2740129F9E43AFA809BA4
:01407A002223
:100675000000000000080800001C1C0000363600C1
:10068500002436000024240000240000003030003F
:10069500000606007F7F417F7F00007F7F000F4FB0
:1006A5004979794149497F7F7878087F7F79794908
:1006B5004F0F7F7F494F0F4040407F7F7F7F497FAE
:1006C5007F7879497F7F3040454830705070003ED3
:1006D5007F6341417F41417F00007F004F49497958
:1006E5004949497F7808087F7949494F7F49494FEA
:1006F5004040407F7F49497F7949497F3E41413E9E
:1007050000217F0123454931425169460C14247F5C
:100715007251514E1E294906404F5060364949369F
:1007250030494A3C7E41413F00407F000F494939ED
:100735004949493E7C04041F7849490F7F494907C7
:100745006040403F7E49493F7849493F7F63637F29
:1007550000607F006F6B6B7B6B6B6B7F7878087FBE
:100765007B7B4B4F7F7F494F40407F7F7F6B6B7F0C
:100775007B6B6B7F007F417F00007F00004F4979D5
:100785000049497F0078087F0079494F007F494F2C
:100795000040407F007F497F0079497F00000000CD
:1007A500A57DA5A5A5A5700070A5A5147F147F142A
:1007B500122A7F2A246264081323364955220550DC
:1007C50060A5A5A51C2241A5A541221CA5A5140827
:1007D5003E081408083E08080506A5A5A504040456
:1007E50004A501A5A5A5A502040810203E41413E8A
:1007F500A500217F01A521434539A522414936A5FB
:100805000C14247FA57251514EA53E494926A54099
:10081500474870A536494936A53249493EA512A52E
:10082500A5A5A50112A5A5A508142241A514141472
:10083500141441221408A520404548303E415D5519
:100845003C1F2444241F7F494949363E41414122EA
:100855007F4141221C7F494949417F484848403EE4
:100865004149492F7F0808087F417F41A5A502011D
:10087500417E407F081422417F010101A57F201898
:10088500207F7F1008047F3E4141413E7F48484814
:10089500303E4145423D7F484C4A3132494949261F
:1008A50040407F40407E0101017E700C030C707E4C
:1008B500010E017E63140814637008070870434530
:1008C5004951617F4141A5A50C123F120441417F69
:1008D500A5A5102040201001010101014020A5A57A
:1008E500A5021515150F7F0911110E0E1111110213
:1008F5000E1111097F0E1515150C083F48402018DB
:100905002525253E7F0810100F115F01A5A50201C1
:10091500115EA57F040A11A5417F01A5A51F100C35
:10092500100F1F08100FA50E1111110E3F242222C2
:100935001C1C2222243F1F081008A50815151502A6
:10094500107E1101021E0101021F18060106181E64
:100955000106011E110A040A11180505051E1113C9
:10096500151911083641A5A57FA5A5A5A5413608E8
:10097500A5A508100810A5A5A5A5A5A5021E3F1E9D
:10098500023049294936184525451E0201417E4058
:100995002A1C771C2A3F202020607F7F7F7F7F7F56
:1009A5007F7F7F7F3F692969217F7F7F7F7F3E49E9
:1009B50049412208142A14227F7F7F7F7F1E292721
:1009C500211E7F7F7F7F7F413F41A5A5003048489D
:1009D5003009097D0909417F41A5A5115F01A5A53B
:1009E5001F101058A57F7F7F7F7F7F7F7F7F7F7F51
:1009F5007F7F7F7F0E5515550C7F7F7F7F7F0E157F
:100A050015110A22142A14087F7F7F7F7F7F7F7F3D
:100A15007F7F7F7F7F7F7F511F51A5A53F44444442
:100A25003F7F494949467F494949367F40404060B3
:100A3500033E427E037F4949494177087F08774154
:100A4500494949367F0408107F3F0264083F7F0803
:100A5500142241011E20407F7F2018207F7F080837
:100A6500087F3E4141413E7F4040407F7F484848A6
:100A7500303E4141412240407F4040700909097E96
:100A85003C42FF423C63140814637F01017F0170FF
:100A95000808087F7F017F017F7E027E027F407FFD
:100AA5000909067F0906007F7F0911110E224149B8
:100AB500493E7F083E413E314A4C487F0215151597
:100AC5000F1E292949061F15150AA51F101018A55F
:100AD500030E121E030E1515150C1B041F041B1106
:100AE50015150AA51F0204081F1F4224481F1F04CD
:100AF5000A11A50708101FA51F0804081F1F0404D5
:100B05001FA50E1111110E1F10101FA51F14121273
:100B15000C0E1111110210101F1010180505051EDD
:100B25000C129F120C110A040A111F01011F011852
:100B350004041FA51F011F011F1E021E021F101FF7
:100B45000505021F0502001F1F050502A50A11154F
:0C0B5500150E1F040E110E081516141FBB
:104A970000000001010100FF003B3B17071F0C63EB
:104AA700FF630000001F003B005A0078009700B525
:0A4AB70000D400F301110130014E9C
:1041BE007822E2FFD3940240047E0080027E0178D2
:1041CE0023E2240CC39EFDEE75F00CA42F24FEF901
:1041DE00EDFF7821E22FFFE433FEED1313543F7C05
:1041EE00002FFBEC3EFAE975F01FA4FFAEF07D0C3C
:1041FE001203FCEF2BFFEE3ACF24FFCF34FFFE7CF1
:10420E00007D071203FCAF057820EFF270037407F0
:01421E00F2AD
:01421F00227C
:104BEF007822E2FFB4020F08E2540360047E1D80B6
:104BFF00027E1CAF0622EFD3940740010FEF441E35
:014C0F00FFA5
:014C10002281
:1043D9007FD0124D6C7F0A124B377F81124B3712F7
:1043E9004ED07FD0124D6C7F0D124B377F81124B0F
:1043F900377F04124B37E4FF124B377843E2FF1241
:104409004B37124ED01241537820E278A3F2124171
:0E441900BE7820E2FF78A3E26F6003124A6CC7
:014427002272
:104AE9007FD0124D6CE4FF124B37E478A3F278A320
:104AF900E2FFD39402500D124BCC124B3778A3E24C
:074B090004F280EA024ED025
:104A6C001241BE7FD0124D6C7F03124B3778A47469
:104A7C0003F278A4E2FFD39406500D124BCC124BE8
:0B4A8C003778A4E204F280EA024ED06A
:104E20007FD0124D6C7F10124B377843E2FF124B4C
:044E300037024ED027
:104153007FD0124D6CE4FF124B37124ED07FD11239
:104163004D6CE478A4F278A4E2FFD39406502BEFCD
:10417300B40603C38001D3920112498678A5EFF2F6
:10418300124EC178A4E27C007BFE241DF9EC3400BE
:10419300FAEF1203B6E204F280CC124ED07FD012B3
:1041A3004D6C7F11124B37124ED07FD1124D6CC222
:0B41B300011249867825EFF2024ED081
:043BFB0078A3EFF2CA
:103BFF007824E2FFFD7C00241DF9EC3400FA78A450
:103C0F0074FEF208EAF208E9F27BFF74A02DF9ECDA
:103C1F00344AFA12037BFEEF2497F9EC344AFA1276
:103C2F00037BFD7824E2B40405124BEFAE0778A3B3
:103C3F00E2FF08E2FB08E2FA08E2F9EF12039478D8
:103C4F00A4E2FB08E2FA08E2F912037BFFD3EE6469
:103C5F0080F8EF6480984004ED1203B678A4E2FB7D
:103C6F0008E2FA08E2F912037BFFC3ED6480F8EF74
:093C7F006480985004EE1203B6B3
:013C88002219
:104B10007824E2601024FE600A24FE24FD50042460
:104B200006700E800678247404F2227824E214F2CF
:074B30002278247402F22236
:104876007822E2FF25E024A7F582E4344AF583187E
:10488600E2FD7401932DFDE4933400FC7823E25499
:1048960003700CEFD3940240067E007F0180047EF5
:0A48A600007F00ED2FFFEC3EFE2224
:0F4EC100EFC4540F75F00AA4FEEF540F2EFF221A
:104BCC007E007BFE741D2FF9EE3400FA12037BFF7E
:104BDC00EF75F00A84C454F0FEEF75F00A84E5F02A
:034BEC002EFF2277
:104E9100124F99D2C1124F99A2C29203C2C1A20369
:014EA10022EE
:074F8500A20292C2024E914C
:104D530078A3EFF2D2C1D2C2124F99C2C2124F99B5
:094D6300C2C178A3E2FF024B5E1D
:104D6C0078D3EFF2D2C1D2C2124F99C2C2124F996C
:094D7C00C2C178D3E2FF024B37FB
:0F4ED000C2C1C2C2124F99D2C1124F99D2C2228F
:044B370078D4EFF24D
:104B3B00E408F2F278D4E2339202124F8578D4E291
:104B4B00FF25E0F208E204F2E2C3940840E6D20249
:034B5B00024F8581
:044B5E0078A4EFF256
:104B6200E408F2F278A4E2339202124F8578A4E2CA
:104B7200FF25E0F208E204F2E2C3940840E6D2C262
:034B8200024E914F
:10498600D2C2E478D4F218F278D4E2FF25E0F2122B
:104996004E91500678D4E24401F278D3E204F2E272
:1049A600C3940840E3A201B39202124F8578D4E281
:0149B600FF01
:0149B70022DD
:044F99007F02DFFEB6
:014F9D0022F1
:0A4F3C00EF60077E13DEFE1F80F613
:014F46002248
:0E4EDF00EF600B7E127DEBDDFEDEFC1F80F22D
:014EED0022A2
:10429C00812D00812B0082290000812C00812EFAB7
:0A42AC00812F008226000081280007
:1037F600E4FF20C6010F20C504EF4402FF20C404E5
:10380600EF4404FFEF602A7828E2FEB5071D18E2B0
:103816002401F218E23400F208E2647D700218E234
:103826007035EEC454F0782FF2802C7828EFF280B1
:10383600267826E2FE08E2FFD39419EE648094808F
:10384600400FEF947DEE64809480500508E2782F57
:10385600F2E47826F208F2782EE26005E214F280AD
:1038660028782E74FAF218E26003E214F2782BE25A
:103876006003E214F2782AE2700218E2600B782AFA
:10388600E224FFF218E234FFF2782CE26005E2143B
:10389600F2800E782AE2700218E26005782C74FA3B
:1038A600F2782CE2540ED39408400B782EE2D3948F
:0838B6007D4005C2C322D2C30C
:0138BE0022E7
:104EA200782CEFF2782E74FAF2E47829F208F222E2
:064F8C00782FE2FFE4F2C1
:014F920022FC
:1047FE00FF00020000010500071E0101010101007A
:10480E0000000000FF000101010000000000000098
:10481E000000000000F78000FF01050605010601FB
:0C482E00173B01010101010101097F029B
:0342B60081300054
:10422000D200E478A4F278A4E2FFC39409501D7E82
:10423000007BFE74382FF9EE3400FA12037BF46031
:1042400004C200800778A4E204F280DA30002EE491
:1042500078A4F278A4E2FF7C007BFF24FEF9EC3422
:1042600047FA12037BFEEF1B2431F9EC3400FAEE1F
:0D4270001203B6E204F2E2B414D91247C101
:01427D00221E
:1048E900E478A3F278A3E2FDC3941450287830E267
:1048F90025E0FE7C00E42DFFEC3EFE124DB578A3C9
:10490900E27C007BFE2431F9EC3400FAEF1203B6A5
:08491900E204F280CF0242200B
:1047C1007830E2FF7E00124DF7E478A5F278A5E299
:1047D100FDC3941450267830E225E0FE7C00E42DE0
:1047E100FFEC3EFE7BFE74312DF9EC3400FA12032E
:0C47F1007BFD124D8578A5E204F280D11A
:0147FD002299
:104DCC0000000000000000000000FF01173B010183
:064DDC000101010101FFCD
:1048B000E478A3F278A3E2FFFD3395E0FC7BFE747D
:1048C000382DF974003CFA12037BFEEF3395E0FCBF
:1048D00074452DF974003CFAEE1203B6E204F2E2DC
:0848E000B40AD1784F74FFF215
:0148E80022AD
:10483A00E478A3F278A3E2FFFD3395E0FC7BFE74F3
:10484A00452DF974003CFA12037BFEEF3395E0FC28
:10485A0074382DF974003CFAEE1203B6E204F2E25F
:0B486A00B40AD11247C1784F74FFF26E
:014875002220
:104E4700784FE2C3648094894003E4F222784FE20A
:034E570004F22240
:043C890078A3EFF23B
:103C8D00784FE2FFFD3395E0FC74452DF974003C4F
:103C9D00FA78A474FEF208EAF208E9F27BFF74D711
:103CAD002DF9744D3CFA12037BFEEFFD3395E0FCCC
:103CBD0074CC2DF9744D3CFA12037BFF78A3E2FD11
:103CCD0008E2FB08E2FA08E2F9ED12039478A4E2A7
:103CDD00FB08E2FA08E2F912037BFDD3EE6480F8EB
:103CED00ED6480984004EF1203B678A4E2FB08E27D
:103CFD00FA08E2F912037BFDC3EF6480F8ED6480EE
:073D0D00985004EE1203B60A
:013D1400228C
:0D4F1700E4F5C7F5C5F5C675C380F5C422E5
:104DB50075C78275C5018FC4EEF5C375C65A75C62C
:074DC500A500AFC2024F1769
:104D850075C78275C5028FC4EEF5C3AF058FC275B1
:094D9500C65A75C6A500024F17AD
:104DF70075C78275C5038FC4EEF5C375C65A75C6E8
:054E0700A500024F1799
:014FAF0022DF
:104E5A00438E805389F0E4F58A758CF7C28DD28C23
:034E6A00D2A922A8
:094F5C00124E5A124FAFD2AF22DF
:03000B000244C3E9
:1044C300C0E0C0F0C083C082C0D075D000C000C0BF
:1044D30001C002C003C004C005C006C0071233A553
:1044E3007850E204F2E2D394204005E4F21237F666
:1044F300D007D006D005D004D003D002D001D0001D
:0B450300D0D0D082D083D0F0D0E032C6
:03001B00024FB0E1
:014FB00032CE
:101BDF00D120CDCEC2DBCC20C3CEC4CECC2121218F
:101BEF0000D0EEE6E4E5F1F2E2EE20F5F0E8F1F2F6
:101BFF00EEE2EE2E00D1F2E0F0FBE920CDEEE2FBBB
:101C0F00E920E3EEE42E00CAF0E5F9E5EDE8E52082
:101C1F00C3EEF1EFEEE4EDE52E00D2E0F2FCFFEDC6
:101C2F00E8ED20E4E5EDFC2E00C4E5EDFC20E2F14B
:101C3F00E5F520E2EBFEE1EBB8EDEDFBF52E00C490
:101C4F00E5EDFC20E7E0F9E8F2EDE8EAE020CEF27E
:101C5F00E5F7E5F1F2E2E02E00CCE5E6E4F3EDE0A6
:101C6F00F0EEE4EDFBE920E6E5EDF1EAE8E920E44A
:101C7F00E5EDFC2E00C4E5EDFC20ECEEF0FFEAE014
:101C8F002DEFEEE4E2EEE4EDE8EAE02E00C4E5ED40
:101C9F00FC20F1ECE5F5E02E00C4E5EDFC20EAEECA
:101CAF00F1ECEEEDE0E2F2E8EAE82E00CFF0E0E74B
:101CBF00E4EDE8EA20C2E5F1EDFB20E820D2F0F3F5
:101CCF00E4E02E00C4E5EDFC20EFEEE1E5E4FB21BE
:101CDF00212100C4E5EDFC20EFE8EEEDE5F0E8E8AA
:101CEF002E00C4E5EDFC20EFEEE3F0E0EDE8F7EDBC
:101CFF00E8EAE02E00C4E5EDFC20E7E0F9E8F2FBAE
:101D0F0020E4E5F2E5E92E00C4E5EDFC20D0CED1CC
:101D1F00D1C8C82E00C4E5EDFC20ECEEEBEEE4E5F7
:101D2F00E6E82E00C4E5EDFC20F1E5ECFCE82C2004
:101D3F00EBFEE1E2E820E820E2E5F0EDEEF1F2E87B
:101D4F002E00C4E5EDFC20C2EEE7E4F3F8EDEE2D36
:101D5F00E4E5F1E0EDF2EDFBF520E2EEE9F1EA2E3C
:101D6F0000C4E5EDFC20C2EEE5EDEDEE2DE2EEE771
:101D7F00E4F3F8EDFBF520F1E8EB2E00C4E5EDFC04
:101D8F0020E7EDE0EDE8E92E00C4E5EDFC20F2E5FB
:101D9F00F1F2E8F0EEE2F9E8EAE02E00C4E5EDFC3E
:101DAF0020F3F7E8F2E5EBFF2E00C4E5EDFC20F0A1
:101DBF00EEE6E4E5EDE8FF20C4E5E4E020CCEEF04C
:101DCF00EEE7E02E00C4E5EDFC20FDEDE5F0E3E5E8
:101DDF00F2E8EAE02E00C4E5EDFC20EFF0EEE3F0D0
:101DEF00E0ECECE8F1F2E02E00C4E5EDFC20ECE5D0
:101DFF00E4E8F6E8EDF1EAEEE3EE20F0E0E1EEF2F2
:101E0F00EDE8EAE02E00C4E5EDFC20F1E8F1F2E5A3
:101E1F00ECEDEEE3EE20E0E4ECE8EDE8F1F2F0E0DB
:101E2F00F2EEF0E02E00C4E5EDFC20C2EEE5EDEDA4
:101E3F00EE2DCCEEF0F1EAEEE3EE20D4EBEEF2E095
:101E4F002E00CCE5E6E4F3EDE0F0EEE4EDFBE92067
:101E5F00E4E5EDFC20EFE8E2E02E00C4E5EDFC2028
:101E6F00F1F2F0EEE8F2E5EBFF2E00C4E5EDFC2019
:101E7F00F2E0EDEAE8F1F2E02E00C4E5EDFC20E03F
:101E8F00E2F2EEECEEE1E8EBE8F1F2E02E00C4E571
:101E9F00EDFC20ECE0F2E5F0E82E000101111BDF74
:101EAF000107141BF0010E121C040113131C160161
:101EBF00190F1C29020E161C3802171A1C4E030884
:101ECF001C1C680313181C8404010C1C9C040C13A9
:101EDF001CA80501181CBB05090F1CD305130F1CEB
:101EEF00E2051C131CF10601131D04060C0D1D1732
:101EFF00061B0F1D2407081E1D3308021F1D510846
:101F0F000C1B1D7009010D1D8B0909131D980A0566
:101F1F000E1DAB0B121B1DB90C16111DD461001336
:101F2F001DE536071D1DF87705201E1577071C1EAA
:101F3F00351805191E512807101E6A29070F1E7A1A
:0A1F4F007A07141E897B070D1E9D02
:0242B900C1073B
:1042D8007820E278A4F27F057851E4F208DFFC7FC9
:1042E800057821E278A4F278A4E2D3648094874028
:1042F80006E224F9F280F0124BEFAE07E4FFEFC3B9
:1043080094055024EEFD78A4E2F9FB3395E0FAD346
:10431800EB9D7480F86A98500F74512FF8E9F20FEA
:0843280078A4E22407F280D61C
:01433000226A
:104C30007855E2FF700C7821E2FE7854E2B5060A5E
:0C4C4000D3227821E2B50702D322C32260
:104E7F0074512FF8E2FF7821E2FEEFB50602D3223C
:024E8F00C3223C
:1030B100C207E4780AF21242D8E478A3F278A3E2D4
:1030C100FFC39423400302322B30070302322BEF5C
:1030D10075F005A424AAF582E4341EF583E493FF78
:1030E10054F0FEC4540F1424FB503F700302317797
:1030F1001470030231B12407600302321D78A3E288
:1031010075F005A424ABF582E4341EF583E493FE47
:103111007821E2FDEE6D6003023223EF540FFF08C8
:10312100E26F60030232230231E978A3E2FF75F016
:1031310005A424AAF582E4341EF583E493FE540F1A
:10314100FD7822E26D6003023223EF75F005A424BD
:10315100ABF582E4341EF583E493FF7820E26F60DF
:1031610003023223EE5470C4540F14FF124E7F40F9
:10317100030232238072124876AC06AD0778A3E2CF
:10318100FB75F005A424AAF582E4341EF583E493CB
:103191005401FEEB75F005A424ABF582E4341EF571
:1031A10083E493FBEB6D7002EC6E7076D207803C8A
:1031B10078A3E2FF75F005A424AAF582E4341EF594
:1031C10083E493540FFE7822E26E7056EF75F0059A
:1031D100A424ABF582E4341EF583E493FF7820E266
:1031E1006F703F124C30503AD20778A3E2FE75F06F
:1031F10005A424ACF582E4341EF583E493FFEE7557
:10320100F005A424ADF582E4341EF583E493FC7447
:103211000193AA04F97BFF12400A8006C207E478F1
:0A3221000AF278A3E204F20230BEC4
:01322B002280
:1042BB008175EC815C00825D000082560000827685
:0242CB000000F1
:104C110078A3EFF208EDF27875E2FF124D6C78A3FC
:0F4C2100E2FF124B3778A4E2FF124B37024ED05E
:044A140078A3EFF2A2
:104A18007875E2FF124D6C78A3E2FF124B37787578
:104A2800E24401FF124D6CC20112498678A4EFF2EC
:074A3800124ED078A4E2FF4A
:014A3F002254
:04473F0078D0EFF24D
:104743007875E2FF124D6C78D0E2FF124B37787523
:10475300E24401FF124D6CD201124986EFF8E4796D
:10476300D2F3E819F3C20112498678D1E2F208E2E2
:0C4773004FF2124ED078D1E2FE08E2FFB7
:01477F002217
:0447800078A3EFF239
:104784007875E2FF124D6C78A3E2FF124B3778750F
:10479400E24401FF124D6CD20112498678A4E4F27E
:1047A40008EFF2C201124986EFFE78A4E24EF20845
:0C47B400E2F2124ED078A4E2FE08E2FF10
:0147C00022D6
:034FA30002473F83
:034FA6000247803F
:04397E0078BBEFF231
:103982007875E2FF124D6C78BBE2FF124B37787507
:10399200E24401FF124D6CD201124986E4FCFDFEA5
:1039A200780C12060078BC12061378BCE2FB08E21F
:1039B200F908E2FA08E2CBF8C000C001C002C00375
:1039C200D201124986E4FCFDFE7804120600D003FF
:1039D200D002D001D000EB4FFFEA4EFEE94DFDE8E8
:1039E2004CFC78BC12061378BCE2FB08E2F908E250
:1039F200FA08E2CBF8C000C001C002C003C2011243
:103A02004986EFC4540FFFD003D002D001D000EB9F
:103A12004FFFEAFEE9FDE8FC78BC120613124ED015
:0D3A220078BCE2FC08E2FD08E2FE08E2FFCD
:013A2F002274
:103D9F007FAA12473F785FEEF208EFF27FAC12472F
:103DAF003F7861EEF208EFF27FAE12473F7863EE95
:103DBF00F208EFF27FB012473F7865EEF208EFF2AC
:103DCF007FB212473F7867EEF208EFF27FB41247E7
:103DDF003F7869EEF208EFF27FB612473F786BEE4D
:103DEF00F208EFF27FB812473F786DEEF208EFF26C
:103DFF007FBA12473F786FEEF208EFF27FBC12479F
:103E0F003F7871EEF208EFF27FBE12473F7873EE04
:053E1F00F208EFF222A1
:103B6A007F88124780787CEEF208EFF27F8A124F44
:103B7A00A6787EEEF208EFF27F8C124FA67880EEDE
:103B8A00F208EFF27F8E1247807882EEF208EFF2A7
:103B9A007F90124FA67884EEF208EFF27F92124FCE
:103BAA00A67886EEF208EFF27F94124FA67888EE96
:103BBA00F208EFF27F96124FA6788AEEF208EFF239
:103BCA007F98124FA6788CEEF208EFF27F9A124F86
:103BDA00A6788EEEF208EFF27F9C124FA67890EE4E
:103BEA00F208EFF27F9E124FA67892EEF208EFF2F9
:013BFA0022A8
:103F2300123B6A7FA1124A147894EFF27FE1124F99
:103F3300A67895EEF208EFF27FE3124A147897EF32
:103F4300F27FE4124A14EF75F010A4FFAEF0C0073D
:103F5300C0067FE5124A14EF540FFDD0E07898F2C3
:103F6300D0E04D08F27FE6124A14EF75F010A4FF7B
:103F7300AEF0C007C0067FE5124A14EFC4540FFD2C
:103F8300D0E0789AF2D0E04D08F27FE7124A147835
:043F93009CEFF2228B
:0E4EFC00E4FD7FF5124C117DAB7FF4024C11EA
:0A4F52007D057FF2124C11024EFCA7
:044B850078CFEFF204
:104B89007875E2FF124D6C7FF4124B3778CFE2FF54
:104B9900124B37124ED07F05124EDF7FF602473F88
:0C4F24007FF3124A14EF30E002D322C3E6
:014F3000225E
:103E24007FEC124D53B39200124ED03000077875D8
:103E340074ECF280137FEE124D53B39200124ED005
:103E4400300005787574EEF23000097FD0124A1400
:103E5400785CEFF2785CE2FF6003B4FF05E4785C21
:103E6400F222EF6455601C7DB67FE0124C117F9501
:103E7400124EDF7F958007124F2450077F64124E45
:103E8400DF80F4785CE224AA24FD500B24F9600D51
:103E9400240B700F023D9F123B6A024EFC123F231B
:033EA400124F5268
:013EA70022F8
:100FA9007F2E124B8578CBEEF208EFF27F34124B8D
:100FB9008578CDEEF208EFF2785CE26455600302C1
:100FC90013EF78CBE2FE08E2FFE4FCFDC006C007A0
:100FD9007869E2FE08E2FBAA06D007D006C3EF9BB8
:100FE900FFEE9AFEED9400FDEC9400FCC004A90507
:100FF900AA06AB077867E2FE08E2FFE4FCFDD00031
:10100900120487780F1205EC78A31206137871E29F
:10101900FE08E2FFEE3395E0FDFC780B120600C0F6
:1010290004C005C006C0077873E2FE08E2FFEE338C
:1010390095E0FDFC78A3E2FB08E2F908E2FA08E290
:10104900CBF8EB2FFBEA3EFAE93DF9E83CF8D0078B
:10105900D006D005D0041246B978A712061378A78E
:10106900E2FC08E2FD08E2FE08E2FF78A3E2FB08E1
:10107900E2F908E2FA08E2CBF8EB2FFFEA3EFEE9D3
:101089003DFDE83CFC78B312061378B3E2FC08E2B4
:10109900FD08E2FE08E22408FFE43EFEE43DFDE42B
:1010A9003CFC78041205EC785DEEF208EFF278B3B7
:1010B900E2FC08E2FD08E2FE08E22460FFEE34F0FB
:1010C900FEED34FFFDEC34FFFC0812061378B7E29D
:1010D900FC08E2FD08E2FE08E2FFA804A905AA0649
:1010E900FB120487780C1205EC78BB1206137861A1
:1010F900E2FE08E2FFEE3395E0FDFC78B7E2FB087B
:10110900E2F908E2FA08E2CBF8120487C004C00544
:10111900C006C007786DE2FE08E2FFEE3395E0FDF8
:10112900FC78BBE2FB08E2F908E2FA08E2CBF81224
:101139000487D003D002D001D000EF2BFFEE3AFE96
:10114900ED39FDEC38FC780B1205EC78AB1206137F
:10115900785FE2FE08E2FFEE3395E0FDFCE47B04F4
:10116900FAF9F812048778ABE2FB08E2F908E2FA27
:1011790008E2CBF8EB2FFFEA3EFEE93DFDE83CFC37
:10118900EF2402FFE43EFEE43DFDE43CFC7802125C
:1011990005EC78AF1206137863E2FE08E2FFEE333E
:1011A90095E0FDFC78B7E2FB08E2F908E2FA08E20B
:1011B900CBF8120487780D1205EC78A31206137880
:1011C9006BE2FE08E2FFEE3395E0FDFC78BBE2FB43
:1011D90008E2F908E2FA08E2CBF81204877810125B
:1011E90005EC78A712061378A7E2FC08E2FD08E2ED
:1011F900FE08E2FF78A3E2FB08E2F908E2FA08E256
:10120900CBF8EB2FFFEA3EFEE93DFDE83CFCEF247D
:1012190002FFE43EFEE43DFDE43CFC78021205ECED
:1012290078AB12061378ABE2FC08E2FD08E2FE088F
:10123900E22400FFEE3480FEE43DFDE43CFCC00402
:10124900A905AA06AB077865E2FE08E2FFE4FCFD02
:10125900D000120487780F1205D978C312061378C3
:10126900CDE2FE08E2FFE4FCFDC004C005C006C0F3
:101279000778AFE2FC08E2FD08E2FE08E2FBAA06F5
:10128900A905A804D007D006D005D004C3EF9BFF59
:10129900EE9AFEED99FDEC98FCE47B507AC3F9F8DF
:1012A90012048778C712061378C3E2FB08E2F9082B
:1012B900E2FA08E2CBF8C00078C7E2FC08E2FD08D0
:1012C900E2FE08E2FFD0001205127801120600784A
:1012D900BF12061378BFE2FC08E2FD08E2FE08E24D
:1012E900FF78081205ECC004C005C006C00778BF26
:1012F900E2FC08E2FD08E2FE08E2FF78081205ECCC
:10130900D003D002D001D00012048778A3120613AB
:10131900E47FDE7E0BFDFC78A3E2FB08E2F908E23C
:10132900FA08E2CBF812048778101205EC78A312B8
:1013390006137F437EE37DFF7CFF78BFE2FB08E273
:10134900F908E2FA08E2CBF812048778101205ECE2
:1013590078A712061378A7E2FC08E2FD08E2FE0866
:10136900E2FF78A3E2FB08E2F908E2FA08E2CBF827
:10137900EB2FFFEA3EFEE93DFDE83CFCEF24CFFF01
:10138900EE340EFEE43DFDE43CFC78041205EC78F5
:10139900BFE2FB08E2F908E2FA08E2CBF8EB2FFF1B
:1013A900EA3EFEE93DFDE83CFC78AB12061378AB5A
:1013B900E2FC08E2FD08E2FE08E2FFEC1202BC7B57
:1013C900B07A507955784112021F7858120613786D
:1013D90058E2FC08E2FD08E2FE08E2FF1202FA7890
:0613E90056EEF208EFF2DF
:0113EF0022DB
:102F16007FFA12397E78B7120613E4FFFE7D08FCAD
:102F260078B7E2FB08E2F908E2FA08E2CBF8C31246
:102F360005C870030230B0787CE2FE08E2FFE4FCCC
:102F4600FD7801120600AB07AA06A905C004C00554
:102F5600C006C00778B7E2FC08E2FD08E2FE08E218
:102F6600FF78031205D9D003D002D001D000C3EFF9
:102F76009BFFEE9AFEED99FDEC98FCC004A905AA0C
:102F860006AB07787EE2FE08E2FFEE3395E0FDFC35
:102F9600D000120487780B1205D978B3120613787D
:102FA6007CE2FE08E2FFE4FCFDAB07AA06F9C004DA
:102FB600C005C006C00778B7E2FC08E2FD08E2FEDD
:102FC60008E2FF78041205D9D003D002D001D00060
:102FD600C3EF9BFFEE9AFEED99FDEC98FCC004C092
:102FE60005C006C007787CE2FE08E2FFE4FCFDAB04
:102FF60007AA06F9C004C005C006C00778B7E2FCF8
:1030060008E2FD08E2FE08E2FF78041205D9D003C3
:10301600D002D001D000C3EF9BFFEE9AFEED99FDE2
:10302600EC98FCD003D002D001D000120487780CB3
:103036001205D9C004A905AA06AB077880E2FE08E6
:10304600E2FFEE3395E0FDFCD000120487780E1205
:1030560005D978B3E2FB08E2F908E2FA08E2CBF810
:10306600EB2FFFEA3EFEE93DFDE83CFC78781206D0
:1030760013E47F05FEFDFC7878E2FB08E2F908E23E
:10308600FA08E2CBF8120487EF2480FFE43EFEE460
:103096003DFDE43CFC78081205ECE47B0AFAF9F8FD
:0A30A6001246B9785DEEF208EFF271
:0130B00022FD
:100B6100122F167FF712397E78A31206137878E2D6
:100B7100FC08E2FD08E2FE08E2FF78011205ECE460
:100B81002FFFEE3406FEED34FFFDEC34FFFC78A7B9
:100B910012061378A7E2FC08E2FD08E2FE08E2FF74
:100BA10078021205ECC004C005C006C00778A7E2B0
:100BB100FC08E2FD08E2FE08E2FF78021205ECD033
:100BC10003D002D001D000120487780B1205ECC0CB
:100BD10004A905AA06AB07788CE2FE08E2FFEE3312
:100BE10095E0FDFCD00012048778AB12061378ABB8
:100BF100E2FB08E2F908E2FA08E2CBF8C000C00122
:100C0100C002C003788AE2FE08E2FFEE3395E0FD00
:100C1100FC78A7E2FB08E2F908E2FA08E2CBF81255
:100C210004877801120600D003D002D001D000EB76
:100C31002FFFEA3EFEE93DFDE83CFC78AB120613CE
:100C41007888E2FE08E2FFEE3395E0FDFC781012B1
:100C51000600C004C005C006C00778ABE2FC08E28C
:100C6100FD08E2FE08E2FF78021205ECD003D00293
:100C7100D001D000EF2BFFEE3AFEED39FDEC38FC50
:100C810078AB12061378A7E2FC08E2FD08E2FE0841
:100C9100E2FF78021205ECC004C005C006C0077867
:100CA100A7E2FC08E2FD08E2FE08E2FF7802120575
:100CB100ECD003D002D001D000120487780D1205C8
:100CC100ECC004A905AA06AB077886E2FE08E2FF9C
:100CD100EE3395E0FDFCD00012048778031205EC99
:100CE100C004C005C006C0077884E2FE08E2FFEE3A
:100CF1003395E0FDFC78A7E2FB08E2F908E2FA0887
:100D0100E2CBF812048778011205ECD003D002D0AF
:100D110001D000EB2FFFEA3EFEE93DFDE83CFC7807
:100D2100121205EC78A712061378A7E2FC08E2FD7F
:100D310008E2FE08E22400FFEE3480FEE43DFDE41B
:100D41003CFCC004A905AA06AB077882E2FE08E2D2
:100D5100FFE4FCFDD000120487780F1205EC78A7A0
:100D610012061378A7E2FC08E2FD08E2FE08E2FFA2
:100D7100EC4D4E4F7003020FA808E2FC08E2FD089B
:100D8100E2FE08E2FF780C1205ECC004C005C006C3
:100D9100C00778A3E2FB08E2F908E2FA08E2CBF81F
:100DA100C3E49BFFE49AFE741099FDE498FCD00320
:100DB100D002D001D000C3EF9BFFEE9AFEED99FD6A
:100DC100EC98FCE47B357A0CF9F812048778AF12C1
:100DD1000613E4FFFEFD7C8078AFE2FB08E2F90830
:100DE100E2FA08E2CBF8C31205C8503A78AFE2FC48
:100DF10008E2FD08E2FE08E2FF7801120600C004E5
:100E0100C005C006C00778A7E2FC08E2FD08E2FEC3
:100E110008E2FBAA06A905A804D007D006D005D090
:100E210004120512803078A7E2FC08E2FD08E2FE18
:100E310008E2FFC004A905AA06AB0778AFE2FC08E7
:100E4100E2FD08E2FE08E2FFD000120512E47B0297
:100E5100FAF9F812048778AF12061378AFE2FC08AA
:100E6100E2FD08E2FE08E2FF78031205D9C004C0E2
:100E710005C006C00778AFE2FC08E2FD08E2FE0803
:100E8100E2FF78031205D9D003D002D001D00012BD
:100E91000487780D1205D9C004A905AA06AB077805
:100EA10092E2FE08E2FFEE3395E0FDFCD000120471
:100EB10087780C1205EC78A712061378AFE2FC08CC
:100EC100E2FD08E2FE08E2FF78021205D9C004A99A
:100ED10005AA06AB077890E2FE08E2FFEE3395E043
:100EE100FDFCD000120487780D1205EC78AB1206D8
:100EF1001378AFE2FB08E2F908E2FA08E2CBF8C0A6
:100F010000C001C002C00378ABE2FC08E2FD08E2C8
:100F1100FE08E2FF78A7E2FB08E2F908E2FA08E23C
:100F2100CBF8EB2FFFEA3EFEE93DFDE83CFCC004B7
:100F3100A905AA06AB07788EE2FE08E2FFEE33951B
:100F4100E0FDFCD000EB2FFFEA3EFEE93DFDE83C71
:100F5100FC78041205ECD003D002D001D000EB2FB5
:100F6100FFEA3EFEE93DFDE83CFC78AF120613784E
:100F7100AFE2FC08E2FD08E2FE08E2FFE41202BC77
:100F81007BB07A507955784112021F7858120613B6
:100F91007858E2FC08E2FD08E2FE08E2FF1202FADC
:070FA1007856EEF208EFF2B2
:010FA8002226
:10225C00122F167FFD12473FE4FCFD78A3120613E4
:10226C00E4FF7E80FDFC78A3E2FB08E2F908E2FAC9
:10227C0008E2CBF8C31205B270030225247878E289
:10228C00FC08E2FD08E2FE08E22400FFEE34D4FE76
:10229C00ED34FEFDEC34FFFC78A71206137897E2C0
:1022AC00FFE4FCFDFE78A7E2FB08E2F908E2FA087D
:1022BC00E2CBF8120487780B1205ECE42FFFEE3416
:1022CC0080FEE43DFDE43CFCC004C005C006C00734
:1022DC00789CE2FF3395E0FEFDFC78A7E2FB08E278
:1022EC00F908E2FA08E2CBF8120487780A1205EC36
:1022FC00D003D002D001D000120487780A1205EC6A
:10230C00E42FFFE43EFEED3420FDE43CFCC004A9C8
:10231C0005AA06AB077895E2FE08E2FFEE3395E0DE
:10232C00FDFCD000120487E42FFFEE3420FEE43DC8
:10233C00FDE43CFC780E1205ECC004C005C006C0E0
:10234C00077898E2FE08E2FFEE3395E0FDFC781486
:10235C00120600C004C005C006C00778A3E2FC0842
:10236C00E2FD08E2FE08E2FF780E120600D003D070
:10237C0002D001D000C3EF9BFFEE9AFEED99FDEC6D
:10238C0098FCC004C005C006C007789AE2FE08E2BB
:10239C00FFEE3395E0FDFC78A7E2FB08E2F908E2DA
:1023AC00FA08E2CBF8120487A804A905AA06AB0721
:1023BC00D007D006D005D004C3EF9BFFEE9AFEEDFC
:1023CC0099FDEC98FCE42FFFEE3440FEE43DFDE477
:1023DC003CFC780F1205ECD003D002D001D00012D7
:1023EC00048778A712061378A7E2FC08E2FD08E23E
:1023FC00FE08E2FFC004C005C006C00778A7E2FCD7
:10240C0008E2FD08E2FE08E2FF780F1205ECC004BA
:10241C00C005C006C00778A7E2FC08E2FD08E2FE92
:10242C0008E2FF780F1205ECD003D002D001D000E7
:10243C0012048778071205ECC004A905AA06AB079D
:10244C007894E2FFE4FCFDFED000120487780412BD
:10245C0005ECA804A905AA06AB07D007D006D00541
:10246C00D004C3EF9BFFEE9AFEED99FDEC98FC783F
:10247C00A712061378A7E2FCEC335007E4FFFEFD2D
:10248C00FC800D78A7E2FC08E2FD08E2FE08E2FF02
:10249C0078A7120613E4FFFEFD7C1978A7E2FB086F
:1024AC00E2F908E2FA08E2CBF8D31205B24008E4EC
:1024BC00FFFEFD7C19800D78A7E2FC08E2FD08E226
:1024CC00FE08E2FF78A712061378A7E2FC08E2FDEB
:1024DC0008E2FE08E2FF780C1205EC78A71206134E
:1024EC0078A7E2FC08E2FD08E2FE08E2FFEC12022B
:1024FC00BC7B0A7AD77923784112021F78581206CE
:10250C00137858E2FC08E2FD08E2FE08E2FF120232
:08251C00FA7876EEF208EFF206
:012524002294
:034FA900020B6197
:064F9300120B6102225C1A
:104C8300785CE224AA24FD500B24F9600A240B70FB
:0B4C930009020FA9024FA9124F932243
:08000300785DE2FE08E2FF2235
:084F65007856E2FE08E2FF228B
:084F6D007876E2FE08E2FF2263
:054F9E00785CE2FF2237
:0A42CD00C108829D0000829F0000DE
:0D45A00078A9EBF208EAF208E9F208EDF262
:1045AD007F80124D6CE478ADF278ACE2FF08E2FE4C
:1045BD00C39F5023EEFF78ABE22FF218E23400F2E6
:1045CD0018E2FB08E2FA08E2F912037BFF124B37FF
:0A45DD0078ADE204F280D2024ED065
:0D450E0078A9EBF208EAF208E9F208EDF2F4
:10451B007F81124D6CE478ADF278ACE2FF08E2C318
:10452B009F5022D20112498678A9E2FB08E2FA08D1
:10453B00E2F978ADE2F582758300EF1203C878AD2E
:0D454B00E204F280D4C201124986024ED073
:104A400078A5EFF208EBF208EAF208E9F27BFE7AC9
:104A50000079A57D011245A07F19124EDF78A6E2EC
:0C4A6000FB08E2FA08E2F97D0202450EB4
:1045E7007BFE7A0079A37FF3124A4078A3E2FE08A4
:1045F700E2FDEDFFAC06EC1202C17B527AB8792FCF
:104607007843120116E4FBFA7980784712021F7B80
:10461700667A66793B78C2120025E4FBFA79C87896
:07462700421201160202FA23
:104674007BFE7A0079A37FF5124A4078A3E2FE0814
:10468400E2FDEDFFAC06E41202C1E4FBFA79FA782C
:1046940042120116E4FBFA7980784712021FE4FB08
:1046A400FA79C078C0120025E4FBFA79C87842127E
:0546B40001160202FAEC
:0B4F47007F80124D53B39208024ED041
:104C4C001245E77C007D0A120451789DEEF208EFC4
:0C4C5C00F2124674789FEEF208EFF2228C
:084F7500789DE2FE08E2FF2234
:084F7D00789FE2FE08E2FF222A
:034FAC00A2082236
:10001E00020366E86480F8E933E83360110460F0A7
:10002E00ED33EC337009E8FCE9FDEAFEEBFF220448
:10003E0060DED3EB9FEA9EE99DE8C2E78CF0C2F743
:10004E0095F0400CE8CCF8E9CDF9EACEFAEBCFFB0F
:10005E0012033185D0F05804700320D5B3E8047034
:10006E00075002B2D502037092D5EC0460F7E4CCCF
:10007E00C0E0C398F8603B94186008400DD0E0FBD8
:10008E00020348E4FBFAC9FC8028E830E406E4C920
:10009E00FBE4CAFCE830E305E4C9CACBFCE854072C
:1000AE006010F8C3E913F9EA13FAEB13FBEC13FC37
:1000BE00D8F130F52FC3E49CFCEF9BFFEE9AFEEDDA
:1000CE0099FDD0E0FBEF4E4D4C701222DB03020384
:1000DE006DEC2CFCEF33FFEE33FEED33FDED30E730
:1000EE00EB020348EF2BFFEE3AFEED39FDD0E0FBBD
:1000FE0050130BBB0003020370ED13FDEE13FEEF66
:08010E0013FFEC13FC0203488F
:10011600EC4D6011E8497017ED33EC3304600DE4E3
:10012600FCFFFEFD22E933E8330470F80203661291
:10013600033158046009E4CC248150062850090292
:10014600037028400302036DC0E0EB4A7044B98097
:1001560006D0E0FB02035CEF4E701CBD8008EBFF8F
:10016600EAFEE9FD80EBE98DF0A4FEE5F00201FF71
:10017600E9CDF9EAFEEBFFEF89F0A4FCE5F0CE89C4
:10018600F0A42EFFE435F0CD89F0A42DFEE435F081
:100196008067EF4E7005BD80D780C3EF8BF0A4ACAF
:1001A600F0EE8BF0A42CFCE435F0F8EF8AF0A42CEA
:1001B600E5F038FCE433CB8DF0A42CFCE5F03BF8FD
:1001C600EE8AF0A42CFCE5F038F8E433CF89F0A4ED
:1001D6002CFCE5F038CF3400CE89F0A42FFFE5F0F3
:1001E6003EFEE433C98DF0A42EFEE5F039CD8AF04B
:1001F600A42FFFE5F03EFEE43DFD33D0E0FB5007C3
:100206000BBB000F020370EC2CFCEF33FFEE33FE4A
:06021600ED33FD02034878
:10021C00020370EC5D046005E85904700302036688
:10022C00120331580460F6EC4860F2EC7004FDFEE9
:10023C00FF22C860DB2481C85009C39860025006B5
:10024C0002036D9850CAF582E9294B4A7005AB82BE
:10025C0002035C75F0007C1A7880C3EF9BEE9AED7C
:10026C0099400DC3EF9BFFEE9AFEED99FDE842F02D
:10027C00DC23ACF0D0E0FFD0E0FED0E0FDAB822080
:10028C00E7101BEB60BAEC2CFCEF33FFEE33FEED0A
:10029C0033FD020348E803F830E705C0F075F000C1
:1002AC00EF2FFFEE33FEED33FD40B830E7C280AAEE
:1002BC0075F020800E75F010800575F0087D007EBD
:1002CC00007F003392D530D5031205A4EC334010D7
:1002DC00EF33FFEE33FEED33FDEC33FCD5F0ED22C6
:0E02EC00E5F0247EA2D513CC92E7CDCEFF2202
:1002FA00EDD2E7CD33EC3392D524814006E4FFFEFC
:10030A00FDFC22FCE4CFCECDCC24E0501174FF805A
:10031A00EDC3CC13CCCD13CDCE13CECF13CF0470F7
:07032A00F030D5DE0205A44E
:10033100E9D2E7C933E833F892D5EDD2E7CD33EC12
:0703410033FC5002B2D5228B
:10034800EC30E7100FBF000C0EBE00080DBD000416
:100358000BEB6014A2D5EB13FCED92E7FD2274FFC2
:10036800FCFDFEFF22E480F8A2D574FF13FC7D801B
:03037800E480EF2F
:103AEA000217F3E493A3F8E493A34003F68001F2E8
:103AFA0008DFF48029E493A3F85407240CC8C333DD
:103B0A00C4540F4420C8834004F456800146F6DFAB
:103B1A00E4800B010204081020408090427EE47E7B
:103B2A00019360BCA3FF543F30E509541FFEE493A0
:103B3A00A360010ECF54C025E060A840B8E493A367
:103B4A00FAE493A3F8E493A3C8C582C8CAC583CA92
:103B5A00F0A3C8C582C8CAC583CADFE9DEE780BE4A
:0142D70000E6
:10037B00BB010689828A83E0225002E722BBFE0280
:09038B00E32289828A83E49322B3
:10039400BB010989828A83F8E028F022500327F7F9
:1003A40022BBFE05F8E328F3228A838982F8E493CA
:0203B4002822FD
:1003B600BB010689828A83F0225002F722BBFE0126
:0203C600F32220
:1003C800F8BB010DE58229F582E5833AF583E8F06B
:1003D800225006E92582C8F622BBFE05E92582C817
:0203E800F222FF
:1003EA00EF8DF0A4A8F0CF8CF0A428CE8DF0A42E27
:0203FA00FE22E1
:1003FC00BC000BBE0029EF8DF084FFADF022E4CCE5
:10040C00F875F008EF2FFFEE33FEEC33FCEE9DECAD
:10041C00984005FCEE9DFE0FD5F0E9E4CEFD22EDF3
:10042C00F8F5F0EE8420D21CFEADF075F008EF2F3D
:10043C00FFED33FD4007985006D5F0F222C398FD2E
:05044C000FD5F0EA22CB
:10045100C2D5EC30E709B2D5E4C39DFDE49CFCEEC6
:1004610030E715B2D5E4C39FFFE49EFE1203FCC33F
:10047100E49DFDE49CFC80031203FC30D507C3E43A
:060481009FFFE49EFE2235
:10048700E88FF0A4CC8BF0A42CFCE98EF0A42CFC14
:100497008AF0EDA42CFCEA8EF0A4CDA8F08BF0A492
:1004A7002DCC3825F0FDE98FF0A42CCD35F0FCEBF1
:1004B7008EF0A4FEA9F0EB8FF0A4CFC5F02ECD39B6
:0F04C700FEE43CFCEAA42DCE35F0FDE43CFC2223
:1004D60075F008758200EF2FFFEE33FECD33CDCCDD
:1004E60033CCC58233C5829BED9AEC99E582984060
:1004F6000CF582EE9BFEED9AFDEC99FC0FD5F0D63D
:10050600E4CEFBE4CDFAE4CCF9A88222B800C1B966
:100516000059BA002DEC8BF084CFCECDFCE5F0CBA4
:10052600F97818EF2FFFEE33FEED33FDEC33FCEBDD
:1005360033FB10D703994004EB99FB0FD8E5E4F998
:10054600FA227818EF2FFFEE33FEED33FDEC33FC85
:10055600C933C910D7059BE99A4007EC9BFCE99A79
:10056600F90FD8E0E4C9FAE4CCFB2275F010EF2FBE
:10057600FFEE33FEED33FDCC33CCC833C810D707BE
:100586009BEC9AE899400AED9BFDEC9AFCE899F8F9
:0E0596000FD5F0DAE4CDFBE4CCFAE4C8F9228C
:1046B900C2D5E830E70FB2D5E4C39BFBE49AFAE42C
:1046C90099F9E498F8EC30E717B2D51246EF1205DC
:1046D90012E4C39BFBE49AFAE499F9E498F880039D
:1046E90012051230D50DE4C39FFFE49EFEE49DFD43
:0446F900E49CFC221F
:0E05A400C3E49FFFE49EFEE49DFDE49CFC2268
:1005B200EB9FF5F0EA9E42F0E99D42F0EC6480C8C0
:0605C20064809845F02260
:1005C800EB9FF5F0EA9E42F0E99D42F0E89C45F089
:0105D8002200
:1005D900E8600FECC313FCED13FDEE13FEEF13FF00
:0305E900D8F12224
:1005EC00E86010ECA2E713FCED13FDEE13FEEF1325
:0405FC00FFD8F02212
:10060000E8600FEFC333FFEE33FEED33FDEC33FC58
:03061000D8F122FC
:0C061300ECF208EDF208EEF208EFF22223
:10061F00D083D082E493F208740193F208740293AA
:09062F00F208740393F2740473E1
:10063800F5F0C582A4C582C5F0C583A42583F583DA
:01064800228F
:10064900D083D082F8E4937012740193700DA3A340
:1006590093F8740193F5828883E473740293686054
:06066900EFA3A3A380DF54
:06066F008A838982E47316
:00000001FF
